:100000000C9462000C948A000C948A000C948A0070
:100010000C948A000C948A000C948A000C948A0038
:100020000C948A000C948A000C948A000C948A0028
:100030000C948A000C948A000C948A000C948A0018
:100040000C94DD020C948A000C94AB020C94850293
:100050000C948A000C948A000C948A000C948A00F8
:100060000C948A000C948A000000000023002600F3
:10007000290000000008000201000003040700003E
:1000800000000000000000000000250028002B00F8
:1000900000000000240027002A00040404040404D3
:1000A0000404020202020202030303030303010227
:1000B00004081020408001020408102001020408F6
:1000C0001020270311241FBECFEFD8E0DEBFCDBF25
:1000D00011E0A0E0B1E0ECEDF7E002C005900D9278
:1000E000AC32B107D9F721E0ACE2B1E001C01D921A
:1000F000A83DB207E1F710E0C2E6D0E004C02197C6
:10010000FE010E94E103C136D107C9F70E946003D6
:100110000C94EC030C940000CF93DF9390E0FC016F
:10012000E255FF4F249186569F4FFC01849188230E
:10013000C1F090E0880F991FFC01E057FF4FC59177
:10014000D491FC01EA57FF4FA591B4919FB7F89461
:100150008881E22FE0958E2388838C91E823EC93AD
:100160009FBFDF91CF910895AF92BF92CF92DF9260
:10017000EF92FF920F931F93CF93DF936C017B015C
:100180008B01040F151FEB015E01AE18BF08C017ED
:10019000D10759F06991D601ED91FC910190F08160
:1001A000E02DC6010995892B79F7C501DF91CF9123
:1001B0001F910F91FF90EF90DF90CF90BF90AF9085
:1001C0000895FC01538D448D252F30E0842F90E05D
:1001D000821B930B541710F0CF9608950197089542
:1001E000FC01918D828D981761F0A28DAE0FBF2F0B
:1001F000B11D5D968C91928D9F5F9F73928F90E061
:1002000008958FEF9FEF0895FC01918D828D9817CF
:1002100031F0828DE80FF11D858D90E008958FEF0C
:100220009FEF0895FC01918D228D892F90E0805CD5
:100230009F4F821B91098F739927089585E391E061
:100240000E94120121E0892B09F420E0822F0895F9
:1002500080E090E0892B29F00E941E0181110C940E
:1002600000000895FC01A48DA80FB92FB11DA35A59
:10027000BF4F2C91848D90E001968F739927848FC6
:10028000A689B7892C93A089B1898C9183708064E9
:100290008C93938D848D981306C00288F389E02D8A
:1002A00080818F7D80830895EF92FF920F931F933B
:1002B000CF93DF93EC0181E0888F9B8D8C8D981319
:1002C0001AC0E889F989808185FF15C09FB7F89425
:1002D000EE89FF896083E889F98980818370806471
:1002E00080839FBF81E090E0DF91CF911F910F91BC
:1002F000FF90EF900895F62E0B8D10E00F5F1F4FCB
:100300000F731127E02E8C8D8E110CC00FB607FCD9
:10031000FACFE889F989808185FFF5CFCE010E9467
:100320003201F1CFEB8DEC0FFD2FF11DE35AFF4FA2
:10033000F0829FB7F8940B8FEA89FB8980818062F5
:10034000CFCFCF93DF93EC01888D8823B9F0AA89B2
:10035000BB89E889F9898C9185FD03C0808186FD80
:100360000DC00FB607FCF7CF8C9185FFF2CF8081CF
:1003700085FFEDCFCE010E943201E9CFDF91CF9111
:10038000089590E0FC01EE58FF4F2491FC01E255E6
:10039000FF4F3491FC01E656FF4FE491EE23C1F18B
:1003A000222339F02330E9F090F4213001F122309A
:1003B00011F1F0E0EE0FFF1FE859FF4FA591B49146
:1003C000EC91E32381E090E029F580E00895273067
:1003D000A9F02830C9F0243061F7809180008F7D2A
:1003E00003C0809180008F7780938000E2CF84B536
:1003F0008F7784BDDECF84B58F7DFBCF8091B00039
:100400008F778093B000D5CF8091B0008F7DF9CFEA
:1004100080E090E008958E3008F08E508770806400
:1004200080937C0080917A00806480937A00809130
:100430007A0086FDFCCF8091780090917900089534
:100440003FB7F8948091310190913201A09133012E
:10045000B091340126B5A89B05C02F3F19F0019635
:10046000A11DB11D3FBFBA2FA92F982F8827BC010E
:10047000CD01620F711D811D911D42E0660F771F36
:10048000881F991F4A95D1F708958F929F92AF9236
:10049000BF92CF92DF92EF92FF926B017C010E949C
:1004A00020024B015C01C114D104E104F104B9F054
:1004B0000E942002681979098A099B09683E7340E5
:1004C0008105910580F321E0C21AD108E108F10805
:1004D00088EE880E83E0981EA11CB11CE4CFFF902B
:1004E000EF90DF90CF90BF90AF909F908F90089546
:1004F000FC0101900020E9F73197AF01481B590B2F
:10050000BC0185E391E00C94B4001F920F920FB6EA
:100510000F9211242F933F934F935F936F937F9389
:100520008F939F93AF93BF93EF93FF9385E391E0F6
:100530000E943201FF91EF91BF91AF919F918F91F6
:100540007F916F915F914F913F912F910F900FBECF
:100550000F901F9018951F920F920FB60F921124B3
:100560002F938F939F93EF93FF93E0914501F09129
:1005700046018081E0914B01F0914C0182FD1BC04E
:10058000908180914E018F5F8F7320914F01821770
:1005900041F0E0914E01F0E0EB5CFE4F958F8093CF
:1005A0004E01FF91EF919F918F912F910F900FBE70
:1005B0000F901F9018958081F4CF1F920F920FB665
:1005C0000F9211242F933F938F939F93AF93BF93D9
:1005D00080912D0190912E01A0912F01B0913001B9
:1005E00030912C0123E0230F2D3758F50196A11DE2
:1005F000B11D20932C0180932D0190932E01A09387
:100600002F01B09330018091310190913201A0917E
:100610003301B09134010196A11DB11D80933101C8
:1006200090933201A0933301B0933401BF91AF9105
:100630009F918F913F912F910F900FBE0F901F9020
:10064000189526E8230F0296A11DB11DD2CFE5E330
:10065000F1E01382128288EE93E0A0E0B0E08483A0
:100660009583A683B78384E091E09183808385ECB2
:1006700090E09587848784EC90E09787868780EC6C
:1006800090E0918B808B81EC90E0938B828B82EC5D
:1006900090E0958B848B86EC90E0978B868B118E07
:1006A000128E138E148EE2EDF1E01182108287E03B
:1006B00090E09383828380E197E295838483089519
:1006C000789484B5826084BD84B5816084BD85B52D
:1006D000826085BD85B5816085BDEEE6F0E08081F4
:1006E00081608083E1E8F0E0108280818260808315
:1006F000808181608083E0E8F0E080818160808398
:10070000E1EBF0E0808184608083E0EBF0E08081C9
:1007100081608083EAE7F0E080818460808380816B
:100720008260808380818160808380818068808313
:100730001092C100E5E3F1E0A089B18982E08C93D9
:10074000A485B5851C92A685B7858FEC8C93108EF9
:10075000A489B58986E08C93A289B3898C91806144
:100760008C93A289B3898C9188608C93A289B38978
:100770008C9180688C930288F389E02D80818F7D35
:10078000808382E191E00E94780289E291E00E94F8
:100790007802C2EDD1E06C817D81072E000C880BC0
:1007A000990B0E94450288810E940B028A810E9457
:1007B0008C008A810E94C10188810E940B020E94E4
:1007C000E703EE0FFF1F0590F491E02D099481E0FF
:0C07D00090E0F8940C94EC03F894FFCF38
:1007DC00000000005401B400E100A1011201F0007E
:1007EC0004014761732073656E736F7220776172B9
:0C07FC006D696E6720757021000D0A0009
:00000001FF
