:100000000C9446010C9490190C9469190C946E018F
:100010000C946E010C946E010C946E010C946E01A4
:100020000C946E010C946E010C946E010C946E0194
:100030000C946E010C946E010C946E010C946E0184
:100040000C941F190C946E010C94ED180C94C718A5
:100050000C946E010C946E010C946E010C946E0164
:100060000C94B7190C946E0107634236B79BD8A75E
:100070001A39685618AEBAAB558C1D3CB7CC5763CD
:10008000BD6DEDFD753EF6177231BF000000803F7B
:1000900008000000BE922449123EABAAAA2ABECD97
:1000A000CCCC4C3E00000080BEABAAAAAA3E000009
:1000B0000000BF000000803F000000000008417801
:1000C000D3BB4387D1133D190E3CC3BD4282AD2B38
:1000D0003E68EC8276BED98FE1A93E4C80EFFFBE30
:1000E00001C4FF7F3F00000000004E414E494E49D1
:1000F0005459494E46CDCCCC3D0AD7233C17B7D1F5
:100100003877CC2B329595E6241FB14F0A0000209A
:10011000410000C84200401C4620BCBE4CCA1B0E19
:100120005AAEC59D7400407A10F35A00A0724E1862
:10013000090010A5D4E80000E87648170000E40B99
:1001400054020000CA9A3B000000E1F5050000805F
:10015000969800000040420F000000A086010000B9
:1001600000102700000000E8030000000064000009
:100170000000000A00000000000100000000002C48
:1001800076D888DC674F0823DFC1DFAE59E1B1B70D
:1001900096E5E3E453C63AE651997696E8E6C284DA
:1001A00026EB898C9B62ED407C6FFCEFBC9C9F40F2
:1001B000F2BAA56FA5F490055A2AF75C936B6CF917
:1001C000676DC11BFCE0E40D47FEF520E6B500D0ED
:1001D000ED902E0300943577050080841E08000002
:1001E000204E0A000000C80C333333330F986E12D0
:1001F000831141EF8D2114893BE65516CFFEE6DBD6
:1002000018D1844B381BF77C1D901DA4BBE424201F
:100210003284725E228100C9F124ECA1E53D277C85
:100220003C3E5E2B3D3F2F5B5D3B2C2A225C000059
:10023000000000250028002B0000000000230026FD
:1002400000290000000000240027002A0001020409
:100250000810204080010204081020010204081048
:10026000200404040404040404020202020202033F
:10027000030303030300000008000201000003045D
:1002800007000000000000000000D61A11241FBE65
:10029000CFEFD8E0DEBFCDBF12E0A0E0B1E0ECE5EB
:1002A000F0E602C005900D92A836B107D9F726E016
:1002B000A8E6B2E001C01D92AF3EB207E1F711E03F
:1002C000C6E4D1E004C02197FE010E94182EC53477
:1002D000D107C9F70E94611B0C942C300C940000CC
:1002E00008950895AF92BF92CF92DF92EF92FF925E
:1002F0000F931F93CF93DF936C017B018B01040F4E
:10030000151FEB015E01AE18BF08C017D10759F0E9
:100310006991D601ED91FC910190F081E02DC6012B
:100320000995892B79F7C501DF91CF911F910F9125
:10033000FF90EF90DF90CF90BF90AF900895FC01B9
:10034000538D448D252F30E0842F90E0821B930B3A
:10035000541710F0CF96089501970895FC01918DE0
:10036000828D981761F0A28DAE0FBF2FB11D5D96E3
:100370008C91928D9F5F9F73928F90E008958FEF85
:100380009FEF0895FC01918D828D981731F0828D39
:10039000E80FF11D858D90E008958FEF9FEF089590
:1003A000FC01918D228D892F90E0805C9F4F821BF4
:1003B00091098F73992708958EE695E00E94D001E8
:1003C00021E0892B09F420E0822F089580E090E05D
:1003D000892B29F00E94DC0181110C940000089502
:1003E000FC01A48DA80FB92FB11DA35ABF4F2C91AA
:1003F000848D90E001968F739927848FA689B789A1
:100400002C93A089B1898C91837080648C93938D97
:10041000848D981306C00288F389E02D80818F7D3A
:1004200080830895EF92FF920F931F93CF93DF93F2
:10043000EC0181E0888F9B8D8C8D98131AC0E88920
:10044000F989808185FF15C09FB7F894EE89FF89EF
:100450006083E889F98980818370806480839FBF8D
:1004600081E090E0DF91CF911F910F91FF90EF908D
:100470000895F62E0B8D10E00F5F1F4F0F7311279D
:10048000E02E8C8D8E110CC00FB607FCFACFE889D8
:10049000F989808185FFF5CFCE010E94F001F1CF6F
:1004A000EB8DEC0FFD2FF11DE35AFF4FF0829FB74C
:1004B000F8940B8FEA89FB8980818062CFCFCF933C
:1004C000DF93EC01888D8823B9F0AA89BB89E8897C
:1004D000F9898C9185FD03C0808186FD0DC00FB622
:1004E00007FCF7CF8C9185FFF2CF808185FFEDCFA0
:1004F000CE010E94F001E9CFDF91CF9108958330C2
:1005000081F028F4813099F08230A9F00895873085
:10051000A9F08830C9F08430B1F4809180008F7DDB
:1005200003C0809180008F7780938000089584B508
:100530008F7784BD089584B58F7DFBCF8091B00007
:100540008F778093B00008958091B0008F7DF9CFB0
:10055000CF93DF93282F30E0F901EB58FD4F8491C2
:10056000F901E35BFD4FD491F901EF59FD4FC491BF
:10057000CC23A1F081110E947F02EC2FF0E0EE0F5E
:10058000FF1FE75CFD4FA591B491EC91ED2381E055
:1005900090E009F480E0DF91CF91089580E090E051
:1005A000FACF1F93CF93DF93282F30E0F901EB5858
:1005B000FD4F8491F901E35BFD4FD491F901EF59AF
:1005C000FD4FC491CC23A9F0162F81110E947F0208
:1005D000EC2FF0E0EE0FFF1FE15DFD4FA591B49110
:1005E0008FB7F894EC91111108C0D095DE23DC93FD
:1005F0008FBFDF91CF911F910895DE2BF8CFCF935E
:10060000DF9390E0FC01E35BFD4F24918F599D4FF8
:10061000FC0184918823D1F090E0880F991FFC01A0
:10062000ED5BFD4FA591B491FC01E15DFD4FC591DE
:10063000D49161110EC09FB7F8948C91E22FE09590
:100640008E238C932881E223E8839FBFDF91CF9193
:1006500008958FB7F894EC91E22BEC938FBFF6CF0F
:100660008E3008F08E508770806480937C0080917B
:100670007A00806480937A0080917A0086FDFCCFB6
:10068000809178009091790008953FB7F894809117
:10069000B8029091B902A091BA02B091BB0226B5FE
:1006A000A89B05C02F3F19F00196A11DB11D3FBFAA
:1006B000BA2FA92F982F8827BC01CD01620F711D79
:1006C000811D911D42E0660F771F881F991F4A9573
:1006D000D1F708958F929F92AF92BF92CF92DF92FF
:1006E000EF92FF926B017C010E9445034B015C017C
:1006F000C114D104E104F104B9F00E944503681962
:1007000079098A099B09683E73408105910580F348
:1007100021E0C21AD108E108F10888EE880E83E0D2
:10072000981EA11CB11CE4CFFF90EF90DF90CF90FA
:10073000BF90AF909F908F9008952FB7F8946091DD
:10074000B4027091B5028091B6029091B7022FBFAA
:10075000089508958FB7F8948091AD028FBF0895E2
:1007600061E0FC0184810E94D1028091AC02811180
:100770001092AC0208958EBD00000DB407FEFDCFAF
:100780008EB508958FEF0C94BB030F931F93CF93F7
:10079000DF93EC010E949D038B010E94C2038F3FF7
:1007A00069F00E949D03601B710B6C177D07A8F315
:1007B00080E0DF91CF911F910F91089581E0F9CFF3
:1007C0008CBD9DBD0895CF93DF93EC018091AC0269
:1007D000811109C081E08093AC0280910B06909159
:1007E0000C060E94E00360E08C81DF91CF910C94B5
:1007F000D1028F929F92AF92BF92FF920F931F935D
:10080000CF93DF93EC01F62E49015A018E818823A4
:1008100089F08F8198859C012F5F3F4F38872F8308
:100820008230924018F40E94C203F3CFCE010E949E
:10083000B0031E82CE010E94E3038CE291E00E948D
:10084000C5038F2D80640E94BB0308E110E0D50131
:10085000C401002E04C0B695A795979587950A9474
:10086000D2F70E94BB0308501109083F8FEF180709
:1008700071F785E9FF2021F028E087E8F2128FEF79
:100880000E94BB0310E00E94C2038A8787FF04C056
:100890001F3F11F01F5FF7CFDF91CF911F910F9195
:1008A000FF90BF90AF909F908F900895AF92BF92AE
:1008B000CF92DF92EF92FF920F931F93CF93DF932C
:1008C000EC016901C801820F931F8130924050F5FD
:1008D0008E81882379F088819981AA81BB818417D0
:1008E0009507A607B70731F48F819885C816D906F2
:1008F00008F042C0488359836A837B838B858330A9
:1009000039F089E0440F551F661F771F8A95D1F78C
:100910009A01AB0161E1CE010E94F903882389F0BD
:1009200083E08D83CE010E94B00380E0DF91CF9100
:100930001F910F91FF90EF90DF90CF90BF90AF90FD
:1009400008950E949D035B010E94C2038A878F3F26
:1009500069F40E949D036A197B096D327140A0F30E
:100960008FE08D83CE010E94B003DCCF8E3F89F4EF
:1009700018861F8281E08E838F8198858C159D0556
:1009800050F40E94C2038F819885019698878F83C7
:10099000F3CF8DE0E6CF6701E00EF11E0E94C203A7
:1009A000F60181936F01EE15FF05C1F78F819885E0
:1009B000080F191F18870F838985882319F00115DF
:1009C0001240A0F08E81882389F08F8198859C0148
:1009D0002F5F3F4F38872F838230924018F40E9458
:1009E000C203F3CFCE010E94B0031E8281E09ECFEE
:1009F000CF92DF92EF92FF920F93CF93DF93EC01B0
:100A0000690182E1411551056105710599F08B85F8
:100A1000833039F089E0440F551F661F771F8A9590
:100A2000D1F79A01AB0168E1CE010E94F903882356
:100A300019F084E08D832DC08EEF0E94BB037601F8
:100A40008EEFD81AF70181917F010E94BB03EC144D
:100A5000FD04C1F78FEF0E94BB038FEF0E94BB0321
:100A60000E94C2038A878F71853071F4011116C00C
:100A7000CE010E94B00381E0DF91CF910F91FF90F2
:100A8000EF90DF90CF90089581E18D83CE010E9499
:100A9000B003CE010E94B00380E0EECF88E592E083
:100AA0000E94C503811102C085E1C4CF20E030E07F
:100AB000A9016DE0CE010E94F903882311F084E1C1
:100AC000B9CF0E94C2038111FACFD2CF0F934091C8
:100AD000AF025091B0026091B1027091B202411523
:100AE00051056105710599F0082F2EEF32E08091D4
:100AF000FC029091FD020E94F804882349F01092B4
:100B0000AF021092B0021092B1021092B20281E0D4
:100B10000F9108950F93CF93C82F8091AE0281114A
:100B200005C0C1E08C2FCF910F9108954091000135
:100B30005091010160910201709103010C2F2EEF81
:100B400032E08091FC029091FD020E94F804811134
:100B500002C0C0E0E7CFCC2321F381E00E9466050C
:100B60008823B9F31092AE02DDCF8F929F92AF929D
:100B7000BF92EF92FF920F931F93CF934B015C01B3
:100B8000C42F8091000190910101A0910201B091C8
:100B9000030188159905AA05BB0551F181E00E9462
:100BA0008A0581110BC080E0CF911F910F91FF90BA
:100BB000EF90BF90AF909F908F9008958EEFE82EAA
:100BC00082E0F82E00E012E030E020E0B501A40160
:100BD0008091FC029091FD020E945604882319F333
:100BE0008092000190920101A0920201B092030153
:100BF0004091AE024C2B4093AE0281E0D5CFCF9313
:100C0000DF93EC016E857F858889998941E00E9498
:100C1000B505882351F08A8920E2829FC001112402
:100C200082509D4FDF91CF91089590E080E0FACF00
:100C30008F929F92AF92BF92CF92DF92EF92FF92EC
:100C4000CF932DE036E03093FD022093FC02882301
:100C500009F46DC040E060E070E0CB010E94B50592
:100C600081110BC080E0CF91FF90EF90DF90CF908B
:100C7000BF90AF909F908F9008958091BC048F7724
:100C800089F78091C8049091C904A091CA04B091D9
:100C9000CB0484369105A105B10520F3C090C404AE
:100CA000D090C504E090C604F090C704C114D104EC
:100CB000E104F104B9F240E0C701B6010E94B505B4
:100CC000882381F28091090390910A038115924053
:100CD00049F6A0910E03AA2329F260910C037091AA
:100CE0000D036115710509F4BDCF20910B0322237B
:100CF00009F4B8CFA0932B0620931D0690E080E066
:100D000030E0E1E0F0E0C82FAF01082E02C0440F50
:100D1000551F0A94E2F72417350769F041E0480FA0
:100D200001968930910579F7409326069BCFC12C17
:100D3000D12C7601C0CF80932606209114033091E8
:100D4000150350E040E02115310541F420912203C4
:100D500030912303409124035091250320931E06D4
:100D600030931F06409320065093210646015701F9
:100D7000860E971EA11CB11C80922C0690922D0607
:100D8000A0922E06B0922F06E0910F03F09110036F
:100D9000F0933206E0933106B0E00E94BA2ADC01FB
:100DA000CB01880D991DAA1DBB1D8093330690931E
:100DB0003406A0933506B093360625E0EE0FFF1FEC
:100DC0002A95E1F7E150FE4FEF2FFF27E6958E0FB2
:100DD0009F1FA11DB11D8093270690932806A09305
:100DE0002906B0932A068090110390901203B12C2B
:100DF000A12C8114910441F480901E0390901F0354
:100E0000A0902003B0902103C81AD90AEA0AFB0A6D
:100E1000C80CD91CEA1CFB1C04C0F694E794D794B8
:100E2000C794CA95D2F7C0922206D0922306E092C8
:100E30002406F092250685EFC8168FE0D806E10457
:100E4000F10428F48CE08093300681E00CCF80E13F
:100E500025EFC2162FEFD206E104F104A0F3809132
:100E60002A0390912B03A0912C03B0912D03809322
:100E7000330690933406A0933506B093360680E28D
:100E8000E2CF4F925F926F927F928F929F92AF923A
:100E9000BF92CF92DF92EF92FF920F931F93CF9367
:100EA000DF93EC01423051056105710590F480E05B
:100EB000DF91CF911F910F91FF90EF90DF90CF9036
:100EC000BF90AF909F908F907F906F905F904F906A
:100ED000089589859A85AB85BC850196A11DB11DB4
:100EE00084179507A607B70710F3CB88DC88ED8831
:100EF000FE888F89803109F042C0BB27A72F962F2B
:100F0000852F480159012A013B01C80ED91EEA1E4E
:100F1000FB1E8091000190910101A0910201B0910E
:100F20000301C816D906EA06FB0699F58F898031B8
:100F3000C1F5B301A201552766277727440F551F36
:100F400042505D4FFA01918280828091AE028160B1
:100F50008093AE028A89823080F08D819E81AF813C
:100F6000B8858C0D9D1DAE1DBF1D8093AF02909363
:100F7000B002A093B102B093B20281E099CFDB013D
:100F8000CA01E7E0B695A79597958795EA95D1F7B9
:100F9000B8CF40E0C701B6010E94B5058111C6CFA8
:100FA00086CFB301A2014F77552766277727440FD5
:100FB000551F440F551F42505D4FFA0180829182A8
:100FC000A282B382C2CF8F929F92AF92BF92CF92F2
:100FD000DF92EF92FF920F931F93CF93DF93FC0169
:100FE00081859285A385B4850196A11DB11D8417C5
:100FF0009507A607B70770F480E0DF91CF911F91A6
:101000000F91FF90EF90DF90CF90BF90AF909F90A7
:101010008F90089583889488A588B68887898031C1
:1010200089F5BB27A72F962F852FE9016A017B0140
:101030008F01BC01CD01680D791D8A1D9B1D80901B
:10104000000190900101A0900201B090030186166A
:101050009706A806B90601F5F8018789803111F5D0
:10106000DD24EE24FF24F601EE0FFF1FE250FD4FBA
:1010700080819181B0E0A0E088839983AA83BB83BB
:1010800081E0BBCFDB01CA01C7E0B695A795979574
:101090008795CA95D1F7C9CF40E00E94B505811167
:1010A000DBCFAACFE894C7F8DD24EE24FF24F601B5
:1010B000EE0FFF1FEE0FFF1FE250FD4F8081918169
:1010C000A281B381BF70D8CF4F925F926F927F920F
:1010D000AF92BF92CF92DF92EF92FF920F931F9346
:1010E000CF93DF9300D000D0CDB7DEB78C0149831A
:1010F0005A836B837C835901C12CD12C7601412CFE
:1011000082E0582E612C712C49815A816B817C813F
:101110009E012F5F3F4FC8010E94E307882339F1EA
:10112000F8018585A301920104C0220F331F441FDB
:10113000551F8A95D2F7DA01C901C80ED91EEA1ED9
:10114000FB1E49815A816B817C818789803111F135
:1011500088EF9FEFAFEFBFE0481759076A077B079B
:1011600098F2F501C082D182E282F38281E00F9091
:101170000F900F900F90DF91CF911F910F91FF90E3
:10118000EF90DF90CF90BF90AF907F906F905F9087
:101190004F90089588EF9FEFA0E0B0E0DDCFCF93B0
:1011A000DF93FC012581222321F080E0DF91CF91A4
:1011B0000895EC0180913006803159F582E08583F5
:1011C000178A108E118E128E809131069091320600
:1011D000B0E0A0E025E0880F991FAA1FBB1F2A9549
:1011E000D1F7838B948BA58BB68B89E196E09C8F8E
:1011F0008B8F81E08C831E821F82188619861A8647
:101200001B861C861D861E861F86188A198A1A8AC6
:10121000CDCF803251F683E08583409133065091E3
:1012200034066091350670913606478B508F618F7A
:10123000728F9F012D5E3F4F89E196E00E94640806
:101240008111D3CFB2CF8F929F92AF92BF92CF92A4
:10125000DF92EF92FF920F931F93CF93DF93EC01F6
:101260008D8181110EC080E0DF91CF911F910F9190
:10127000FF90EF90DF90CF90BF90AF909F908F90B6
:1012800008950B891C892D893E89041715072607A7
:10129000370748F34A015B01823031F48A869B8626
:1012A000AC86BD8681E0E0CF81149104A104B10435
:1012B00049F41E821F82188619861A861B861C8690
:1012C0001D86F0CF0A851B852C853D85EB8DFC8D19
:1012D000858590E00996B901A8014150510961093D
:1012E0007109082E04C076956795579547950A941D
:1012F000D2F775016401E1E0CE1AD108E108F108E6
:1013000004C0F694E794D794C7948A95D2F7C4168C
:10131000D506E606F70620F0012B022B032B11F56C
:101320008F89988DA98DBA8D8E839F83A887B98761
:101330008E010A5F1F4FC114D104E104F10409F4C6
:10134000ADCF4E815F816885798598018B8D9C8DAD
:101350000E94E30791E0C91AD108E108F108811160
:10136000EACF81CFC41AD50AE60AF70AE1CF3F9245
:101370004F925F926F927F928F929F92AF92BF92A5
:10138000CF92DF92EF92FF920F931F93CF93DF9351
:10139000CDB7DEB72C970FB6F894DEBF0FBECDBF2A
:1013A0005C01DC015B968D909C905C9716964D904D
:1013B0005D906D907C901997411451046104710403
:1013C00009F468C0BFEF4B1A5B0A6B0A7B0A312C29
:1013D000F40181859285A385B4859C01AD012F5FC1
:1013E0003F4F4F4F5F4F29873A874B875C87730189
:1013F00062011D821E821F821886F40181859285FA
:10140000A385B4852D813E814F81588528173907E2
:101410004A075B0708F056C089859A85AB85BC856D
:101420008C159D05AE05BF0550F482E0C82ED12C69
:10143000E12CF12C92E0492E512C612C712C9E0153
:101440002F5F3F4FB701A601C4010E94E307882325
:10145000C9F189819A81AB81BC81892B8A2B8B2B25
:1014600009F1260137019FEF491A590A690A790AD9
:101470002D813E814F8158852F5F3F4F4F4F5F4FEA
:101480002D833E834F8358873FEFC31AD30AE30A65
:10149000F30AB3CFF401408051806280738033241B
:1014A000339496CFC414D504E604F70409F70FEF7C
:1014B0001FEF2FEF3FE0B701A601C4010E944107D3
:1014C000811119C080E02C960FB6F894DEBF0FBED4
:1014D000CDBFDF91CF911F910F91FF90EF90DF90E3
:1014E000CF90BF90AF909F908F907F906F905F90C4
:1014F0004F903F900895D50116964D915D916D9155
:101500007C911997411551056105710539F09701D5
:101510008601C4010E9441078823A1F2D5011696D5
:10152000CD92DD92ED92FC921997332051F0D701C4
:10153000C6010196A11DB11DF40180839183A28390
:10154000B383F5018789908DA18DB28D892B8A2B6C
:101550008B2B39F48481C78AD08EE18EF28E80681D
:101560008483F50184818062848381E0ACCF1F9302
:10157000CF93DF93FC012581222371F1162FEC011B
:10158000848187FF1EC0CF010E94FF05FC01892BCB
:1015900019F18D81823040F48B899C89AD89BE8997
:1015A000848F958FA68FB78F8F89988D938F828F19
:1015B0008F89988DA98DBA8DB58BA48B8C818F77EF
:1015C0008C83111103C08C818F7E8C83812FDF91DE
:1015D000CF911F910C948A0580E0DF91CF911F91EC
:1015E0000895FF920F931F93CF93DF93EC018D81AA
:1015F000813041F090E080E0DF91CF911F910F9119
:10160000FF9008958C8181FFF5CF82FD1BC0009172
:10161000FC021091FD02C8010E94E3030E94C20374
:10162000F82EC8010E94B0038FEFF812E3CF8C812F
:1016300085FF1BC060E0CE010E94B70A8C818F7DC0
:101640008C83D8CF4B895C896D897E898A859B85FF
:10165000AC85BD8584179507A607B707C1F2CE01F3
:101660000E9423098111D3CFC5CF4091AF02509181
:10167000B0026091B1027091B202452B462B472B0C
:1016800021F080E00E946605B5CF80618C832A85B9
:101690003B85317080E092E0821B930BADCFCF93FE
:1016A000DF93EC0161E00E94B70A882311F01D82EC
:1016B00081E0DF91CF9108952F923F924F925F92F8
:1016C0006F927F928F929F92AF92BF92CF92DF9252
:1016D000EF92FF920F931F93CF93DF9300D000D030
:1016E0001F92CDB7DEB77C015B01342E5D83DC0138
:1016F00015968C911597813009F0CEC014962C90D8
:1017000021FECAC022FCB4C0C32CDD8022947FE03D
:1017100027222094B22DB1702B2ED7011A964D910D
:101720005D916D917C911D97C114D10409F428C17C
:101730005B968D919C915C97FC0174807A948A01F0
:101740009B0169E036952795179507956A95D1F71E
:1017500070228A011170711020C001151105E9F481
:1017600016964D915D916D917C911997411551059A
:101770006105710509F099C057968D919D910D9065
:10178000BC91A02D0097A105B10509F0B0C0C7011B
:101790000E94B709882309F47FC080E092E0801B93
:1017A000910B46018C159D0508F44C01D7015B9601
:1017B0004D915C915C9716968D919D910D90BC9189
:1017C000A02D0297A109B109FA01258504C0880F4F
:1017D000991FAA1FBB1F2A95D2F746855785608996
:1017E0007189840F951FA61FB71F9C01AD01270D9E
:1017F000311D411D511D29013A01811432E093062A
:1018000009F07BC08091000190910101A09102013B
:10181000B091030184159505A605B70559F48FEF1E
:101820009FEFDC018093000190930101A0930201DE
:10183000B0930301022D9501B301A2018091FC0236
:101840009091FD020E94F804882331F19EEFB91AAD
:10185000C818D908F70182859385A485B585880DB8
:10186000991DA11DB11D82879387A487B58755CF88
:10187000F701438954896589768982859385A48592
:10188000B585481759076A077B0709F43DCFC7019B
:101890000E942309811138CF81E090E0D70113968F
:1018A0009C938E93129780E007C09E012F5F3F4F5D
:1018B0000E94E307811102C090E079C089819A817A
:1018C000AB81BC81F701238D348DF901278948EF65
:1018D0005FEF60E070E0203121F048EF5FEF6FEFE5
:1018E0007FE084179507A607B70708F050CFF701E8
:1018F00086839783A087B18750CF0115110599F58D
:10190000D7011A964D915D916D917C911D975396DB
:101910008D919D910D90BC91A02D481759076A0794
:101920007B0708F181E00E948A05882309F4B4CF7F
:1019300040920001509201016092020170920301F5
:101940008091AE0281608093AE02C80182509D4FAB
:10195000D5019C01280D391DFC012E173F0759F0B8
:101960004D914193FACF41E0C301B2010E94B50508
:101970008111EBCF91CF281B390BA20EB31E68CF7C
:10198000F70183899489A589B68984179507A607E5
:10199000B70738F48481438B548B658B768B8068D2
:1019A0008483F701848183FD1AC0832D9D810F906C
:1019B0000F900F900F900F90DF91CF911F910F918B
:1019C000FF90EF90DF90CF90BF90AF909F908F905F
:1019D0007F906F905F904F903F902F90089561E0BF
:1019E000C7010E94B70A882309F456CFDECFCF93F0
:1019F000DF931F92CDB7DEB7698341E050E0BE01AF
:101A00006F5F7F4F0E945C0B0F90DF91CF91089525
:101A1000FC01DB0112968D919C9113979383828335
:101A200084E291E09183808314968C91149784834F
:101A300015968C911597858316964D915D916D91B4
:101A40007C91199746835783608771871A964D91C9
:101A50005D916D917C911D9742875387648775874F
:101A60001E964D915D916D917C9151974687578758
:101A7000608B718B52968C915297828B53964D91BD
:101A80005D916D917C915697438B548B658B768BD2
:101A900057964D915D916D917C915A97478B508FE0
:101AA000618F728F5B968D919C91948F838F089537
:101AB0000895FC01818D928D009719F061E00C94DE
:101AC000B70A0895DC015996ED91FC913097B9F071
:101AD00083899489A589B6894285538564857585EE
:101AE000841B950BA60BB70B811520E89207A10567
:101AF000B10538F08FEF9FE7A0E0B0E0089590E0E7
:101B000080E00895DC0159968D919C91009739F001
:101B1000DC01ED91FC910480F581E02D099490E0C9
:101B200080E00895CF93DF93EC01E98DFA8D309733
:101B300049F481E090E09B838A8390E080E0DF912C
:101B4000CF91089513821282898D9A8D0E945C0B29
:101B5000E98DFA8D22813381232B59F7F0CFCF9372
:101B6000DF931F92CDB7DEB76983DC01ED91FC9165
:101B70000280F381E02D41E050E0BE016F5F7F4FB6
:101B800009950F90DF91CF9108952F923F924F9238
:101B90005F926F927F928F929F92AF92BF92CF92FD
:101BA000DF92EF92FF920F931F93CF93DF9300D0BA
:101BB0001F92CDB7DEB7FC018581811118C08FEF70
:101BC0009FEF0F900F900F90DF91CF911F910F918A
:101BD000FF90EF90DF90CF90BF90AF909F908F904D
:101BE0007F906F905F904F903F902F9008958481E9
:101BF00080FFE5CF438954896589768982859385FD
:101C0000A485B585312C212C481759076A077B0715
:101C100019F022242394312C6F012101CE01019669
:101C20003C01DF011696BB83AA834114510409F4D9
:101C3000C5C0F60142855385648575854A01F1E08A
:101C40009F22D6015B968D919C915C978A019B01A6
:101C5000E9E03695279517950795EA95D1F71596FA
:101C6000EC91E230E9F5FC01628D738D848D958DE8
:101C7000600F711F821F931FA12C22E0B22EA818A3
:101C8000B9084A145B0408F45201F601248126FDC8
:101C900004C0A114F2E0BF0671F40091000110919C
:101CA000010120910201309103010617170728074F
:101CB000390709F05EC040E00E94B505882309F4A9
:101CC0007ECFC40182509D4FD3019C012A0D3B1D44
:101CD000FC012E173F0709F46CC041914D93F9CFD9
:101CE000DC011496BC90BA94B0228114910479F46A
:101CF000B1100DC0452B462B472B69F5F60187899E
:101D0000908DA18DB28D86839783A087B187D601F0
:101D10005B96ED91FC915C9716966D917D918D91FE
:101D20009C9119976250710981099109258504C018
:101D3000660F771F881F991F2A95D2F7068517858A
:101D400020893189600F711F821F931F6B0D711DD8
:101D5000811D911D91CFD60116964D915D916D918A
:101D60007C9119972A813B810E94E3078111CFCF93
:101D700026CF730185019401AB01BC018091FC0267
:101D80009091FD020E945604882309F418CF6A0C32
:101D90007B1CF60182859385A485B5858A0D9B1DE4
:101DA000A11DB11D82879387A487B5874A185B0858
:101DB0003CCF281B390B620E731EEBCF2A942328CD
:101DC00009F0FDCE898190E0FCCEFC01818D928DE1
:101DD000009711F00C94C50D8FEF9FEF08950F93AE
:101DE0001F93CF93DF93EC01898D9A8D10E000E073
:101DF000009799F00E94C50D8C010F3F100769F004
:101E0000898D9A8DFC014285538564857585415085
:101E10005109610971090E942309C801DF91CF911D
:101E20001F910F91089520918902260F3327331FA8
:101E300021323105ECF420914405FC0190E080E072
:101E4000243069F082E00895A09189022191AC01CB
:101E500047595D4FA40FB52FB11D2C9301968617DE
:101E600098F380918902680F6093890280E0089559
:101E700081E008951092440581E08093430510921B
:101E80001E0561E082E10E94D10261E083E10E94CF
:101E9000D102E9EBF0E080818E7F808380818D7FAD
:101EA000808388E48093B80085E48093BC00089523
:101EB000CF93DF9391E0909368028823B9F0C091AB
:101EC000B800D091BA008091BC008A7B8093BC009E
:101ED00060E082E10E94D10260E083E10E94D102D1
:101EE0000E943A0FD093BA00C093B800DF91CF910F
:101EF0000895CF92DF92EF92FF920F931F93CF93AB
:101F0000DF93D0916D0581E0D13208F09CC0C09183
:101F10006C050E9445036B017C0180914405811191
:101F20006CC082E08093440581E0809343058FEF8D
:101F30008093420510924105D0934005ACE4B5E092
:101F4000E0E2F5E080E0D8138DC010921F0580918B
:101F50001F05CC0FC82BC0931F0580911E05813033
:101F600009F084C010921E050E9445036B017C019C
:101F700080911F058093BB00809146059091470595
:101F8000A0914805B0914905892B8A2B8B2BA1F094
:101F90000E94450300914605109147052091480590
:101FA000309149056C197D098E099F09061717079D
:101FB0002807390708F442C08091BC0083FDD8CFC0
:101FC00085EC8093BC000E9445036B017C018091ED
:101FD0004405823009F44CC0809142058F3F09F4DA
:101FE00069C080914205803209F466C08091420543
:101FF000803309F463C084E026C080914605909147
:102000004705A0914805B0914905892B8A2B8B2B58
:1020100009F483CF0E9445030091460510914705BE
:1020200020914805309149056C197D098E099F0959
:10203000061717072807390708F06FCF8091450565
:102040000E94580F85E010924B0510926D0510927A
:102050004A05DF91CF911F910F91FF90EF90DF9094
:10206000CF9008959D9191938F5F6DCF85EEA9CF0D
:102070008091460590914705A0914805B09149058A
:10208000892B8A2B8B2B09F4A2CF0E944503009148
:1020900046051091470520914805309149056C1976
:1020A0007D098E099F09061717072807390708F0C9
:1020B0008ECFC4CF80E0C7CF82E0C5CF83E0C3CF4F
:1020C000CF92DF92EF92FF920F931F93CF93C82F7F
:1020D000813208F096C00E9445036B017C0180911B
:1020E0004405811169C081E08093440580934305D4
:1020F0009FEF90934205109241059C0F90934005ED
:1021000080931F0580911F058E6E80931F0580911F
:102110001E05813009F077C010921E050E9445030C
:102120006B017C0180911F058093BB008091460567
:1021300090914705A0914805B0914905892B8A2BBC
:102140008B2BA1F00E944503009146051091470595
:1021500020914805309149056C197D098E099F0928
:10216000061717072807390708F447C08091BC00F5
:1021700083FDD8CF85EC8093BC000E9445036B01A2
:102180007C0180914405813009F43FC08091410574
:102190008C1710F4C0914105A0E2B5E0EEEFF4E039
:1021A00080E08C1354C08C2FCF911F910F91FF9022
:1021B000EF90DF90CF90089580914605909147056C
:1021C000A0914805B0914905892B8A2B8B2B09F4E6
:1021D00086CF0E9445030091460510914705209146
:1021E0004805309149056C197D098E099F0906172C
:1021F00017072807390708F072CF809145050E941C
:10220000580FC0E0D0CF85EEB6CF809146059091B3
:102210004705A0914805B0914905892B8A2B8B2B46
:1022200009F4AFCF0E944503009146051091470580
:1022300020914805309149056C197D098E099F0947
:10224000061717072807390708F09BCFD6CF9D91AF
:1022500091938F5FA6CF0895E091C1028091C00253
:10226000E81730F4F0E0E250FB4F808190E00895F1
:102270008FEF9FEF08959091C1028091C0022FEFE0
:102280003FEF981748F4E92FF0E0E250FB4F208130
:1022900030E09F5F9093C102C90108958091C00210
:1022A0009091C102891B990B0895CF92DF92EF9212
:1022B000FF920F931F93CF93DF937C01CB018A0191
:1022C00020914A05222389F0EB016B01C40ED51E33
:1022D000CC15DD0569F06991D701ED91FC91019074
:1022E000F081E02DC7010995F3CF642F0E94130FF1
:1022F000C801DF91CF911F910F91FF90EF90DF9078
:10230000CF900895CF93DF931F92CDB7DEB7698347
:1023100020914A052223F9F020916D05203258F0D2
:1023200021E030E0FC013383228390E080E00F90D5
:10233000DF91CF91089580914B05E82FF0E0E45BA9
:10234000FA4F998190838F5F80934B0580936D0541
:1023500081E090E0ECCF61E0CE0101960E94130F86
:10236000F7CFCF93C82F81E080934A0587E780930A
:102370006C0510924B0510926D0564EF86E596E0B2
:102380000E9482116C2F86E596E00E948211CF9107
:102390000C94790F90E080E00895CF92DF92EF9255
:1023A000FF928091C2020E94A802C090C502D09004
:1023B000C602E090C702F090C80220E030E040E89A
:1023C0005FE3181619068CF4C701B6010E94362B7C
:1023D0006093C5027093C6028093C7029093C802AF
:1023E000FF90EF90DF90CF900895C701B6010E9453
:1023F000352BEECF8F929F92AF92BF92CF92DF920A
:10240000EF92FF920F931F93CF93DF9300D000D0F2
:10241000CDB7DEB7FC018581813091F080E00F906F
:102420000F900F900F90DF91CF911F910F91FF9020
:10243000EF90DF90CF90BF90AF909F908F900895D6
:10244000848181FFEBCF83899489A589B689892B03
:102450008A2B8B2B09F45FC07F0140E050E0BA016A
:10246000CF010E9423098823C9F2F701C38CD48CC1
:102470008788908CA18CB28C82E090E0A0E0B0E0E4
:10248000F60180839183A283B3839E012F5F3F4F28
:10249000B501A401C6010E94E307882309F4BECF59
:1024A00000E010E09801B501A401C6010E944107B7
:1024B000882309F4B3CF89809A80AB80BC80F60171
:1024C0008789803119F188EF9FEFAFEFBFE0881661
:1024D0009906AA06BB06C8F2F701178A108E118E5C
:1024E000128E138A148A158A168A848180688483DE
:1024F00061E0C7010E94B70A882309F48FCF40E04A
:1025000050E0BA01C7010E94230989CF88EF9FEFED
:10251000A0E0B0E0DCCF81E082CFCF92DF92EF92FB
:10252000FF921F93CF93DF93EC0180E2689FF0014D
:102530001124E250FD4F9385917161F0842F8274D4
:1025400049F080E0DF91CF911F91FF90EF90DF90F5
:10255000CF900895142F6A8B809100019091010112
:10256000A0910201B09103018E879F87A88BB98B40
:10257000C488D588F12CE12C7601DD24CC24CF8AC7
:10258000D88EE98EFA8E828D938DB0E0A0E0AC01FA
:10259000BD014C295D296E297F294F8B588F698F8A
:1025A0007A8F83858871B1F4848D958DA68DB78DD2
:1025B0008B8B9C8BAD8BBE8B81E08D831F701C83BE
:1025C0001E821F82188619861A861B861C861D8607
:1025D00081E0B8CF803109F0B4CF9E012D5E3F4F2E
:1025E0008B8D9C8D0E946408882309F4AACF84E017
:1025F000E4CF1F93CF93DF93EB0191E090934A05D3
:1026000097E790936C0510924B0510926D05682F1B
:1026100086E596E00E9482110E94790F82E00E9476
:1026200060101092C1028093C00286E596E00E947D
:102630003B11182F86E596E00E943B1120E0822B8B
:10264000912B99838883DF91CF911F910C94790FFF
:102650000F931F93CF93DF9300D0CDB7DEB78C01DC
:102660008EE20E94B11165E070E080E090E00E948F
:102670006A03BE016F5F7F4F86EF0E94F912898166
:102680009A81B0E0A0E0F80180839183A283B383B4
:102690000F900F90DF91CF911F910F9108950F939D
:1026A0001F93CF93DF9300D0CDB7DEB78B01BE0170
:1026B0006F5F7F4F0E94F91289819A81F80191839F
:1026C00080830F900F90DF91CF911F910F9108950C
:1026D000CF93DF93EB0191E090934A0597E79093B6
:1026E0006C0510924B0510926D05682F86E596E0FB
:1026F0000E9482110E94790F81E00E946010109266
:10270000C1028093C00286E596E00E943B11888357
:10271000DF91CF910C94790FFC018081918100971A
:1027200011F00C94BA2E0895FB0101900020E9F7F6
:102730003197AF01461B570BDC01ED91FC910280F4
:10274000F381E02D09948F929F92AF92BF920F93E5
:102750001F93CF93DF93CDB7DEB7A1970FB6F89451
:10276000DEBF0FBECDBF19A2423008F44AE08E0191
:102770000F5D1F4F842E912CB12CA12CA50194012B
:102780000E94042BE62FB901CA01EA3004F5E05D8E
:10279000D801EE938D01232B242B252B79F790E084
:1027A00080E0109729F0BD018EE695E00E94941319
:1027B000A1960FB6F894DEBF0FBECDBFDF91CF91CB
:1027C0001F910F91BF90AF909F908F900895E95CFB
:1027D000DFCFCF92DF92EF92FF92CF93DF936C0126
:1027E000990FEE08FF08F7FE19C06DE28EE695E03E
:1027F0000E941202EC0166277727CB016C197D0934
:102800008E099F094AE00E94A3138C0F9D1FDF9140
:10281000CF91FF90EF90DF90CF9008954AE0C701ED
:10282000B601DF91CF91FF90EF90DF90CF900C94A5
:10283000A3134F925F926F927F928F929F92AF926B
:10284000BF92CF92DF92EF92FF920F931F93CF939D
:102850006B017C01742EAC019B010E949F2C60E5F2
:1028600071E0811126C046015701E894B7F82FEFB7
:102870003FEF4FE75FE7C501B4010E949F2C811134
:102880000CC02FEF3FEF4FE75FE7C501B4010E9497
:10289000742964E571E0181664F02FEF3FEF4FE7FD
:1028A0005FE4C701B6010E944A2C1816ACF468E533
:1028B00071E08EE695E0CF911F910F91FF90EF9020
:1028C000DF90CF90BF90AF909F908F907F906F9050
:1028D0005F904F900C9494132FEF3FEF4FE75FEC16
:1028E000C701B6010E94742987FDE1CF20E030E0E6
:1028F000A901C701B6010E94742910E000E087FF1A
:102900000AC06DE28EE695E00E9412028C01F7FA91
:10291000F094F7F8F094C0E060E070E080E09FE3AE
:102920007C1641F020E030E040E251E40E94A22B0E
:10293000CF5FF6CFA70196010E94362B2B013C01F9
:102940000E941B2C4B015C014AE00E94A3137C01F6
:10295000E00EF11ECC23C1F1C501B4010E9479291A
:102960009B01AC01C301B2010E94352B4B015C01FC
:102970006EE28EE695E00E941202E80EF91EC1504A
:1029800018F120E030E040E251E4C501B4010E94BA
:10299000DA292B013C010E941B2C4B01B12CA12CEC
:1029A0004AE0C501B4010E94A313E80EF91EC50157
:1029B000B4010E9479299B01AC01C301B2010E94BC
:1029C000352B4B015C01DBCFC701CF911F910F91DC
:1029D000FF90EF90DF90CF90BF90AF909F908F903F
:1029E0007F906F905F904F900895CF93DF93FC019D
:1029F000448155816081718182E696E00E94920D4A
:102A0000EC016CE571E082E696E00E9494138C0F75
:102A10009D1FDF91CF910895CF93DF9342E00E94F5
:102A20001914EC016CE571E08EE695E00E949413B8
:102A30008C0F9D1FDF91CF9108950F931F93CF931C
:102A4000DF93EC010E9494138C016CE571E0CE01E0
:102A50000E949413800F911FDF91CF911F910F91CE
:102A600008950C949413CF92DF92EF92FF920F93FC
:102A70001F93CF93DF93CDB7DEB7A1970FB6F8942E
:102A8000DEBF0FBECDBF7C01CB01BA01F7011182C1
:102A9000108213821282158214828E010F5F1F4FE3
:102AA00022E044E00E94AA256C01F7018081918117
:102AB000C114D10469F1F60101900020E9F73197C2
:102AC0008F010C191D09009731F0F7012281338124
:102AD0002017310790F4B8016F5F7F4F0E94432F9A
:102AE000F701009799F091838083138302832481F7
:102AF0003581232B11F4FC011082F7011583048327
:102B0000B601808191810E9416300DC08081918133
:102B1000009711F00E94BA2EF701118210821582DF
:102B2000148213821282A1960FB6F894DEBF0FBEF4
:102B3000CDBFDF91CF911F910F91FF90EF90DF906C
:102B4000CF9008953F924F925F926F927F928F92B3
:102B50009F92AF92BF92CF92DF92EF92FF920F932C
:102B60001F93CF93DF93CDB7DEB72B970FB6F894B3
:102B7000DEBF0FBECDBF7C01DC0115968C918111AB
:102B800015C0FE013196CE010C966F0130E23193F3
:102B9000E817F907E1F7DA0130E087E09D91B92EF7
:102BA000992329F19E3239F48A3011F480E0DAC099
:102BB00038E08AE0F3CFEFE1F2E04491442321F0E2
:102BC00031969413FACFF2CF831780F34FED490F6C
:102BD0004E3560F74FE9490F4A3118F440EEB42EF4
:102BE000B90EF601E30FF11DB0823F5FD7CF8981A7
:102BF0008032E1F2322E8B01FB01838D948DD7015F
:102C00005C969C938E935B97168217821086118632
:102C10001286138614861586F80182859385A4850D
:102C2000B585438954896589768984179507A607F0
:102C3000B70708F04DC025E0B695A79597958795FD
:102C40002A95D1F7F82FFF70AF2ED80115968C91E9
:102C5000823008F4ABCFC8010E94C50D97FDA6CF06
:102C6000F80182859385A485B5854F96A11DB11D78
:102C700082879387A487B587F0E2AF9EB0011124C5
:102C800062507D4F6115710509F490CFDB018C9185
:102C9000882341F0853E09F058C0BB2029F0BB24B1
:102CA000B394BACFB1100EC0F701A28A809100018F
:102CB00090910101A0910201B0910301868797874D
:102CC000A08BB18BDB018C918111E9CFBB24B39434
:102CD000832D8271823109F069CFBB2009F45AC07B
:102CE000C7010E94FF05009709F460CF20E2FC01B4
:102CF00011922A95E9F72BE0F601DC0101900D9283
:102D00002A95E1F721E238E2DC0151963C932E93BB
:102D1000509740E058E01F965C934E931E97539651
:102D20003C932E93529759963C932E9358975796CF
:102D30005C934E93569781E00E948A05882309F49C
:102D400035CF432DF70162890AC04BE050E0C60140
:102D50000E940030892B09F05FCF432D6A2DC701F7
:102D60000E948D122B960FB6F894DEBF0FBECDBF1A
:102D7000DF91CF911F910F91FF90EF90DF90CF9057
:102D8000BF90AF909F908F907F906F905F904F908B
:102D90003F900895F8018581823009F407CFC8017A
:102DA0000E94B709882309F401CFD8015B96ED9101
:102DB000FC915C9716968D909D90AD90BC90199764
:102DC000B2E08B1A9108A108B108858504C0880C6F
:102DD000991CAA1CBB1C8A95D2F786859785A08969
:102DE000B189880E991EAA1EBB1E8481240135015B
:102DF000480E511C611C711C84149504A604B70470
:102E000009F1E1E04E1A51086108710881E00E9461
:102E10008A05882309F4CACEEEEFF2E011928EEF14
:102E200094E08E179F07D1F7409200015092010164
:102E300060920201709203018091AE0281608093E2
:102E4000AE02DACFD8015B96ED91FC91258580E04A
:102E500092E0A0E0B0E004C0880F991FAA1FBB1F3A
:102E60002A95D2F7F8014389548965897689840FB8
:102E7000951FA61FB71F838B948BA58BB68BD7018D
:102E800052961C928EEF92E031CF7F928F929F925A
:102E9000AF92BF92CF92DF92EF92FF920F931F9368
:102EA000CF93DF93CDB7DEB7C754D1090FB6F894EF
:102EB000DEBF0FBECDBF5C0119A218A284E291E073
:102EC0009F8F8E8F1BA21C821B829A8389831E82F6
:102ED000912C812C7E018EE1E80EF11C07E316E0B7
:102EE000C401F401E15AFE4F20812F3209F401960A
:102EF000DC01A15ABE4FFE01FB9630E020E06F01DD
:102F00004D914F3249F0442339F001962F5F3F4FE6
:102F100041932C303105A1F72C0D3D1DF901108294
:102F2000FC01E15AFE4F20812F3209F401964C0139
:102F3000FC01E15AFE4F708041E0711040E030E04A
:102F400020E0B601C801F501099581111EC0F6E027
:102F500007331F07B1F480E0C95BDF4F0FB6F89469
:102F6000DEBF0FBECDBFDF91CF911F910F91FF90BC
:102F7000EF90DF90CF90BF90AF909F908F907F9019
:102F80000895C8010E944F0BE6CF772089F021E019
:102F9000A601B801C7010E94A215D82E86E007330A
:102FA000180779F0C8010E944F0BD1100FC0D3CF82
:102FB000E6E007331E0719F0C8010E944F0B81E0BD
:102FC000CBCFDD2041F28E010F5F1F4F902F812F5D
:102FD0008701E92EF82E84CF1F93CF93DF93CDB7CF
:102FE000DEB76D970FB6F894DEBF0FBECDBFAB0155
:102FF0001C821B8224E231E03A8329831E8221E075
:10300000BC01CE0101960E94A21511E081110CC0F5
:1030100010E0812F6D960FB6F894DEBF0FBECDBFC6
:10302000DF91CF911F910895CE0101960E944F0B21
:10303000F0CFCF93DF93CDB7DEB76D970FB6F8948F
:10304000DEBF0FBECDBF442399F1AB01BC011C8292
:103050001B8284E291E09A8389831E8222E0CE0162
:1030600001960E94A21581110EC090E081E091119D
:1030700001C080E06D960FB6F894DEBF0FBECDBFE5
:10308000DF91CF910895CE0101960E94FA11882315
:1030900061F3CE0101960E94FF05009731F325EE02
:1030A000FC0120831E8281E00E948A05982FDECFDA
:1030B00081E0E0CFEF92FF920F931F93CF93DF93C6
:1030C000EC017B018A011B821A8288EE93E0A0E06A
:1030D000B0E08C839D83AE83BF8382E491E09983CB
:1030E00088838DE190E00E941E2E9A8F898F009731
:1030F00079F02DE1F701DC0101900D922A95E1F7BD
:103100004CE050E0B801CE010C960E941D30188EA4
:10311000DF91CF911F910F91FF90EF90089585ED72
:103120008093BC008091460590914705A091480589
:10313000B09149050796A11DB11D23E0B695A7954D
:10314000979587952A95D1F72091BC0024FD03C05F
:1031500010924405089540914605509147056091AD
:10316000480570914905452B462B472B69F300977D
:10317000A105B10541F025E32A95F1F7000001977B
:10318000A109B109E1CF809145050C94580F1F9218
:103190000F920FB60F9211242F933F934F935F938B
:1031A0006F937F938F939F93AF93BF93EF93FF930F
:1031B0008EE695E00E94F001FF91EF91BF91AF91F3
:1031C0009F918F917F916F915F914F913F912F913F
:1031D0000F900FBE0F901F9018951F920F920FB671
:1031E0000F9211242F938F939F93EF93FF93E0916E
:1031F0007E05F0917F058081E0918405F091850541
:1032000082FD1BC09081809187058F5F8F73209115
:103210008805821741F0E0918705F0E0E259FA4F06
:10322000958F80938705FF91EF919F918F912F91BB
:103230000F900FBE0F901F9018958081F4CF1F92B2
:103240000F920FB60F9211242F933F938F939F935A
:10325000AF93BF938091B4029091B502A091B60252
:10326000B091B7023091B30223E0230F2D3758F508
:103270000196A11DB11D2093B3028093B4029093D7
:10328000B502A093B602B093B7028091B8029091B4
:10329000B902A091BA02B091BB020196A11DB11D65
:1032A0008093B8029093B902A093BA02B093BB0284
:1032B000BF91AF919F918F913F912F910F900FBE32
:1032C0000F901F90189526E8230F0296A11DB11D9F
:1032D000D2CF1F920F920FB60F9211242F933F93CC
:1032E0004F935F936F937F938F939F93AF93BF930E
:1032F000EF93FF93E0910601F09107010995FF918B
:10330000EF91BF91AF919F918F917F916F915F915D
:103310004F913F912F910F900FBE0F901F901895D6
:103320001F920F920FB60F9211242F933F934F933A
:103330005F936F937F938F939F93AF93BF93EF931D
:10334000FF93E0910401F09105010995FF91EF9140
:10335000BF91AF919F918F917F916F915F914F91AD
:103360003F912F910F900FBE0F901F9018951F92B5
:103370000F920FB60F9211242F933F934F935F93A9
:103380006F937F938F939F93AF93BF93EF93FF932D
:103390008091B900887F803609F44AC0F0F5883200
:1033A00009F4A7C018F5803109F49BC0B8F488234C
:1033B00009F4F9C0883009F494C0FF91EF91BF91EE
:1033C000AF919F918F917F916F915F914F913F91BD
:1033D0002F910F900FBE0F901F901895883109F410
:1033E00088C0803251F78093420514C0803409F4BC
:1033F0009DC040F48033B9F38833F9F680934205D9
:1034000085ECB0C0803509F485C0883509F496C0D4
:10341000883499F60E948F18D0CF883909F48CC06F
:1034200038F5883729F050F4883611F0803729F6BE
:1034300083E0809344051092AB0257C0883809F4AA
:103440007BC0803919F0803809F0B7CF8091AB028A
:10345000803208F071C0E091AB0281E08E0F809362
:10346000AB028091BB00F0E0E557FD4F80833DC08B
:10347000803B39F0E0F4803A09F479C0883A09F0E9
:103480009CCF84E08093440510928A0210928902B6
:10349000E091BE02F091BF020995809189028111ED
:1034A0000FC081E0809389021092690209C0803CBC
:1034B00009F4A6CF883C09F4A3CF883B09F07DCF5F
:1034C000E0918A0281E08E0F80938A02F0E0E75952
:1034D000FD4F80818093BB0090918A028091890288
:1034E00029C080911F058093BB0085EC8093BC00B0
:1034F00064CF9091410580914005981758F5E0916F
:10350000410581E08E0F80934105F0E0E05EFA4FC7
:103510008081E9CFE091410581E08E0F80934105E4
:103520008091BB00F0E0E05EFA4F8083909141050E
:10353000809140059817C8F285E8D8CFE091410501
:1035400081E08E0F809341058091BB00F0E0E05E4A
:10355000FA4F80838091430581115CCF81E0809395
:103560001E0584EA8093BC001092440526CF85ECAA
:103570008093BC00109244058091AB02803230F4FD
:10358000E091AB02F0E0E557FD4F10826091AB0295
:1035900070E0E091BC02F091BD028BE892E00995E9
:1035A0001092AB020ACF1092420534CFEEE6F5E05E
:1035B0001382128288EE93E0A0E0B0E084839583CA
:1035C000A683B78322E131E03183208325EC30E00C
:1035D0003587248724EC30E03787268720EC30E0DD
:1035E000318B208B21EC30E0338B228B22EC30E0CE
:1035F000358B248B26EC30E0378B268B118E128E88
:10360000138E148EEBE0F6E020E520831182EDE0CE
:10361000F6E0158216821186138642E050E060E0E3
:1036200070E0448755876687778713A215A614A68E
:1036300024E231E033A722A717A6E6E5F6E01382DD
:10364000128284839583A683B78320E331E031839C
:103650002083E1EEF6E0108211821282138214823E
:10366000158216821782EBEDF6E01182108228E0B7
:1036700030E03383228328EE33E035832483E5ED85
:10368000F6E01182108229E030E03383228320EDBE
:1036900037E03583248324E030E030937E062093A6
:1036A0007D06E2E6F6E01382128284839583A68388
:1036B000B78382E491E091838083128E118E148609
:1036C0000895CF93DF93CDB7DEB7CB5AD1090FB6AC
:1036D000F894DEBF0FBECDBF789484B5826084BD00
:1036E00084B5816084BD85B5826085BD85B5816006
:1036F00085BD80916E00816080936E001092810084
:10370000809181008260809381008091810081603E
:1037100080938100809180008160809380008091FF
:10372000B10084608093B1008091B000816080938B
:10373000B00080917A00846080937A0080917A0052
:10374000826080937A0080917A00816080937A0011
:1037500080917A00806880937A001092C100E09195
:103760007E05F0917F0582E08083E0917A05F091FB
:103770007B051082E0917C05F0917D058FEC8083C4
:1037800010928605E0918205F091830586E08083A2
:10379000E0918005F0918105808180618083E091D6
:1037A0008005F0918105808188608083E0918005AB
:1037B000F0918105808180688083E0918005F0919F
:1037C000810580818F7D80831092C1021092C0029A
:1037D00010924B0510926D050E943A0F80E791E020
:1037E0009093BF028093BE0281E791E09093BD0267
:1037F0008093BC02BE016F5F7F4F80ED0E94681313
:1038000089818535C9F51092E50266EE72E08AEA93
:103810000E944F1368EE72E08CEA0E944F136AEE2A
:1038200072E08EEA0E944F136CEE72E080EB0E9411
:10383000F9126EEE72E082EB0E94F91260EF72E014
:1038400084EB0E94F91262EF72E086EB0E944F1344
:1038500064EF72E088EB0E944F1366EF72E08AEB30
:103860000E944F1368EF72E08CEB0E944F136AEFD7
:1038700072E08EEB0E944F136091DF067091E006BC
:10388000072E000C880B990B0E946A0360E082E00F
:103890000E94FF0260E083E00E94FF0261E086E098
:1038A0000E94FF0261E087E00E94FF0261E085E084
:1038B0000E94FF0280E090E0A8ECB3E48093DD0278
:1038C0009093DE02A093DF02B093E00280E090E0EC
:1038D000A0ECB1E48093D1029093D202A093D302E2
:1038E000B093D4021092CD021092CE021092CF0269
:1038F0001092D00280E090E0A0E8B1E48093C90289
:103900009093CA02A093CB02B093CC0283E090E0E4
:103910009093C3028093C2028DEC91E190930501D4
:103920008093040180916900836080936900E89A24
:103930006091D9067091DA06072E000C880B990B5E
:103940000E946A0380913C06882321F087E396E079
:103950000E944F0B10921806109216061092130632
:10396000109212068AE0809311060E949D038B013B
:1039700061E0809111060E94FF0261E080911106D2
:103980000E94D102FFB6F8948091C402811127C031
:10399000EBE6F2E08491E7E5F2E09491E82FF0E0C5
:1039A000EE0FFF1FED5BFD4FA591B491EC91E92364
:1039B00021F461E08AE00E94D10261E08AE00E9485
:1039C000FF028CB580618CBD8CB580648CBD61E0DC
:1039D0008DE00E94FF0261E08BE00E94FF02809177
:1039E000C4028F5F8093C402FFBE82E580930B0602
:1039F00010920C0680910B0690910C060E94E00339
:103A00006AE0F62E8FEF0E94BB03FA94F110FACF12
:103A10008DE096E00E94E30320E030E0A90160E041
:103A20008DE096E00E94F903F82E8093170621E0BE
:103A3000821709F415C10E949D03601B710B613D43
:103A4000774050F381E0809312068DE096E00E946B
:103A5000B00361E08AE00E94D1021E0159E4250E04
:103A6000311C0E949D03C655DF4F79836883CA5A73
:103A7000D0408091C5029091C602A091C702B0913A
:103A8000C802CA55DF4F88839983AA83BB83C65A6D
:103A9000D0400E949D032B013C018091E102909156
:103AA000E202A091E302B091E402A3019201281B7B
:103AB000390B4A0B5B0BCA01B9010E947929C25626
:103AC000DF4F688379838A839B83CE59D040CA5560
:103AD000DF4F288139814A815B81C65AD04060918D
:103AE000DD027091DE028091DF029091E0020E947F
:103AF000352B6B017C01AC019B01C256DF4F688105
:103B000079818A819B81CE59D0400E94DA29209107
:103B1000D9023091DA024091DB025091DC020E941E
:103B2000362B4B015C018092D9029092DA02A0926E
:103B3000DB02B092DC022091D1023091D20240919E
:103B4000D3025091D402C701B6010E94DA29CE55A2
:103B5000DF4F688379838A839B83C25AD040209148
:103B6000CD023091CE024091CF025091D002C501DA
:103B7000B4010E94DA299B01AC01CE55DF4F688168
:103B800079818A819B81C25AD0400E94362B4B0199
:103B90005C012091D5023091D6024091D70250911C
:103BA000D802C701B6010E94352BC256DF4F2881CB
:103BB00039814A815B81CE59D0400E94A22B20914D
:103BC000C9023091CA024091CB025091CC020E94AE
:103BD000DA299B01AC01C501B4010E94362B4B01CF
:103BE0005C01C092D502D092D602E092D702F09248
:103BF000D8024092E1025092E2026092E302709297
:103C0000E4027C016B01E894F7F820E030E04FE734
:103C100053E4C701B6010E944A2C20E030E0A9011C
:103C200018160CF47EC7C501B4010E9474290FEF69
:103C30001FEF87FD02C001E010E0C701B6010E943E
:103C4000142C4B017B0161E085E00E94FF0281148E
:103C5000910409F096C060E085E00E94D102BEC0E8
:103C60002AEA31E040E050E068E08DE096E00E9412
:103C7000F90382FF2AC0F092180680911806C12C21
:103C8000D12CE12C40E4F42E823019F0C12CD12C3F
:103C9000760120E030E0A90167E38DE096E00E9424
:103CA000F903A701960169E28DE096E00E94F9030D
:103CB000809317068823D1F00E949D03601B710B2F
:103CC000613D774030F388E0BECE54E0F52E0E948F
:103CD000C20380931706FA94F110F9CF8A3A11F0D3
:103CE00082E0B1CE82E080931806C7CF809118069B
:103CF0008230D1F420E030E0A9016AE38DE096E063
:103D00000E94F903882311F086E09DCE0E94C20331
:103D1000807C803C19F483E0809318060E94C203E3
:103D20000E94C2030E94C2038DE096E00E94B0038D
:103D300080E580930B0610920C0681E00E94180625
:103D40008823C1F087E396E00E94CF08882309F416
:103D500080CE8CEE97E10E944517882321F089E1FF
:103D600098E10E94451768E671E08EE695E00E94B2
:103D70001D156FCE80E00E941806882309F469CED5
:103D8000E1CF3FEF8316910411F461E065CFEAE7DC
:103D9000F2E0E491E33009F43EC350F4E130D1F0B5
:103DA000E23009F433C340E8E416F10474F753CF6A
:103DB000E73009F43AC3E83009F43FC3E43099F737
:103DC0008091800080628093800090928B0080922E
:103DD0008A0004C084B5806884BD87BC61E087E048
:103DE0000130110509F431C360E087E00F3F1F4F38
:103DF00009F02BC30E94D10261E086E00E94D1024B
:103E0000CE0101960E9428138091F0029091F10258
:103E100029813A814B815C81281B390B4109510969
:103E2000A091EE02B091EF020E94BA2A6B017C01D0
:103E30009FE0F594E794D794C7949A95D1F7609151
:103E4000F8027091F902072E000C880B990B2BE0F9
:103E5000660F771F881F991F2A95D1F72091FA02C4
:103E60003091FB02032E000C440B550B2C0D3D1D15
:103E70004E1D5F1D0E949B2ACA01B9016C0D7D1D5C
:103E80008E1D9F1D685F7F4F8F4F9F4F34E095952C
:103E90008795779567953A95D1F70E947B2920E021
:103EA00030E040E251E40E94A22BCE55DF4F688300
:103EB00079838A839B83C25AD04019821A821B82DB
:103EC0001C82CE0101960E9428131091E502812FD9
:103ED0008295880F880F807C8C5C0E94B11168E00D
:103EE00070E080E090E0113081F065E070E080E00B
:103EF00090E0113050F06EE070E080E090E0123021
:103F000021F06AE170E080E090E00E946A03B10174
:103F100086EF0E94F912D101CD90DC90F12CE12CBA
:103F2000FE2CED2CDC2CCC24BE016A597F4F88EF8F
:103F30000E946813A7968FADA797A7019601280F37
:103F4000311D411D511DC256DF4F288339834A83DD
:103F50005B83CE59D0408091F0029091F10229818B
:103F60003A814B815C81281B390B41095109A09191
:103F7000EE02B091EF020E94BA2A6B017C01AFE021
:103F8000F594E794D794C794AA95D1F76091F80275
:103F90007091F902072E000C880B990BBBE0660F9D
:103FA000771F881F991FBA95D1F72091FA02309197
:103FB000FB02032E000C440B550B2C0D3D1D4E1D1A
:103FC0005F1D0E949B2AC20ED31EE41EF51E30EA1E
:103FD000C31A3FE0D30AE108F108A7019601C7011F
:103FE000B6010E94D92D2B013C010CE07594679419
:103FF000579447940A95D1F7A091EA02B091EB0249
:104000000E94C52A4B015C018DE0B594A79497945A
:1040100087948A95D1F7A091F202B091F302A3019F
:1040200092010E94C52A9C01552737FD5095452FC6
:10403000280D391D4A1D5B1D2E5F3F4F4F4F5F4FAF
:1040400062E055954795379527956A95D1F7305891
:104050004F4F5F4FA091EC02B091ED020E94BA2A3F
:104060004B015C017FE0B694A794979487947A956E
:10407000D1F788E090E0811B9109C256DF4F28817B
:1040800039814A815B81CE59D04004C0559547950E
:10409000379527958A95D2F7C256DF4F2883398303
:1040A0004A835B83CE59D040A091F402B091F502CF
:1040B000A30192010E94C52A2B013C01EBE07594FB
:1040C000679457944794EA95D1F7A091E802B0918C
:1040D000E902A70196010E94C52AFBE09595879504
:1040E00077956795FA95D1F7460E571E681E791E8B
:1040F0008091E6029091E702092E000CAA0BBB0BFF
:1041000002E0880F991FAA1FBB1F0A95D1F7840DE3
:10411000951DA61DB71D2C013D01012E04C0440CA8
:10412000551C661C771C0A94D2F732E0430E511CD2
:10413000611C711C82E075946794579447948A952A
:10414000D1F7C256DF4F288139814A815B81CE5930
:10415000D040241935094609570960E573EC80E021
:1041600090E004C095958795779567951A95D2F755
:104170000E94D92D97FD6DC1660F771F881F991F6B
:10418000A50194010E94042B69017A019927F7FC8B
:104190009A958F2D7E2D6D2D9B01AC010E94D92DFE
:1041A0009B01AC01AEEDBBE00E94BA2A4B015C0161
:1041B000A3E4B3EEA70196010E94C82ABC01992787
:1041C00077FD9095892F4501BB2497FCB094AB2CCB
:1041D000680D791D8A1D9B1D6153714F8F4F9F4F35
:1041E00044E095958795779567954A95D1F76C0D3D
:1041F0007D1D8E1D9F1D0E947B292B013C0120E807
:1042000036EE45EC57E40E94A22B2EEA3CED42E448
:104210005EE30E944F2C9B01AC0160E070E080E8FF
:104220009FE30E94352B20E03AE24DE257E40E94E2
:10423000DA29C256DF4F688379838A839B83CE59FC
:10424000D0408091DB060E9430038C01BC01990FA5
:10425000880B990B0E947B296B017C012AE939E9C3
:1042600049E850E40E944A2C87FFFEC020E030E07D
:1042700040E250E4C701B6010E94742918160CF000
:10428000F6C06AE771E08EE695E00E94311584EF92
:1042900091E0089FB001099F700D189F700D1124C7
:1042A000072E000C880B990B0E947B292AE939E91B
:1042B00049E850E40E94A22B0E94142CCB010E94DA
:1042C000E9136FE771E08EE695E00E94311560E03A
:1042D0008091DD060E94FF028091DD060E94A80207
:1042E000892B31F064E871E08EE695E00E941D159F
:1042F0006EE571E08EE695E00E941D158091D50671
:104300000E9430038C0165E971E08EE695E00E9421
:10431000311524EE35E2D8010E94FD2D2FEF33E058
:1043200040E050E00E949B2ADA01C901845D9E4F63
:10433000AF4FBF4F0E94E91360E08091D7060E9403
:10434000FF028091D7060E94A802892B31F064E811
:1043500071E08EE695E00E9431156EE571E08EE623
:1043600095E00E941D1561E080917D060E94FF028C
:1043700061E080917D060E94D10268EE73E080E0EA
:1043800090E00E946A0360E080917D060E94D10265
:1043900062E170E080E090E00E946A0361E0809159
:1043A0007D060E94D1028BE990E00197F1F760E071
:1043B00080917D060E94FF0280917D060E94A802E6
:1043C0007C01892B09F056C080917D060E94A802CD
:1043D000892BD1F380917D060E94A8020197D1F329
:1043E00004E816E0D12CC12CB12CA12C460141E0EF
:1043F0008422992480917D060E94A802881699063D
:1044000009F05EC15FEFA51AB50AF4CF84B58062EA
:1044100084BD88BCE3CC809180008068809380005C
:104420009092890080928800D9CC8091B0008068F9
:104430008093B0008092B300D1CC8091B0008062B4
:104440008093B0008092B400C9CC0E94D10260E099
:10445000D4CCA50194010E94042B69017A01CC0CF3
:10446000DD1CEE1CFF1C92CE04E010E00ACF02E03F
:1044700010E007CF64EA71E08EE695E00E941D151A
:1044800063ED71E08EE695E00E9431156091800643
:1044900070E090E080E04AE00E94A31364E372E0E1
:1044A0008EE695E00E9431156091820670E090E002
:1044B00080E04AE00E94A3136CE571E08EE695E08F
:1044C0000E9494136BED71E08EE695E00E94311529
:1044D00060917F0670E090E080E04AE00E94A313C4
:1044E00064E372E08EE695E00E94311560918106EA
:1044F00070E090E080E04AE00E94A3136CE571E078
:104500008EE695E00E949413C655DF4FE881F9814D
:10451000CA5AD040E93FFA420CF463C10E949D039D
:104520006B017C010E949D036C197D098E099F0916
:10453000663971058105910508F02BC18EE695E07D
:104540000E94D001892B71F38EE695E00E94AE01A6
:10455000849741F78E010F5F1F4F0E949D03609368
:1045600076057093770580937805909379058EE6AC
:1045700095E00E94AE0197FFE1C20E949D038090EA
:10458000760590907705A0907805B0907905681928
:1045900079098A099B098090720590907305A09013
:1045A0007405B0907505681579058A059B05F8F2C4
:1045B00029961FAE29978B81873409F0B3CF8C8160
:1045C000873409F0AFCF8D81813409F0ABCFCE01B4
:1045D00042960E94C8254B015C010E94142CCB011D
:1045E00064E670E00E94E92D8B01B4E6B09FB00153
:1045F000B19F700D1124072E000C880B990B0E949F
:104600007B299B01AC01C501B4010E94352B20E040
:1046100030E040E752E40E94A22B4B015C01B8015C
:10462000110F880B990B0E947B299B01AC01C501DE
:10463000B4010E94362B6093E1067093E2068093EA
:10464000E3069093E406CE014E960E94C8254B01E6
:104650005C010E94142CCB0164E670E00E94E92DFD
:104660008B01E4E6E09FB001E19F700D1124072E5D
:10467000000C880B990B0E947B299B01AC01C501A2
:10468000B4010E94352B20E030E040E752E40E9464
:10469000A22B4B015C01B801110F880B990B0E94F2
:1046A0007B299B01AC01C501B4010E94362B6093AC
:1046B000E5067093E6068093E7069093E80632CF0E
:1046C000D801AD928D01BFEFCB1ADB0AE0E5CE1623
:1046D000D10409F089CE40917F0690918106209106
:1046E00080068091820660918306EDE7F6E05781AF
:1046F000308578E0E716F1048CF4440F531708F482
:104700004160990F531708F49160220F531708F472
:104710002160880F531770F481600CC0A0E1EA1685
:10472000F1047CF3B8E1EB16F1047CF370E2E716D8
:10473000F1047CF3660F531708F46160AFEFEA1AD7
:10474000FA0A3296B8E2EB16F10489F66093830612
:1047500080938206209380069093810640937F0683
:10476000490F5527551F240F352F311D820F932FC9
:10477000911D6817190649F067EB71E08EE695E028
:104780000E941D151092D4067BCE81E08093D40642
:1047900077CE61EE71E08EE695E00E943115609172
:1047A000E1067091E2068091E3069091E40646E00E
:1047B0000E9419146CEE71E08EE695E00E943115AE
:1047C0006091E5067091E6068091E7069091E80613
:1047D00046E00E9419146CE571E08EE695E00E94B7
:1047E00094136FEE71E08EE695E00E943115CE5580
:1047F000DF4F688179818A819B81C25AD0400E94B3
:104800000C156CEF71E08EE695E00E94311520E00A
:1048100030E048EC52E4C301B2010E94A22B6B01CC
:104820007C010E940C1566E072E08EE695E00E9425
:104830003115C256DF4F688179818A819B81CE59BB
:10484000D0400E940C1560E172E08EE695E00E9477
:104850003115CA55DF4F688179818A819B81C65A9B
:10486000D0400E940C151C821B8204E211E01A83C6
:1048700009831E82CE0101960E94CF08BE016F5FA0
:104880007F4FCE018A599F4F0E94080DD101139688
:104890001C921E92129711961C930E9315961C92C1
:1048A000AC968FADAC9781118AC0CB57DF4F198280
:1048B0001882C558D04088EE93E0A0E0B0E0C95718
:1048C000DF4F88839983AA83BB83C758D04082E493
:1048D00091E0CD57DF4F99838883C358D040C456A9
:1048E000DF4F19821882CC59D040C157DF4F188250
:1048F000CF58D040CB57DF4F88819981C558D040E1
:104900009093650680936406C957DF4F888199812B
:10491000AA81BB81C758D0408093660690936706F2
:10492000A0936806B0936906C557DF4F88819981C7
:10493000AA81BB81CB58D04080936A0690936B06C6
:10494000A0936C06B0936D06A3E8B0E0AC0FBD1F5A
:104950001C96EEE6F6E08D91819326E0EB37F207A8
:10496000D1F7C456DF4FE881F981CC59D040F0939C
:104970007C06E0937B06309719F08581811148C051
:1049800067E172E08EE695E00E941D1563E672E035
:104990008EE695E00E941D1566E372E08EE695E0D6
:1049A0000E941D1580E090E0892B09F45AC80E94EE
:1049B000DC01882309F455C80E94000052C827E191
:1049C0004FE551E0BE016A597F4FC1010E94A21517
:1049D000882309F46ACFCE018A599F4F0E944F0B5A
:1049E000F1014389548965897689C1010E942309AF
:1049F000B101CE0101960E94080D4FE551E0BE01C4
:104A00006F5F7F4FCE018D579F4F0E945A1872CF14
:104A10006AE272E08EE695E00E941D156FEE71E08D
:104A200082E696E00E943115CE55DF4F48815981CC
:104A30006A817B81C25AD040CE0101960E94331513
:104A4000CE0101960E94F514CE0101960E948C13AE
:104A50006CEF71E082E696E00E943115B701A60185
:104A6000CE0101960E943315CE0101960E94F514E5
:104A7000CE0101960E948C1366E072E082E696E019
:104A80000E943115C256DF4F488159816A817B816E
:104A9000CE59D040CE0101960E943315CE01019629
:104AA0000E94F514CE0101960E948C1360E172E021
:104AB00082E696E00E943115CA55DF4F4881598140
:104AC0006A817B81C65AD040CE0101960E9433157F
:104AD000CE0101960E94F514CE0101960E948C131E
:104AE00066E372E082E696E00E941D1580917B06E7
:104AF00090917C06009709F449CF0E944F0B80915A
:104B00007B0690917C060E94BA2E10927C06109231
:104B10007B063CCF61E085E00E94FF020FEF1FEFB4
:104B200034C9C501B4010E94742987FDF3CFC12C9B
:104B3000D12C8FE7E82E83E4F82E7DC88A309105CA
:104B400009F436CDD8018D938D012A163B0609F064
:104B500004CD2ECDEF920F931F93CF93DF93E801F7
:104B600034E047FD34E1042E000C550B57FF03C021
:104B7000519541955109E32E022F242FAE010E9439
:104B8000CC25CE01DF91CF911F910F91EF90089529
:104B9000662777270C942B27A9E0B0E0E2EDF5E239
:104BA0000C94D32A6A01F22EB02E102FFBE3AF2E05
:104BB000A01608F41BE31F5F012F27E0AE014F5F33
:104BC0005F4F0E947B28BC018981982F997091309A
:104BD00009F43FC09BE2E1FC04C09E2D9170E0FC13
:104BE0003AC05E2D5071E82FE87083FF46C084E024
:104BF000911101C083E0EF2DE81B8F1508F0E0E074
:104C0000D6018E2F20E2552351F1992329F0D601A8
:104C10009C93C60101966C0196012D5F3F4FE2FE09
:104C200024C08EE4D6018C9391E411969C93119745
:104C300012968C93D9018E2F90E281111BC0E20F46
:104C4000F32FF11D10828EEF9FEF2996ECE00C946C
:104C5000EF2A9DE2C6CF90E2C4CF2D9381508111FF
:104C6000FCCFCE0ED11CE0E0D0CF8EE6D6018C93E7
:104C700091E6DBCF9D938150E0CF482F447082FFB7
:104C80003DC084E0911101C083E08F1510F4EF2D39
:104C9000E81BD6018E2F20E2552309F1992329F034
:104CA000D6019C93C60101966C0196012D5F3F4F82
:104CB000E2FE1BC089E4D6018C938EE411968C939E
:104CC000119786E412968C93D9018E2F90E2882357
:104CD00009F4B5CF9D938150FACF2D938150811166
:104CE000FCCFCE0ED11CE0E0D9CF89E6D6018C9363
:104CF0008EE611968C93119786E6E4CF9B0177FFA1
:104D000002C030E020E0A1E0B0E0911102C0B0E0CC
:104D1000A0E0F9013196AE0FBF1F8B2C912CBB2068
:104D200009F461C05401EFEFAE1ABE0AAA0DBB1D13
:104D3000FA161B0619F014F04F2D4A1B511188C0AA
:104D4000E3FC59C07601A42FB0E2A1114FC0C40EFC
:104D5000D11C992309F45BC040E0D6011196F601FD
:104D600090836D01552309F448C0012F060F9A81E5
:104D7000582F507184FF03C0913309F4015010166D
:104D80000CF047C0093008F008E0EEE2FE2E5B01AF
:104D9000A01AB10885019194819491082F3F3207A0
:104DA00029F4D601FC92F60131966F016217730760
:104DB00094F1021713077CF5DB01A21BB30BAA24A5
:104DC000A394B12CAC0EBD1EAA0DBB1D11968C91E7
:104DD00021503109D601119628153905F4F0F60154
:104DE00080836D01DBCFB12CA12CA0CFF701B19353
:104DF0007F01A150AACF9111B0CFD601942F50E3DB
:104E000002C05D9391509111FCCFC40ED11C40E0C3
:104E1000ACCF01E0BACF80E3DBCF6217730731F488
:104E2000963388F4953311F4552369F0F6018083A5
:104E3000FD01842F90E2811108C0A40FB11D1C92C6
:104E400090E080E002CF81E3F1CF91938150F3CFE6
:104E5000911183CF8ACFB0E0A0E0E1E3F7E20C94B8
:104E6000D32A5C017B016115710519F0DB018D937B
:104E70009C9385010F5F1F4FF501D0818D2F90E02E
:104E80000E9453296C01892BB9F5DD32B9F50F5F0A
:104E90001F4FD5011196DC91C1E05801F1E0AF1A26
:104EA000B10843E050E062EF70E0C5010E945C2968
:104EB000892B69F5680182E0C80ED11C45E050E0FD
:104EC0006DEE70E0C6010E945C29892B21F4680117
:104ED00097E0C90ED11CE114F10419F0D701CD926D
:104EE000DC9260E070E080E89FEFC111FFC060E0FD
:104EF00070E080E89FE7FAC05801BBCFDB3229F4AD
:104F000085010E5F1F4FF501D181C0E0C6CF43E0A0
:104F100050E06AEE70E0C5010E945C29892BE9F03F
:104F2000F80110E000E020E030E0A9015F01B0ED01
:104F30008B2E8D0E89E08815C8F19C2E689491F80F
:104F40008C2F8870C2FF16C0811102C00F5F1F4FE7
:104F50003196D501DC91C92DE9CFE114F10429F096
:104F60000E5F1F4FF7011183008360E070E080EC5B
:104F70009FE7BCC0882311F001501109A5E0B0E003
:104F80000E94BA2A9B01AC01220F331F441F551FF8
:104F9000280D311D411D511D283999E9390749074F
:104FA00099E15907A8F2C6609C2ED2CFAEEF8A12C3
:104FB00006C0C3FD3CC09C2E689493F8C9CFDF7D2A
:104FC000D534A9F580818D3239F4C061DF011296A4
:104FD000818162E070E006C0DF018B32C1F311967F
:104FE00061E070E080535D01A61AB70A8A30F8F4D8
:104FF000E0E8CE16ECE0DE065CF4B601660F771F43
:10500000660F771FC60ED71ECC0CDD1CC80ED11C38
:105010005D01FFEFAF1ABF0A8C9180538A30A8F16F
:10502000C4FF03C0D194C194D1080C0D1D1DC1FF54
:1050300009C0E114F10431F081E0A81AB108D701E8
:10504000AD92BC92CA01B9010E947929C370C330E4
:1050500009F490584B015C0120E030E0A9010E9466
:105060007429882309F440C0C1E2D1E017FF05C0CC
:10507000119501951109C9E0D1E06E01B8E1CB1A93
:10508000D10880E2E82EF12C0FC0D501B1CFFE018E
:1050900025913591459154910E191F09C501B4010F
:1050A0000E94DA294B015C01D501C4010E151F05D0
:1050B00074F72497F594E794CC16DD06A9F78A2FA8
:1050C000880F8B2F881F8F3F49F020E030E0A90127
:1050D000C501B4010E947429811106C082E290E0EA
:1050E0009093EA068093E906C501B401CDB7DEB717
:1050F000ECE00C94EF2A283008F027E03327DA019F
:10510000990F311D87FD916000966105710539F495
:1051100032602E5F3D9330E32A95E1F708959F3F7B
:1051200030F080387105610509F03C5F3C5F3D93CC
:10513000913008F08068911DDF93CF931F930F93F8
:10514000FF92EF92192F987F9695E92F9695969555
:10515000E90FFF27E158FE4F99273327EE24FF245C
:10516000A701E70105900894079428F4360FE71E7D
:10517000F81E491F511D660F771F881F991F06943F
:10518000A1F70590079428F4E70EF81E491F561F53
:10519000C11D770F881F991F661F0694A1F7059000
:1051A000079428F4F80E491F561FC71FD11D880FFA
:1051B000991F661F771F0694A1F70590079420F4A6
:1051C000490F561FC71FD81F990F661F771F881FCB
:1051D0000694A9F784911095177041F0D695C7955C
:1051E00057954795F794E7941A95C1F7E5E2F1E0F2
:1051F00068941590159135916591959105907FE290
:105200007395E118F10A430B560BC90BD009C0F78F
:10521000E10CF11E431F561FC91FD01D7EF47033D1
:1052200011F48A95E6CFE894015030F0080F0AF4A3
:105230000027021708F4202F2395022F7A3328F035
:1052400079E37D932A95E9F710C07D932A9589F635
:10525000069497956795379517951794E118F10A75
:10526000430B560BC90BD00998F023957E9173958B
:105270007A3308F070E37C932013B8F77E91706165
:105280007D9330F0839571E37D9370E32A95E1F788
:105290001124EF90FF900F911F91CF91DF919927EB
:1052A00087FD9095089591110C94472A803219F04A
:1052B00089508550C8F70895FB01DC0141505040EA
:1052C00088F08D9181341CF08B350CF4805E6591F3
:1052D00061341CF06B350CF4605E861B611171F358
:1052E000990B0895881BFCCF0E94B62908F481E031
:1052F0000895E89409C097FB3EF4909580957095C9
:1053000061957F4F8F4F9F4F9923A9F0F92F96E911
:10531000BB279395F695879577956795B795F11186
:10532000F8CFFAF4BB0F11F460FF1BC06F5F7F4F23
:105330008F4F9F4F16C0882311F096E911C0772335
:1053400021F09EE8872F762F05C0662371F096E83E
:10535000862F70E060E02AF09A95660F771F881F0D
:10536000DAF7880F9695879597F90895990F0008B1
:10537000550FAA0BE0E8FEEF16161706E807F90727
:10538000C0F012161306E407F50798F0621B730BC2
:10539000840B950B39F40A2661F0232B242B252B43
:1053A00021F408950A2609F4A140A6958FEF811DE6
:1053B000811D08950E94ED290C94612A0E94532AB0
:1053C00038F00E945A2A20F0952311F00C944A2AB2
:1053D0000C94502A11240C94952A0E94722A70F37E
:1053E000959FC1F3950F50E0551F629FF001729F8A
:1053F000BB27F00DB11D639FAA27F00DB11DAA1F99
:10540000649F6627B00DA11D661F829F2227B00DE5
:10541000A11D621F739FB00DA11D621F839FA00D70
:10542000611D221F749F3327A00D611D231F849FC0
:10543000600D211D822F762F6A2F11249F57504017
:105440009AF0F1F088234AF0EE0FFF1FBB1F661F92
:10545000771F881F91505040A9F79E3F510580F05B
:105460000C944A2A0C94952A5F3FE4F3983ED4F3B7
:10547000869577956795B795F795E7959F5FC1F7FF
:10548000FE2B880F911D9695879597F9089599277A
:105490008827089597F99F6780E870E060E0089595
:1054A0009FEF80EC089500240A941616170618063C
:1054B0000906089500240A94121613061406050618
:1054C0000895092E0394000C11F4882352F0BB0FA9
:1054D00040F4BF2B11F460FF04C06F5F7F4F8F4F0C
:1054E0009F4F089557FD9058440F551F59F05F3F47
:1054F00071F04795880F97FB991F61F09F3F79F0F6
:1055000087950895121613061406551FF2CF469577
:10551000F1DF08C0161617061806991FF1CF8695F9
:105520007105610508940895E894BB2766277727DD
:10553000CB0197F90895052E97FB1EF400940E9465
:10554000B22A57FD07D00E94042B07FC03D04EF46B
:105550000C94B22A50954095309521953F4F4F4F6E
:105560005F4F089590958095709561957F4F8F4F0F
:105570009F4F08950E94262BA59F900DB49F900DDC
:10558000A49F800D911D11240895B7FF0C94BA2A91
:105590000E94BA2A821B930B08952F923F924F923A
:1055A0005F926F927F928F929F92AF92BF92CF92B3
:1055B000DF92EF92FF920F931F93CF93DF93CDB7BC
:1055C000DEB7CA1BDB0B0FB6F894DEBF0FBECDBF34
:1055D00009942A88398848885F846E847D848C8405
:1055E0009B84AA84B984C884DF80EE80FD800C810E
:1055F0001B81AA81B981CE0FD11D0FB6F894DEBFF1
:105600000FBECDBFED010895A1E21A2EAA1BBB1B50
:10561000FD010DC0AA1FBB1FEE1FFF1FA217B3077E
:10562000E407F50720F0A21BB30BE40BF50B661F94
:10563000771F881F991F1A9469F760957095809558
:1056400090959B01AC01BD01CF010895A29FB001CF
:10565000B39FC001A39F700D811D1124911DB29FA6
:10566000700D811D1124911D08955058BB27AA2744
:105670000E944D2B0C94612A0E94532A38F00E94FC
:105680005A2A20F039F49F3F19F426F40C94502A3A
:105690000EF4E095E7FB0C944A2AE92F0E94722A47
:1056A00058F3BA17620773078407950720F079F457
:1056B000A6F50C94942A0EF4E0950B2EBA2FA02D8B
:1056C0000B01B90190010C01CA01A0011124FF27AF
:1056D000591B99F0593F50F4503E68F11A16F040AA
:1056E000A22F232F342F4427585FF3CF46953795A9
:1056F0002795A795F0405395C9F77EF41F16BA0B6E
:10570000620B730B840BBAF09150A1F0FF0FBB1F1B
:10571000661F771F881FC2F70EC0BA0F621F731F64
:10572000841F48F4879577956795B795F7959E3FC1
:1057300008F0B0CF9395880F08F09927EE0F979552
:10574000879508950E94B62B0C94612A0E945A2ACC
:1057500058F00E94532A40F029F45F3F29F00C943E
:105760004A2A51110C94952A0C94502A0E94722AAC
:1057700068F39923B1F3552391F3951B550BBB2780
:10578000AA2762177307840738F09F5F5F4F220FC5
:10579000331F441FAA1FA9F335D00E2E3AF0E0E8BC
:1057A00032D091505040E695001CCAF72BD0FE2F06
:1057B00029D0660F771F881FBB1F2617370748079A
:1057C000AB07B0E809F0BB0B802DBF01FF27935852
:1057D0005F4F3AF09E3F510578F00C944A2A0C94A2
:1057E000952A5F3FE4F3983ED4F3869577956795C5
:1057F000B795F7959F5FC9F7880F911D9695879587
:1058000097F90895E1E0660F771F881FBB1F6217A5
:1058100073078407BA0720F0621B730B840BBA0B63
:10582000EE1F88F7E09508950E941B2C6894B11133
:105830000C94952A08950E947A2A88F09F5798F030
:10584000B92F9927B751B0F0E1F0660F771F881F85
:10585000991F1AF0BA95C9F714C0B13091F00E949F
:10586000942AB1E008950C94942A672F782F882702
:10587000B85F39F0B93FCCF3869577956795B395C6
:10588000D9F73EF490958095709561957F4F8F4F35
:105890009F4F08950E94B62908F48FEF0895FA01EA
:1058A000EE0FFF1F309621053105A1F1611571053D
:1058B00061F48038BFE39B0749F168949038810513
:1058C00061F08038BFEF9B0741F099234AF5FF3F15
:1058D000E1053105210519F1E8940894E795D9010E
:1058E000AA2329F4AB2FBE2FF85FD0F310C0FF5FBF
:1058F00070F4A695E0F7F73950F019F0FF3A38F454
:105900009F779F930DD00F9007FC9058089546F015
:105910000C94502A60E070E080E89FE308954FE720
:105920009F775F934F933F932F930E944F2D2F911B
:105930003F914F915F910E94DA290C94AC2C0E9408
:10594000B629880B990B089529F416F00C944A2A6D
:105950000C94942A0C94502A0E947A2AA8F3963820
:10596000A0F707F80F92E8942BE33AEA48EB5FE7D9
:105970000E94F0290F920F920F924DB75EB70F92CF
:105980000E94972DE8E6F0E00E94DE2C4F915F9197
:10599000EF91FF91E595EE1FFF1F49F0FE57E0687C
:1059A0004427EE0F441FFA95E1F74195550B0E94ED
:1059B000112D0F9007FE0C94052D0895DF93CF93C2
:1059C0001F930F93FF92EF92DF927B018C016894FB
:1059D00006C0DA2EEF010E94ED29FE01E894A591A0
:1059E0002591359145915591A6F3EF010E944D2BDC
:1059F000FE019701A801DA9469F7DF90EF90FF901C
:105A00000F911F91CF91DF9108959B01AC0160E050
:105A100070E080E89FE30C94A22B0C944A2A0C942B
:105A2000CB2D0E947A2AD8F39923C9F3940F511DE4
:105A3000A3F39150504094F059F0882332F0660F50
:105A4000771F881F91505040C1F79E3F51052CF79A
:105A5000880F911D9695879597F908955F3FACF053
:105A6000983E9CF0BB27869577956795B79508F487
:105A7000B1609395C1F7BB0F58F711F460FFE8CF01
:105A80006F5F7F4F8F4F9F4FE3CF0C94952A16F097
:105A90000C94CB2D0C94502A68940C944A2A0E94A2
:105AA0007A2AA8F39923C1F3AEF3DF93CF931F9320
:105AB0000F93FF92C92FDD2788232AF02197660FC5
:105AC000771F881FDAF720E030E040E85FEB9FE3C4
:105AD000883920F0803E38F021968F770E94362B4F
