:100000000C942E020C945F020C945F020C945F021D
:100010000C945F020C945F020C945F020C945F02DC
:100020000C945F020C94E40B0C94E40B0C94E40B22
:100030000C945F020C945F020C945F020C945F02BC
:100040000C945F020C945F020C945F020C945F02AC
:100050000C945F020C945F020C945F020C949A0B58
:100060000C945F020C94640B0C943A0B0C945F029A
:100070000C945F020C945F020C945F020C945F027C
:100080000C945F020C945F020C945F020C945F026C
:100090000C945F020C945F020C945F020C94600C51
:1000A0000C945F020C945F020C945F020C945F024C
:1000B0000C945F020C945F020C945F020C945F023C
:1000C0000C945F020C945F020C945F020C945F022C
:1000D0000C945F020C945F020C945F020C945F021C
:1000E0000C945F0207634236B79BD8A71A3968564B
:1000F00018AEBAAB558C1D3CB7CC5763BD6DEDFD4A
:10010000753EF6177231BF000000803F0800000006
:10011000BE922449123EABAAAA2ABECDCCCC4C3EFC
:1001200000000080BEABAAAAAA3E00000000BF00EB
:100130000000803F0000000000084178D3BB4387E7
:10014000D1133D190E3CC3BD4282AD2B3E68EC82FB
:1001500076BED98FE1A93E4C80EFFFBE01C4FF7F80
:100160003F00000000000C94B5030C94CD070C94E4
:10017000CA030C941F050C94840D0C94F5030C9485
:1001800023080C9490020C94DA030C94BF030C9493
:100190009B160C9494050C94C1020C94C7030C9408
:1001A000D4030C94F6070C949F020C9461020C94F7
:1001B0006B080C9420050C94DE030C94DC070C9463
:1001C000D0030C94C3030C9407050C94FA030C940D
:1001D000B3020C9446030C94EF070C94E2030C94C6
:1001E00063020C94F6030C94F0030C94F9020C9443
:1001F0007C050C94BB030C9462020C94E8030C94F1
:10020000EC034E414E494E495459494E46CDCCCC53
:100210003D0AD7233C17B7D13877CC2B329595E6DA
:10022000241FB14F0A000020410000C84200401CBA
:100230004620BCBE4CCA1B0E5AAEC59D7400407A07
:1002400010F35A00A0724E18090010A5D4E800005F
:10025000E87648170000E40B54020000CA9A3B00FD
:100260000000E1F505000080969800000040420F74
:10027000000000A08601000000102700000000E838
:1002800003000000006400000000000A00000000FD
:10029000000100000000002C76D888DC674F08239E
:1002A000DFC1DFAE59E1B1B796E5E3E453C63AE604
:1002B00051997696E8E6C28426EB898C9B62ED40E4
:1002C0007C6FFCEFBC9C9F40F2BAA56FA5F4900533
:1002D0005A2AF75C936B6CF9676DC11BFCE0E40D67
:1002E00047FEF520E6B500D0ED902E03009435775B
:1002F000050080841E080000204E0A000000C80C83
:10030000333333330F986E12831141EF8D211489EB
:100310003BE65516CFFEE6DB18D1844B381BF77C45
:100320001D901DA4BBE424203284725E228100C98A
:10033000F124ECA1E53D2700002100240027002A3C
:10034000002D003000330001010000040107010A04
:100350000100000A0B02090C0D0E0807030401003E
:10036000000000000000000000000000000000008D
:10037000000000000000000000000000001211104A
:10038000000000000000000000000000000000006D
:1003900000000000000000000020002300260029CB
:1003A000002C002F003200000100000301060109AB
:1003B0000100002200250028002B002E003100340F
:1003C0000002010000050108010B010505050507F4
:1003D0000508080808020202020A0A0808040404C0
:1003E00004010101010101010103030303030303EC
:1003F00003040707070C0C0C0C0C0C0C0C0202027B
:100400000206060606060606060B0B0B0B0B0B0B6D
:100410000B0102102020080810204010204080020C
:10042000010201080402010102040810204080803A
:1004300040201008040201800402018040201008BE
:100440000402010804020101020408102040800196
:100450000204081020408000840D9B1611241FBE4A
:10046000CFEFD1E2DEBFCDBF00E00CBF24E0A2E0C1
:10047000B3E001C01D92AA3FB207E1F713E0A0E08C
:10048000B2E0E8EEF2E400E00BBF02C007900D928C
:10049000A230B107D9F712E0CDE2D2E000E006C009
:1004A00021970109802FFE010E94281FCC32D1071D
:1004B00080E00807A9F70E949F0E0C9462210C941B
:1004C000000008950895AF92BF92CF92DF92EF920D
:1004D000FF920F931F93CF93DF936C017B018B01EE
:1004E000040F151FEB015E01AE18BF08C017D1073E
:1004F00059F06991D601ED91FC910190F081E02DC8
:10050000C6011995892B79F7C501DF91CF911F910C
:100510000F91FF90EF90DF90CF90BF90AF90089534
:10052000FC01538D448D252F30E0842F90E0821BF9
:10053000930B541710F0CF96089501970895FC017E
:10054000918D828D981761F0A28DAE0FBF2FB11DD6
:100550005D968C91928D9F5F9F73928F90E008952E
:100560008FEF9FEF0895FC01918D828D981731F0E8
:10057000828DE80FF11D858D90E008958FEF9FEF3C
:100580000895FC01918D228D892F90E0805C9F4F12
:10059000821B91098F739927089580E294E00E944D
:1005A000C10221E0892B09F420E0822F0895FC018B
:1005B000A48DA80FB92FB11DA35ABF4F2C91848DC4
:1005C00090E001968F739927848FA689B7892C9321
:1005D000A089B1898C91837080648C93938D848D74
:1005E000981306C00288F389E02D80818F7D808377
:1005F0000895EF92FF920F931F93CF93DF93EC0137
:1006000081E0888F9B8D8C8D98131AC0E889F989B9
:10061000808185FF15C09FB7F894EE89FF896083BC
:10062000E889F98980818370806480839FBF81E03D
:1006300090E0DF91CF911F910F91FF90EF9008957F
:10064000F62E0B8D10E00F5F1F4F0F731127E02E5A
:100650008C8D8E110CC00FB607FCFACFE889F98992
:10066000808185FFF5CFCE010E94D702F1CFEB8DBF
:10067000EC0FFD2FF11DE35AFF4FF0829FB7F89466
:100680000B8FEA89FB8980818062CFCFCF93DF9384
:10069000EC01888D8823B9F0AA89BB89E889F9899A
:1006A0008C9185FD03C0808186FD0DC00FB607FCCF
:1006B000F7CF8C9185FFF2CF808185FFEDCFCE0102
:1006C0000E94D702E9CFDF91CF91089580E090E0BA
:1006D000892B29F00E94CD0281110E94000080E048
:1006E00090E0892B49F080E090E0892B29F00E946E
:1006F000000081110E94000080E090E0892B49F009
:1007000080E090E0892B29F00E94000081110E9476
:10071000000080E090E0892B49F080E090E0892B98
:1007200029F00E94000081110C940000089581506E
:10073000823108F05AC0E82FF0E08827ED55FC4FD1
:100740008F4F0C94281FC303C703B503BB03BF031C
:10075000F503CA03D003D403DA03DE03E203E8039C
:10076000EC03F503F003F603FA03809180008F7722
:10077000809380000895809180008F7DF9CF8091D3
:100780008000877FF5CF84B58F7784BD089584B5C9
:100790008F7DFBCF8091B0008F778093B00008955C
:1007A0008091B0008F7DF9CF809190008F778093FA
:1007B00090000895809190008F7DF9CF80919000F6
:1007C000877FF5CF8091A0008F778093A000089558
:1007D0008091A0008F7DF9CF8091A000877FF5CF19
:1007E000809120018F7780932001089580912001CE
:1007F0008F7DF9CF80912001877FF5CFCF93DF9355
:10080000282F30E0F901EF5AFC4F8491F901EF5E97
:10081000FB4FD491F901E553FC4FC491CC23A1F0D7
:1008200081110E949703EC2FF0E0EE0FFF1FE956B5
:10083000FC4FA591B491EC91ED2381E090E009F497
:1008400080E0DF91CF91089580E090E0FACF1F9390
:10085000CF93DF93282F30E0F901EF5AFC4F8491BA
:10086000F901EF5EFB4FD491F901E553FC4FC491C0
:10087000CC23A9F0162F81110E949703EC2FF0E0F2
:10088000EE0FFF1FEF54FC4FA591B4918FB7F89472
:10089000EC91111108C0D095DE23DC938FBFDF915E
:1008A000CF911F910895DE2BF8CFCF93DF9390E087
:1008B000FC01EF5EFB4F249185539C4FFC0184911A
:1008C0008823D1F090E0880F991FFC01E95CFC4F70
:1008D000A591B491FC01EF54FC4FC591D4916111E5
:1008E0000EC09FB7F8948C91E22FE0958E238C93E5
:1008F0002881E223E8839FBFDF91CF9108958FB7CE
:10090000F894EC91E22BEC938FBFF6CF863308F08E
:10091000865320917B00982F9870277F922B90937D
:100920007B008770806480937C0080917A00806473
:1009300080937A0080917A0086FDFCCF80917800C8
:100940009091790008953FB7F89480918B0390912E
:100950008C03A0918D03B0918E0326B5A89B05C092
:100960002F3F19F00196A11DB11D3FBFBA2FA92F2E
:10097000982F8827BC01CD01620F711D811D911D2B
:1009800042E0660F771F881F991F4A95D1F7089597
:100990008F929F92AF92BF92CF92DF92EF92FF928F
:1009A0006B017C010E94A3044B015C01C114D104C2
:1009B000E104F104B9F00E94A304681979098A09D5
:1009C0009B09683E73408105910580F321E0C21ABE
:1009D000D108E108F10888EE880E83E0981EA11C7A
:1009E000B11CE4CFFF90EF90DF90CF90BF90AF901D
:1009F0009F908F9008952FB7F8946091870370911E
:100A000088038091890390918A032FBF08952091D4
:100A10009103309192032817390771F490918F0355
:100A200080919003981741F0E0918F03F0E0EA5B2A
:100A3000FC4F808190E008958FEF9FEF0895089517
:100A4000EF92FF920F931F93CF93DF93DC015C969D
:100A5000ED90FC905D97E114F10479F481E090E071
:100A600013969C938E93129790E080E0DF91CF9144
:100A70001F910F91FF90EF9008955196ED91FC9189
:100A8000529750968C915097982F90950FB75E96ED
:100A90002C915E97122F127021FD6095F8942081A1
:100AA000112319F1282B2083E7012197F1F728E082
:100AB000462F50E0308160FF1AC0382B3083E701A9
:100AC0002197F1F7BA0175956795215089F71123A0
:100AD00081F08081892380830FBF5C968D919C91EA
:100AE0000197F1F781E090E0C1CF2923DCCF3923D2
:100AF000E5CF9081892BEFCF209191033091920324
:100B00002817390771F48091900320918F0390E0AA
:100B1000805C9F4F821B910960E470E00E94D31EAD
:100B2000089590E080E00895209191033091920320
:100B300028173907B9F490918F0380919003981783
:100B400089F0E0918F03F0E0EA5BFC4F8081209117
:100B50008F0330E02F5F3F4F2F73332720938F0396
:100B600090E008958FEF9FEF089520912303260FC3
:100B70003327331F21323105ECF42091F603FC01B9
:100B800090E080E0243069F082E00895A091230392
:100B90002191AC014D5F5C4FA40FB52FB11D2C937B
:100BA0000196861798F380912303680F60932303BF
:100BB00080E0089581E008951092F60381E080932B
:100BC000F5031092D00361E084E10E94270461E004
:100BD00085E10E942704E9EBF0E080818E7F80832D
:100BE00080818D7F808388E48093B80085E4809342
:100BF000BC000895CF93DF9391E090930203882384
:100C0000B9F0C091B800D091BA008091BC008A7B45
:100C10008093BC0060E084E10E94270460E085E1ED
:100C20000E9427040E94DC05D093BA00C093B8004C
:100C3000DF91CF910895CF92DF92EF92FF920F93C1
:100C40001F93CF93DF93D0911F0481E0D13208F03E
:100C50009CC0C0911E040E94A3046B017C01809182
:100C6000F60381116CC082E08093F60381E08093EB
:100C7000F5038FEF8093F4031092F303D093F20304
:100C8000AEEFB3E0E2EDF3E080E0D8138DC0109258
:100C9000D1038091D103CC0FC82BC093D103809195
:100CA000D003813009F084C01092D0030E94A304C5
:100CB0006B017C018091D1038093BB008091F8038C
:100CC0009091F903A091FA03B091FB03892B8A2B31
:100CD0008B2BA1F00E94A3040091F8031091F9035B
:100CE0002091FA033091FB036C197D098E099F094D
:100CF000061717072807390708F442C08091BC007F
:100D000083FDD8CF85EC8093BC000E94A3046B01C7
:100D10007C018091F603823009F44CC08091F40389
:100D20008F3F09F469C08091F403803209F466C0F2
:100D30008091F403803309F463C084E026C080917D
:100D4000F8039091F903A091FA03B091FB03892B6A
:100D50008A2B8B2B09F483CF0E94A3040091F80304
:100D60001091F9032091FA033091FB036C197D096E
:100D70008E099F09061717072807390708F06FCF54
:100D80008091F7030E94FA0585E01092FD0310920E
:100D90001F041092FC03DF91CF911F910F91FF90E0
:100DA000EF90DF90CF9008959D9191938F5F6DCFDD
:100DB00085EEA9CF8091F8039091F903A091FA03F1
:100DC000B091FB03892B8A2B8B2B09F4A2CF0E94B5
:100DD000A3040091F8031091F9032091FA033091D4
:100DE000FB036C197D098E099F0906171707280751
:100DF000390708F08ECFC4CF80E0C7CF82E0C5CFDF
:100E000083E0C3CFCF92DF92EF92FF920F931F93B5
:100E1000CF93C82F813208F096C00E94A3046B01C3
:100E20007C018091F603811169C081E08093F60313
:100E30008093F5039FEF9093F4031092F3039C0FBC
:100E40009093F2038093D1038091D1038E6E8093AF
:100E5000D1038091D003813009F077C01092D00384
:100E60000E94A3046B017C018091D1038093BB009D
:100E70008091F8039091F903A091FA03B091FB03DC
:100E8000892B8A2B8B2BA1F00E94A3040091F803DD
:100E90001091F9032091FA033091FB036C197D093D
:100EA0008E099F09061717072807390708F447C056
:100EB0008091BC0083FDD8CF85EC8093BC000E945C
:100EC000A3046B017C018091F603813009F43FC0DB
:100ED0008091F3038C1710F4C091F303A2EDB3E0FB
:100EE000E0EBF3E080E08C1354C08C2FCF911F9186
:100EF0000F91FF90EF90DF90CF9008958091F803CD
:100F00009091F903A091FA03B091FB03892B8A2BEE
:100F10008B2B09F486CF0E94A3040091F803109153
:100F2000F9032091FA033091FB036C197D098E09B6
:100F30009F09061717072807390708F072CF809115
:100F4000F7030E94FA05C0E0D0CF85EEB6CF8091BE
:100F5000F8039091F903A091FA03B091FB03892B58
:100F60008A2B8B2B09F4AFCF0E94A3040091F803C6
:100F70001091F9032091FA033091FB036C197D095C
:100F80008E099F09061717072807390708F09BCF16
:100F9000D6CF9D9191938F5FA6CFE09198038091DA
:100FA0009703E81730F4F0E0E055FC4F808190E0C3
:100FB00008958FEF9FEF0895909198038091970384
:100FC0002FEF3FEF981748F4E92FF0E0E055FC4F82
:100FD000208130E09F5F90939803C901089580912C
:100FE000970390919803891B990B0895CF92DF92F4
:100FF000EF92FF920F931F93CF93DF937C01CB016E
:101000008A012091FC03222389F0EB016B01C40EBD
:10101000D51ECC15DD0569F06991D701ED91FC91E4
:101020000190F081E02DC7011995F3CF642F0E9444
:10103000B505C801DF91CF911F910F91FF90EF90FF
:10104000DF90CF900895CF93DF931F92CDB7DEB797
:1010500069832091FC032223F9F020911F042032A0
:1010600058F021E030E0FC013383228390E080E0FF
:101070000F90DF91CF9108958091FD03E82FF0E06C
:10108000E250FC4F998190838F5F8093FD038093A2
:101090001F0481E090E0ECCF61E0CE0101960E9458
:1010A000B505F7CFCF93C82F81E08093FC0387E786
:1010B00080931E041092FD0310921F0464EF8DEBC9
:1010C00094E00E9423086C2F8DEB94E00E9423088B
:1010D000CF910C941B0690E080E008951F93CF936E
:1010E000DF93EB0191E09093FC0397E790931E044C
:1010F0001092FD0310921F04682F8DEB94E00E9464
:1011000023080E941B0682E00E94020710929803A7
:10111000809397038DEB94E00E94DC07182F8DEBF2
:1011200094E00E94DC0720E0822B912B9983888336
:10113000DF91CF911F910C941B060F931F93CF93B8
:10114000DF931F921F92CDB7DEB78C018EE20E9413
:10115000520865E070E080E090E00E94C804BE01A3
:101160006F5F7F4F86EF0E946E0889819A81B0E0A1
:10117000A0E0F80180839183A283B3830F900F9046
:10118000DF91CF911F910F9108950F931F93CF93EC
:10119000DF931F921F92CDB7DEB78B01BE016F5F49
:1011A0007F4F0E946E0889819A81F8019183808324
:1011B0000F900F90DF91CF911F910F910895CF93D2
:1011C000DF93EB0191E09093FC0397E790931E046B
:1011D0001092FD0310921F04682F8DEB94E00E9483
:1011E00023080E941B0681E00E94020710929803C8
:1011F000809397038DEB94E00E94DC078883DF9156
:10120000CF910C941B06FC0101900020E9F7319767
:10121000AF01481B590BBC0180E294E00C946302BF
:101220008F929F92AF92BF920F931F93CF93DF93B2
:10123000CDB7DEB7A1970FB6F894DEBF0FBECDBF16
:1012400019A2423008F44AE08E010F5D1F4F842E30
:10125000912CB12CA12CA50194010E94E71EE62F30
:10126000B901CA01EA30F4F4E05DD801EE938D01D2
:10127000232B242B252B79F790E080E0109719F091
:10128000CD010E940309A1960FB6F894DEBF0FBEF0
:10129000CDBFDF91CF911F910F91BF90AF909F90E5
:1012A0008F900895E95CE1CFCF93DF930E9403090B
:1012B000EC018CE392E00E9403098C0F9D1FDF91EB
:1012C000CF9108954F925F926F927F928F929F92EB
:1012D000AF92BF92CF92DF92EF92FF920F931F9344
:1012E000CF936B017C01742EAC019B010E94891D80
:1012F000882399F08FE392E0CF911F910F91FF9097
:10130000EF90DF90CF90BF90AF909F908F907F90A5
:101310006F905F904F900C94030946015701E89439
:10132000B7F82FEF3FEF4FE75FE7C501B4010E9429
:10133000891D81110DC02FEF3FEF4FE75FE7C5011A
:10134000B4010E94DE1A18161CF483E492E0D4CF94
:101350002FEF3FEF4FE75FE4C701B6010E94341D56
:1013600018161CF487E492E0C7CF2FEF3FEF4FE74A
:101370005FECC701B6010E94DE1A87FDF3CF20E0C3
:1013800030E0A901C701B6010E94DE1A10E000E0BA
:1013900087FF0AC06DE280E294E00E94F9028C01AE
:1013A000F7FAF094F7F8F094C0E060E070E080E0C5
:1013B0009FE37C1641F020E030E040E251E40E94DF
:1013C0008C1CCF5FF6CFA70196010E94201C2B0139
:1013D0003C010E94051D4B015C014AE00E9410097E
:1013E0007C01E00EF11ECC23C1F1C501B4010E94C5
:1013F000E31A9B01AC01C301B2010E941F1C4B0107
:101400005C016EE280E294E00E94F902E80EF91EAF
:10141000C15018F120E030E040E251E4C501B401D0
:101420000E94441B2B013C010E94051D4B01B12C65
:10143000A12C4AE0C501B4010E941009E80EF91E72
:10144000C501B4010E94E31A9B01AC01C301B201C2
:101450000E941F1C4B015C01DBCFC701CF911F9184
:101460000F91FF90EF90DF90CF90BF90AF909F9043
:101470008F907F906F905F904F900895CF93DF9300
:1014800042E00E946209EC018CE392E00E940309B1
:101490008C0F9D1FDF91CF910895CF93DF93FC01B7
:1014A000448155816081718180E294E00E946302F1
:1014B000EC018CE392E00E9403098C0F9D1FDF91E9
:1014C000CF9108950F931F93CF93DF93EC01888101
:1014D0009981009759F02A813B812617370730F010
:1014E00081E0DF91CF911F910F9108958B016F5F84
:1014F0007F4F0E947120009759F0998388831B8346
:101500000A832C813D81232B59F7FC011082E8CFFF
:1015100080E0E7CFEF92FF920F931F93CF93DF937B
:101520006115710541F480E0DF91CF911F910F911A
:10153000FF90EF90089541155105B1F07B01EC014A
:101540000C811D81040F151FB8010E94620A8823B7
:1015500051F3288139818C819D81B701820F931FBE
:101560000E945B211D830C8381E0DECFCF93DF934C
:10157000EC0188819981009711F00E94E81F19827F
:1015800018821D821C821B821A82DF91CF910895DE
:10159000EF92FF920F931F93CF93DF93EC017B01A8
:1015A0008A01BA010E94620A81110BC0CE010E9419
:1015B000B60ACE01DF91CF911F910F91FF90EF906E
:1015C00008951D830C83B701888199810E945B2156
:1015D000F0CFFC01118210821382128215821482D4
:1015E000FB0101900020E9F73197AF01461B570B33
:1015F0000C94C80AFC0180819181009711F00C9431
:10160000E81F089585ED8093BC008091F8039091C8
:10161000F903A091FA03B091FB030796A11DB11D38
:1016200023E0B695A795979587952A95D1F72091B0
:10163000BC0024FD03C01092F60308954091F80306
:101640005091F9036091FA037091FB03452B462BEF
:10165000472B69F30097A105B10541F025E32A95D1
:10166000F1F700000197A109B109E1CF8091F703DB
:101670000C94FA051F920F920FB60F9211240BB61D
:101680000F922F933F934F935F936F937F938F931B
:101690009F93AF93BF93EF93FF9380E294E00E94F8
:1016A000D702FF91EF91BF91AF919F918F917F9161
:1016B0006F915F914F913F912F910F900BBE0F90C3
:1016C0000FBE0F901F9018951F920F920FB60F929A
:1016D00011240BB60F922F938F939F93EF93FF9349
:1016E000E0913004F09131048081E0913604F09172
:1016F000370482FD1DC09081809139048F5F8F7304
:1017000020913A04821741F0E0913904F0E0E05E64
:10171000FB4F958F80933904FF91EF919F918F91AB
:101720002F910F900BBE0F900FBE0F901F9018952A
:101730008081F2CF1F920F920FB60F9211242F9338
:101740003F938F939F93AF93BF9380918703909123
:101750008803A0918903B0918A033091860323E026
:10176000230F2D3758F50196A11DB11D2093860337
:101770008093870390938803A0938903B0938A038F
:1017800080918B0390918C03A0918D03B0918E0377
:101790000196A11DB11D80938B0390938C03A093A0
:1017A0008D03B0938E03BF91AF919F918F913F9125
:1017B0002F910F900FBE0F901F90189526E8230FC2
:1017C0000296A11DB11DD2CF1F920F920FB60F929C
:1017D00011240BB60F922F933F934F935F936F9308
:1017E0007F938F939F93AF93BF93EF93FF93E0917A
:1017F0009103F0919203309749F0A685B7858585CE
:10180000968D91FF16C09C918923B1F4FF91EF91C1
:10181000BF91AF919F918F917F916F915F914F9108
:101820003F912F910F900BBE0F900FBE0F901F9006
:1018300018959C91892351F7A389B4899C91858936
:10184000809589238C93868997890197F1F7608D1C
:10185000718DA685B785558538E020E0CB010197CD
:10186000F1F7822F90E095958795282F4C9145238D
:1018700009F02068315091F7868D81FD2095809187
:10188000900390E001968F73992730918F0338175A
:1018900099F0A0919003B0E0AA5BBC4F2C93809389
:1018A0009003828D938D0197F1F7A389B4898C9170
:1018B0009589892B8C93AACF868D8160868FF1CFF5
:1018C0001F920F920FB60F9211240BB60F922F9307
:1018D0003F934F935F936F937F938F939F93AF93B8
:1018E000BF93EF93FF938091B900887F803609F40E
:1018F0004DC008F040C0883209F4A9C028F58031F5
:1019000009F49DC0C8F4882309F4FBC0883009F4A9
:1019100096C0FF91EF91BF91AF919F918F917F9171
:101920006F915F914F913F912F910F900BBE0F9050
:101930000FBE0F901F901895883109F488C080322F
:1019400041F78093F40314C0803409F49DC040F43F
:101950008033B9F38833E9F68093F40385ECB0C0A3
:10196000803509F485C0883509F496C0883489F635
:101970000E94020BCECF883909F48CC038F5883725
:1019800029F050F4883611F0803719F683E08093FF
:10199000F6031092450357C0883809F47BC080399C
:1019A00019F0803809F0B5CF80914503803208F0F6
:1019B00071C0E091450381E08E0F809345038091D3
:1019C000BB00F0E0EB5DFC4F80833DC0803B39F015
:1019D000E0F4803A09F479C0883A09F09ACF84E0BB
:1019E0008093F6031092240310922303E091950351
:1019F000F091960319958091230381110FC081E026
:101A0000809323031092030309C0803C09F4A6CFFE
:101A1000883C09F4A3CF883B09F07BCFE0912403F5
:101A200081E08E0F80932403F0E0ED5FFC4F808116
:101A30008093BB00909124038091230329C080915F
:101A4000D1038093BB0085EC8093BC0062CF909162
:101A5000F3038091F203981758F5E091F30381E0C6
:101A60008E0F8093F303F0E0EE52FC4F8081E9CFBC
:101A7000E091F30381E08E0F8093F3038091BB002C
:101A8000F0E0EE52FC4F80839091F3038091F203DB
:101A90009817C8F285E8D8CFE091F30381E08E0F64
:101AA0008093F3038091BB00F0E0EE52FC4F808303
:101AB0008091F50381115CCF81E08093D00384EAAB
:101AC0008093BC001092F60324CF85EC8093BC0079
:101AD0001092F60380914503803230F4E091450383
:101AE000F0E0EB5DFC4F10826091450370E0E09107
:101AF0009303F091940385E293E0199510924503C6
:101B000008CF1092F40334CF1092230410922204D1
:101B100088EE93E0A0E0B0E0809324049093250445
:101B2000A0932604B09327042AE032E030932104E6
:101B30002093200425EC30E030932D0420932C04D6
:101B400024EC30E030932F0420932E0420EC30E07E
:101B5000309331042093300421EC30E0309333048F
:101B60002093320422EC30E0309335042093340487
:101B700026EC30E030933704209336041092390479
:101B800010923A0410923B0410923C041092C0044C
:101B90001092BF048093C1049093C204A093C30425
:101BA000B093C4042CE132E03093BE042093BD0412
:101BB0001092D8041092D7048093D9049093DA0439
:101BC000A093DB04B093DC048EE292E09093D60401
:101BD0008093D5041092EC041092EB041092EE0462
:101BE0001092ED041092F0041092EF041092F2049F
:101BF0001092F1046091F3046E7F6D7F6093F304A3
:101C00006695617081E068278BE00E94270461E09F
:101C10008BE00E945504ECE1F4E0E491E093E504EC
:101C2000E6EDF3E0E491F0E0EE0FFF1FEF54FC4F20
:101C3000859194919093E7048093E60460E08AE0B4
:101C40000E9455048091F30481FD04C061E08AE0A4
:101C50000E9427048AE08093E104EBE1F4E0E49140
:101C6000E093E204E5EDF3E0E491F0E0EE0FFF1F16
:101C7000E956FC4F859194919093E4048093E3049A
:101C800081E090E00E944C1F9093D4048093D30491
:101C90008AE090E00E944C1FFC01108211821282A7
:101CA0001382148215821682178285ED94E0918743
:101CB0008087F093D204E093D10486E090E00E9404
:101CC0004C1FFC018EE090E09183808385E390E0DF
:101CD0009383828388EE93E095838483F093D0048A
:101CE000E093CF0486E090E00E944C1FFC018FE05F
:101CF00090E09183808381E290E09383828380ED02
:101D000097E095838483F093CE04E093CD048EE432
:101D100090E00E944C1F24E330E0FC0131832083DB
:101D20002091C9043091CA042F5F3F4F3093CA04F9
:101D30002093C9049093CC048093CB040895CF934F
:101D4000DF93CDB7DEB7CC56D1090FB6F894DEBF1E
:101D50000FBECDBF789484B5826084BD84B58160A8
:101D600084BD85B5826085BD85B5816085BD809166
:101D70006E00816080936E001092810080918100DE
:101D800082608093810080918100816080938100D6
:101D9000809180008160809380008091B100846098
:101DA0008093B1008091B00081608093B0008091F9
:101DB0009100826080939100809191008160809376
:101DC0009100809190008160809390008091A100AB
:101DD00082608093A1008091A10081608093A10026
:101DE0008091A00081608093A00080912101826099
:101DF0008093210180912101816080932101809154
:101E0000200181608093200180917A00846080931A
:101E10007A0080917A00826080937A0080917A00C3
:101E2000816080937A0080917A00806880937A0044
:101E30001092C100E0913004F091310482E080837F
:101E4000E0912C04F0912D041082E0912E04F09189
:101E50002F048FEC808310923804E0913404F091C9
:101E6000350486E08083E0913204F0913304808170
:101E700080618083E0913204F09133048081886036
:101E80008083E0913204F091330480818068808304
:101E9000E0913204F091330480818F7D8083109231
:101EA000F0041092EF041092EE041092ED041092E0
:101EB000EC041092EB048DE991E09093F20480938E
:101EC000F1048091E10496EF980F943048F02EECE5
:101ED000280F243028F022EC280F283008F061C0A9
:101EE0002DEB30E03093EC042093EB042BE931E050
:101EF0003093EE042093ED042CE231E03093F004B3
:101F00002093EF04943050F02EEC280F243030F062
:101F100022EC280FF0E0E0E0283010F4E8E6F0E0F2
:101F20002081943028F032EC380F383008F4BFC5E7
:101F300031E0232B943048F09EEC980F943028F039
:101F40008E53F0E0E0E0883010F4E8E6F0E0208323
:101F50002091E10436EF320F343008F4AAC58EEC3C
:101F6000820F843008F4A5C582EC820F883008F017
:101F7000A3C58DE690E09093E9048093E8043430A3
:101F800008F09DC52650330B81E001C0880F2A95CB
:101F9000EAF78093EA048091F1049091F2040197AA
:101FA000F1F78091EF049091F004892B49F1E091D1
:101FB0009103F091920324E0E53DF20709F1309797
:101FC00039F0A389B4899C918589809589238C9364
:101FD0008091F3048E7F8093F3041092900310920B
:101FE0008F0385ED94E09093920380939103E091A9
:101FF000E804F091E90480819091EA04892B8083C0
:1020000010929803109297031092FD0310921F04F0
:102010000E94DC0581E692E09093960380939503FD
:1020200082E692E09093940380939303BE016F5FE6
:102030007F4F80ED0E94DF0889818535C9F51092B8
:1020400099036AE973E08AEA0E94C5086CE973E0C3
:102050008CEA0E94C5086EE973E08EEA0E94C5080A
:1020600060EA73E080EB0E946E0862EA73E082EB44
:102070000E946E0864EA73E084EB0E946E0866EAD0
:1020800073E086EB0E94C50868EA73E088EB0E9463
:10209000C5086AEA73E08AEB0E94C5086CEA73E03F
:1020A0008CEB0E94C5086EEA73E08EEB0E94C508B7
:1020B000E091CD04F091CE0464817581072E000C6F
:1020C000880B990B0E94C804E091CF04F091D004D2
:1020D00064817581072E000C880B990B0E94C8043F
:1020E000AE014F5F5F4F1A01CE01875B9F4F67962E
:1020F0009FAF8EAF67970E94FB04A5967FAF6EAF30
:10210000A597C1010E949D088091A4039091A50309
:1021100029813A814B815C81281B390B4109510986
:10212000A091A203B091A3030E94051C6B017C0146
:102130009FE0F594E794D794C7949A95D1F760916E
:10214000AC037091AD03072E000C880B990B2BE0AC
:10215000660F771F881F991F2A95D1F72091AE032C
:102160003091AF03032E000C440B550B2C0D3D1D7D
:102170004E1D5F1D0E94091FCA01B9016C0D7D1D16
:102180008E1D9F1D685F7F4F8F4F9F4F34E0959549
:102190008795779567953A95D1F70E94E51A20E0E3
:1021A00030E040E251E40E948C1CAD966CAF7DAFF4
:1021B0008EAF9FAFAD9719821A821B821C82C1011C
:1021C0000E949D0810919903812F8295880F880F96
:1021D000807C8C5C0E94520868E070E080E090E0B7
:1021E000113081F065E070E080E090E0113050F057
:1021F0006EE070E080E090E0123021F06AE170E083
:1022000080E090E00E94C804BE01675B7F4F86EFCC
:102210000E946E082B96CEACDFAC2B97F12CE12CF4
:10222000FE2CED2CDC2CCC24BE01615B7F4F88EFB3
:102230000E94DF0860968FAD6097A7019601280F76
:10224000311D411D511D6B962CAF3DAF4EAF5FAFA1
:102250006B978091A4039091A50329813A814B81CA
:102260005C81281B390B41095109A091A203B0914F
:10227000A3030E94051C6B017C01AFE0F594E79479
:10228000D794C794AA95D1F76091AC037091AD0330
:10229000072E000C880B990BBBE0660F771F881F79
:1022A000991FBA95D1F72091AE033091AF03032E59
:1022B000000C440B550B2C0D3D1D4E1D5F1D0E9447
:1022C000091FC20ED31EE41EF51E30EAC31A3FE0FA
:1022D000D30AE108F108A7019601C701B6010E94DF
:1022E000C31E2B013C010CE07594679457944794EE
:1022F0000A95D1F7A0919E03B0919F030E94301FD1
:102300004B015C018DE0B594A794979487948A95CE
:10231000D1F7A091A603B091A703A30192010E9457
:10232000301F9C01552737FD5095452F280D391D2D
:102330004A1D5B1D2E5F3F4F4F4F5F4F62E055952B
:102340004795379527956A95D1F730584F4F5F4F8E
:10235000A091A003B091A1030E94051C4B015C0158
:102360007FE0B694A794979487947A95D1F788E004
:1023700090E0811B91096B962CAD3DAD4EAD5FADEC
:102380006B9704C055954795379527958A95D2F751
:102390006B962CAF3DAF4EAF5FAF6B97A091A8038C
:1023A000B091A903A30192010E94301F2B013C01AF
:1023B000EBE07594679457944794EA95D1F7A09110
:1023C0009C03B0919D03A70196010E94301FFBE082
:1023D0009595879577956795FA95D1F7460E571E8F
:1023E000681E791E80919A0390919B03092E000C20
:1023F000AA0BBB0B02E0880F991FAA1FBB1F0A95EF
:10240000D1F7840D951DA61DB71D2C013D01012E90
:1024100004C0440C551C661C771C0A94D2F732E0A9
:10242000430E511C611C711C82E075946794579493
:1024300047948A95D1F76B962CAD3DAD4EAD5FAD0F
:102440006B97241935094609570960E573EC80E05C
:1024500090E004C095958795779567951A95D2F782
:102460000E94C31E97FD40C3660F771F881F991FE8
:10247000A50194010E94E71E69017A019927F7FCE2
:102480009A958F2D7E2D6D2D9B01AC010E94C31E50
:102490009B01AC01AEEDBBE00E94051C4B015C0151
:1024A000A3E4B3EEA70196010E94331FBC01992754
:1024B00077FD9095892F4501BB2497FCB094AB2CF8
:1024C000680D791D8A1D9B1D6153714F8F4F9F4F62
:1024D00044E095958795779567954A95D1F76C0D6A
:1024E0007D1D8E1D9F1D0E94E51A2B013C0120E8D9
:1024F00036EE45EC57E40E948C1C2EEA3CED42E49B
:102500005EE30E94391D9B01AC0160E070E080E851
:102510009FE30E941F1C20E03AE24DE257E40E9434
:10252000441BA9966CAF7DAF8EAF9FAFA997E0908B
:10253000CF04F090D0046BE472E0CE01815B9F4F3A
:102540000E94E90A80E00E9486042B961FAE1EAE10
:102550002B972D961FAE1EAE2D972F961FAE1EAE3B
:102560002F974AE0B1010E94D916F1010190002095
:10257000E9F73197AF0142195309B101CE01875BE9
:102580009F4F0E94C80A60E572E0C1010E94E90AFB
:102590002F964EAD5FAD2F972B966EAD7FAD2B97DF
:1025A000C1010E948A0A811103C0C1010E94B60ABA
:1025B0004D815E8169817A81CE01815B9F4F0E944E
:1025C0008A0AC1010E94FA0ACE01875B9F4F0E94CE
:1025D000FA0A60E0D70112968C910E945504F70127
:1025E00082810E94FE03892B49F040E150E062E6BF
:1025F00072E0CE01815B9F4F0E948A0ACE01815B0F
:102600009F4F0E944D0ACE01815B9F4F0E94FA0AA4
:10261000E090CD04F090CE0463E772E0CE01815BE0
:102620009F4F0E94E90AD7018C910E9486042B9645
:102630001FAE1EAE2B972D961FAE1EAE2D972F965A
:102640001FAE1EAE2F97BC01990F880B990B0E94ED
:10265000E51A20E030E947E156E40E94441B20E0FF
:1026600030EC4FE754E40E948C1C20E030E046E957
:1026700053E40E94201C810122E044E00E94B7162E
:10268000009709F43CC2FC0101900020E9F7319762
:10269000AF01481B590BBC01CE01875B9F4F0E94C5
:1026A000C80A2F964EAD5FAD2F972B966EAD7FADBE
:1026B0002B97CE01815B9F4F0E948A0ACE01875BD8
:1026C0009F4F0E94FA0A60E0F70182810E94550440
:1026D000D70112968C910E94FE03892B49F040E1AC
:1026E00050E062E672E0CE01815B9F4F0E948A0A51
:1026F000CE01815B9F4F0E944D0ACE01815B9F4FAF
:102700000E94FA0AE090CB04F090CC0461E0F7015B
:1027100080810E94550461E0D7018C910E942704BA
:1027200066E970E080E090E00E94C80460E0F70194
:1027300080810E94270462E170E080E090E00E94C6
:10274000C80461E0D7018C910E9427048BE990E0D6
:102750000197F1F760E0F70180810E945504D701ED
:102760008C910E94FE03892B61F4F70180810E9405
:10277000FE03892BD1F3D7018C910E94FE030197B0
:10278000D1F35701BAE0AB0EB11CD12CC12C10E033
:102790004601E1E08E229924D7018C910E94FE032C
:1027A0008816990619F41F5F1034B1F7F5011193DB
:1027B0005F01FFEFCF1ADF0A20E4C216D10439F718
:1027C000F70190E080E0B701645B7F4FA701465BB3
:1027D0005F4F57013DE4A30EB11C9701255B3F4FAE
:1027E000C284D384883091050CF091C1D9011C9129
:1027F000110FCD1408F489C11C93019632968032D2
:10280000910571F7F701E65BFF4FA196FFAFEEAFC1
:10281000A197F0816896FFAF68978701045B1F4F0F
:10282000D8016C9170E090E080E00E94E51A20E011
:1028300030E048EC52E40E948C1C4B015C0168962D
:10284000BFAD68976B2F70E090E080E00E94E51AC2
:102850009B01AC01C501B4010E94201CF7016283F9
:102860007383848395839701235B3F4FA3963FAF88
:102870002EAFA397D9016C9170E090E080E00E94A8
:10288000E51A20E030E048EC52E40E948C1C4B0139
:102890005C016701BBE4CB0ED11CF601608170E0E6
:1028A00090E080E00E94E51A9B01AC01C501B401F3
:1028B0000E94201CD70116966D937D938D939C9357
:1028C00019976896BFAD6897B436F0F58EE792E039
:1028D0000E94030984E892E00E940309F6016081E6
:1028E00070E090E080E04AE00E9410098AE892E0FF
:1028F0000E940309A396AEADBFADA3976C9170E0A3
:1029000090E080E04AE00E9410098CE892E00E948A
:102910000309A196EEADFFADA197608170E090E054
:1029200080E04AE00E9410098AE892E00E940309D0
:10293000D8016C9170E090E080E04AE00E941009BC
:102940008EE992E00E945409A596EEADFFADA597E1
:10295000E93FFA420CF4AEC14091D1045091D20447
:1029600069965FAF4EAF69970E94FB044B015C0113
:102970000E94FB04681979098A099B096639710567
:102980008105910508F076C16996AEADBFAD699736
:1029900018968D919C91DC01ED91FC910084F1855C
:1029A000E02D1995892B21F36996EEADFFAD69975E
:1029B00080859185DC01ED91FC910284F385E02D09
:1029C00019958497A9F66996EEADFFAD6997E084F5
:1029D000F18461010E94FB04D70118966D937D93E9
:1029E0008D939C931B97D701ED91FC910284F38505
:1029F000E02DC701199597FF8EC10E94FB04F701D6
:102A00000085118522853385601B710B820B930B2A
:102A1000048115812681378160177107820793072A
:102A200010F329961FAE29978B81873409F0A0CF28
:102A30008C81873409F09CCF8D81813409F098CF47
:102A40006101F12CE12CF10101900020E9F73197AF
:102A5000E219F309C601821993098E179F0708F03E
:102A600089C0D6018D916D018C3261F4CD010E9437
:102A7000D5166F966CAF7DAF8EAF9FAF6F97BFEFE0
:102A8000EB1AFB0AE2E0EE16F10409F05EC06F9665
:102A90002CAD3DAD4EAD5FAD6F976996AEADBFADA0
:102AA00069972D933D934D935C931397CCCF34E06E
:102AB00040CA8BE690E05FCA90E080E05CCA88E0A4
:102AC000223309F466CA84E0233309F462CA82E03F
:102AD000243309F45ECA82EC820F883018F42E5336
:102AE000330B52CA81E055CAA50194010E94E71E2A
:102AF00069017A01CC0CDD1CEE1CFF1CBFCCCE01A1
:102B0000875B9F4F0E94B60ACCCD116075CE803195
:102B1000910544F4D5011C91110FCD1408F06CCE31
:102B200011606ACE8831910544F4DA011C91110FCD
:102B3000CD1408F061CE11605FCEDB011C91110F46
:102B4000CD1408F059CE116057CEB4E0EB16F10465
:102B500009F079CF6F962CAD3DAD4EAD5FAD6F975F
:102B60006996AEADBFAD699714962D933D934D9385
:102B70005C9317976996EEADFFAD6997C080D180E1
:102B8000E280F380C701B6010E94FE1CCB0164E61F
:102B900070E00E94D31E8B01F4E6F09FB001F19F1C
:102BA000700D1124072E000C880B990B0E94E51A5A
:102BB0009B01AC01C701B6010E941F1C20E030E060
:102BC00040E752E40E948C1C6B017C01B801110F9C
:102BD000880B990B0E94E51A9B01AC01C701B60155
:102BE0000E94201C6996AEADBFAD69976D937D9331
:102BF0008D939C9313971496CD90DD90ED90FC905F
:102C00001797C701B6010E94FE1CCB0164E670E075
:102C10000E94D31E8B01B4E6B09FB001B19F700D2E
:102C20001124072E000C880B990B0E94E51A9B01BA
:102C3000AC01C701B6010E941F1C20E030E040E754
:102C400052E40E948C1C6B017C01B801110F880BAF
:102C5000990B0E94E51A9B01AC01C701B6010E94C5
:102C6000201C6996EEADFFAD6997648375838683FA
:102C700097837ECE81EA92E00E940309E090D1041E
:102C8000F090D204D7016D917D918D919C9146E099
:102C90000E9462098CEA92E00E940309F7016481B4
:102CA00075818681978146E00E9462098CE392E0FB
:102CB0000E9403098FEA92E00E940309AD966CAD71
:102CC0007DAD8EAD9FADAD970E943E0A8CEB92E03C
:102CD0000E94030920E030E048EC52E4C301B20155
:102CE0000E948C1C0E943E0A86EC92E00E9403091E
:102CF000A9966CAD7DAD8EAD9FADA9970E943E0AA1
:102D000080ED92E00E94540985ED92E00E94540902
:102D10000E946603F0C98A30910509F482CED6017B
:102D20008D936D016796EEADFFAD6797EA17FB07D0
:102D300009F050CE76CE8EE292E09093D604809346
:102D4000D5048091910390919203855D944071F434
:102D5000E091E804F091E90490818091EA04809583
:102D60008923808310929203109291030895EF9229
:102D70000F931F93CF93DF93E80134E047FD34E1D5
:102D8000042E000C550B57FF03C051954195510976
:102D9000E32E022F242FAE010E94FE16CE01DF91FA
:102DA000CF911F910F91EF900895662777270C948C
:102DB0007718BB274A3031F4992322F4BDE290956D
:102DC00081959F4F0C94E516BB27FB015527AA2739
:102DD000880F991FAA1FA41710F0A41B83955051A8
:102DE000B9F7A05DAA3308F0A95DA193009779F720
:102DF000B111B1931192CB010C94CE1A8F929F9284
:102E0000AF92BF92CF92DF92EF92FF920F931F93F8
:102E1000CF93DF9300D000D000D0CDB7DEB76A01EA
:102E2000F22EB02E102FFBE3AF2EA01608F41BE3FA
:102E30001F5F012F27E0AE014F5F5F4F0E94D51942
:102E4000BC018981982F9970913009F44EC09BE2A2
:102E5000E1FC04C09E2D9170E0FC49C05E2D5071D4
:102E6000E82FE87083FF55C084E0911101C083E032
:102E7000EF2DE81B8F1508F0E0E0D6018E2F20E241
:102E80005523C9F1992329F0D6019C93C6010196D7
:102E90006C0196012D5F3F4FE2FE33C08EE4D601F8
:102EA0008C9391E411969C93119712968C93D9016F
:102EB0008E2F90E281112AC0E20FF32FF11D1082B4
:102EC0008EEF9FEF29960FB6F894DEBF0FBECDBFF1
:102ED000DF91CF911F910F91FF90EF90DF90CF90F6
:102EE000BF90AF909F908F9008959DE2B7CF90E2F2
:102EF000B5CF2D9381508111FCCFCE0ED11CE0E0D7
:102F0000C1CF8EE6D6018C9391E6CCCF9D938150B4
:102F1000D1CF482F447082FF3DC084E0911101C0A1
:102F200083E08F1510F4EF2DE81BD6018E2F20E2E1
:102F3000552309F1992329F0D6019C93C6010196E6
:102F40006C0196012D5F3F4FE2FE1BC089E4D60164
:102F50008C938EE411968C93119786E412968C9341
:102F6000D9018E2F90E2882309F4A6CF9D9381503A
:102F7000FACF2D9381508111FCCFCE0ED11CE0E011
:102F8000D9CF89E6D6018C938EE611968C93119752
:102F900086E6E4CF9B0177FF02C030E020E0A1E0AD
:102FA000B0E0911102C0B0E0A0E0F9013196AE0F9F
:102FB000BF1F8B2C912CBB2009F461C05401EFEF93
:102FC000AE1ABE0AAA0DBB1DFA161B0619F014F0A4
:102FD0004F2D4A1B511188C0E3FC59C07601A42F24
:102FE000B0E2A1114FC0C40ED11C992309F45BC0FB
:102FF00040E0D6011196F60190836D01552309F446
:1030000048C0012F060F9A81582F507184FF03C0CA
:10301000913309F4015010160CF047C0093008F044
:1030200008E0EEE2FE2E5B01A01AB1088501919442
:10303000819491082F3F320729F4D601FC92F601C2
:1030400031966F016217730794F1021713077CF52D
:10305000DB01A21BB30BAA24A394B12CAC0EBD1EA2
:10306000AA0DBB1D11968C9121503109D6011196E4
:1030700028153905F4F0F60180836D01DBCFB12C02
:10308000A12CA0CFF701B1937F01A150AACF91113C
:10309000B0CFD601942F50E302C05D9391509111AF
:1030A000FCCFC40ED11C40E0ACCF01E0BACF80E32E
:1030B000DBCF6217730731F4963388F4953311F43C
:1030C000552369F0F6018083FD01842F90E2811180
:1030D00008C0A40FB11D1C9290E080E0F3CE81E304
:1030E000F1CF91938150F3CF911183CF8ACF8F92FB
:1030F0009F92AF92BF92CF92DF92EF92FF920F9387
:103100001F93CF93DF935C017B016115710519F06B
:10311000DB018D939C9385010F5F1F4FF501D081DB
:103120008D2F90E00E94AD1A6C01892BB9F5DD322C
:10313000B9F50F5F1F4FD5011196DC91C1E0580121
:10314000F1E0AF1AB10843E050E06AE072E0C50177
:103150000E94B61A892B69F5680182E0C80ED11C5D
:1031600045E050E065E072E0C6010E94B61A892B86
:1031700021F4680197E0C90ED11CE114F10419F0A3
:10318000D701CD92DC9260E070E080E89FEFC11142
:10319000FFC060E070E080E89FE7FAC05801BBCF55
:1031A000DB3229F485010E5F1F4FF501D181C0E0AC
:1031B000C6CF43E050E062E072E0C5010E94B61A5B
:1031C000892BE9F0F80110E000E020E030E0A901EF
:1031D0005F01B0ED8B2E8D0E89E08815C8F19C2E15
:1031E000689491F88C2F8870C2FF16C0811102C0BC
:1031F0000F5F1F4F3196D501DC91C92DE9CFE11446
:10320000F10429F00E5F1F4FF7011183008360E086
:1032100070E080EC9FE7BCC0882311F001501109D9
:10322000A5E0B0E00E94051C9B01AC01220F331FFA
:10323000441F551F280D311D411D511D283999E985
:103240003907490799E15907A8F2C6609C2ED2CFE9
:10325000AEEF8A1206C0C3FD3CC09C2E689493F862
:10326000C9CFDF7DD534A9F580818D3239F4C061B5
:10327000DF011296818162E070E006C0DF018B32CF
:10328000C1F3119661E070E080535D01A61AB70AA0
:103290008A30F8F4E0E8CE16ECE0DE065CF4B60125
:1032A000660F771F660F771FC60ED71ECC0CDD1C6E
:1032B000C80ED11C5D01FFEFAF1ABF0A8C9180537D
:1032C0008A30A8F1C4FF03C0D194C194D1080C0D79
:1032D0001D1DC1FF09C0E114F10431F081E0A81AFD
:1032E000B108D701AD92BC92CA01B9010E94E31A9C
:1032F000C370C33009F490584B015C0120E030E00A
:10330000A9010E94DE1A882309F440C0C9E3D2E073
:1033100017FF05C0119501951109C1E2D2E06E01B8
:10332000B8E1CB1AD10880E2E82EF12C0FC0D5010C
:10333000B1CFFE0125913591459154910E191F0988
:10334000C501B4010E94441B4B015C01D501C401BD
:103350000E151F0574F72497F594E794CC16DD0637
:10336000A9F78A2F880F8B2F881F8F3F49F020E005
:1033700030E0A901C501B4010E94DE1A811106C026
:1033800082E290E09093F5048093F404C501B401C7
:10339000DF91CF911F910F91FF90EF90DF90CF9031
:1033A000BF90AF909F908F900895283008F027E04D
:1033B0003327DA01990F311D87FD91600096610571
:1033C000710539F432602E5F3D9330E32A95E1F7C1
:1033D00008959F3F30F080387105610509F03C5F2A
:1033E0003C5F3D93913008F08068911DDF93CF934F
:1033F0001F930F93FF92EF92192F987F9695E92FC5
:1034000096959695E90FFF27E956FD4F99273327A3
:10341000EE24FF24A701E70105900894079428F4FF
:10342000360FE71EF81E491F511D660F771F881FB4
:10343000991F0694A1F70590079428F4E70EF81E4B
:10344000491F561FC11D770F881F991F661F0694BD
:10345000A1F70590079428F4F80E491F561FC71FBF
:10346000D11D880F991F661F771F0694A1F705903D
:10347000079420F4490F561FC71FD81F990F661FC6
:10348000771F881F0694A9F784911095177041F053
:10349000D695C79557954795F794E7941A95C1F730
:1034A000EDE3F2E068941590159135916591959151
:1034B00005907FE27395E118F10A430B560BC90B97
:1034C000D009C0F7E10CF11E431F561FC91FD01DC4
:1034D0007EF4703311F48A95E6CFE894015030F011
:1034E000080F0AF40027021708F4202F2395022F53
:1034F0007A3328F079E37D932A95E9F710C07D931C
:103500002A9589F606949795679537951795179498
:10351000E118F10A430B560BC90BD00998F023951B
:103520007E9173957A3308F070E37C932013B8F79B
:103530007E9170617D9330F0839571E37D9370E3AC
:103540002A95E1F71124EF90FF900F911F91CF91F1
:10355000DF91992787FD9095089591110C94B11BE7
:10356000803219F089508550C8F70895FB01DC01BD
:103570004150504088F08D9181341CF08B350CF413
:10358000805E659161341CF06B350CF4605E861BC7
:10359000611171F3990B0895881BFCCFDC01FC01CC
:1035A000672F71917723E1F7329704C07C916D9377
:1035B00070836291AE17BF07C8F308950E94201B65
:1035C00008F481E00895E89409C097FB3EF49095D3
:1035D0008095709561957F4F8F4F9F4F9923A9F0EC
:1035E000F92F96E9BB279395F6958795779567957B
:1035F000B795F111F8CFFAF4BB0F11F460FF1BC0BF
:103600006F5F7F4F8F4F9F4F16C0882311F096E951
:1036100011C0772321F09EE8872F762F05C06623FF
:1036200071F096E8862F70E060E02AF09A95660FB8
:10363000771F881FDAF7880F9695879597F9089571
:10364000990F0008550FAA0BE0E8FEEF16161706B3
:10365000E807F907C0F012161306E407F50798F01B
:10366000621B730B840B950B39F40A2661F0232B34
:10367000242B252B21F408950A2609F4A140A695B0
:103680008FEF811D811D08950E94571B0C94CB1B49
:103690000E94BD1B38F00E94C41B20F0952311F03E
:1036A0000C94B41B0C94BA1B11240C94FF1B0E94A5
:1036B000DC1B70F3959FC1F3950F50E0551F629F7F
:1036C000F001729FBB27F00DB11D639FAA27F00D7B
:1036D000B11DAA1F649F6627B00DA11D661F829FA2
:1036E0002227B00DA11D621F739FB00DA11D621F87
:1036F000839FA00D611D221F749F3327A00D611DA4
:10370000231F849F600D211D822F762F6A2F112485
:103710009F5750409AF0F1F088234AF0EE0FFF1FB8
:10372000BB1F661F771F881F91505040A9F79E3F0F
:10373000510580F00C94B41B0C94FF1B5F3FE4F325
:10374000983ED4F3869577956795B795F795E79565
:103750009F5FC1F7FE2B880F911D9695879597F96E
:10376000089599278827089597F99F6780E870E062
:1037700060E008959FEF80EC089500240A941616E7
:10378000170618060906089500240A94121613064F
:10379000140605060895092E0394000C11F48823DD
:1037A00052F0BB0F40F4BF2B11F460FF04C06F5FF9
:1037B0007F4F8F4F9F4F089557FD9058440F551FCF
:1037C00059F05F3F71F04795880F97FB991F61F0A3
:1037D0009F3F79F087950895121613061406551F1A
:1037E000F2CF4695F1DF08C0161617061806991F86
:1037F000F1CF86957105610508940895E894BB277B
:1038000066277727CB0197F908950E94101CA59F82
:10381000900DB49F900DA49F800D911D11240895CB
:10382000A29FB001B39FC001A39F700D811D112401
:10383000911DB29F700D811D1124911D0895505846
:10384000BB27AA270E94371C0C94CB1B0E94BD1BD0
:1038500038F00E94C41B20F039F49F3F19F426F47D
:103860000C94BA1B0EF4E095E7FB0C94B41BE92F03
:103870000E94DC1B58F3BA17620773078407950789
:1038800020F079F4A6F50C94FE1B0EF4E0950B2EB7
:10389000BA2FA02D0B01B90190010C01CA01A001A2
:1038A0001124FF27591B99F0593F50F4503E68F1FD
:1038B0001A16F040A22F232F342F4427585FF3CF3E
:1038C000469537952795A795F0405395C9F77EF40F
:1038D0001F16BA0B620B730B840BBAF09150A1F058
:1038E000FF0FBB1F661F771F881FC2F70EC0BA0FDE
:1038F000621F731F841F48F4879577956795B79566
:10390000F7959E3F08F0B0CF9395880F08F0992760
:10391000EE0F9795879508950E94A01C0C94CB1BE1
:103920000E94C41B58F00E94BD1B40F029F45F3F69
:1039300029F00C94B41B51110C94FF1B0C94BA1B6E
:103940000E94DC1B68F39923B1F3552391F3951B77
:10395000550BBB27AA2762177307840738F09F5FB0
:103960005F4F220F331F441FAA1FA9F335D00E2E1D
:103970003AF0E0E832D091505040E695001CCAF78A
:103980002BD0FE2F29D0660F771F881FBB1F26174D
:1039900037074807AB07B0E809F0BB0B802DBF0124
:1039A000FF2793585F4F3AF09E3F510578F00C94F3
:1039B000B41B0C94FF1B5F3FE4F3983ED4F3869551
:1039C00077956795B795F7959F5FC9F7880F911D14
:1039D0009695879597F90895E1E0660F771F881F00
:1039E000BB1F621773078407BA0720F0621B730BB3
:1039F000840BBA0BEE1F88F7E09508950E94051D11
:103A00006894B1110C94FF1B08950E94E41B88F088
:103A10009F5798F0B92F9927B751B0F0E1F0660F92
:103A2000771F881F991F1AF0BA95C9F714C0B130D3
:103A300091F00E94FE1BB1E008950C94FE1B672FCD
:103A4000782F8827B85F39F0B93FCCF38695779502
:103A50006795B395D9F73EF49095809570956195EB
:103A60007F4F8F4F9F4F08950E94201B08F48FEFC8
:103A70000895FA01EE0FFF1F309621053105A1F1DF
:103A80006115710561F48038BFE39B0749F16894C3
:103A90009038810561F08038BFEF9B0741F0992392
:103AA0004AF5FF3FE1053105210519F1E894089435
:103AB000E795D901AA2329F4AB2FBE2FF85FD0F3E5
:103AC00010C0FF5F70F4A695E0F7F73950F019F0D9
:103AD000FF3A38F49F779F930DD00F9007FC9058D2
:103AE000089546F00C94BA1B60E070E080E89FE314
:103AF00008954FE79F775F934F933F932F930E94D3
:103B0000391E2F913F914F915F910E94441B0C945D
:103B1000961D0E94201B880B990B089529F416F01E
:103B20000C94B41B0C94FE1B0C94BA1B0E94E41B57
:103B3000A8F39638A0F707F80F92E8942BE33AEA37
:103B400048EB5FE70E945A1B0F920F920F924DB7FE
:103B50005EB70F920E94811EE4EEF0E00E94C81D45
:103B60004F915F91EF91FF91E595EE1FFF1F49F097
:103B7000FE57E0684427EE0F441FFA95E1F74195A0
:103B8000550B0E94FB1D0F9007FE0C94EF1D08952E
:103B9000DF93CF931F930F93FF92EF92DF927B01FE
:103BA0008C01689406C0DA2EEF010E94571BFE01BB
:103BB000E894A5912591359145915591A6F3EF0192
:103BC0000E94371CFE019701A801DA9469F7DF9083
:103BD000EF90FF900F911F91CF91DF9108959B017E
:103BE000AC0160E070E080E89FE30C948C1C0C94C6
:103BF000B41B0C94B51E0E94E41BD8F39923C9F39F
:103C0000940F511DA3F39150504094F059F0882324
:103C100032F0660F771F881F91505040C1F79E3FCA
:103C200051052CF7880F911D9695879597F9089562
:103C30005F3FACF0983E9CF0BB27869577956795E3
:103C4000B79508F4B1609395C1F7BB0F58F711F41D
:103C500060FFE8CF6F5F7F4F8F4F9F4FE3CF0C9494
:103C6000FF1B16F00C94B51E0C94BA1B68940C94B0
:103C7000B41B0E94E41BA8F39923C1F3AEF3DF93B6
:103C8000CF931F930F93FF92C92FDD2788232AF02C
:103C90002197660F771F881FDAF720E030E040E8B1
:103CA0005FEB9FE3883920F0803E38F021968F77D4
:103CB0000E94201CECE0F1E004C00E94201CE9E31B
:103CC000F1E00E94C81D8B01BE01EC01FB2E6F5775
:103CD00071097595771F880B990B0E94E51A28E1E9
:103CE00032E741E35FE30E94571BAF2D9801AE011D
:103CF000FF900F911F91CF91DF910E94371C0C9480
:103D0000CB1BFA01DC01AA0FBB1F9B01AC01BF5703
:103D100028F4222733274427507820C0B75190F445
:103D2000AB2F0024469537952795011CA395D2F318
:103D3000002071F0220F331F441FB395DAF30ED029
:103D40000C941F1C61307105A0E88A07B94630F455
:103D50009B01AC016627772788279078309621F061
:103D6000208331834283538308959F3F31F09150E4
:103D700020F4879577956795B795880F911D96954F
:103D8000879597F90895DB018F939F930E94051CF7
:103D9000BF91AF91A29F800D911DA39F900DB29FE7
:103DA000900D1124089597FB072E16F4009407D068
:103DB00077FD09D00E94381F07FC05D03EF490958E
:103DC00081959F4F0895709561957F4F0895A1E269
:103DD0001A2EAA1BBB1BFD010DC0AA1FBB1FEE1F85
:103DE000FF1FA217B307E407F50720F0A21BB30BD0
:103DF000E40BF50B661F771F881F991F1A9469F74C
:103E000060957095809590959B01AC01BD01CF01A7
:103E10000895052E97FB1EF400940E94201F57FD65
:103E200007D00E94E71E07FC03D04EF40C94201F1D
:103E300050954095309521953F4F4F4F5F4F0895D6
:103E400090958095709561957F4F8F4F9F4F089506
:103E5000EE0FFF1F881F8BBF0790F691E02D19947E
:103E6000B7FF0C94051C0E94051C821B930B089540
:103E7000AA1BBB1B51E107C0AA1FBB1FA617B70790
:103E800010F0A61BB70B881F991F5A95A9F78095AC
:103E90009095BC01CD0108950F931F93CF93DF93AD
:103EA0008230910510F482E090E0E091F804F09106
:103EB000F90430E020E0B0E0A0E0309799F421155B
:103EC000310509F44AC0281B390B24303105D8F5D7
:103ED0008A819B816115710589F1FB01938382833E
:103EE000FE0111C040815181028113814817590799
:103EF000E0F04817590799F4109761F012960C9367
:103F0000129713961C933296CF01DF91CF911F9198
:103F10000F9108950093F8041093F904F4CF21153C
:103F2000310551F04217530738F0A901DB019A011E
:103F3000BD01DF01F801C1CFEF01F9CF9093F90482
:103F40008093F804CDCFFE01E20FF31F819391938C
:103F50002250310939832883D7CF2091F60430913C
:103F6000F704232B41F42091020230910302309395
:103F7000F7042093F60420910002309101022115EC
:103F8000310541F42DB73EB740910402509105022E
:103F9000241B350BE091F604F091F704E217F307C8
:103FA000A0F42E1B3F0B2817390778F0AC014E5FA9
:103FB0005F4F2417350748F04E0F5F1F5093F704EB
:103FC0004093F604819391939FCFF0E0E0E09CCF83
:103FD000CF93DF930097E9F0FC01329713821282AE
:103FE000A091F804B091F904ED0130E020E01097C1
:103FF000A1F420813181820F931F2091F60430912A
:10400000F7042817390709F061C0F093F704E0932B
:10401000F604DF91CF910895EA01CE17DF07E8F5A6
:104020004A815B819E0141155105B1F7E901FB838E
:10403000EA8349915991C40FD51FEC17FD0761F42C
:10404000808191810296840F951FE901998388836D
:10405000828193819B838A83F0E0E0E012968D91C8
:104060009C9113970097B9F52D913C911197CD0133
:104070000296820F931F2091F6043091F7042817BF
:10408000390739F6309751F51092F9041092F80477
:10409000B093F704A093F604BCCFD383C2834081CE
:1040A0005181840F951FC817D90761F44E5F5F4F88
:1040B00088819981480F591F518340838A819B8150
:1040C000938382832115310509F0B0CFF093F90471
:1040D000E093F8049ECFFD01DC01C0CF1382128271
:1040E000D7CF4F925F926F927F928F929F92AF92B3
:1040F000BF92CF92DF92EF92FF920F931F93CF93D5
:10410000DF938C01009799F4CB01DF91CF911F9140
:104110000F91FF90EF90DF90CF90BF90AF909F9066
:104120008F907F906F905F904F900C944C1FFC018C
:10413000E60FF71F9C0122503109E217F30708F43C
:10414000AEC0D901CD91DC911197C617D70720F1E8
:10415000C530D10578F0CE0104978617970750F047
:10416000C61BD70B2297C193D1936D937C93CF013C
:104170000E94E81FC801DF91CF911F910F91FF901E
:10418000EF90DF90CF90BF90AF909F908F907F90F7
:104190006F905F904F9008955B01AC1ABD0A4C017F
:1041A0008C0E9D1EA091F804B091F904512C412C65
:1041B000F12CE12C109731F58091F6049091F704E1
:1041C0008815990509F05CC04616570608F058C0D6
:1041D0008091000290910102009741F48DB79EB743
:1041E0004091040250910502841B950BE817F907D2
:1041F00008F055C0F093F704E093F604F9017183D9
:104200006083B8CF8D919C91119712966C90129704
:1042100013967C901397A815B90559F56C0142E0E7
:10422000C40ED11CCA14DB0420F1AC014A195B098D
:10423000DA011296159780F062827382518340836F
:10424000D9016D937C93E114F10471F0D7011396B9
:10425000FC93EE9312978ECF22968C0F9D1FF9013F
:1042600091838083F301EFCFF093F904E093F80496
:1042700081CF4816590608F42C017D01D3019ACF4D
:10428000CB010E944C1F7C01009749F0AE01B801A0
:104290000E945221C8010E94E81F87016BCF10E0E5
:1042A00000E068CFFB01DC0102C001900D9241509B
:1042B0005040D8F70895FB01DC0101900D920020D9
:1042C000E1F7089512E0CDE2D2E000E006C0802FD1
:1042D000FE010E94281F2196011DCE32D10780E0E9
:0842E0000807A9F7F894FFCFCD
:1042E8000000FA04800000000000F9026302900256
:1042F8004603C1029F02B302000000002308F6072C
:104308006B081F05EF07DC07CD070000000020053C
:1043180063026B081F057C05940507050D0A006EEE
:10432800616E00696E66006F7666004D51373A001F
:1043380020616E616C6F672072656164696E673AAF
:104348002000207C20476173206465746563746570
:104358006421004D51323A2050504D3A20004448D3
:10436800543A20005248203D20002E002020546559
:104378006D706572617475726520203D2000202083
:1043880000506F736974696F6E3A20002C200054D6
:10439800656D70657261747572653A005072657307
:1043A800737572653A00416C7469747564653A0096
:1043B800456E6421002D2D2D2D2D2D2D2D2D2D2DCE
:1043C8002D2D2D2D2D2D2D2D2D2D2D2D2D2D2D2D15
:1043D8002D2D2D2D2D2D2D2D2D2D2D2D2D2D2D2D05
:0243E8002D00A6
:00000001FF
