:100000000C9435000C945D000C945D000C945D0024
:100010000C945D000C945D000C945D000C945D00EC
:100020000C945D000C945D000C945D000C945D00DC
:100030000C945D000C945D000C945D000C945D00CC
:100040000C9415020C945D000C94E3010C94BD011A
:100050000C945D000C945D000C945D000C945D00AC
:100060000C945D000C945D005F0211241FBECFEF65
:10007000D8E0DEBFCDBF11E0A0E0B1E0EEEEF6E0EB
:1000800002C005900D92A632B107D9F722E0A6E290
:10009000B1E001C01D92A432B207E1F710E0C5E360
:1000A000D0E004C02197FE010E946F03C433D10742
:1000B000C9F70E9492020C9475030C940000AF9251
:1000C000BF92CF92DF92EF92FF920F931F93CF9345
:1000D000DF936C017B018B01040F151FEB015E01A7
:1000E000AE18BF08C017D10759F06991D601ED913C
:1000F000FC910190F081E02DC6010995892B79F7DB
:10010000C501DF91CF911F910F91FF90EF90DF908C
:10011000CF90BF90AF900895FC01538D448D252F53
:1001200030E0842F90E0821B930B541710F0CF9691
:10013000089501970895FC01918D828D981761F0C3
:10014000A28DAE0FBF2FB11D5D968C91928D9F5FDA
:100150009F73928F90E008958FEF9FEF0895FC01B9
:10016000918D828D981731F0828DE80FF11D858D6C
:1001700090E008958FEF9FEF0895FC01918D228DFF
:10018000892F90E0805C9F4F821B91098F73992784
:1001900008958FE291E00E94BD0021E0892B09F4CF
:1001A00020E0822F089580E090E0892B29F00E94C2
:1001B000C90081110C9400000895FC01A48DA80FC2
:1001C000B92FB11DA35ABF4F2C91848D90E0019699
:1001D0008F739927848FA689B7892C93A089B189B9
:1001E0008C91837080648C93938D848D981306C05A
:1001F0000288F389E02D80818F7D80830895EF92BE
:10020000FF920F931F93CF93DF93EC0181E0888FD0
:100210009B8D8C8D98131AC0E889F989808185FFA0
:1002200015C09FB7F894EE89FF896083E889F98942
:1002300080818370806480839FBF81E090E0DF9144
:10024000CF911F910F91FF90EF900895F62E0B8D97
:1002500010E00F5F1F4F0F731127E02E8C8D8E1152
:100260000CC00FB607FCFACFE889F989808185FFB9
:10027000F5CFCE010E94DD00F1CFEB8DEC0FFD2F0D
:10028000F11DE35AFF4FF0829FB7F8940B8FEA8974
:10029000FB8980818062CFCFCF93DF93EC01888D83
:1002A0008823B9F0AA89BB89E889F9898C9185FDF1
:1002B00003C0808186FD0DC00FB607FCF7CF8C917F
:1002C00085FFF2CF808185FFEDCFCE010E94DD005A
:1002D000E9CFDF91CF910895FC0101900020E9F76B
:1002E0003197AF01481B590BBC018FE291E00C9490
:1002F0005F008F929F92AF92BF920F931F93CF9305
:10030000DF93CDB7DEB7A1970FB6F894DEBF0FBE6F
:10031000CDBF19A2423008F44AE08E010F5D1F4F95
:10032000842E912CB12CA12CA50194010E944D0387
:10033000E62FB901CA01EA30F4F4E05DD801EE938A
:100340008D01232B242B252B79F790E080E010974B
:1003500019F0CD010E946C01A1960FB6F894DEBF92
:100360000FBECDBFDF91CF911F910F91BF90AF9086
:100370009F908F900895E95CE1CF1F920F920FB686
:100380000F9211242F933F934F935F936F937F931B
:100390008F939F93AF93BF93EF93FF938FE291E07F
:1003A0000E94DD00FF91EF91BF91AF919F918F91DE
:1003B0007F916F915F914F913F912F910F900FBE61
:1003C0000F901F9018951F920F920FB60F92112445
:1003D0002F938F939F93EF93FF93E0913F01F091C1
:1003E00040018081E0914501F091460182FD1BC0F2
:1003F0009081809148018F5F8F732091490182170E
:1004000041F0E0914801F0E0E15DFE4F958F80936F
:100410004801FF91EF919F918F912F910F900FBE07
:100420000F901F9018958081F4CF1F920F920FB6F6
:100430000F9211242F933F938F939F93AF93BF936A
:1004400080912B0190912C01A0912D01B0912E0152
:1004500030912A0123E0230F2D3758F50196A11D75
:10046000B11D20932A0180932B0190932C01A0931E
:100470002D01B0932E018091260190912701A0912A
:100480002801B09129010196A11DB11D809326017B
:1004900090932701A0932801B0932901BF91AF91B8
:1004A0009F918F913F912F910F900FBE0F901F90B2
:1004B000189526E8230F0296A11DB11DD2CFEFE2B9
:1004C000F1E01382128288EE93E0A0E0B0E0848332
:1004D0009583A683B78384E091E09183808385EC44
:1004E00090E09587848784EC90E09787868780ECFE
:1004F00090E0918B808B81EC90E0938B828B82ECEF
:1005000090E0958B848B86EC90E0978B868B118E98
:10051000128E138E148E83E090E09093CD01809321
:10052000CC010895789484B5826084BD84B58160DF
:1005300084BD85B5826085BD85B5816085BD8091AE
:100540006E00816080936E00109281008091810026
:10055000826080938100809181008160809381001E
:10056000809180008160809380008091B1008460E0
:100570008093B1008091B00081608093B000809141
:100580007A00846080937A0080917A008260809300
:100590007A0080917A00816080937A0080917A005D
:1005A000806880937A001092C100E0913F01F09141
:1005B000400182E08083E0913B01F0913C01108298
:1005C000E0913D01F0913E018FEC80831092470154
:1005D000E0914301F091440186E08083E091410184
:1005E000F0914201808180618083E0914101F0912E
:1005F0004201808188608083E0914101F091420155
:10060000808180688083E0914101F0914201808186
:100610008F7D8083C0E0D0E082E191E00E946C0198
:100620006091CF0170E090E080E04AE00E947901A3
:100630008AE191E00E946C016091D10170E090E04C
:1006400080E04AE00E9479018CE191E00E946C0117
:100650008FE191E00E946C016091CE0170E090E02A
:1006600080E04AE00E9479018AE191E00E946C01F9
:100670006091D00170E090E080E04AE00E94790152
:100680008CE191E00E946C01209731F20E94C90038
:10069000882311F20E940000BFCFA1E21A2EAA1BEC
:1006A000BB1BFD010DC0AA1FBB1FEE1FFF1FA21722
:1006B000B307E407F50720F0A21BB30BE40BF50B1F
:1006C000661F771F881F991F1A9469F760957095A8
:1006D000809590959B01AC01BD01CF010895EE0F6F
:0E06E000FF1F0590F491E02D0994F894FFCFD0
:1006EE0000000000FF005F008C004C01BD009B006D
:1006FE00AF0054656D70203A20002E000D0A005296
:06070E0048203A20000023
:00000001FF
