:100000000C9462000C9435040C940E040C948A0039
:100010000C948A000C948A000C948A000C948A0038
:100020000C948A000C948A000C948A000C948A0028
:100030000C948A000C948A000C948A000C948A0018
:100040000C94C4030C948A000C9482040C945C04F9
:100050000C948A000C948A000C948A000C948A00F8
:100060000C948A000C948A000000000023002600F3
:10007000290000000000240027002A0000000000E2
:10008000250028002B0004040404040404040202D4
:100090000202020203030303030301020408102007
:1000A0004080010204081020010204081020000012
:1000B0000008000201000003040700000000000027
:1000C0000000ED0611241FBECFEFD8E0DEBFCDBF8C
:1000D00011E0A0E0B1E0ECE7F3E102C005900D9281
:1000E000A638B107D9F722E0A6E8B1E001C01D9219
:1000F000AC33B207E1F710E0C2E6D0E004C02197CC
:10010000FE010E94A209C136D107C9F70E94B404BA
:100110000C94BC090C940000833081F028F48130E9
:1001200099F08230A1F008958730A9F08830B9F0B5
:100130008430D1F4809180008F7D03C08091800055
:100140008F7780938000089584B58F7702C084B53F
:100150008F7D84BD08958091B0008F7703C080911A
:10016000B0008F7D8093B00008951F93CF93DF93ED
:10017000282F30E0F901E255FF4F8491F901E6564E
:10018000FF4FD491F901EA57FF4FC491CC23C1F03E
:10019000162F81110E948C00EC2FF0E0EE0FFF1F54
:1001A000E458FF4FA591B4919FB7F894111104C082
:1001B0008C91D095D82302C0EC91DE2BDC939FBFAD
:1001C000DF91CF911F910895CF93DF9390E0FC01D1
:1001D000E656FF4F2491FC01EA57FF4F8491882394
:1001E00061F190E0880F991FFC01EE58FF4FC59117
:1001F000D491FC01E458FF4FA591B491611109C05D
:100200009FB7F8948881209582238883EC912E23D0
:100210000BC0623061F49FB7F8948881322F30951B
:1002200083238883EC912E2B2C939FBF06C08FB71E
:10023000F894E8812E2B28838FBFDF91CF9108950A
:100240000895CF92DF92EF92FF920F931F93CF9377
:10025000DF936C017A018B01C0E0D0E0CE15DF05A1
:1002600081F0D8016D918D01D601ED91FC91019045
:10027000F081E02DC6010995892B11F02196EECF72
:100280007E01C701DF91CF911F910F91FF90EF90F9
:10029000DF90CF900895089580E090E00895FC01EC
:1002A000538D448D252F30E0842F90E0821B930BDB
:1002B000541710F0CF96089501970895FC01918D81
:1002C000828D981761F0828DDF01A80FB11D5D96B8
:1002D0008C91928D9F5F9F73928F90E008958FEF26
:1002E0009FEF0895FC01918D828D981731F0828DDA
:1002F000E80FF11D858D90E008958FEF9FEF089531
:10030000FC01918D228D892F90E0805C9F4F821B94
:1003100091098F73992708958FE991E00E948001D8
:1003200021E0892B09F420E0822F0895FC01848DBF
:10033000DF01A80FB11DA35ABF4F2C91848D90E00F
:1003400001968F739927848FA689B7892C93A089EA
:10035000B1898C91837080648C93938D848D981374
:1003600006C00288F389E02D80818F7D8083089507
:10037000EF92FF920F931F93CF93DF93EC0181E0F5
:10038000888F9B8D8C8D981305C0E889F9898081B1
:1003900085FD26C0F62E0B8D10E00F5F1F4F0F73EB
:1003A0001127E02E8C8DE8120CC00FB607FCFACF97
:1003B000E889F989808185FFF5CFCE010E949601F9
:1003C000F1CF8B8DFE01E80FF11DE35AFF4FF08254
:1003D0009FB7F8940B8FEA89FB89808180620AC0FD
:1003E0009FB7F894EE89FF896083E889F989808155
:1003F0008370806480839FBF81E090E0DF91CF9124
:100400001F910F91FF90EF900895CF93DF93EC0130
:10041000888D8823C9F0EA89FB89808185FD05C024
:10042000A889B9898C9186FD0FC00FB607FCF5CF5E
:10043000808185FFF2CFA889B9898C9185FFEDCFA6
:10044000CE010E949601E7CFDF91CF91089580E021
:1004500090E0892B29F00E948C0181110C940000FE
:100460000895CF93DF93EAEBF0E08491E6EAF0E0C1
:10047000D491E2E9F0E0C491CC23D1F081110E9443
:100480008C00EC2FF0E0EE0FFF1FE859FF4FA59115
:10049000B491EC91ED2361F08091860190918701F8
:1004A000A0918801B09189010197A109B1090BC000
:1004B0008091860190918701A0918801B091890176
:1004C0000196A11DB11D8093860190938701A09391
:1004D0008801B0938901DF91CF910895009769F069
:1004E000FC0101900020E9F73197AF01481B590B3F
:1004F000BC018FE991E00C94210180E090E0089527
:10050000CF93DF930E946E02EC0188E191E00E949C
:100510006E028C0F9D1FDF91CF9108958F929F9255
:10052000AF92BF920F931F93CF93DF93CDB7DEB7F8
:10053000A1970FB6F894DEBF0FBECDBF19A242300F
:1005400008F44AE08E010F5D1F4F842E912CA12CE0
:10055000B12CA50194010E945609E62FB901CA01E8
:1005600001501109EA3014F4E05D01C0E95CD801E2
:10057000EC93232B242B252B61F7C8010E946E02DC
:10058000A1960FB6F894DEBF0FBECDBFDF91CF911D
:100590001F910F91BF90AF909F908F900895CF9231
:1005A000DF92EF92FF92CF93DF936B017C016DE2BC
:1005B0008FE991E00E94B801EC0166277727CB0113
:1005C0006C197D098E099F094AE00E948E028C0FEA
:1005D0009D1FDF91CF91FF90EF90DF90CF90089516
:1005E0008F929F92AF92BF92CF92DF92EF92FF9243
:1005F0000F931F93CF93DF936B017C01142F9B010B
:10060000AC010E945109882319F08BE191E027C0C9
:1006100046015701E894B7F82FEF3FEF4FE75FE748
:10062000C501B4010E94510981110DC02FEF3FEFA8
:100630004FE75FE7C501B4010E94870718161CF455
:100640008FE191E00CC02FEF3FEF4FE75FE4C70170
:10065000B6010E94DF08181684F483E291E0DF916E
:10066000CF911F910F91FF90EF90DF90CF90BF90AF
:10067000AF909F908F900C946E022FEF3FEF4FE75B
:100680005FECC701B6010E94870787FDE6CF20E037
:1006900030E0A901C701B6010E94870787FF0BC0A0
:1006A0006DE28FE991E00E94B801EC01F7FAF09455
:1006B000F7F8F09402C0C0E0D0E000E060E070E045
:1006C00080E09FE3101741F020E030E040E251E489
:1006D0000E948C070F5FF6CFA70196010E941B07AF
:1006E0006B017C010E94FE074B015C014AE00E9405
:1006F0008E02C80FD91F1123B9F1C501B4010E94A0
:100700002D089B01AC01C701B6010E941A076B01BD
:100710007C016EE28FE991E00E94B801C80FD91FF9
:1007200020E030E040E251E4C701B6010E94E40855
:100730004B015C010E94FE076B01E12CF12C4AE0A9
:10074000C701B6010E948E02C80FD91FC701B601AA
:100750000E942D089B01AC01C501B4010E941A073B
:100760006B017C011150E1F6CE01DF91CF911F9119
:100770000F91FF90EF90DF90CF90BF90AF909F9040
:100780008F9008950E94B7091F920F920FB60F9293
:1007900011242F933F938F939F93AF93BF93809197
:1007A0009B0190919C01A0919D01B0919E0130917F
:1007B0009A0123E0230F2D3720F40196A11DB11DCE
:1007C00005C026E8230F0296A11DB11D20939A01B2
:1007D00080939B0190939C01A0939D01B0939E01F7
:1007E0008091960190919701A0919801B091990103
:1007F0000196A11DB11D8093960190939701A0933E
:100800009801B0939901BF91AF919F918F913F91C2
:100810002F910F900FBE0F901F9018951F920F925F
:100820000FB60F9211242F933F934F935F936F93C3
:100830007F938F939F93AF93BF93EF93FF93E09139
:100840000201F09103010995FF91EF91BF91AF91E2
:100850009F918F917F916F915F914F913F912F91D8
:100860000F900FBE0F901F9018951F920F920FB60A
:100870000F9211242F933F934F935F936F937F9326
:100880008F939F93AF93BF93EF93FF93E0910001FA
:10089000F09101010995FF91EF91BF91AF919F9167
:1008A0008F917F916F915F914F913F912F910F9019
:1008B0000FBE0F901F9018951F920F920FB60F92B8
:1008C00011242F933F934F935F936F937F938F9355
:1008D0009F93AF93BF93EF93FF938FE991E00E94B3
:1008E0009601FF91EF91BF91AF919F918F917F9171
:1008F0006F915F914F913F912F910F900FBE0F908D
:100900001F9018951F920F920FB60F9211242F93DC
:100910008F939F93EF93FF93E091AF01F091B0011C
:100920008081E091B501F091B60182FD12C0908105
:100930008091B8018F5F8F732091B901821751F0B8
:10094000E091B801F0E0E156FE4F958F8093B80139
:1009500001C08081FF91EF919F918F912F910F9016
:100960000FBE0F901F901895789484B5826084BD57
:1009700084B5816084BD85B5826085BD85B58160A3
:1009800085BD80916E00816080936E001092810021
:1009900080918100826080938100809181008160DC
:1009A000809381008091800081608093800080919D
:1009B000B10084608093B1008091B0008160809329
:1009C000B00080917A00846080937A0080917A00F0
:1009D000826080937A0080917A00816080937A00AF
:1009E00080917A00806880937A001092C100E09133
:1009F000AF01F091B00182E08083E091AB01F09112
:100A0000AC011082E091AD01F091AE018FEC8083DA
:100A10001092B701E091B301F091B40186E08083B8
:100A2000E091B101F091B201808180618083E09119
:100A3000B101F091B201808188608083E091B101C1
:100A4000F091B201808180688083E091B101F091E2
:100A5000B20180818F7D808362E083E00E94E400A8
:100A600060E08CE00E94E40081E392E09093030157
:100A700080930201809169008C6080936900E99AFB
:100A800061E087E00E94E40061E086E00E94E4000B
:100A900061E08BE00E94E40060E086E00E94B50027
:100AA00061E087E00E94B50009EB10E0EE24EA94D3
:100AB000F12C98E1892E912CA12CB12C80919201DE
:100AC00090919301A0919401B091950140908E0175
:100AD00050908F016090900170909101BC01CD0108
:100AE00064197509860997090E942F0820E030E0F3
:100AF0004AEF53E40E94DF0818160CF0E7C020E02C
:100B000030E04CE252E460918A0170918B01809157
:100B10008C0190918D010E941A072B013C0120E06D
:100B200030E0A9010E94DF08181624F077FA7094CB
:100B300077F8709420E030E040E450E4C301B20163
:100B40000E94DF0818160CF067C087E291E00E944F
:100B50006E0260918A0170918B0180918C0190915D
:100B60008D0142E00E94F0028DE291E00E9480023D
:100B700020E030E04CE252E460918A0170918B01F8
:100B800080918C0190918D010E941A0720E030E045
:100B9000A9010E94DF0818168CF48AE391E00E94F4
:100BA0006E028091040190910501019718161906B3
:100BB0008CF0109205011092040115C083E491E0BD
:100BC0000E946E02809104019091050101968F3F71
:100BD00091052CF4909305018093040104C0F092D8
:100BE0000501E09204018CE491E00E946E026091A4
:100BF000040170910501072E000C880B990B97FFDB
:100C000003C00E94CF0203C04AE00E948E0288E126
:100C100091E00E946E0204C082E591E00E94800291
:100C2000C0910401D091050161E08BE00E94E400D5
:100C3000209711F460E004C0CF3FD10529F461E0B2
:100C40008BE00E94B50042C0F80184918330F9F036
:100C500048F48130B9F08230A1F584B5806284BD5A
:100C6000C8BD34C08730E9F0883019F1843049F5C7
:100C700080918000806280938000D0938B00C0932D
:100C80008A0024C084B5806884BDC7BD1FC0809120
:100C90008000806880938000D0938900C093880092
:100CA00015C08091B00080688093B000C093B300FD
:100CB0000DC08091B00080628093B000C093B400FA
:100CC00005C0C038D1050CF0BACFB4CF2FB7F89417
:100CD00080919B0190919C01A0919D01B0919E01FA
:100CE0002FBF8093920190939301A0939401B093AE
:100CF000950140918E0150918F016091900170910A
:100D000091012C013D01441A550A660A770A29EE21
:100D1000421623E05206610471040CF45BC0809318
:100D20008E0190938F01A0939001B0939101209137
:100D30008601309187014091880150918901ACE38F
:100D4000B0E00E949709A50194010E947809CA01A8
:100D5000B9010E942F0860938A0170938B018093E0
:100D60008C0190938D0189E691E00E946E02609162
:100D7000860170918701809188019091890197FF88
:100D800003C00E94CF0203C04AE00E948E0288E1A5
:100D900091E00E946E0283E791E00E946E026091F2
:100DA0008A0170918B0180918C0190918D0142E0BC
:100DB0000E94F00288E191E00E946E0280E891E0DA
:100DC0000E94800210928601109287011092880181
:100DD000109289010E94270271CEEFE9F1E013829F
:100DE000128288EE93E0A0E0B0E084839583A6832E
:100DF000B7838AE091E09183808385EC90E09587CA
:100E0000848784EC90E09787868780EC90E0918BD4
:100E1000808B81EC90E0938B828B82EC90E0958BC1
:100E2000848B86EC90E0978B868B118E128E138EBE
:100E3000148E08955058BB27AA270E9432070C949D
:100E4000A5080E94970838F00E949E0820F039F407
:100E50009F3F19F426F40C9494080EF4E095E7FBF8
:100E60000C948E08E92F0E94B60858F3BA1762074F
:100E700073078407950720F079F4A6F50C94D80839
:100E80000EF4E0950B2EBA2FA02D0B01B9019001A5
:100E90000C01CA01A0011124FF27591B99F0593FE9
:100EA00050F4503E68F11A16F040A22F232F342F31
:100EB0004427585FF3CF469537952795A795F0407F
:100EC0005395C9F77EF41F16BA0B620B730B840B94
:100ED000BAF09150A1F0FF0FBB1F661F771F881F4C
:100EE000C2F70EC0BA0F621F731F841F48F48795A4
:100EF00077956795B795F7959E3F08F0B0CF939596
:100F0000880F08F09927EE0F9795879508950E940E
:100F10006A0808F481E008950E94A0070C94A508CF
:100F20000E949E0858F00E94970840F029F45F3F05
:100F300029F00C948E0851110C94D9080C94940843
:100F40000E94B60868F39923B1F3552391F3951BDA
:100F5000550BBB27AA2762177307840738F09F5FDA
:100F60005F4F220F331F441FAA1FA9F335D00E2E47
:100F70003AF0E0E832D091505040E695001CCAF7B4
:100F80002BD0FE2F29D0660F771F881FBB1F261777
:100F900037074807AB07B0E809F0BB0B802DBF014E
:100FA000FF2793585F4F3AF09E3F510578F00C941D
:100FB0008E080C94D9085F3FE4F3983ED4F38695ED
:100FC00077956795B795F7959F5FC9F7880F911D3E
:100FD0009695879597F90895E1E0660F771F881F2A
:100FE000BB1F621773078407BA0720F0621B730BDD
:100FF000840BBA0BEE1F88F7E09508950E94BE0897
:1010000088F09F5798F0B92F9927B751B0F0E1F0C9
:10101000660F771F881F991F1AF0BA95C9F714C079
:10102000B13091F00E94D808B1E008950C94D8082E
:10103000672F782F8827B85F39F0B93FCCF38695B2
:1010400077956795B395D9F73EF49095809570950F
:1010500061957F4F8F4F9F4F0895E89409C097FB8C
:101060003EF490958095709561957F4F8F4F9F4F7F
:101070009923A9F0F92F96E9BB279395F6958795C3
:1010800077956795B795F111F8CFFAF4BB0F11F486
:1010900060FF1BC06F5F7F4F8F4F9F4F16C088232D
:1010A00011F096E911C0772321F09EE8872F762F63
:1010B00005C0662371F096E8862F70E060E02AF0A4
:1010C0009A95660F771F881FDAF7880F9695879590
:1010D00097F90895990F0008550FAA0BE0E8FEEF65
:1010E00016161706E807F907C0F012161306E407EC
:1010F000F50798F0621B730B840B950B39F40A26E5
:1011000061F0232B242B252B21F408950A2609F4C2
:10111000A140A6958FEF811D811D089597F99F67C6
:1011200080E870E060E008959FEF80EC089500246F
:101130000A941616170618060906089500240A943C
:1011400012161306140605060895092E0394000CC2
:1011500011F4882352F0BB0F40F4BF2B11F460FF51
:1011600004C06F5F7F4F8F4F9F4F089557FD90587A
:10117000440F551F59F05F3F71F04795880F97FB5B
:10118000991F61F09F3F79F0879508951216130615
:101190001406551FF2CF4695F1DF08C01616170644
:1011A0001806991FF1CF8695710561050894089579
:1011B000E894BB2766277727CB0197F908950E940B
:1011C0006A0808F48FEF08950E94F7080C94A508A8
:1011D0000E94970838F00E949E0820F0952311F095
:1011E0000C948E080C94940811240C94D9080E9435
:1011F000B60870F3959FC1F3950F50E0551F629F9D
:10120000F001729FBB27F00DB11D639FAA27F00D5F
:10121000B11DAA1F649F6627B00DA11D661F829F86
:101220002227B00DA11D621F739FB00DA11D621F6B
:10123000839FA00D611D221F749F3327A00D611D88
:10124000231F849F600D211D822F762F6A2F11246A
:101250009F5750409AF0F1F088234AF0EE0FFF1F9D
:10126000BB1F661F771F881F91505040A9F79E3FF4
:10127000510580F00C948E080C94D9085F3FE4F37C
:10128000983ED4F3869577956795B795F795E7954A
:101290009F5FC1F7FE2B880F911D9695879597F953
:1012A00008950E946A08880B990B0895A1E21A2EEE
:1012B000AA1BBB1BFD010DC0AA1FBB1FEE1FFF1FFA
:1012C000A217B307E407F50720F0A21BB30BE40B4A
:1012D000F50B661F771F881F991F1A9469F7609591
:1012E0007095809590959B01AC01BD01CF0108954B
:1012F000052E97FB1EF400940E948F0957FD07D01E
:101300000E94560907FC03D04EF40C948F095095A7
:101310004095309521953F4F4F4F5F4F08959095E1
:101320008095709561957F4F8F4F9F4F08950E94D4
:10133000A809A59F900DB49F900DA49F800D911DAD
:1013400011240895EE0FFF1F0590F491E02D0994EC
:10135000A29FB001B39FC001A39F700D811D1124F6
:10136000911DB29F700D811D1124911D089581E082
:0C13700090E0F8940C94BC09F894FFCFB6
:10137C0020012001FF0000000000B80121014F01F5
:10138C00050280015E0172010D0A006E616E00693A
:10139C006E66006F76660052504D3A2000206164F4
:1013AC00616274696E672E2E2E006465632E2E208A
:1013BC00202000696E632E2E20202000566F6C7446
:1013CC003A004D616E676120446F6E6521212121C9
:1013DC002121212121212121002050756C7365735D
:1013EC003A200020696E707574566F6C743A200048
:0613FC002052504D0000DC
:00000001FF
