:100000000C9499000C94C1000C94C1000C94C10094
:100010000C94C1000C94C1000C94C1000C94C1005C
:100020000C94C1000C94C1000C94C1000C94C1004C
:100030000C94C1000C94C1000C94C1000C94C1003C
:100040000C946D070C94C1000C943B070C9415079D
:100050000C94C1000C94C1000C94C1000C94C1001C
:100060000C94B7070C94C10007634236B79BD8A71E
:100070001A39685618AEBAAB558C1D3CB7CC5763CD
:10008000BD6DEDFD753EF6177231BF000000803F7B
:1000900008000000BE922449123EABAAAA2ABECD97
:1000A000CCCC4C3E00000080BEABAAAAAA3E000009
:1000B0000000BF000000803F000000000008417801
:1000C000D3BB4387D1133D190E3CC3BD4282AD2B38
:1000D0003E68EC8276BED98FE1A93E4C80EFFFBE30
:1000E00001C4FF7F3F000000000000000000250069
:1000F00028002B0004040404040404040202020285
:1001000002020303030303030102040810204080DA
:100110000102040810200102040810200000000859
:1001200000020100000304070000000000000000BE
:10013000D60811241FBECFEFD8E0DEBFCDBF11E03F
:10014000A0E0B1E0E4EDF0E202C005900D92A4352C
:10015000B107D9F722E0A4E5B1E001C01D92A73DA7
:10016000B207E1F710E0C9E9D0E004C02197FE0131
:100170000E945310C839D107C9F70E940F090C9487
:1001800068100C94000008950895AF92BF92CF922A
:10019000DF92EF92FF920F931F93CF93DF936C0147
:1001A0007B018B01040F151FEB015E01AE18BF0828
:1001B000C017D10759F06991D601ED91FC910190DA
:1001C000F081E02DC6010995892B79F7C501DF91F2
:1001D000CF911F910F91FF90EF90DF90CF90BF9044
:1001E000AF900895FC01538D448D252F30E0842F6E
:1001F00090E0821B930B541710F0CF96089501974F
:100200000895FC01918D828D981761F0A28DAE0F3B
:10021000BF2FB11D5D968C91928D9F5F9F73928FC2
:1002200090E008958FEF9FEF0895FC01918D828DEE
:10023000981731F0828DE80FF11D858D90E00895BB
:100240008FEF9FEF0895FC01918D228D892F90E013
:10025000805C9F4F821B91098F73992708958EE2CE
:1002600092E00E94230121E0892B09F420E0822FF3
:10027000089580E090E0892B29F00E942F018111E0
:100280000C9400000895FC01A48DA80FB92FB11D96
:10029000A35ABF4F2C91848D90E001968F739927BC
:1002A000848FA689B7892C93A089B1898C9183709A
:1002B00080648C93938D848D981306C00288F38993
:1002C000E02D80818F7D80830895EF92FF920F93C0
:1002D0001F93CF93DF93EC0181E0888F9B8D8C8DF2
:1002E00098131AC0E889F989808185FF15C09FB7E6
:1002F000F894EE89FF896083E889F98980818370A9
:10030000806480839FBF81E090E0DF91CF911F9157
:100310000F91FF90EF900895F62E0B8D10E00F5F78
:100320001F4F0F731127E02E8C8D8E110CC00FB64E
:1003300007FCFACFE889F989808185FFF5CFCE01E6
:100340000E944301F1CFEB8DEC0FFD2FF11DE35A1D
:10035000FF4FF0829FB7F8940B8FEA89FB89808169
:100360008062CFCFCF93DF93EC01888D8823B9F0E3
:10037000AA89BB89E889F9898C9185FD03C08081B0
:1003800086FD0DC00FB607FCF7CF8C9185FFF2CF2D
:10039000808185FFEDCFCE010E944301E9CFDF913F
:1003A000CF91089590E0FC01E45EFE4F2491FC01A2
:1003B000E85FFE4F3491FC01EC50FF4FE491EE23D7
:1003C000C9F0222339F0233001F1A8F4213019F1CA
:1003D000223029F1F0E0EE0FFF1FE651FF4FA5910B
:1003E000B4918FB7F894EC91611126C030953E23FB
:1003F0003C938FBF08952730A9F02830C9F02430EE
:1004000049F7809180008F7D03C0809180008F77B5
:1004100080938000DFCF84B58F7784BDDBCF84B538
:100420008F7DFBCF8091B0008F778093B000D2CFCB
:100430008091B0008F7DF9CF3E2BDACF3FB7F89493
:1004400080919D0190919E01A0919F01B091A0018A
:1004500026B5A89B05C02F3F19F00196A11DB11D1F
:100460003FBFBA2FA92F982F8827BC01CD01620F5B
:10047000711D811D911D42E0660F771F881F991F16
:100480004A95D1F708958F929F92AF92BF92CF92E3
:10049000DF92EF92FF924B015C010E941E026B0102
:1004A0007C010E941E026C197D098E099F09683E1D
:1004B000734081059105A8F321E0821A9108A108F3
:1004C000B10888EEC80E83E0D81EE11CF11C81142F
:1004D0009104A104B10429F7FF90EF90DF90CF9031
:1004E000BF90AF909F908F90089520917501260F37
:1004F0003327331F21323105ECF420910402FC0133
:1005000090E080E0243069F082E00895A0917501C8
:100510002191AC014B5A5E4FA40FB52FB11D2C9306
:100520000196861798F380917501680F60937501A5
:1005300080E0089581E008951092040281E08093A4
:1005400003021092DE0161E082E10E94D20161E0CB
:1005500083E10E94D201E9EBF0E080818E7F80830D
:1005600080818D7F808388E48093B80085E48093C8
:10057000BC000895CF93DF9391E0909354018823BA
:10058000B9F0C091B800D091BA008091BC008A7BCC
:100590008093BC0060E082E10E94D20160E083E1D0
:1005A0000E94D2010E949C02D093BA00C093B8006E
:1005B000DF91CF910895CF92DF92EF92FF920F9348
:1005C0001F93CF93DF93D0912D0281E0D13208F0B9
:1005D0009CC0C0912C020E941E026B017C01809184
:1005E000040281116CC082E08093040281E0809358
:1005F00003028FEF8093020210920102D093000257
:10060000ACE0B2E0E0EEF1E080E0D8138DC01092F3
:10061000DF018091DF01CC0FC82BC093DF018091F7
:10062000DE01813009F084C01092DE010E941E02BA
:100630006B017C018091DF018093BB0080910602F9
:1006400090910702A0910802B0910902892B8A2B90
:100650008B2BA1F00E941E0200910602109107024E
:1006600020910802309109026C197D098E099F09B9
:10067000061717072807390708F442C08091BC0005
:1006800083FDD8CF85EC8093BC000E941E026B01D5
:100690007C0180910402823009F44CC080910202F6
:1006A0008F3F09F469C080910202803209F466C06C
:1006B00080910202803309F463C084E026C08091F7
:1006C000060290910702A0910802B0910902892BBD
:1006D0008A2B8B2B09F483CF0E941E020091060205
:1006E0001091070220910802309109026C197D09CE
:1006F0008E099F09061717072807390708F06FCFDB
:10070000809105020E94BA0285E010920B021092BD
:100710002D0210920A02DF91CF911F910F91FF904D
:10072000EF90DF90CF9008959D9191938F5F6DCF63
:1007300085EEA9CF8091060290910702A091080250
:10074000B0910902892B8A2B8B2B09F4A2CF0E942E
:100750001E020091060210910702209108023091BA
:1007600009026C197D098E099F09061717072807CA
:10077000390708F08ECFC4CF80E0C7CF82E0C5CF65
:1007800083E0C3CFCF92DF92EF92FF920F931F933C
:10079000CF93C82F813208F096C00E941E026B01D1
:1007A0007C0180910402811169C081E08093040280
:1007B000809303029FEF90930202109201029C0F1C
:1007C000909300028093DF018091DF018E6E809311
:1007D000DF018091DE01813009F077C01092DE01E7
:1007E0000E941E026B017C018091DF018093BB009F
:1007F0008091060290910702A0910802B09109022F
:10080000892B8A2B8B2BA1F00E941E0200910602DD
:100810001091070220910802309109026C197D099C
:100820008E099F09061717072807390708F447C0DC
:100830008091BC0083FDD8CF85EC8093BC000E94E2
:100840001E026B017C0180910402813009F43FC0DB
:10085000809101028C1710F4C0910102A0EEB1E06A
:10086000EEEBF1E080E08C1354C08C2FCF911F9100
:100870000F91FF90EF90DF90CF9008958091060246
:1008800090910702A0910802B0910902892B8A2B4E
:100890008B2B09F486CF0E941E0200910602109154
:1008A000070220910802309109026C197D098E0916
:1008B0009F09061717072807390708F072CF80919C
:1008C00005020E94BA02C0E0D0CF85EEB6CF80917B
:1008D000060290910702A0910802B0910902892BAB
:1008E0008A2B8B2B09F4AFCF0E941E0200910602C7
:1008F0001091070220910802309109026C197D09BC
:100900008E099F09061717072807390708F09BCF9C
:10091000D6CF9D9191938F5FA6CF0895E091A601C8
:100920008091A501E81730F4F0E0E254FE4F808199
:1009300090E008958FEF9FEF08959091A601809128
:10094000A5012FEF3FEF981748F4E92FF0E0E254AC
:10095000FE4F208130E09F5F9093A601C90108956A
:100960008091A5019091A601891B990B0895CF92C2
:10097000DF92EF92FF920F931F93CF93DF937C014F
:10098000CB018A0120910A02222389F0EB016B013D
:10099000C40ED51ECC15DD0569F06991D701ED9126
:1009A000FC910190F081E02DC7010995F3CF642FF0
:1009B0000E947502C801DF91CF911F910F91FF90A6
:1009C000EF90DF90CF900895CF93DF931F92CDB734
:1009D000DEB7698320910A022223F9F020912D02CB
:1009E000203258F021E030E0FC013383228390E094
:1009F00080E00F90DF91CF91089580910B02E82F56
:100A0000F0E0E45FFD4F998190838F5F80930B024C
:100A100080932D0281E090E0ECCF61E0CE01019661
:100A20000E947502F7CFCF93C82F81E080930A020E
:100A300087E780932C0210920B0210922D0264EF34
:100A40008BEC92E00E94E4046C2F8BEC92E00E940D
:100A5000E404CF910C94DB0290E080E00895FC0167
:100A600001900020E9F73197AF01481B590BBC01F9
:100A70008EE292E00C94C5008F929F92AF92BF924B
:100A80000F931F93CF93DF93CDB7DEB7A1970FB628
:100A9000F894DEBF0FBECDBF19A2423008F44AE081
:100AA0008E010F5D1F4F842E912CB12CA12CA5011E
:100AB00094010E94FF0FE62FB901CA01EA30F4F455
:100AC000E05DD801EE938D01232B242B252B79F7A4
:100AD00090E080E0109719F0CD010E942F05A196BB
:100AE0000FB6F894DEBF0FBECDBFDF91CF911F913F
:100AF0000F91BF90AF909F908F900895E95CE1CFE8
:100B00004F925F926F927F928F929F92AF92BF921D
:100B1000CF92DF92EF92FF926B017C01AC019B01BF
:100B20000E94B50E8823C1F084E291E00E942F0557
:100B30007C0180E391E00E942F058E0D9F1DFF90A8
:100B4000EF90DF90CF90BF90AF909F908F907F906D
:100B50006F905F904F90089546015701E894B7F861
:100B60002FEF3FEF4FE75FE7C501B4010E94B50EDD
:100B700081110DC02FEF3FEF4FE75FE7C501B401D3
:100B80000E949B0C18161CF488E291E0CFCF2FEF47
:100B90003FEF4FE75FE4C701B6010E94F30D18165F
:100BA0001CF48CE291E0C2CF2FEF3FEF4FE75FECF8
:100BB000C701B6010E949B0C87FDF3CF20E030E017
:100BC000A901C701B6010E949B0CB12CA12C87FF83
:100BD0000AC06DE28EE292E00E9465015C01F7FAC4
:100BE000F094F7F8F0942AE037ED43EA5BE3C701AD
:100BF000B6010E942F0C2B013C010E94120D6B01CB
:100C00007C010E94410D9B01AC01C301B2010E9415
:100C10002E0C2B013C014AE0C701B6010E943C05A5
:100C20007C01EA0CFB1C6EE28EE292E00E94650100
:100C3000E80EF91E20E030E040E251E4C301B201C9
:100C40000E94F80D2B013C010E94120D4B01B12CAA
:100C5000A12C4AE0C501B4010E943C05E80EF91E32
:100C6000C501B4010E94410D9B01AC01C301B20159
:100C70000E942E0C20E030E040E251E40E94F80D8A
:100C80000E94120D90E080E04AE00E943C05E80ED0
:100C9000F91E4FCF1F93CF93DF93EB0191E0909319
:100CA0000A0297E790932C0210920B0210922D02E9
:100CB000682F8BEC92E00E94E4040E94DB0282E049
:100CC0000E94C2031092A6018093A5018BEC92E0D2
:100CD0000E949D04182F8BEC92E00E949D0420E05E
:100CE000822B912B99838883DF91CF911F910C9454
:100CF000DB020F931F93CF93DF9300D0CDB7DEB706
:100D00008C018EE20E94130565E070E080E090E0C7
:100D10000E944302BE016F5F7F4F86EF0E944A062A
:100D200089819A81B0E0A0E0F80180839183A28359
:100D3000B3830F900F90DF91CF911F910F91089582
:100D40000F931F93CF93DF9300D0CDB7DEB78B0106
:100D5000BE016F5F7F4F0E944A0689819A81F80128
:100D6000918380830F900F90DF91CF911F910F910E
:100D70000895CF93DF93EB0191E090930A0297E7F8
:100D800090932C0210920B0210922D02682F8BEC84
:100D900092E00E94E4040E94DB0281E00E94C20310
:100DA0001092A6018093A5018BEC92E00E949D0415
:100DB0008883DF91CF910C94DB0285ED8093BC009A
:100DC0008091060290910702A0910802B091090259
:100DD0000796A11DB11D23E0B695A7959795879518
:100DE0002A95D1F72091BC0024FD03C01092040283
:100DF0000895409106025091070260910802709197
:100E00000902452B462B472B69F30097A105B10535
:100E100041F025E32A95F1F700000197A109B109F6
:100E2000E1CF809105020C94BA021F920F920FB687
:100E30000F9211242F933F934F935F936F937F9360
:100E40008F939F93AF93BF93EF93FF938EE292E0C4
:100E50000E944301FF91EF91BF91AF919F918F91BC
:100E60007F916F915F914F913F912F910F900FBEA6
:100E70000F901F9018951F920F920FB60F9211248A
:100E80002F938F939F93EF93FF93E0913E02F09106
:100E90003F028081E0914402F091450282FD1BC037
:100EA0009081809147028F5F8F7320914802821753
:100EB00041F0E0914702F0E0E25DFD4F958F8093B5
:100EC0004702FF91EF919F918F912F910F900FBE4D
:100ED0000F901F9018958081F4CF1F920F920FB63C
:100EE0000F9211242F933F938F939F93AF93BF93B0
:100EF0008091990190919A01A0919B01B0919C01E0
:100F00003091980123E0230F2D3758F50196A11D4C
:100F1000B11D209398018093990190939A01A09319
:100F20009B01B0939C0180919D0190919E01A091A5
:100F30009F01B091A0010196A11DB11D80939D015B
:100F400090939E01A0939F01B093A001BF91AF9198
:100F50009F918F913F912F910F900FBE0F901F90F7
:100F6000189526E8230F0296A11DB11DD2CF1F921E
:100F70000F920FB60F9211242F933F934F935F93CD
:100F80006F937F938F939F93AF93BF93EF93FF9351
:100F90008091B900887F803609F44AC0F0F5883224
:100FA00009F4A7C018F5803109F49BC0B8F4882370
:100FB00009F4F9C0883009F494C0FF91EF91BF9112
:100FC000AF919F918F917F916F915F914F913F91E1
:100FD0002F910F900FBE0F901F901895883109F434
:100FE00088C0803251F78093020214C0803409F423
:100FF0009DC040F48033B9F38833F9F68093020240
:1010000085ECB0C0803509F485C0883509F496C0F8
:10101000883499F60E94DD06D0CF883909F48CC057
:1010200038F5883729F050F4883611F0803729F6E2
:1010300083E0809304021092970157C0883809F426
:101040007BC0803919F0803809F0B7CF80919701C3
:10105000803208F071C0E091970181E08E0F80939B
:1010600097018091BB00F0E0E958FE4F80833DC0BE
:10107000803B39F0E0F4803A09F479C0883A09F00D
:101080009CCF84E080930402109276011092750147
:10109000E091A301F091A40109958091750181115E
:1010A0000FC081E0809375011092550109C0803C0A
:1010B00009F4A6CF883C09F4A3CF883B09F07DCF83
:1010C000E091760181E08E0F80937601F0E0EB5A9B
:1010D000FE4F80818093BB009091760180917501D5
:1010E00029C08091DF018093BB0085EC8093BC0018
:1010F00064CF9091010280910002981758F5E09119
:10110000010281E08E0F80930102F0E0E052FE4F79
:101110008081E9CFE091010281E08E0F809301028E
:101120008091BB00F0E0E052FE4F8083909101027D
:10113000809100029817C8F285E8D8CFE0910102AB
:1011400081E08E0F809301028091BB00F0E0E052BD
:10115000FE4F80838091030281115CCF81E08093F8
:10116000DE0184EA8093BC001092040226CF85EC55
:101170008093BC001092040280919701803230F479
:10118000E0919701F0E0E958FE4F108260919701DD
:1011900070E0E091A101F091A20187E791E009954B
:1011A000109297010ACF1092020234CFEEE2F2E0E1
:1011B0001382128288EE93E0A0E0B0E084839583EE
:1011C000A683B78324E031E03183208325EC30E02F
:1011D0003587248724EC30E03787268720EC30E001
:1011E000318B208B21EC30E0338B228B22EC30E0F2
:1011F000358B248B26EC30E0378B268B118E128EAC
:10120000138E148EEBECF2E01382128284839583AA
:10121000A683B78386E191E0918380830895CF937D
:10122000DF93CDB7DEB763970FB6F894DEBF0FBE7E
:10123000CDBF789484B5826084BD84B5816084BD5F
:1012400085B5826085BD85B5816085BD80916E0064
:10125000816080936E001092810080918100826095
:1012600080938100809181008160809381008091D2
:1012700080008160809380008091B10084608093C1
:10128000B1008091B00081608093B00080917A00BD
:10129000846080937A0080917A00826080937A00E3
:1012A00080917A00816080937A0080917A008068D2
:1012B00080937A001092C100E0913E02F0913F02CB
:1012C00082E08083E0913A02F0913B021082E0914B
:1012D0003C02F0913D028FEC808310924602E09137
:1012E0004202F091430286E08083E0914002F09157
:1012F0004102808180618083E0914002F09141024F
:10130000808188608083E0914002F0914102808179
:1013100080688083E0914002F091410280818F7D5E
:1013200080831092A6011092A50110920B021092D8
:101330002D020E949C0283EC90E09093A401809384
:10134000A30184EC90E09093A2018093A101BE01DF
:101350006F5F7F4F80ED0E94B90689818535C9F5A1
:101360001092A70168EA71E08AEA0E94A0066AEA80
:1013700071E08CEA0E94A0066CEA71E08EEA0E949D
:10138000A0066EEA71E080EB0E944A0660EB71E015
:1013900082EB0E944A0662EB71E084EB0E944A06EF
:1013A00064EB71E086EB0E94A00666EB71E088EBCF
:1013B0000E94A00668EB71E08AEB0E94A0066AEB2F
:1013C00071E08CEB0E94A0066CEB71E08EEB0E944A
:1013D000A006F0E02F2EF0E03F2ECE0101960E94F5
:1013E00079068091B2019091B30129813A814B81B4
:1013F0005C81281B390B41095109A091B001B091C2
:10140000B1010E9440106B017C014FE0F594E7941C
:10141000D794C7944A95D1F76091BA017091BB01F6
:10142000072E000C880B990B5BE0660F771F881F57
:10143000991F5A95D1F72091BC013091BD01032E1F
:10144000000C440B550B2C0D3D1D4E1D5F1D0E94C5
:101450002110CA01B9016C0D7D1D8E1D9F1D685F95
:101460007F4F8F4F9F4FE4E09595879577956795D0
:10147000EA95D1F70E94430D20E030E040E251E4CC
:101480000E94A00C6C877D878E879F8719821A82A5
:101490001B821C82CE0101960E9479061091A70141
:1014A000812F8295880F880F807C8C5C0E941305A9
:1014B00068E070E080E090E0113081F065E070E07D
:1014C00080E090E0113050F06EE070E080E090E05D
:1014D000123021F06AE170E080E090E00E94430267
:1014E000BE016B5F7F4F86EF0E944A06CD80DE8093
:1014F000F12CE12CFE2CED2CDC2CCC24BE01695F00
:101500007F4F88EF0E94B9068F81A7019601280FAF
:10151000311D411D511D288739874A875B8780917E
:10152000B2019091B30129813A814B815C81281BE2
:10153000390B41095109A091B001B091B1010E944C
:1015400040106B017C01AFE0F594E794D794C79409
:10155000AA95D1F76091BA017091BB01072E000CDA
:10156000880B990BBBE0660F771F881F991FBA95F0
:10157000D1F72091BC013091BD01032E000C440B2A
:10158000550B2C0D3D1D4E1D5F1D0E942110C20EDE
:10159000D31EE41EF51E30EAC31A3FE0D30AE10869
:1015A000F108A7019601C701B6010E94EF0F2B01B8
:1015B0003C018CE075946794579447948A95D1F7D1
:1015C000A091AC01B091AD010E944B104B015C01A8
:1015D0009DE0B594A794979487949A95D1F7A0919C
:1015E000B401B091B501A30192010E944B109C017E
:1015F000552737FD5095452F280D391D4A1D5B1D78
:101600002E5F3F4F4F4F5F4F62E05595479537959F
:1016100027956A95D1F730584F4F5F4FA091AE0193
:10162000B091AF010E9440104B015C017FE0B69485
:10163000A794979487947A95D1F788E090E0811BDE
:101640009109288539854A855B8504C0559547955C
:10165000379527958A95D2F7288739874A875B87F8
:10166000A091B601B091B701A30192010E944B1065
:101670009B01AC01EBE05595479537952795EA9589
:10168000D1F7288B398B4A8B5B8BA091AA01B09143
:10169000AB01A70196010E944B10DC01CB01FBE0DE
:1016A000B595A79597958795FA95D1F728893989A2
:1016B0004A895B89820F931FA41FB51F4091A8011F
:1016C0005091A901052E000C660B770B22E0440F08
:1016D000551F661F771F2A95D1F7840F951FA61FE8
:1016E000B71F012E04C0880F991FAA1FBB1F0A94A1
:1016F000D2F70296A11DB11D32E0B595A795979539
:1017000087953A95D1F7288539854A855B85281BC9
:10171000390B4A0B5B0B60E573EC80E090E004C092
:1017200095958795779567951A95D2F70E94EF0F53
:1017300097FD89C0660F771F881F991FA501940127
:101740000E94FF0F69017A019927F7FC9A958F2D66
:101750007E2D6D2D9B01AC010E94EF0F9B01AC0112
:10176000AEEDBBE00E9440104B015C01A3E4B3EE80
:10177000A70196010E944E10BC01992777FD909514
:10178000892F4501BB2497FCB094AB2C680D791DC3
:101790008A1D9B1D6153714F8F4F9F4F44E095955C
:1017A0008795779567954A95D1F76C0D7D1D8E1DB0
:1017B0009F1D0E94430D6B017C0120E836EE45EC35
:1017C00057E40E94A00C2EEA3CED42E45EE30E9446
:1017D000650E4B015C0183E391E00E942F056C854F
:1017E0007D858E859F850E94800580E491E00E9422
:1017F0002F05C701B6010E9480058AE491E00E948E
:101800002F05A501940160E070E080E89FE30E944D
:101810002E0C20E03AE24DE257E40E94F80D0E94BF
:10182000800560ED77E080E090E00E9443022114A3
:10183000310409F4D2CD0E942F01882309F4CDCDC3
:101840000E940000CACDA50194010E94FF0F69010A
:101850007A01CC0CDD1CEE1CFF1C76CF5058BB2748
:10186000AA270E94460C0C94B90D0E94AB0D38F0CB
:101870000E94B20D20F039F49F3F19F426F40C9425
:10188000A80D0EF4E095E7FB0C94A20DE92F0E9441
:10189000CA0D58F3BA17620773078407950720F03B
:1018A00079F4A6F50C94EC0D0EF4E0950B2EBA2FFE
:1018B000A02D0B01B90190010C01CA01A001112456
:1018C000FF27591B99F0593F50F4503E68F11A1602
:1018D000F040A22F232F342F4427585FF3CF469593
:1018E00037952795A795F0405395C9F77EF41F16B5
:1018F000BA0B620B730B840BBAF09150A1F0FF0F7F
:10190000BB1F661F771F881FC2F70EC0BA0F621F6A
:10191000731F841F48F4879577956795B795F7955A
:101920009E3F08F0B0CF9395880F08F09927EE0FEF
:101930009795879508950E947E0D08F481E008959B
:101940000E94B40C0C94B90D0E94B20D58F00E9484
:10195000AB0D40F029F45F3F29F00C94A20D51111A
:101960000C94ED0D0C94A80D0E94CA0D68F39923F8
:10197000B1F3552391F3951B550BBB27AA2762178B
:101980007307840738F09F5F5F4F220F331F441F98
:10199000AA1FA9F335D00E2E3AF0E0E832D09150CC
:1019A0005040E695001CCAF72BD0FE2F29D0660FB9
:1019B000771F881FBB1F261737074807AB07B0E8FC
:1019C00009F0BB0B802DBF01FF2793585F4F3AF002
:1019D0009E3F510578F00C94A20D0C94ED0D5F3FE5
:1019E000E4F3983ED4F3869577956795B795F79588
:1019F0009F5FC9F7880F911D9695879597F9089570
:101A0000E1E0660F771F881FBB1F6217730784070B
:101A1000BA0720F0621B730B840BBA0BEE1F88F71A
:101A2000E09508950E94D20D88F09F5798F0B92F45
:101A30009927B751B0F0E1F0660F771F881F991F03
:101A40001AF0BA95C9F714C0B13091F00E94EC0DAC
:101A5000B1E008950C94EC0D672F782F8827B85FBC
:101A600039F0B93FCCF3869577956795B395D9F75B
:101A70003EF490958095709561957F4F8F4F9F4F65
:101A80000895E89409C097FB3EF490958095709571
:101A900061957F4F8F4F9F4F9923A9F0F92F96E9BA
:101AA000BB279395F695879577956795B795F1112F
:101AB000F8CFFAF4BB0F11F460FF1BC06F5F7F4FCC
:101AC0008F4F9F4F16C0882311F096E911C07723DE
:101AD00021F09EE8872F762F05C0662371F096E8E7
:101AE000862F70E060E02AF09A95660F771F881FB6
:101AF000DAF7880F9695879597F90895990F00085A
:101B0000550FAA0BE0E8FEEF16161706E807F907CF
:101B1000C0F012161306E407F50798F0621B730B6A
:101B2000840B950B39F40A2661F0232B242B252BEB
:101B300021F408950A2609F4A140A6958FEF811D8E
:101B4000811D089597F99F6780E870E060E008952F
:101B50009FEF80EC089500240A94161617061806C5
:101B60000906089500240A941216130614060506A1
:101B70000895092E0394000C11F4882352F0BB0F32
:101B800040F4BF2B11F460FF04C06F5F7F4F8F4F95
:101B90009F4F089557FD9058440F551F59F05F3FD0
:101BA00071F04795880F97FB991F61F09F3F79F07F
:101BB00087950895121613061406551FF2CF469501
:101BC000F1DF08C0161617061806991FF1CF869583
:101BD0007105610508940895E894BB276627772767
:101BE000CB0197F908950E947E0D08F48FEF0895B8
:101BF0000E940B0E0C94B90D0E94AB0D38F00E94A0
:101C0000B20D20F0952311F00C94A20D0C94A80DA8
:101C100011240C94ED0D0E94CA0D70F3959FC1F331
:101C2000950F50E0551F629FF001729FBB27F00D8A
:101C3000B11D639FAA27F00DB11DAA1F649F6627DF
:101C4000B00DA11D661F829F2227B00DA11D621F2E
:101C5000739FB00DA11D621F839FA00D611D221FE8
:101C6000749F3327A00D611D231F849F600D211DCC
:101C7000822F762F6A2F11249F5750409AF0F1F04F
:101C800088234AF0EE0FFF1FBB1F661F771F881FB8
:101C900091505040A9F79E3F510580F00C94A20D41
:101CA0000C94ED0D5F3FE4F3983ED4F38695779561
:101CB0006795B795F795E7959F5FC1F7FE2B880F5E
:101CC000911D9695879597F90895FA01EE0FFF1FDC
:101CD000309621053105A1F16115710561F4803857
:101CE000BFE39B0749F168949038810561F0803823
:101CF000BFEF9B0741F099234AF5FF3FE10531050E
:101D0000210519F1E8940894E795D901AA2329F44B
:101D1000AB2FBE2FF85FD0F310C0FF5F70F4A69515
:101D2000E0F7F73950F019F0FF3A38F49F779F93B6
:101D30000DD00F9007FC9058089546F00C94A80D14
:101D400060E070E080E89FE308954FE79F775F933E
:101D50004F933F932F930E94650F2F913F914F9187
:101D60005F910E94F80D0C94C20E0E947E0D880BAC
:101D7000990B089529F416F00C94A20D0C94EC0D17
:101D80000C94A80D0E94D20DA8F39638A0F707F87E
:101D90000F92E8942BE33AEA48EB5FE70E940E0EBD
:101DA0000F920F920F924DB75EB70F920E94AD0F38
:101DB000E8E6F0E00E94F40E4F915F91EF91FF9101
:101DC000E595EE1FFF1F49F0FE57E0684427EE0F30
:101DD000441FFA95E1F74195550B0E94270F0F908C
:101DE00007FE0C941B0F0895DF93CF931F930F935F
:101DF000FF92EF92DF927B018C01689406C0DA2E8D
:101E0000EF010E940B0EFE01E894A59125913591FA
:101E100045915591A6F3EF010E94460CFE019701F2
:101E2000A801DA9469F7DF90EF90FF900F911F916E
:101E3000CF91DF9108959B01AC0160E070E080E8F4
:101E40009FE30C94A00C0C94A20D0C94E10F0E9443
:101E5000D20DD8F39923C9F3940F511DA3F39150D8
:101E6000504094F059F0882332F0660F771F881F96
:101E700091505040C1F79E3F51052CF7880F911D9E
:101E80009695879597F908955F3FACF0983E9CF042
:101E9000BB27869577956795B79508F4B1609395BC
:101EA000C1F7BB0F58F711F460FFE8CF6F5F7F4FAA
:101EB0008F4F9F4FE3CF0C94ED0D16F00C94E10F74
:101EC0000C94A80D68940C94A20D0E94D20DA8F356
:101ED0009923C1F3AEF3DF93CF931F930F93FF9238
:101EE000C92FDD2788232AF02197660F771F881FC7
:101EF000DAF720E030E040E85FEB9FE3883920F03C
:101F0000803E38F021968F770E942F0CE0E9F0E0B8
:101F100004C00E942F0CEDEBF0E00E94F40E8B0148
:101F2000BE01EC01FB2E6F5771097595771F880B69
:101F3000990B0E94430D28E132E741E35FE30E94E1
:101F40000B0EAF2D9801AE01FF900F911F91CF9115
:101F5000DF910E94460C0C94B90DFA01DC01AA0F26
:101F6000BB1F9B01AC01BF5728F42227332744270E
:101F7000507820C0B75190F4AB2F00244695379588
:101F80002795011CA395D2F3002071F0220F331F77
:101F9000441FB395DAF30ED00C942E0C613071050A
:101FA000A0E88A07B94630F49B01AC016627772781
:101FB00088279078309621F02083318342835383A1
:101FC00008959F3F31F0915020F48795779567955C
:101FD000B795880F911D9695879597F90895DB0120
:101FE0008F939F930E944010BF91AF91A29F800D4D
:101FF000911DA39F900DB29F900D11240895A1E211
:102000001A2EAA1BBB1BFD010DC0AA1FBB1FEE1F72
:10201000FF1FA217B307E407F50720F0A21BB30BBD
:10202000E40BF50B661F771F881F991F1A9469F739
:1020300060957095809590959B01AC01BD01CF0195
:102040000895052E97FB1EF400940E94381057FD4A
:1020500007D00E94FF0F07FC03D04EF40C943810F9
:1020600050954095309521953F4F4F4F5F4F0895C4
:1020700090958095709561957F4F8F4F9F4F0895F4
:102080000E945910A59F900DB49F900DA49F800DA4
:10209000911D11240895B7FF0C9440100E94401028
:1020A000821B930B0895EE0FFF1F0590F491E02D16
:1020B0000994A29FB001B39FC001A39F700D811D21
:1020C0001124911DB29F700D811D1124911D089541
:0420D000F894FFCFB2
:1020D400000000006501C500F200B2012301010106
:1020E400150100000000E404B7042C058D04B004BD
:1020F4009D048E046E616E00696E66006F766600E4
:102104000D0A0054656D70657261747572653A00EC
:1021140050726573737572653A00416C74697475B5
:0421240064653A00B4
:00000001FF
