:100000000C94C1000C941C090C94F5080C94E900A4
:100010000C94E9000C94E9000C94E9000C94E900BC
:100020000C94E9000C94E9000C94E9000C94E900AC
:100030000C94E9000C94E9000C94E9000C94E9009C
:100040000C94AB080C94E9000C9479080C945308B8
:100050000C94E9000C94E9000C94E9000C94E9007C
:100060000C9443090C94E90007634236B79BD8A768
:100070001A39685618AEBAAB558C1D3CB7CC5763CD
:10008000BD6DEDFD753EF6177231BF000000803F7B
:1000900008000000BE922449123EABAAAA2ABECD97
:1000A000CCCC4C3E00000080BEABAAAAAA3E000009
:1000B0000000BF000000803F000000000008417801
:1000C000D3BB4387D1133D190E3CC3BD4282AD2B38
:1000D0003E68EC8276BED98FE1A93E4C80EFFFBE30
:1000E00001C4FF7F3F00000000004E414E494E49D1
:1000F0005459494E46CDCCCC3D0AD7233C17B7D1F5
:100100003877CC2B329595E6241FB14F0A0000209A
:10011000410000C84200401C4620BCBE4CCA1B0E19
:100120005AAEC59D7400000000240027002A00007C
:10013000000000250028002B0000000000230026FE
:10014000002900040404040404040402020202025C
:10015000020303030303030102040810204080018B
:10016000020408102001020408102000000008000A
:10017000020100000304070000000000000000006E
:10018000620A11241FBECFEFD8E0DEBFCDBF11E061
:10019000A0E0B1E0E0EFFEE202C005900D92A839C8
:1001A000B107D9F723E0A8E9B1E001C01D92A3355A
:1001B000B207E1F710E0C1ECD0E004C02197FE01E6
:1001C0000E947017C03CD107C9F70E94BD0A0C9469
:1001D00076170C94000008950895AF92BF92CF92C5
:1001E000DF92EF92FF920F931F93CF93DF936C01F7
:1001F0007B018B01040F151FEB015E01AE18BF08D8
:10020000C017D10759F06991D601ED91FC91019089
:10021000F081E02DC6010995892B79F7C501DF91A1
:10022000CF911F910F91FF90EF90DF90CF90BF90F3
:10023000AF900895FC01538D448D252F30E0842F1D
:1002400090E0821B930B541710F0CF9608950197FE
:100250000895FC01918D828D981761F0A28DAE0FEB
:10026000BF2FB11D5D968C91928D9F5F9F73928F72
:1002700090E008958FEF9FEF0895FC01918D828D9E
:10028000981731F0828DE80FF11D858D90E008956B
:100290008FEF9FEF0895FC01918D228D892F90E0C3
:1002A000805C9F4F821B91098F739927089584E981
:1002B00092E00E944B0121E0892B09F420E0822F7B
:1002C000089580E090E0892B29F00E945701811168
:1002D0000C9400000895FC01A48DA80FB92FB11D46
:1002E000A35ABF4F2C91848D90E001968F7399276C
:1002F000848FA689B7892C93A089B1898C9183704A
:1003000080648C93938D848D981306C00288F38942
:10031000E02D80818F7D80830895EF92FF920F936F
:100320001F93CF93DF93EC0181E0888F9B8D8C8DA1
:1003300098131AC0E889F989808185FF15C09FB795
:10034000F894EE89FF896083E889F9898081837058
:10035000806480839FBF81E090E0DF91CF911F9107
:100360000F91FF90EF900895F62E0B8D10E00F5F28
:100370001F4F0F731127E02E8C8D8E110CC00FB6FE
:1003800007FCFACFE889F989808185FFF5CFCE0196
:100390000E946B01F1CFEB8DEC0FFD2FF11DE35AA5
:1003A000FF4FF0829FB7F8940B8FEA89FB89808119
:1003B0008062CFCFCF93DF93EC01888D8823B9F093
:1003C000AA89BB89E889F9898C9185FD03C0808160
:1003D00086FD0DC00FB607FCF7CF8C9185FFF2CFDD
:1003E000808185FFEDCFCE010E946B01E9CFDF91C7
:1003F000CF910895833081F028F4813099F08230D4
:10040000A9F008958730A9F08830C9F08430B1F49C
:10041000809180008F7D03C0809180008F778093D2
:100420008000089584B58F7784BD089584B58F7D4D
:10043000FBCF8091B0008F778093B00008958091BA
:10044000B0008F7DF9CFCF93DF93282F30E0F901F3
:10045000E559FE4F8491F901E95AFE4FD491F90113
:10046000ED5BFE4FC491CC23A1F081110E94FA01F3
:10047000EC2FF0E0EE0FFF1FE75CFE4FA591B4916B
:10048000EC91ED2381E090E009F480E0DF91CF91E1
:10049000089580E090E0FACF1F93CF93DF93282F49
:1004A00030E0F901E559FE4F8491F901E95AFE4F18
:1004B000D491F901ED5BFE4FC491CC23A9F0162F26
:1004C00081110E94FA01EC2FF0E0EE0FFF1FE15DB9
:1004D000FE4FA591B4918FB7F894EC91111108C01B
:1004E000D095DE23DC938FBFDF91CF911F910895CC
:1004F000DE2BF8CFCF93DF9390E0FC01E95AFE4F5B
:1005000024918D5B9E4FFC0184918823D1F090E073
:10051000880F991FFC01EB5DFE4FA591B491FC0182
:10052000E15DFE4FC591D49161110EC09FB7F89463
:100530008C91E22FE0958E238C932881E223E8832F
:100540009FBFDF91CF9108958FB7F894EC91E22B84
:10055000EC938FBFF6CF8E3008F08E50877080649A
:1005600080937C0080917A00806480937A008091EF
:100570007A0086FDFCCF80917800909179000895F3
:100580003FB7F8948091E1019091E201A091E301DD
:10059000B091E40126B5A89B05C02F3F19F0019644
:1005A000A11DB11D3FBFBA2FA92F982F8827BC01CD
:1005B000CD01620F711D811D911D42E0660F771FF5
:1005C000881F991F4A95D1F708958F929F92AF92F5
:1005D000BF92CF92DF92EF92FF926B017C010E945B
:1005E000C0024B015C01C114D104E104F104B9F073
:1005F0000E94C002681979098A099B09683E734004
:100600008105910580F321E0C21AD108E108F108C3
:1006100088EE880E83E0981EA11CB11CE4CFFF90E9
:10062000EF90DF90CF90BF90AF909F908F90089504
:100630002FB7F8946091DD017091DE018091DF01A8
:100640009091E0012FBF089508952091B901260FE0
:100650003327331F21323105ECF420916A02FC016B
:1006600090E080E0243069F082E00895A091B90123
:100670002191AC0147565E4FA40FB52FB11D2C93AD
:100680000196861798F38091B901680F6093B901BC
:1006900080E0089581E0089510926A0281E08093DD
:1006A00069021092440261E082E10E944C0261E022
:1006B00083E10E944C02E9EBF0E080818E7F808331
:1006C00080818D7F808388E48093B80085E4809367
:1006D000BC000895CF93DF9391E090939801882315
:1006E000B9F0C091B800D091BA008091BC008A7B6B
:1006F0008093BC0060E082E10E944C0260E083E1F4
:100700000E944C020E944C03D093BA00C093B800E0
:10071000DF91CF910895CF92DF92EF92FF920F93E6
:100720001F93CF93DF93D091930281E0D13208F0F1
:100730009CC0C09192020E94C0026B017C0180911A
:100740006A0281116CC082E080936A0281E080932A
:1007500069028FEF8093680210926702D09366025D
:10076000A2E7B2E0E6E4F2E080E0D8138DC0109298
:10077000450280914502CC0FC82BC0934502809161
:100780004402813009F084C0109244020E94C002E9
:100790006B017C01809145028093BB0080916C02CB
:1007A00090916D02A0916E02B0916F02892B8A2BFD
:1007B0008B2BA1F00E94C00200916C0210916D027F
:1007C00020916E0230916F026C197D098E099F098C
:1007D000061717072807390708F442C08091BC00A4
:1007E00083FDD8CF85EC8093BC000E94C0026B01D2
:1007F0007C0180916A02823009F44CC080916802C9
:100800008F3F09F469C080916802803209F466C0A4
:1008100080916802803309F463C084E026C080912F
:100820006C0290916D02A0916E02B0916F02892BC3
:100830008A2B8B2B09F483CF0E94C00200916C029B
:1008400010916D0220916E0230916F026C197D093A
:100850008E099F09061717072807390708F06FCF79
:1008600080916B020E946A0385E0109271021092DF
:10087000930210927002DF91CF911F910F91FF9020
:10088000EF90DF90CF9008959D9191938F5F6DCF02
:1008900085EEA9CF80916C0290916D02A0916E02BD
:1008A000B0916F02892B8A2B8B2B09F4A2CF0E9467
:1008B000C00200916C0210916D0220916E02309185
:1008C0006F026C197D098E099F0906171707280703
:1008D000390708F08ECFC4CF80E0C7CF82E0C5CF04
:1008E00083E0C3CFCF92DF92EF92FF920F931F93DB
:1008F000CF93C82F813208F096C00E94C0026B01CE
:100900007C0180916A02811169C081E080936A0252
:10091000809369029FEF90936802109267029C0F88
:100920009093660280934502809145028E6E80937B
:10093000450280914402813009F077C01092440250
:100940000E94C0026B017C01809145028093BB0034
:1009500080916C0290916D02A0916E02B0916F0235
:10096000892B8A2B8B2BA1F00E94C00200916C0274
:1009700010916D0220916E0230916F026C197D0909
:100980008E099F09061717072807390708F447C07B
:100990008091BC0083FDD8CF85EC8093BC000E9481
:1009A000C0026B017C0180916A02813009F43FC072
:1009B000809167028C1710F4C0916702A6E4B2E040
:1009C000E4E2F2E080E08C1354C08C2FCF911F91B1
:1009D0000F91FF90EF90DF90CF90089580916C027F
:1009E00090916D02A0916E02B0916F02892B8A2BBB
:1009F0008B2B09F486CF0E94C00200916C021091EB
:100A00006D0220916E0230916F026C197D098E0982
:100A10009F09061717072807390708F072CF80913A
:100A20006B020E946A03C0E0D0CF85EEB6CF809102
:100A30006C0290916D02A0916E02B0916F02892BB1
:100A40008A2B8B2B09F4AFCF0E94C00200916C025D
:100A500010916D0220916E0230916F026C197D0928
:100A60008E099F09061717072807390708F09BCF3B
:100A7000D6CF9D9191938F5FA6CF0895E091EA0123
:100A80008091E901E81730F4F0E0EC5DFD4F8081E2
:100A900090E008958FEF9FEF08959091EA01809183
:100AA000E9012FEF3FEF981748F4E92FF0E0EC5DF4
:100AB000FD4F208130E09F5F9093EA01C9010895C6
:100AC0008091E9019091EA01891B990B0895CF92D9
:100AD000DF92EF92FF920F931F93CF93DF937C01EE
:100AE000CB018A0120917002222389F0EB016B0176
:100AF000C40ED51ECC15DD0569F06991D701ED91C5
:100B0000FC910190F081E02DC7010995F3CF642F8E
:100B10000E942503C801DF91CF911F910F91FF9093
:100B2000EF90DF90CF900895CF93DF931F92CDB7D2
:100B3000DEB76983209170022223F9F0209193029D
:100B4000203258F021E030E0FC013383228390E032
:100B500080E00F90DF91CF91089580917102E82F8E
:100B6000F0E0EE58FD4F998190838F5F8093710282
:100B70008093930281E090E0ECCF61E0CE0101969A
:100B80000E942503F7CFCF93C82F81E08093700296
:100B900087E780939202109271021092930264EFA1
:100BA00081E393E00E9494056C2F81E393E00E941F
:100BB0009405CF910C948B0390E080E00895CF9240
:100BC000DF92EF92FF928091EB010E942302C0908E
:100BD000ED01D090EE01E090EF01F090F00120E007
:100BE00030E040E85FE3181619068CF4C701B6013F
:100BF0000E948E146093ED017093EE018093EF01DB
:100C00009093F001FF90EF90DF90CF900895C7018F
:100C1000B6010E948D14EECF1F93CF93DF93EB01AB
:100C200091E09093700297E7909392021092710274
:100C300010929302682F81E393E00E9494050E9432
:100C40008B0382E00E9472041092EA018093E90112
:100C500081E393E00E944D05182F81E393E00E9409
:100C60004D0520E0822B912B99838883DF91CF91D2
:100C70001F910C948B030F931F93CF93DF9300D09E
:100C8000CDB7DEB78C018EE20E94C30565E070E04F
:100C900080E090E00E94E502BE016F5F7F4F86EF2B
:100CA0000E940C0689819A81B0E0A0E0F80180835F
:100CB0009183A283B3830F900F90DF91CF911F9107
:100CC0000F9108950F931F93CF93DF9300D0CDB76B
:100CD000DEB78B01BE016F5F7F4F0E940C068981DA
:100CE0009A81F801918380830F900F90DF91CF91CB
:100CF0001F910F910895CF93DF93EB0191E09093B3
:100D0000700297E7909392021092710210929302F0
:100D1000682F81E393E00E9494050E948B0381E099
:100D20000E9472041092EA018093E90181E393E04A
:100D30000E944D058883DF91CF910C948B03FC01B9
:100D400001900020E9F73197AF01481B590BBC0116
:100D500084E992E00C94ED008F929F92AF92BF9243
:100D60000F931F93CF93DF93CDB7DEB7A1970FB645
:100D7000F894DEBF0FBECDBF19A2423008F44AE09E
:100D80008E010F5D1F4F842E912CB12CA12CA5013B
:100D900094010E945C14E62FB901CA01EA30F4F410
:100DA000E05DD801EE938D01232B242B252B79F7C1
:100DB00090E080E0109719F0CD010E949F06A19667
:100DC0000FB6F894DEBF0FBECDBFDF91CF911F915C
:100DD0000F91BF90AF909F908F900895E95CE1CF05
:100DE000CF92DF92EF92FF92CF93DF936C01990F36
:100DF000EE08FF08F7FE19C06DE284E992E00E9458
:100E00008D01EC0166277727CB016C197D098E09CE
:100E10009F094AE00E94AC068C0F9D1FDF91CF9185
:100E2000FF90EF90DF90CF9008954AE0C701B601A0
:100E3000DF91CF91FF90EF90DF90CF900C94AC06B4
:100E40004F925F926F927F928F929F92AF92BF92DA
:100E5000CF92DF92EF92FF920F931F93CF936B018C
:100E60007C01742EAC019B010E94F715882399F038
:100E700088E291E0CF911F910F91FF90EF90DF906A
:100E8000CF90BF90AF909F908F907F906F905F902A
:100E90004F900C949F0646015701E894B7F82FEF46
:100EA0003FEF4FE75FE7C501B4010E94F7158111DD
:100EB0000DC02FEF3FEF4FE75FE7C501B4010E9480
:100EC000CC1218161CF48CE291E0D4CF2FEF3FEF38
:100ED0004FE75FE4C701B6010E94A21518161CF483
:100EE00080E391E0C7CF2FEF3FEF4FE75FECC70103
:100EF000B6010E94CC1287FDF3CF20E030E0A901BB
:100F0000C701B6010E94CC1210E000E087FF0AC0C2
:100F10006DE284E992E00E948D018C01F7FAF09471
:100F2000F7F8F094C0E060E070E080E09FE37C16AA
:100F300041F020E030E040E251E40E94FA14CF5F3B
:100F4000F6CFA70196010E948E142B013C010E944E
:100F500073154B015C014AE00E94AC067C01E00E77
:100F6000F11ECC23C1F1C501B4010E94D1129B0135
:100F7000AC01C301B2010E948D144B015C016EE211
:100F800084E992E00E948D01E80EF91EC15018F12B
:100F900020E030E040E251E4C501B4010E94321388
:100FA0002B013C010E9473154B01B12CA12C4AE08E
:100FB000C501B4010E94AC06E80EF91EC501B401DA
:100FC0000E94D1129B01AC01C301B2010E948D1499
:100FD0004B015C01DBCFC701CF911F910F91FF90B7
:100FE000EF90DF90CF90BF90AF909F908F907F90C9
:100FF0006F905F904F9008950C949F06CF93DF936E
:1010000042E00E942007EC0184E391E00E949F06E9
:101010008C0F9D1FDF91CF910895CF93DF930E9496
:101020009F06EC0184E391E00E949F068C0F9D1FB8
:10103000DF91CF91089585ED8093BC0080916C0283
:1010400090916D02A0916E02B0916F020796A11D62
:10105000B11D23E0B695A795979587952A95D1F769
:101060002091BC0024FD03C010926A0208954091B3
:101070006C0250916D0260916E0270916F02452B6F
:10108000462B472B69F30097A105B10541F025E3F5
:101090002A95F1F700000197A109B109E1CF8091EC
:1010A0006B020C946A031F920F920FB60F921124D9
:1010B0002F933F934F935F936F937F938F939F9360
:1010C000AF93BF93EF93FF9384E992E00E946B018B
:1010D000FF91EF91BF91AF919F918F917F916F9110
:1010E0005F914F913F912F910F900FBE0F901F90E6
:1010F00018951F920F920FB60F9211242F938F9372
:101100009F93EF93FF93E091A402F091A502808159
:10111000E091AA02F091AB0282FD1BC09081809108
:10112000AD028F5F8F732091AE02821741F0E09184
:10113000AD02F0E0EC56FD4F958F8093AD02FF912C
:10114000EF919F918F912F910F900FBE0F901F9055
:1011500018958081F4CF1F920F920FB60F92112431
:101160002F933F938F939F93AF93BF938091DD0114
:101170009091DE01A091DF01B091E0013091DC019E
:1011800023E0230F2D3758F50196A11DB11D2093A3
:10119000DC018093DD019093DE01A093DF01B09329
:1011A000E0018091E1019091E201A091E301B09111
:1011B000E4010196A11DB11D8093E1019093E2012C
:1011C000A093E301B093E401BF91AF919F918F9100
:1011D0003F912F910F900FBE0F901F90189526E80A
:1011E000230F0296A11DB11DD2CF1F920F920FB6F1
:1011F0000F9211242F933F934F935F936F937F939D
:101200008F939F93AF93BF93EF93FF93E09102016E
:10121000F09103010995FF91EF91BF91AF919F91DB
:101220008F917F916F915F914F913F912F910F908F
:101230000FBE0F901F9018951F920F920FB60F922E
:1012400011242F933F934F935F936F937F938F93CB
:101250009F93AF93BF93EF93FF93E0910001F091C1
:1012600001010995FF91EF91BF91AF919F918F91EE
:101270007F916F915F914F913F912F910F900FBE92
:101280000F901F9018951F920F920FB60F92112476
:101290002F933F934F935F936F937F938F939F937E
:1012A000AF93BF93EF93FF938091B900887F80360F
:1012B00009F44AC0F0F5883209F4A7C018F5803166
:1012C00009F49BC0B8F4882309F4F9C0883009F404
:1012D00094C0FF91EF91BF91AF919F918F917F91BA
:1012E0006F915F914F913F912F910F900FBE0F9093
:1012F0001F901895883109F488C0803251F7809387
:10130000680214C0803409F49DC040F48033B9F3FE
:101310008833F9F68093680285ECB0C0803509F413
:1013200085C0883509F496C0883499F60E941B0858
:10133000D0CF883909F48CC038F5883729F050F4BB
:10134000883611F0803729F683E080936A02109284
:10135000DB0157C0883809F47BC0803919F0803828
:1013600009F0B7CF8091DB01803208F071C0E091C5
:10137000DB0181E08E0F8093DB018091BB00F0E008
:10138000E554FE4F80833DC0803B39F0E0F4803A65
:1013900009F479C0883A09F09CCF84E080936A020E
:1013A0001092BA011092B901E091E701F091E801C1
:1013B00009958091B90181110FC081E08093B90135
:1013C0001092990109C0803C09F4A6CF883C09F429
:1013D000A3CF883B09F07DCFE091BA0181E08E0F69
:1013E0008093BA01F0E0E756FE4F80818093BB0006
:1013F0009091BA018091B90129C0809145028093F2
:10140000BB0085EC8093BC0064CF90916702809113
:101410006602981758F5E091670281E08E0F80937D
:101420006702F0E0EA5BFD4F8081E9CFE09167025F
:1014300081E08E0F809367028091BB00F0E0EA5B51
:10144000FD4F808390916702809166029817C8F2E1
:1014500085E8D8CFE091670281E08E0F8093670224
:101460008091BB00F0E0EA5BFD4F808380916902D0
:1014700081115CCF81E08093440284EA8093BC00B8
:1014800010926A0226CF85EC8093BC0010926A020B
:101490008091DB01803230F4E091DB01F0E0E55433
:1014A000FE4F10826091DB0170E0E091E501F09168
:1014B000E6018BEB91E009951092DB010ACF1092C7
:1014C000680234CFE4E9F2E01382128288EE93E0FE
:1014D000A0E0B0E084839583A683B78328E031E061
:1014E0003183208325EC30E03587248724EC30E0FD
:1014F0003787268720EC30E0318B208B21EC30E0E1
:10150000338B228B22EC30E0358B248B26EC30E0C1
:10151000378B268B118E128E138E148EE1E3F3E03F
:101520001382128284839583A683B7838AE191E034
:1015300091838083E9E4F3E01082118212821382A6
:101540001482158216821782E3E4F3E0118210827E
:1015500088E090E09383828388EE93E09583848390
:10156000EDE3F3E01182108289E090E093838283BF
:1015700080ED97E0958384830895CF93DF93CDB773
:10158000DEB7C955D1090FB6F894DEBF0FBECDBF87
:10159000789484B5826084BD84B5816084BD85B54E
:1015A000826085BD85B5816085BD80916E0081605A
:1015B00080936E0010928100809181008260809300
:1015C0008100809181008160809381008091800002
:1015D0008160809380008091B10084608093B1002D
:1015E0008091B00081608093B00080917A00846027
:1015F00080937A0080917A00826080937A00809153
:101600007A00816080937A0080917A00806880936C
:101610007A001092C100E091A402F091A50282E04C
:101620008083E091A002F091A1021082E091A202D9
:10163000F091A3028FEC80831092AC02E091A8029B
:10164000F091A90286E08083E091A602F091A702C2
:10165000808180618083E091A602F091A702808161
:1016600088608083E091A602F091A7028081806863
:101670008083E091A602F091A70280818F7D808314
:101680001092EA011092E9011092710210929302F5
:101690000E944C038BEE90E09093E8018093E70169
:1016A0008CEE90E09093E6018093E501BE016F5FC0
:1016B0007F4F80ED0E947B0689818535C9F51092A8
:1016C0000D026EE072E08AEA0E94620660E172E05A
:1016D0008CEA0E94620662E172E08EEA0E94620673
:1016E00064E172E080EB0E940C0666E172E082EB3E
:1016F0000E940C0668E172E084EB0E940C066AE12D
:1017000072E086EB0E9462066CE172E088EB0E9458
:1017100062066EE172E08AEB0E94620660E272E0AD
:101720008CEB0E94620662E272E08EEB0E9462061F
:101730006091470370914803072E000C880B990BAA
:101740000E94E50260E082E00E947A0260E083E0AD
:101750000E947A0261E086E00E947A0261E087E0FE
:101760000E947A0261E085E00E947A0280E090E0C7
:10177000A8ECB3E48093050290930602A0930702BD
:10178000B093080280E090E0A0ECB1E48093F9010E
:101790009093FA01A093FB01B093FC011092F50124
:1017A0001092F6011092F7011092F80180E090E09B
:1017B000A0E8B1E48093F1019093F201A093F301CA
:1017C000B093F40183E090E09093EC018093EB01FF
:1017D0008FED95E090930101809300018091690065
:1017E000836080936900E89A60914103709142039D
:1017F000072E000C880B990B0E94E5021E0129E4BC
:10180000220E311C0E9418036A967FAF6EAF6A9752
:101810008091ED019091EE01A091EF01B091F00166
:1018200068968CAF9DAFAEAFBFAF68970E941803AC
:101830002B013C018091090290910A02A0910B02B8
:10184000B0910C02A3019201281B390B4A0B5B0BD0
:10185000CA01B9010E94D11260966CAF7DAF8EAF04
:101860009FAF609768962CAD3DAD4EAD5FAD68976C
:101870006091050270910602809107029091080222
:101880000E948D146B017C01AC019B0160966CADD4
:101890007DAD8EAD9FAD60970E9432132091010205
:1018A0003091020240910302509104020E948E1472
:1018B0004B015C018092010290920202A09203020D
:1018C000B09204022091F9013091FA014091FB019C
:1018D0005091FC01C701B6010E94321364966CAFAF
:1018E0007DAF8EAF9FAF64972091F5013091F601E7
:1018F0004091F7015091F801C501B4010E943213E3
:101900009B01AC0164966CAD7DAD8EAD9FAD6497CF
:101910000E948E144B015C012091FD013091FE016B
:101920004091FF0150910002C701B6010E948D1441
:1019300060962CAD3DAD4EAD5FAD60970E94FA1440
:101940002091F1013091F2014091F3015091F401A5
:101950000E9432139B01AC01C501B4010E948E1498
:101960004B015C01C092FD01D092FE01E092FF01AB
:10197000F09200024092090250920A0260920B0219
:1019800070920C027C016B01E894F7F820E030E0E3
:101990004FE753E4C701B6010E94A21520E030E0F2
:1019A000A90118160CF46AC4C501B4010E94CC1236
:1019B0000FEF1FEF87FD02C001E010E0C701B60185
:1019C0000E946C154B017B0161E085E00E947A0268
:1019D0008114910429F460E085E00E944C022DC03E
:1019E0003FEF8316910411F461E0F6CFE0E7F1E0F8
:1019F000E491E33009F4B2C350F4E130D1F0E230C5
:101A000009F4A7C340E8E416F10474F7E4CFE73023
:101A100009F4AEC3E83009F4B3C3E43099F7809118
:101A2000800080628093800090928B0080928A0078
:101A300004C084B5806884BD87BC61E087E0013064
:101A4000110509F4A5C360E087E00F3F1F4F09F0BF
:101A50009FC30E944C0261E086E00E944C02CE01CE
:101A600001960E943B0680911802909119022981EB
:101A70003A814B815C81281B390B41095109A091A6
:101A80001602B09117020E9412146B017C019FE0B4
:101A9000F594E794D794C7949A95D1F76091200272
:101AA00070912102072E000C880B990B2BE0660F1A
:101AB000771F881F991F2A95D1F720912202309114
:101AC0002302032E000C440B550B2C0D3D1D4E1D07
:101AD0005F1D0E94F313CA01B9016C0D7D1D8E1D9F
:101AE0009F1D685F7F4F8F4F9F4F34E0959587957F
:101AF000779567953A95D1F70E94D31220E030E0B0
:101B000040E251E40E94FA1464966CAF7DAF8EAF50
:101B10009FAF649719821A821B821C82CE010196A4
:101B20000E943B0610910D02812F8295880F880F2D
:101B3000807C8C5C0E94C30568E070E080E090E0EF
:101B4000113081F065E070E080E090E0113050F0FD
:101B50006EE070E080E090E0123021F06AE170E029
:101B600080E090E00E94E502B10186EF0E940C0641
:101B7000D101CD90DC90F12CE12CFE2CED2CDC2C55
:101B8000CC24BE01655B7F4F88EF0E947B062C96BC
:101B90008FAD2C97A7019601280F311D411D511DB6
:101BA00060962CAF3DAF4EAF5FAF6097809118024B
:101BB0009091190229813A814B815C81281B390B54
:101BC00041095109A0911602B09117020E94121406
:101BD0006B017C01AFE0F594E794D794C794AA9584
:101BE000D1F76091200270912102072E000C880B22
:101BF000990BBBE0660F771F881F991FBA95D1F725
:101C00002091220230912302032E000C440B550B2D
:101C10002C0D3D1D4E1D5F1D0E94F313C20ED31EE1
:101C2000E41EF51E30EAC31A3FE0D30AE108F108CA
:101C3000A7019601C701B6010E9431172B013C0193
:101C40000CE075946794579447940A95D1F7A09146
:101C50001202B09113020E941D144B015C018DE031
:101C6000B594A794979487948A95D1F7A0911A0276
:101C7000B0911B02A30192010E941D149C015527E3
:101C800037FD5095452F280D391D4A1D5B1D2E5FD0
:101C90003F4F4F4F5F4F62E05595479537952795DA
:101CA0006A95D1F730584F4F5F4FA0911402B09111
:101CB00015020E9412144B015C017FE0B694A794B8
:101CC000979487947A95D1F788E090E0811B9109E9
:101CD00060962CAD3DAD4EAD5FAD609704C055959F
:101CE0004795379527958A95D2F760962CAF3DAFEB
:101CF0004EAF5FAF6097A0911C02B0911D02A3018F
:101D000092010E941D142B013C01EBE07594679435
:101D100057944794EA95D1F7A0911002B09111021F
:101D2000A70196010E941D14FBE095958795779574
:101D30006795FA95D1F7460E571E681E791E809159
:101D40000E0290910F02092E000CAA0BBB0B02E0B1
:101D5000880F991FAA1FBB1F0A95D1F7840D951DE7
:101D6000A61DB71D2C013D01012E04C0440C551CBD
:101D7000661C771C0A94D2F732E0430E511C611C9A
:101D8000711C82E075946794579447948A95D1F7B3
:101D900060962CAD3DAD4EAD5FAD60972419350911
:101DA0004609570960E573EC80E090E004C0959522
:101DB0008795779567951A95D2F70E94311797FD09
:101DC000EBC1660F771F881F991FA50194010E9420
:101DD0005C1469017A019927F7FC9A958F2D7E2D65
:101DE0006D2D9B01AC010E9431179B01AC01AEED42
:101DF000BBE00E9412144B015C01A3E4B3EEA70107
:101E000096010E942014BC01992777FD9095892F97
:101E10004501BB2497FCB094AB2C680D791D8A1D3D
:101E20009B1D6153714F8F4F9F4F44E09595879550
:101E3000779567954A95D1F76C0D7D1D8E1D9F1D79
:101E40000E94D3126B017C0120E836EE45EC57E48A
:101E50000E94FA142EEA3CED42E45EE30E94A715CC
:101E60009B01AC0160E070E080E89FE30E948D146C
:101E700020E03AE24DE257E40E9432134B015C014C
:101E8000809143030E94AB028C01BC01990F880B27
:101E9000990B0E94D3122B013C012AE939E949E848
:101EA00050E40E94A21587FF82C120E030E040E2AA
:101EB00050E4C301B2010E94CC12181614F002E0E3
:101EC00010E087E391E00E94FC0784EF91E0089F17
:101ED000B001099F700D189F700D1124072E000C82
:101EE000880B990B0E94D3122AE939E949E850E49A
:101EF0000E94FA140E946C15CB010E94F0068CE33C
:101F000091E00E94FC0760E0809145030E947A0204
:101F1000809145030E942302892B21F081E491E006
:101F20000E940D0886E391E00E940D0880913D0318
:101F30000E94AB028C0182E591E00E94FC0724EE36
:101F400035E2D8010E9455172FEF33E040E050E012
:101F50000E94F313DA01C901845D9E4FAF4FBF4F5A
:101F60000E94F00660E080913F030E947A02809117
:101F70003F030E942302892B21F081E491E00E941B
:101F8000FC0786E391E00E940D086A964EAD5FADB6
:101F90006A97493F5A420CF42FC10E941803609679
:101FA0006CAF7DAF8EAF9FAF60970E9418036096B5
:101FB0002CAD3DAD4EAD5FAD6097621B730B840BD6
:101FC000950B663971058105910508F0F3C084E928
:101FD00092E00E944B01892B41F384E992E00E9438
:101FE0002901849711F78E010F5F1F4F0E9418037C
:101FF00060939C0270939D0280939E0290939F0237
:1020000084E992E00E94290197FF45C10E941803CC
:1020100040909C0250909D0260909E0270909F02A2
:1020200064197509860997094090980250909902A1
:1020300060909A0270909B0264157505860597055D
:10204000F8F229961FAE29978B81873409F0ADCF1E
:102050008C81873409F0A9CF8D81813409F0A5CF17
:10206000CE0142960E9457112B013C010E946C1533
:10207000CB0164E670E00E9441178B01B4E6B09F8B
:10208000B001B19F700D1124072E000C880B990B25
:102090000E94D3129B01AC01C301B2010E948D14B6
:1020A00020E030E040E752E40E94FA142B013C01AA
:1020B000B801110F880B990B0E94D3129B01AC0140
:1020C000C301B2010E948E146093490370934A03C6
:1020D00080934B0390934C03CE014E960E94571170
:1020E0002B013C010E946C15CB0164E670E00E945C
:1020F00041178B01E4E6E09FB001E19F700D1124D0
:10210000072E000C880B990B0E94D3129B01AC0187
:10211000C301B2010E948D1420E030E040E752E498
:102120000E94FA142B013C01B801110F880B990B86
:102130000E94D3129B01AC01C301B2010E948E1414
:1021400060934D0370934E0380934F03909350031D
:102150002CCF84B5806284BD88BC6FCC8091800018
:10216000806880938000909289008092880065CC7E
:102170008091B00080688093B0008092B3005DCC05
:102180008091B00080628093B0008092B40055CC02
:102190000E944C0260E060CCA50194010E945C1496
:1021A00069017A01CC0CDD1CEE1CFF1C14CE04E08E
:1021B00010E087CE81E691E00E94FC076091490320
:1021C00070914A0380914B0390914C0346E00E942A
:1021D00020078CE691E00E94FC0760914D0370910E
:1021E0004E0380914F039091500346E00E942007D8
:1021F00084E391E00E949F068FE691E00E94FC0735
:1022000064966CAD7DAD8EAD9FAD64970E94FE0768
:102210008CE791E00E94FC0720E030E048EC52E4BB
:10222000C701B6010E94FA140E94FE0786E891E0F9
:102230000E94FC07C501B4010E94FE0780E991E0FD
:102240000E94FC0768966CAD7DAD8EAD9FAD689722
:102250000E94FE0780E090E0892B09F4D3CA0E9417
:102260005701882309F4CECA0E940000CBCA61E05E
:1022700085E00E947A020FEF1FEFB6CBC501B401D3
:102280000E94CC1287FDF3CFC12CD12C8FE7E82E12
:1022900083E4F82E91CB8A30910509F4D2CED8018F
:1022A0008D938D012A163B0609F0A0CECACE662773
:1022B00077270C945B11B0E0A0E0E1E6F1E10C942B
:1022C0002B145C017B016115710519F0DB018D9305
:1022D0009C9385010F5F1F4FF501D0818D2F90E0FA
:1022E0000E94AB126C01892BB9F5DD32B9F50F5F95
:1022F0001F4FD5011196DC91C1E05801F1E0AF1AF2
:10230000B10843E050E062EF70E0C5010E94B412F2
:10231000892B69F5680182E0C80ED11C45E050E0C8
:102320006DEE70E0C6010E94B412892B21F46801A1
:1023300097E0C90ED11CE114F10419F0D701CD9238
:10234000DC9260E070E080E89FEFC111FFC060E0C8
:1023500070E080E89FE7FAC05801BBCFDB3229F478
:1023600085010E5F1F4FF501D181C0E0C6CF43E06C
:1023700050E06AEE70E0C5010E94B412892BE9F0CA
:10238000F80110E000E020E030E0A9015F01B0EDCD
:102390008B2E8D0E89E08815C8F19C2E689491F8DB
:1023A0008C2F8870C2FF16C0811102C00F5F1F4FB3
:1023B0003196D501DC91C92DE9CFE114F10429F062
:1023C0000E5F1F4FF7011183008360E070E080EC27
:1023D0009FE7BCC0882311F001501109A5E0B0E0CF
:1023E0000E9412149B01AC01220F331F441F551F82
:1023F000280D311D411D511D283999E9390749071B
:1024000099E15907A8F2C6609C2ED2CFAEEF8A128E
:1024100006C0C3FD3CC09C2E689493F8C9CFDF7DF5
:10242000D534A9F580818D3239F4C061DF0112966F
:10243000818162E070E006C0DF018B32C1F311964A
:1024400061E070E080535D01A61AB70A8A30F8F4A3
:10245000E0E8CE16ECE0DE065CF4B601660F771F0E
:10246000660F771FC60ED71ECC0CDD1CC80ED11C04
:102470005D01FFEFAF1ABF0A8C9180538A30A8F13B
:10248000C4FF03C0D194C194D1080C0D1D1DC1FF20
:1024900009C0E114F10431F081E0A81AB108D701B4
:1024A000AD92BC92CA01B9010E94D112C370C3306F
:1024B00009F490584B015C0120E030E0A9010E9432
:1024C000CC12882309F440C0C1E2D1E017FF05C057
:1024D000119501951109C9E0D1E06E01B8E1CB1A5F
:1024E000D10880E2E82EF12C0FC0D501B1CFFE015A
:1024F00025913591459154910E191F09C501B401DB
:102500000E9432134B015C01D501C4010E151F0559
:1025100074F72497F594E794CC16DD06A9F78A2F73
:10252000880F8B2F881F8F3F49F020E030E0A901F2
:10253000C501B4010E94CC12811106C082E290E074
:102540009093520380935103C501B401CDB7DEB718
:10255000ECE00C94471491110C949F13803219F005
:1025600089508550C8F70895FB01DC014150504067
:1025700088F08D9181341CF08B350CF4805E659170
:1025800061341CF06B350CF4605E861B611171F3D5
:10259000990B0895881BFCCF0E940E1308F481E06C
:1025A0000895E89409C097FB3EF490958095709546
:1025B00061957F4F8F4F9F4F9923A9F0F92F96E98F
:1025C000BB279395F695879577956795B795F11104
:1025D000F8CFFAF4BB0F11F460FF1BC06F5F7F4FA1
:1025E0008F4F9F4F16C0882311F096E911C07723B3
:1025F00021F09EE8872F762F05C0662371F096E8BC
:10260000862F70E060E02AF09A95660F771F881F8A
:10261000DAF7880F9695879597F90895990F00082E
:10262000550FAA0BE0E8FEEF16161706E807F907A4
:10263000C0F012161306E407F50798F0621B730B3F
:10264000840B950B39F40A2661F0232B242B252BC0
:1026500021F408950A2609F4A140A6958FEF811D63
:10266000811D08950E9445130C94B9130E94AB1369
:1026700038F00E94B21320F0952311F00C94A213AD
:102680000C94A81311240C94ED130E94CA1370F338
:10269000959FC1F3950F50E0551F629FF001729F07
:1026A000BB27F00DB11D639FAA27F00DB11DAA1F16
:1026B000649F6627B00DA11D661F829F2227B00D63
:1026C000A11D621F739FB00DA11D621F839FA00DEE
:1026D000611D221F749F3327A00D611D231F849F3E
:1026E000600D211D822F762F6A2F11249F57504095
:1026F0009AF0F1F088234AF0EE0FFF1FBB1F661F10
:10270000771F881F91505040A9F79E3F510580F0D8
:102710000C94A2130C94ED135F3FE4F3983ED4F3B2
:10272000869577956795B795F795E7959F5FC1F77C
:10273000FE2B880F911D9695879597F908959927F7
:102740008827089597F99F6780E870E060E0089512
:102750009FEF80EC089500240A94161617061806B9
:102760000906089500240A94121613061406050695
:102770000895092E0394000C11F4882352F0BB0F26
:1027800040F4BF2B11F460FF04C06F5F7F4F8F4F89
:102790009F4F089557FD9058440F551F59F05F3FC4
:1027A00071F04795880F97FB991F61F09F3F79F073
:1027B00087950895121613061406551FF2CF4695F5
:1027C000F1DF08C0161617061806991FF1CF869577
:1027D0007105610508940895E894BB27662777275B
:1027E000CB0197F90895052E97FB1EF400940E94E3
:1027F0000A1457FD07D00E945C1407FC03D04EF466
:102800000C940A1450954095309521953F4F4F4FA9
:102810005F4F089590958095709561957F4F8F4F8C
:102820009F4F08950E947E14A59F900DB49F900D18
:10283000A49F800D911D11240895B7FF0C941214CC
:102840000E941214821B930B08952F923F924F9275
:102850005F926F927F928F929F92AF92BF92CF9230
:10286000DF92EF92FF920F931F93CF93DF93CDB739
:10287000DEB7CA1BDB0B0FB6F894DEBF0FBECDBFB1
:1028800009942A88398848885F846E847D848C8482
:102890009B84AA84B984C884DF80EE80FD800C818B
:1028A0001B81AA81B981CE0FD11D0FB6F894DEBF6E
:1028B0000FBECDBFED010895A1E21A2EAA1BBB1BCE
:1028C000FD010DC0AA1FBB1FEE1FFF1FA217B307FC
:1028D000E407F50720F0A21BB30BE40BF50B661F12
:1028E000771F881F991F1A9469F7609570958095D6
:1028F00090959B01AC01BD01CF010895A29FB0014D
:10290000B39FC001A39F700D811D1124911DB29F23
:10291000700D811D1124911D08955058BB27AA27C1
:102920000E94A5140C94B9130E94AB1338F00E94B6
:10293000B21320F039F49F3F19F426F40C94A81335
:102940000EF4E095E7FB0C94A213E92F0E94CA1342
:1029500058F3BA17620773078407950720F079F4D4
:10296000A6F50C94EC130EF4E0950B2EBA2FA02DC7
:102970000B01B90190010C01CA01A0011124FF272C
:10298000591B99F0593F50F4503E68F11A16F04027
:10299000A22F232F342F4427585FF3CF4695379526
:1029A0002795A795F0405395C9F77EF41F16BA0BEB
:1029B000620B730B840BBAF09150A1F0FF0FBB1F99
:1029C000661F771F881FC2F70EC0BA0F621F731FE2
:1029D000841F48F4879577956795B795F7959E3F3F
:1029E00008F0B0CF9395880F08F09927EE0F9795D0
:1029F000879508950E940E150C94B9130E94B21386
:102A000058F00E94AB1340F029F45F3F29F00C947A
:102A1000A21351110C94ED130C94A8130E94CA1325
:102A200068F39923B1F3552391F3951B550BBB27FD
:102A3000AA2762177307840738F09F5F5F4F220F42
:102A4000331F441FAA1FA9F335D00E2E3AF0E0E839
:102A500032D091505040E695001CCAF72BD0FE2F83
:102A600029D0660F771F881FBB1F26173707480717
:102A7000AB07B0E809F0BB0B802DBF01FF279358CF
:102A80005F4F3AF09E3F510578F00C94A2130C94DE
:102A9000ED135F3FE4F3983ED4F386957795679501
:102AA000B795F7959F5FC9F7880F911D9695879504
:102AB00097F90895E1E0660F771F881FBB1F621723
:102AC00073078407BA0720F0621B730B840BBA0BE1
:102AD000EE1F88F7E09508950E9473156894B11170
:102AE0000C94ED1308950E94D21388F09F5798F02C
:102AF000B92F9927B751B0F0E1F0660F771F881F03
:102B0000991F1AF0BA95C9F714C0B13091F00E941C
:102B1000EC13B1E008950C94EC13672F782F8827FD
:102B2000B85F39F0B93FCCF3869577956795B39543
:102B3000D9F73EF490958095709561957F4F8F4FB2
:102B40009F4F08950E940E1308F48FEF0895FA0125
:102B5000EE0FFF1F309621053105A1F161157105BA
:102B600061F48038BFE39B0749F168949038810590
:102B700061F08038BFEF9B0741F099234AF5FF3F92
:102B8000E1053105210519F1E8940894E795D9018B
:102B9000AA2329F4AB2FBE2FF85FD0F310C0FF5F3C
:102BA00070F4A695E0F7F73950F019F0FF3A38F4D1
:102BB0009F779F930DD00F9007FC9058089546F093
:102BC0000C94A81360E070E080E89FE308954FE75D
:102BD0009F775F934F933F932F930E94A7162F9158
:102BE0003F914F915F910E9432130C9404160E9402
:102BF0000E13880B990B089529F416F00C94A21368
:102C00000C94EC130C94A8130E94D213A8F39638DA
:102C1000A0F707F80F92E8942BE33AEA48EB5FE756
:102C20000E9448130F920F920F924DB75EB70F920A
:102C30000E94EF16E8E6F0E00E9436164F915F9191
:102C4000EF91FF91E595EE1FFF1F49F0FE57E068F9
:102C50004427EE0F441FFA95E1F74195550B0E946A
:102C600069160F9007FE0C945D160895DF93CF93BD
:102C70001F930F93FF92EF92DF927B018C01689478
:102C800006C0DA2EEF010E944513FE01E894A591DB
:102C90002591359145915591A6F3EF010E94A51418
:102CA000FE019701A801DA9469F7DF90EF90FF9099
:102CB0000F911F91CF91DF9108959B01AC0160E0CE
:102CC00070E080E89FE30C94FA140C94A2130C9427
:102CD00023170E94D213D8F39923C9F3940F511DDF
:102CE000A3F39150504094F059F0882332F0660FCE
:102CF000771F881F91505040C1F79E3F51052CF718
:102D0000880F911D9695879597F908955F3FACF0D0
:102D1000983E9CF0BB27869577956795B79508F404
:102D2000B1609395C1F7BB0F58F711F460FFE8CF7E
:102D30006F5F7F4F8F4F9F4FE3CF0C94ED1316F0D3
:102D40000C9423170C94A81368940C94A2130E945B
:102D5000D213A8F39923C1F3AEF3DF93CF931F935C
:102D60000F93FF92C92FDD2788232AF02197660F42
:102D7000771F881FDAF720E030E040E85FEB9FE341
:102D8000883920F0803E38F021968F770E948E148B
:102D9000E0E9F0E004C00E948E14EDEBF0E00E9448
:102DA00036168B01BE01EC01FB2E6F57710975952C
:102DB000771F880B990B0E94D31228E132E741E379
:102DC0005FE30E944513AF2D9801AE01FF900F9174
:102DD0001F91CF91DF910E94A5140C94B913FA01B1
:102DE000DC01AA0FBB1F9B01AC01BF5728F42227AF
:102DF00033274427507820C0B75190F4AB2F0024DC
:102E0000469537952795011CA395D2F3002071F0C4
:102E1000220F331F441FB395DAF30ED00C948D1498
:102E200061307105A0E88A07B94630F49B01AC0116
:102E30006627772788279078309621F02083318382
:102E40004283538308959F3F31F0915020F487953A
:102E500077956795B795880F911D9695879597F902
:102E60000895DB018F939F930E941214BF91AF913D
:102E7000A29F800D911DA39F900DB29F900D1124D4
:102E8000089597FB072E16F4009407D077FD09D01C
:102E90000E945C1707FC05D03EF4909581959F4FEA
:102EA0000895709561957F4F08950E947E14B7FF35
:102EB0000895821B930B0895AA1BBB1B51E107C009
:102EC000AA1FBB1FA617B70710F0A61BB70B881FBA
:102ED000991F5A95A9F780959095BC01CD01089549
:102EE000EE0FFF1F0590F491E02D0994F894FFCFA9
:102EF00024032403000000008D01ED001A01DA0113
:102F00004B0129013D010000000094056705DC0527
:102F10003D0560054D053E056E616E00696E6600FB
:102F20006F7666000D0A00434F3A20002070706DE6
:102F300000207C2047617320646574656374656458
:102F4000210053656E736F722056616C75653A206F
:102F500000506F736974696F6E3A20002C20005422
:102F6000656D70657261747572653A005072657353
:102F7000737572653A00416C7469747564653A00E2
:082F8000506F73203A2000009D
:00000001FF
