:020000040000FA
:100000000C94C1000C94C7080C94A0080C94E9004F
:100010000C94E9000C94E9000C94E9000C94E900BC
:100020000C94E9000C94E9000C94E9000C94E900AC
:100030000C94E9000C94E9000C94E9000C94E9009C
:100040000C9456080C94E9000C9424080C94FE07B8
:100050000C94E9000C94E9000C94E9000C94E9007C
:100060000C94EE080C94E90007634236B79BD8A7BE
:100070001A39685618AEBAAB558C1D3CB7CC5763CD
:10008000BD6DEDFD753EF6177231BF000000803F7B
:1000900008000000BE922449123EABAAAA2ABECD97
:1000A000CCCC4C3E00000080BEABAAAAAA3E000009
:1000B0000000BF000000803F000000000008417801
:1000C000D3BB4387D1133D190E3CC3BD4282AD2B38
:1000D0003E68EC8276BED98FE1A93E4C80EFFFBE30
:1000E00001C4FF7F3F00000000004E414E494E49D1
:1000F0005459494E46CDCCCC3D0AD7233C17B7D1F5
:100100003877CC2B329595E6241FB14F0A0000209A
:10011000410000C84200401C4620BCBE4CCA1B0E19
:100120005AAEC59D7400000000240027002A00007C
:10013000000000250028002B0000000000230026FE
:10014000002900040404040404040402020202025C
:10015000020303030303030102040810204080018B
:10016000020408102001020408102000000008000A
:10017000020100000304070000000000000000006E
:100180000D0A11241FBECFEFD8E0DEBFCDBF23E0A4
:10019000AEE6B1E001C01D92A332B207E1F711E073
:1001A000A0E0B1E0EAE3FDE202C005900D92AE36B8
:1001B000B107D9F710E0C1ECD0E004C02197FE01EF
:1001C0000E949516C03CD107C9F70E945C0A0C94A6
:1001D0009B160C94000008950895AF92BF92CF92A1
:1001E000DF92EF92FF920F931F93CF93DF936C01F7
:1001F0007B018B01040F151FEB015E01AE18BF08D8
:10020000C017D10759F06991D601ED91FC91019089
:10021000F081E02DC6010995892B79F7C501DF91A1
:10022000CF911F910F91FF90EF90DF90CF90BF90F3
:10023000AF900895FC01538D448D252F30E0842F1D
:1002400090E0821B930B541710F0CF9608950197FE
:100250000895FC01918D828D981761F0A28DAE0FEB
:10026000BF2FB11D5D968C91928D9F5F9F73928F72
:1002700090E008958FEF9FEF0895FC01918D828D9E
:10028000981731F0828DE80FF11D858D90E008956B
:100290008FEF9FEF0895FC01918D228D892F90E0C3
:1002A000805C9F4F821B91098F73992708958AE67E
:1002B00092E00E944B0121E0892B09F420E0822F7B
:1002C000089580E090E0892B29F00E945701811168
:1002D0000C9400000895FC01A48DA80FB92FB11D46
:1002E000A35ABF4F2C91848D90E001968F7399276C
:1002F000848FA689B7892C93A089B1898C9183704A
:1003000080648C93938D848D981306C00288F38942
:10031000E02D80818F7D80830895EF92FF920F936F
:100320001F93CF93DF93EC0181E0888F9B8D8C8DA1
:1003300098131AC0E889F989808185FF15C09FB795
:10034000F894EE89FF896083E889F9898081837058
:10035000806480839FBF81E090E0DF91CF911F9107
:100360000F91FF90EF900895F62E0B8D10E00F5F28
:100370001F4F0F731127E02E8C8D8E110CC00FB6FE
:1003800007FCFACFE889F989808185FFF5CFCE0196
:100390000E946B01F1CFEB8DEC0FFD2FF11DE35AA5
:1003A000FF4FF0829FB7F8940B8FEA89FB89808119
:1003B0008062CFCFCF93DF93EC01888D8823B9F093
:1003C000AA89BB89E889F9898C9185FD03C0808160
:1003D00086FD0DC00FB607FCF7CF8C9185FFF2CFDD
:1003E000808185FFEDCFCE010E946B01E9CFDF91C7
:1003F000CF910895833081F028F4813099F08230D4
:10040000A9F008958730A9F08830C9F08430B1F49C
:10041000809180008F7D03C0809180008F778093D2
:100420008000089584B58F7784BD089584B58F7D4D
:10043000FBCF8091B0008F778093B00008958091BA
:10044000B0008F7DF9CFCF93DF93282F30E0F901F3
:10045000E559FE4F8491F901E95AFE4FD491F90113
:10046000ED5BFE4FC491CC23A1F081110E94FA01F3
:10047000EC2FF0E0EE0FFF1FE75CFE4FA591B4916B
:10048000EC91ED2381E090E009F480E0DF91CF91E1
:10049000089580E090E0FACF1F93CF93DF93282F49
:1004A00030E0F901E559FE4F8491F901E95AFE4F18
:1004B000D491F901ED5BFE4FC491CC23A9F0162F26
:1004C00081110E94FA01EC2FF0E0EE0FFF1FE15DB9
:1004D000FE4FA591B4918FB7F894EC91111108C01B
:1004E000D095DE23DC938FBFDF91CF911F910895CC
:1004F000DE2BF8CFCF93DF9390E0FC01E95AFE4F5B
:1005000024918D5B9E4FFC0184918823D1F090E073
:10051000880F991FFC01EB5DFE4FA591B491FC0182
:10052000E15DFE4FC591D49161110EC09FB7F89463
:100530008C91E22FE0958E238C932881E223E8832F
:100540009FBFDF91CF9108958FB7F894EC91E22B84
:10055000EC938FBFF6CF3FB7F8948091B70190919D
:10056000B801A091B901B091BA0126B5A89B05C008
:100570002F3F19F00196A11DB11D3FBFBA2FA92F22
:10058000982F8827BC01CD01620F711D811D911D1F
:1005900042E0660F771F881F991F4A95D1F708958B
:1005A0008F929F92AF92BF92CF92DF92EF92FF9283
:1005B0006B017C010E94AB024B015C01C114D104B0
:1005C000E104F104B9F00E94AB02681979098A09C3
:1005D0009B09683E73408105910580F321E0C21AB2
:1005E000D108E108F10888EE880E83E0981EA11C6E
:1005F000B11CE4CFFF90EF90DF90CF90BF90AF9011
:100600009F908F9008952FB7F8946091B3017091E7
:10061000B4018091B5019091B6012FBF089508955E
:1006200020918F01260F3327331F21323105ECF43F
:1006300020914002FC0190E080E0243069F082E0EB
:100640000895A0918F012191AC0141595E4FA40FF3
:10065000B52FB11D2C930196861798F380918F01C9
:10066000680F60938F0180E0089581E008951092F3
:10067000400281E080933F0210921A0261E082E121
:100680000E944C0261E083E10E944C02E9EBF0E041
:1006900080818E7F808380818D7F808388E48093BA
:1006A000B80085E48093BC000895CF93DF9391E078
:1006B00090936E018823B9F0C091B800D091BA0030
:1006C0008091BC008A7B8093BC0060E082E10E9444
:1006D0004C0260E083E10E944C020E943703D093F9
:1006E000BA00C093B800DF91CF910895CF92DF9206
:1006F000EF92FF920F931F93CF93DF93D0916902F4
:1007000081E0D13208F09CC0C09168020E94AB0227
:100710006B017C018091400281116CC082E080936A
:10072000400281E080933F028FEF80933E0210925F
:100730003D02D0933C02A8E4B2E0ECE1F2E080E0BC
:10074000D8138DC010921B0280911B02CC0FC82BB6
:10075000C0931B0280911A02813009F084C010926C
:100760001A020E94AB026B017C0180911B028093F4
:10077000BB008091420290914302A0914402B0914B
:100780004502892B8A2B8B2BA1F00E94AB02009192
:1007900042021091430220914402309145026C19AB
:1007A0007D098E099F09061717072807390708F4DE
:1007B00042C08091BC0083FDD8CF85EC8093BC0003
:1007C0000E94AB026B017C0180914002823009F4EF
:1007D0004CC080913E028F3F09F469C080913E0277
:1007E000803209F466C080913E02803309F463C010
:1007F00084E026C08091420290914302A09144027D
:10080000B0914502892B8A2B8B2B09F483CF0E9450
:10081000AB020091420210914302209144023091B8
:1008200045026C197D098E099F09061717072807CD
:10083000390708F06FCF809141020E94550385E08F
:10084000109247021092690210924602DF91CF91F6
:100850001F910F91FF90EF90DF90CF9008959D91A1
:1008600091938F5F6DCF85EEA9CF809142029091D9
:100870004302A0914402B0914502892B8A2B8B2B15
:1008800009F4A2CF0E94AB020091420210914302F0
:1008900020914402309145026C197D098E099F090F
:1008A000061717072807390708F08ECFC4CF80E056
:1008B000C7CF82E0C5CF83E0C3CFCF92DF92EF9264
:1008C000FF920F931F93CF93C82F813208F096C0E9
:1008D0000E94AB026B017C0180914002811169C0D2
:1008E00081E08093400280933F029FEF90933E020D
:1008F00010923D029C0F90933C0280931B028091CA
:100900001B028E6E80931B0280911A02813009F0C7
:1009100077C010921A020E94AB026B017C01809199
:100920001B028093BB008091420290914302A091F0
:100930004402B0914502892B8A2B8B2BA1F00E9497
:10094000AB02009142021091430220914402309187
:1009500045026C197D098E099F090617170728079C
:10096000390708F447C08091BC0083FDD8CF85ECDF
:100970008093BC000E94AB026B017C01809140021D
:10098000813009F43FC080913D028C1710F4C09172
:100990003D02ACE1B2E0EAEFF1E080E08C1354C03C
:1009A0008C2FCF911F910F91FF90EF90DF90CF9000
:1009B00008958091420290914302A0914402B09127
:1009C0004502892B8A2B8B2B09F486CF0E94AB0220
:1009D000009142021091430220914402309145025D
:1009E0006C197D098E099F09061717072807390713
:1009F00008F072CF809141020E945503C0E0D0CF31
:100A000085EEB6CF8091420290914302A0914402BC
:100A1000B0914502892B8A2B8B2B09F4AFCF0E9412
:100A2000AB020091420210914302209144023091A6
:100A300045026C197D098E099F09061717072807BB
:100A4000390708F09BCFD6CF9D9191938F5FA6CFAA
:100A50000895E091C0018091BF01E81730F4F0E003
:100A6000E650FE4F808190E008958FEF9FEF08954C
:100A70009091C0018091BF012FEF3FEF981748F48C
:100A8000E92FF0E0E650FE4F208130E09F5F909329
:100A9000C001C90108958091BF019091C001891BD7
:100AA000990B0895CF92DF92EF92FF920F931F93CD
:100AB000CF93DF937C01CB018A0120914602222350
:100AC00089F0EB016B01C40ED51ECC15DD0569F074
:100AD0006991D701ED91FC910190F081E02DC70162
:100AE0000995F3CF642F0E941003C801DF91CF91C5
:100AF0001F910F91FF90EF90DF90CF900895CF93CB
:100B0000DF931F92CDB7DEB769832091460222237F
:100B1000F9F020916902203258F021E030E0FC0128
:100B20003383228390E080E00F90DF91CF9108958E
:100B300080914702E82FF0E0E85BFD4F99819083B8
:100B40008F5F809347028093690281E090E0ECCF51
:100B500061E0CE0101960E941003F7CFCF93C82F1A
:100B600081E08093460287E78093680210924702F3
:100B70001092690264EF87E093E00E947F056C2F7A
:100B800087E093E00E947F05CF910C94760390E07C
:100B900080E00895CF92DF92EF92FF928091C101A1
:100BA0000E942302C090C301D090C401E090C5010F
:100BB000F090C60120E030E040E85FE31816190627
:100BC0008CF4C701B6010E9471136093C301709346
:100BD000C4018093C5019093C601FF90EF90DF9010
:100BE000CF900895C701B6010E947013EECF1F93F6
:100BF000CF93DF93EB0191E09093460297E79093B8
:100C000068021092470210926902682F87E093E011
:100C10000E947F050E94760382E00E945D0410928C
:100C2000C0018093BF0187E093E00E943805182F30
:100C300087E093E00E94380520E0822B912B998376
:100C40008883DF91CF911F910C9476030F931F93AC
:100C5000CF93DF9300D0CDB7DEB78C018EE20E9438
:100C6000AE0565E070E080E090E00E94D002BE0139
:100C70006F5F7F4F86EF0E94F70589819A81B0E010
:100C8000A0E0F80180839183A283B3830F900F903B
:100C9000DF91CF911F910F9108950F931F93CF93E1
:100CA000DF9300D0CDB7DEB78B01BE016F5F7F4F02
:100CB0000E94F70589819A81F801918380830F90C2
:100CC0000F90DF91CF911F910F910895CF93DF93F4
:100CD000EB0191E09093460297E79093680210929F
:100CE000470210926902682F87E093E00E947F0517
:100CF0000E94760381E00E945D041092C0018093FF
:100D0000BF0187E093E00E9438058883DF91CF918F
:100D10000C947603FC0101900020E9F73197AF01B4
:100D2000481B590BBC018AE692E00C94ED008F92AF
:100D30009F92AF92BF920F931F93CF93DF93CDB744
:100D4000DEB7A1970FB6F894DEBF0FBECDBF19A2D4
:100D5000423008F44AE08E010F5D1F4F842E912C23
:100D6000B12CA12CA50194010E943816E62FB901DF
:100D7000CA01EA30F4F4E05DD801EE938D01232B33
:100D8000242B252B79F790E080E0109719F0CD0106
:100D90000E948A06A1960FB6F894DEBF0FBECDBFA3
:100DA000DF91CF911F910F91BF90AF909F908F9047
:100DB0000895E95CE1CF4F925F926F927F928F929C
:100DC0009F92AF92BF92CF92DF92EF92FF920F93DA
:100DD0001F93CF936B017C01742EAC019B010E9489
:100DE000DA14882399F088E291E0CF911F910F9156
:100DF000FF90EF90DF90CF90BF90AF909F908F903B
:100E00007F906F905F904F900C948A064601570137
:100E1000E894B7F82FEF3FEF4FE75FE7C501B40164
:100E20000E94DA1481110DC02FEF3FEF4FE75FE70B
:100E3000C501B4010E94F81118161CF48CE291E06F
:100E4000D4CF2FEF3FEF4FE75FE4C701B6010E9419
:100E5000851418161CF480E391E0C7CF2FEF3FEF05
:100E60004FE75FECC701B6010E94F81187FDF3CF91
:100E700020E030E0A901C701B6010E94F81110E09E
:100E800000E087FF0AC06DE28AE692E00E948D01D1
:100E90008C01F7FAF094F7F8F094C0E060E070E0AD
:100EA00080E09FE37C1641F020E030E040E251E436
:100EB0000E94DD13CF5FF6CFA70196010E94711348
:100EC0002B013C010E9456144B015C014AE00E9438
:100ED00097067C01E00EF11ECC23C1F1C501B401DF
:100EE0000E94FD119B01AC01C301B2010E9470136D
:100EF0004B015C016EE28AE692E00E948D01E80EF1
:100F0000F91EC15018F120E030E040E251E4C50183
:100F1000B4010E945E122B013C010E9456144B0149
:100F2000B12CA12C4AE0C501B4010E949706E80E3D
:100F3000F91EC501B4010E94FD119B01AC01C30162
:100F4000B2010E9470134B015C01DBCFC701CF914E
:100F50001F910F91FF90EF90DF90CF90BF90AF90D7
:100F60009F908F907F906F905F904F900895CF9358
:100F7000DF9342E00E94DB06EC0184E391E00E94F3
:100F80008A068C0F9D1FDF91CF91089585ED809388
:100F9000BC008091420290914302A0914402B09122
:100FA00045020796A11DB11D23E0B695A79597951B
:100FB00087952A95D1F72091BC0024FD03C010929B
:100FC00040020895409142025091430260914402D0
:100FD00070914502452B462B472B69F30097A105DD
:100FE000B10541F025E32A95F1F700000197A10929
:100FF000B109E1CF809141020C9455031F920F92E9
:101000000FB60F9211242F933F934F935F936F93DB
:101010007F938F939F93AF93BF93EF93FF938AE652
:1010200092E00E946B01FF91EF91BF91AF919F9170
:101030008F917F916F915F914F913F912F910F9081
:101040000FBE0F901F9018951F920F920FB60F9220
:1010500011242F938F939F93EF93FF93E0917A0244
:10106000F0917B028081E0918002F091810282FD0B
:101070001BC09081809183028F5F8F7320918402C7
:10108000821741F0E0918302F0E0E659FD4F958F21
:1010900080938302FF91EF919F918F912F910F90F9
:1010A0000FBE0F901F9018958081F4CF1F920F9262
:1010B0000FB60F9211242F933F938F939F93AF936B
:1010C000BF938091B3019091B401A091B501B0910B
:1010D000B6013091B20123E0230F2D3758F5019668
:1010E000A11DB11D2093B2018093B3019093B4016F
:1010F000A093B501B093B6018091B7019091B8016A
:10110000A091B901B091BA010196A11DB11D8093C2
:10111000B7019093B801A093B901B093BA01BF9100
:10112000AF919F918F913F912F910F900FBE0F9094
:101130001F90189526E8230F0296A11DB11DD2CF4E
:101140001F920F920FB60F9211242F933F934F933C
:101150005F936F937F938F939F93AF93BF93EF931F
:10116000FF93E0910201F09103010995FF91EF9146
:10117000BF91AF919F918F917F916F915F914F91AF
:101180003F912F910F900FBE0F901F9018951F92B7
:101190000F920FB60F9211242F933F934F935F93AB
:1011A0006F937F938F939F93AF93BF93EF93FF932F
:1011B000E0910001F09101010995FF91EF91BF913C
:1011C000AF919F918F917F916F915F914F913F91DF
:1011D0002F910F900FBE0F901F9018951F920F9296
:1011E0000FB60F9211242F933F934F935F936F93FA
:1011F0007F938F939F93AF93BF93EF93FF938091D0
:10120000B900887F803609F44AC0F0F5883209F4C5
:10121000A7C018F5803109F49BC0B8F4882309F4FD
:10122000F9C0883009F494C0FF91EF91BF91AF915C
:101230009F918F917F916F915F914F913F912F91EE
:101240000F900FBE0F901F901895883109F488C039
:10125000803251F780933E0214C0803409F49DC05F
:1012600040F48033B9F38833F9F680933E0285EC7D
:10127000B0C0803509F485C0883509F496C088343B
:1012800099F60E94C607D0CF883909F48CC038F58A
:10129000883729F050F4883611F0803729F683E03A
:1012A000809340021092B10157C0883809F47BC086
:1012B000803919F0803809F0B7CF8091B1018032C0
:1012C00008F071C0E091B10181E08E0F8093B1010F
:1012D0008091BB00F0E0EF56FE4F80833DC0803B25
:1012E00039F0E0F4803A09F479C0883A09F09CCFEB
:1012F00084E0809340021092900110928F01E0915F
:10130000BD01F091BE01099580918F0181110FC03F
:1013100081E080938F0110926F0109C0803C09F435
:10132000A6CF883C09F4A3CF883B09F07DCFE0919C
:10133000900181E08E0F80939001F0E0E159FE4F23
:1013400080818093BB009091900180918F0129C092
:1013500080911B028093BB0085EC8093BC0064CF1E
:1013600090913D0280913C02981758F5E0913D0222
:1013700081E08E0F80933D02F0E0E45EFD4F8081BE
:10138000E9CFE0913D0281E08E0F80933D02809194
:10139000BB00F0E0E45EFD4F808390913D028091C0
:1013A0003C029817C8F285E8D8CFE0913D0281E071
:1013B0008E0F80933D028091BB00F0E0E45EFD4F14
:1013C000808380913F0281115CCF81E080931A027B
:1013D00084EA8093BC001092400226CF85EC809373
:1013E000BC00109240028091B101803230F4E09153
:1013F000B101F0E0EF56FE4F10826091B10170E054
:10140000E091BB01F091BC0181E991E00995109256
:10141000B1010ACF10923E0234CFEAE6F2E0138225
:10142000128288EE93E0A0E0B0E084839583A683E7
:10143000B78328E031E03183208325EC30E0358725
:10144000248724EC30E03787268720EC30E0318B8E
:10145000208B21EC30E0338B228B22EC30E0358B7B
:10146000248B26EC30E0378B268B118E128E138E58
:10147000148EE7E0F3E01382128284839583A683BF
:10148000B7838AE191E091838083E9E1F3E0108200
:101490001182128213821482158216821782E3E16E
:1014A000F3E01182108282E090E09383828388EEE1
:1014B00093E0958384830895CF93DF93CDB7DEB710
:1014C000C955D1090FB6F894DEBF0FBECDBF7894D1
:1014D00084B5826084BD84B5816084BD85B5826039
:1014E00085BD85B5816085BD80916E0081608093EA
:1014F0006E00109281008091810082608093810053
:101500008091810081608093810080918000816062
:10151000809380008091B10084608093B1008091BD
:10152000B00081608093B00080917A0084608093E5
:101530007A0080917A00826080937A0080917A00AC
:10154000816080937A0080917A00806880937A002D
:101550001092C100E0917A02F0917B0282E08083D8
:10156000E0917602F09177021082E0917802F0919A
:1015700079028FEC808310928202E0917E02F091DA
:101580007F0286E08083E0917C02F0917D02808181
:1015900080618083E0917C02F0917D02808188608F
:1015A0008083E0917C02F0917D028081806880835D
:1015B000E0917C02F0917D0280818F7D808310928A
:1015C000C0011092BF0110924702109269020E945E
:1015D00037038BEE90E09093BE018093BD018CEEBB
:1015E00090E09093BC018093BB01BE016F5F7F4F81
:1015F00080ED0E94660689818535C9F51092E30168
:1016000064EE71E08AEA0E944D0666EE71E08CEAB3
:101610000E944D0668EE71E08EEA0E944D066AEE69
:1016200071E080EB0E94F7056CEE71E082EB0E94A6
:10163000F7056EEE71E084EB0E94F70560EF71E054
:1016400086EB0E944D0662EF71E088EB0E944D062A
:1016500064EF71E08AEB0E944D0666EF71E08CEB5F
:101660000E944D0668EF71E08EEB0E944D0660917E
:10167000170370911803072E000C880B990B0E941A
:10168000D00260E082E00E947A0260E083E00E9483
:101690007A0261E086E00E947A0261E087E00E94BF
:1016A0007A0261E085E00E947A0280E090E0A8EC96
:1016B000B3E48093DB019093DC01A093DD01B09350
:1016C000DE0180E090E0A0ECB1E48093CF01909344
:1016D000D001A093D101B093D2011092CB0110920E
:1016E000CC011092CD011092CE0180E090E0A0E8F4
:1016F000B1E48093C7019093C801A093C901B0934E
:10170000CA0183E090E09093C2018093C1018AEC0A
:1017100095E09093010180930001809169008360BE
:1017200080936900E89A1E0129E4220E311C0E9470
:1017300003036A967FAF6EAF6A978091C301909161
:10174000C401A091C501B091C60168968CAF9DAF50
:10175000AEAFBFAF68970E9403032B013C0180919D
:10176000DF019091E001A091E101B091E201A301BC
:101770009201281B390B4A0B5B0BCA01B9010E946D
:10178000FD1160966CAF7DAF8EAF9FAF609768968E
:101790002CAD3DAD4EAD5FAD68976091DB017091B2
:1017A000DC018091DD019091DE010E9470136B01DC
:1017B0007C01AC019B0160966CAD7DAD8EAD9FADA3
:1017C00060970E945E122091D7013091D80140911C
:1017D000D9015091DA010E9471134B015C01809292
:1017E000D7019092D801A092D901B092DA0120914C
:1017F000CF013091D0014091D1015091D201C70168
:10180000B6010E945E1264966CAF7DAF8EAF9FAF43
:1018100064972091CB013091CC014091CD01509142
:10182000CE01C501B4010E945E129B01AC01649619
:101830006CAD7DAD8EAD9FAD64970E9471134B0171
:101840005C012091D3013091D4014091D501509198
:10185000D601C701B6010E94701360962CAD3DAD54
:101860004EAD5FAD60970E94DD132091C7013091AE
:10187000C8014091C9015091CA010E945E129B01AA
:10188000AC01C501B4010E9471134B015C01C0920F
:10189000D301D092D401E092D501F092D6014092CA
:1018A000DF015092E0016092E1017092E2017C015F
:1018B0006B01E894F7F820E030E04FE753E4C7010C
:1018C000B6010E94851420E030E0A90118160CF43E
:1018D00001C4C501B4010E94F8110FEF1FEF87FD8D
:1018E00002C001E010E0C701B6010E944F144B0195
:1018F0007B0161E085E00E947A028114910429F461
:1019000060E085E00E944C022DC03FEF83169104F9
:1019100011F461E0F6CFE0E7F1E0E491E33009F49F
:101920004CC350F4E130D1F0E23009F441C340E857
:10193000E416F10474F7E4CFE73009F448C3E83063
:1019400009F44DC3E43099F7809180008062809360
:10195000800090928B0080928A0004C084B58068D9
:1019600084BD87BC61E087E00130110509F43FC305
:1019700060E087E00F3F1F4F09F039C30E944C021F
:1019800061E086E00E944C02CE0101960E9426068C
:101990008091EE019091EF0129813A814B815C8128
:1019A000281B390B41095109A091EC01B091ED01BF
:1019B0000E941F136B017C019FE0F594E794D7947C
:1019C000C7949A95D1F76091F6017091F701072EAF
:1019D000000C880B990B2BE0660F771F881F991F4F
:1019E0002A95D1F72091F8013091F901032E000CCE
:1019F000440B550B2C0D3D1D4E1D5F1D0E945A16AC
:101A0000CA01B9016C0D7D1D8E1D9F1D685F7F4F42
:101A10008F4F9F4F34E095958795779567953A95C9
:101A2000D1F70E94FF1120E030E040E251E40E9433
:101A3000DD1364966CAF7DAF8EAF9FAF6497198254
:101A40001A821B821C82CE0101960E9426061091EA
:101A5000E301812F8295880F880F807C8C5C0E9427
:101A6000AE0568E070E080E090E0113081F065E064
:101A700070E080E090E0113050F06EE070E080E0C7
:101A800090E0123021F06AE170E080E090E00E9486
:101A9000D002B10186EF0E94F705D101CD90DC9014
:101AA000F12CE12CFE2CED2CDC2CCC24BE01655B52
:101AB0007F4F88EF0E9466062C968FAD2C97A7016A
:101AC0009601280F311D411D511D60962CAF3DAF71
:101AD0004EAF5FAF60978091EE019091EF01298149
:101AE0003A814B815C81281B390B41095109A09136
:101AF000EC01B091ED010E941F134B015C01AFE0BE
:101B0000B594A79497948794AA95D1F76091F6011C
:101B10007091F701072E000C880B990BBBE0660F44
:101B2000771F881F991FBA95D1F72091F80130913E
:101B3000F901032E000C440B550B280D391D4A1DCD
:101B40005B1D0E945A16820E931EA41EB51E30EA1B
:101B5000831A3FE0930AA108B108A5019401C501C9
:101B6000B4010E9414162B013C010CE0759467949B
:101B7000579447940A95D1F7A091E801B091E901F3
:101B80000E9479166B017C018DE0F594E794D7945F
:101B9000C7948A95D1F7A091F001B091F101A3010A
:101BA00092010E9479169C01552737FD5095452FCB
:101BB0002C0D3D1D4E1D5F1D2E5F3F4F4F4F5F4F44
:101BC00062E055954795379527956A95D1F7305836
:101BD0004F4F5F4FA091EA01B091EB010E941F139C
:101BE0006B017C017FE0F694E794D794C7947A95D3
:101BF000D1F788E090E0811B910960962CAD3DAD56
:101C00004EAD5FAD609704C05595479537952795C4
:101C10008A95D2F760962CAF3DAF4EAF5FAF60971D
:101C2000A091F201B091F301A30192010E947916F3
:101C30002B013C01EBE07594679457944794EA9527
:101C4000D1F7A091E601B091E701A50194010E94AE
:101C50007916FBE09595879577956795FA95D1F775
:101C6000460E571E681E791E8091E4019091E50191
:101C7000092E000CAA0BBB0B02E0880F991FAA1FAC
:101C8000BB1F0A95D1F7840D951DA61DB71D2C010C
:101C90003D01012E04C0440C551C661C771C0A949F
:101CA000D2F732E0430E511C611C711C82E0759426
:101CB0006794579447948A95D1F760962CAD3DADC3
:101CC0004EAD5FAD6097241935094609570960E5A7
:101CD00073EC80E090E004C09595879577956795C3
:101CE0001A95D2F70E94141697FD85C1660F771FCB
:101CF000881F991FA70196010E94381669017A0171
:101D00009927F7FC9A958F2D7E2D6D2D9B01AC01A7
:101D10000E9414169B01AC01AEEDBBE00E941F13A4
:101D20004B015C01A3E4B3EEA70196010E947C166F
:101D3000BC01992777FD9095892F4501BB2497FC1D
:101D4000B094AB2C680D791D8A1D9B1D6153714F9A
:101D50008F4F9F4F44E095958795779567954A9566
:101D6000D1F76C0D7D1D8E1D9F1D0E94FF116B0113
:101D70007C0120E836EE45EC57E40E94DD132EEAA4
:101D80003CED42E45EE30E948A149B01AC0160E0FA
:101D900070E080E89FE30E94701320E03AE24DE299
:101DA00057E40E945E122B013C01809113038E3098
:101DB00008F08E508770806480937C0080917A0058
:101DC000806480937A0080917A0086FDFCCF8091B8
:101DD00078008091790060E0809115030E947A027A
:101DE000809115030E9423026A964EAD5FAD6A97FB
:101DF000493F5A420CF42CC10E94030360966CAF19
:101E00007DAF8EAF9FAF60970E94030360962CADAD
:101E10003DAD4EAD5FAD6097621B730B840B950BB0
:101E2000663971058105910508F0F0C08AE692E0F7
:101E30000E944B01892B41F38AE692E00E9429011E
:101E4000849711F78E010F5F1F4F0E940303609369
:101E500072027093730280937402909375028AE603
:101E600092E00E94290197FF42C10E9403038090E3
:101E7000720290907302A0907402B090750268197B
:101E800079098A099B0980906E0290906F02A09058
:101E90007002B0907102681579058A059B05F8F209
:101EA00029961FAE29978B81873409F0ADCF8C819D
:101EB000873409F0A9CF8D81813409F0A5CFCE01F7
:101EC00042960E9483104B015C010E944F14CB018B
:101ED00064E670E00E9424168B01B4E6B09FB00166
:101EE000B19F700D1124072E000C880B990B0E94D6
:101EF000FF119B01AC01C501B4010E94701320E0E9
:101F000030E040E752E40E94DD134B015C01B80170
:101F1000110F880B990B0E94FF119B01AC01C501A9
:101F2000B4010E9471136093190370931A03809394
:101F30001B0390931C03CE014E960E9483104B010D
:101F40005C010E944F14CB0164E670E00E942416ED
:101F50008B01E4E6E09FB001E19F700D1124072E94
:101F6000000C880B990B0E94FF119B01AC01C5016D
:101F7000B4010E94701320E030E040E752E40E9478
:101F8000DD134B015C01B801110F880B990B0E9406
:101F9000FF119B01AC01C501B4010E947113609354
:101FA0001D0370931E0380931F03909320032CCF77
:101FB00084B5806284BD88BCD5CC80918000806867
:101FC000809380009092890080928800CBCC809191
:101FD000B00080688093B0008092B300C3CC809141
:101FE000B00080628093B0008092B400BBCC0E94AD
:101FF0004C0260E0C6CCA70196010E943816690128
:102000007A01CC0CDD1CEE1CFF1C7ACE87E391E03C
:102010000E948A066091190370911A0380911B0334
:1020200090911C0346E00E94DB0682E491E00E944E
:102030008A0660911D0370911E0380911F03909189
:10204000200346E00E94DB0684E391E00E948A06BA
:1020500085E491E00E948A0664966CAD7DAD8EADFC
:102060009FAD64970E94B70782E591E00E948A06BF
:1020700020E030E048EC52E4C701B6010E94DD13D5
:102080000E94B7078CE591E00E948A06C301B20165
:102090000E94B70786E691E00E948A0668966CADBA
:1020A0007DAD8EAD9FAD68970E94B70780E090E050
:1020B000892B09F43CCB0E945701882309F437CBC4
:1020C0000E94000034CB61E085E00E947A020FEFAD
:1020D0001FEF1FCCC501B4010E94F81187FDF3CF9B
:1020E000C12CD12C8FE7E82E83E4F82EFACB8A306E
:1020F000910509F4D5CED8018D938D012A163B06A2
:1021000009F0A3CECDCE662777270C948710B0E0D8
:10211000A0E0EDE8F0E10C9430135C017B01611567
:10212000710519F0DB018D939C9385010F5F1F4FA3
:10213000F501D0818D2F90E00E94D7116C01892B81
:10214000B9F5DD32B9F50F5F1F4FD5011196DC915E
:10215000C1E05801F1E0AF1AB10843E050E062EF8E
:1021600070E0C5010E94E011892B69F5680182E0E9
:10217000C80ED11C45E050E06DEE70E0C6010E9433
:10218000E011892B21F4680197E0C90ED11CE114FC
:10219000F10419F0D701CD92DC9260E070E080E8A4
:1021A0009FEFC111FFC060E070E080E89FE7FAC0D8
:1021B0005801BBCFDB3229F485010E5F1F4FF501BB
:1021C000D181C0E0C6CF43E050E06AEE70E0C501C7
:1021D0000E94E011892BE9F0F80110E000E020E016
:1021E00030E0A9015F01B0ED8B2E8D0E89E08815DE
:1021F000C8F19C2E689491F88C2F8870C2FF16C08D
:10220000811102C00F5F1F4F3196D501DC91C92D9E
:10221000E9CFE114F10429F00E5F1F4FF70111839C
:10222000008360E070E080EC9FE7BCC0882311F081
:1022300001501109A5E0B0E00E941F139B01AC0101
:10224000220F331F441F551F280D311D411D511DE5
:10225000283999E93907490799E15907A8F2C66071
:102260009C2ED2CFAEEF8A1206C0C3FD3CC09C2E7E
:10227000689493F8C9CFDF7DD534A9F580818D327C
:1022800039F4C061DF011296818162E070E006C01E
:10229000DF018B32C1F3119661E070E080535D0184
:1022A000A61AB70A8A30F8F4E0E8CE16ECE0DE06AB
:1022B0005CF4B601660F771F660F771FC60ED71E38
:1022C000CC0CDD1CC80ED11C5D01FFEFAF1ABF0A9C
:1022D0008C9180538A30A8F1C4FF03C0D194C1947B
:1022E000D1080C0D1D1DC1FF09C0E114F10431F02E
:1022F00081E0A81AB108D701AD92BC92CA01B90118
:102300000E94FD11C370C33009F490584B015C0169
:1023100020E030E0A9010E94F811882309F440C0B0
:10232000C1E2D1E017FF05C0119501951109C9E07F
:10233000D1E06E01B8E1CB1AD10880E2E82EF12C91
:102340000FC0D501B1CFFE01259135914591549132
:102350000E191F09C501B4010E945E124B015C01F8
:10236000D501C4010E151F0574F72497F594E79461
:10237000CC16DD06A9F78A2F880F8B2F881F8F3F79
:1023800049F020E030E0A901C501B4010E94F81134
:10239000811106C082E290E0909322038093210392
:1023A000C501B401CDB7DEB7ECE00C944C1391112C
:1023B0000C94CB12803219F089508550C8F70895DB
:1023C000FB01DC014150504088F08D9181341CF0BC
:1023D0008B350CF4805E659161341CF06B350CF428
:1023E000605E861B611171F3990B0895881BFCCF09
:1023F0000E943A1208F481E00895E89409C097FB1E
:102400003EF490958095709561957F4F8F4F9F4FCB
:102410009923A9F0F92F96E9BB279395F69587950F
:1024200077956795B795F111F8CFFAF4BB0F11F4D2
:1024300060FF1BC06F5F7F4F8F4F9F4F16C0882379
:1024400011F096E911C0772321F09EE8872F762FAF
:1024500005C0662371F096E8862F70E060E02AF0F0
:102460009A95660F771F881FDAF7880F96958795DC
:1024700097F90895990F0008550FAA0BE0E8FEEFB1
:1024800016161706E807F907C0F012161306E40738
:10249000F50798F0621B730B840B950B39F40A2631
:1024A00061F0232B242B252B21F408950A2609F40F
:1024B000A140A6958FEF811D811D08950E94711284
:1024C0000C94E5120E94D71238F00E94DE1220F020
:1024D000952311F00C94CE120C94D41211240C9468
:1024E00019130E94F61270F3959FC1F3950F50E0F7
:1024F000551F629FF001729FBB27F00DB11D639FB6
:10250000AA27F00DB11DAA1F649F6627B00DA11D5B
:10251000661F829F2227B00DA11D621F739FB00D01
:10252000A11D621F839FA00D611D221F749F332771
:10253000A00D611D231F849F600D211D822F762F0A
:102540006A2F11249F5750409AF0F1F088234AF0E7
:10255000EE0FFF1FBB1F661F771F881F9150504053
:10256000A9F79E3F510580F00C94CE120C941913DC
:102570005F3FE4F3983ED4F3869577956795B795DA
:10258000F795E7959F5FC1F7FE2B880F911D9695F4
:10259000879597F9089599278827089597F99F6750
:1025A00080E870E060E008959FEF80EC08950024DB
:1025B0000A941616170618060906089500240A94A8
:1025C00012161306140605060895092E0394000C2E
:1025D00011F4882352F0BB0F40F4BF2B11F460FFBD
:1025E00004C06F5F7F4F8F4F9F4F089557FD9058E6
:1025F000440F551F59F05F3F71F04795880F97FBC7
:10260000991F61F09F3F79F0879508951216130680
:102610001406551FF2CF4695F1DF08C016161706AF
:102620001806991FF1CF86957105610508940895E4
:10263000E894BB2766277727CB0197F908950E9476
:102640006113A59F900DB49F900DA49F800D911DC7
:10265000112408952F923F924F925F926F927F9232
:102660008F929F92AF92BF92CF92DF92EF92FF92A2
:102670000F931F93CF93DF93CDB7DEB7CA1BDB0B4E
:102680000FB6F894DEBF0FBECDBF09942A883988F3
:1026900048885F846E847D848C849B84AA84B984FA
:1026A000C884DF80EE80FD800C811B81AA81B98106
:1026B000CE0FD11D0FB6F894DEBF0FBECDBFED011A
:1026C0000895A29FB001B39FC001A39F700D811D0B
:1026D0001124911DB29F700D811D1124911D08952B
:1026E0005058BB27AA270E9488130C94E5120E9419
:1026F000D71238F00E94DE1220F039F49F3F19F40F
:1027000026F40C94D4120EF4E095E7FB0C94CE1250
:10271000E92F0E94F61258F3BA176207730784076D
:10272000950720F079F4A6F50C9418130EF4E095B3
:102730000B2EBA2FA02D0B01B90190010C01CA017B
:10274000A0011124FF27591B99F0593F50F4503E26
:1027500068F11A16F040A22F232F342F4427585F18
:10276000F3CF469537952795A795F0405395C9F730
:102770007EF41F16BA0B620B730B840BBAF09150E8
:10278000A1F0FF0FBB1F661F771F881FC2F70EC087
:10279000BA0F621F731F841F48F48795779567955A
:1027A000B795F7959E3F08F0B0CF9395880F08F046
:1027B0009927EE0F9795879508950E94F1130C9431
:1027C000E5120E94DE1258F00E94D71240F029F460
:1027D0005F3F29F00C94CE1251110C9419130C94F4
:1027E000D4120E94F61268F39923B1F3552391F3A2
:1027F000951B550BBB27AA2762177307840738F070
:102800009F5F5F4F220F331F441FAA1FA9F335D0CC
:102810000E2E3AF0E0E832D091505040E695001C80
:10282000CAF72BD0FE2F29D0660F771F881FBB1F3A
:10283000261737074807AB07B0E809F0BB0B802D18
:10284000BF01FF2793585F4F3AF09E3F510578F044
:102850000C94CE120C9419135F3FE4F3983ED4F31A
:10286000869577956795B795F7959F5FC9F7880F18
:10287000911D9695879597F90895E1E0660F771F6A
:10288000881FBB1F621773078407BA0720F0621BFB
:10289000730B840BBA0BEE1F88F7E09508950E9426
:1028A00056146894B1110C94191308950E94FE12E5
:1028B00088F09F5798F0B92F9927B751B0F0E1F001
:1028C000660F771F881F991F1AF0BA95C9F714C0B1
:1028D000B13091F00E941813B1E008950C941813D0
:1028E000672F782F8827B85F39F0B93FCCF38695EA
:1028F00077956795B395D9F73EF490958095709547
:1029000061957F4F8F4F9F4F08950E943A1208F4B0
:102910008FEF0895FA01EE0FFF1F30962105310564
:10292000A1F16115710561F48038BFE39B0749F19E
:1029300068949038810561F08038BFEF9B0741F0C3
:1029400099234AF5FF3FE1053105210519F1E89486
:102950000894E795D901AA2329F4AB2FBE2FF85F7D
:10296000D0F310C0FF5F70F4A695E0F7F73950F090
:1029700019F0FF3A38F49F779F930DD00F9007FC22
:102980009058089546F00C94D41260E070E080E80E
:102990009FE308954FE79F775F934F933F932F9364
:1029A0000E948A152F913F914F915F910E945E1274
:1029B0000C94E7140E943A12880B990B089529F49D
:1029C00016F00C94CE120C9418130C94D4120E948E
:1029D000FE12A8F39638A0F707F80F92E8942BE3BD
:1029E0003AEA48EB5FE70E9474120F920F920F923F
:1029F0004DB75EB70F920E94D215E8E6F0E00E9454
:102A000019154F915F91EF91FF91E595EE1FFF1F13
:102A100049F0FE57E0684427EE0F441FFA95E1F7AE
:102A20004195550B0E944C150F9007FE0C944015D4
:102A30000895DF93CF931F930F93FF92EF92DF924E
:102A40007B018C01689406C0DA2EEF010E9471129E
:102A5000FE01E894A5912591359145915591A6F3F4
:102A6000EF010E948813FE019701A801DA9469F72B
:102A7000DF90EF90FF900F911F91CF91DF9108951C
:102A80009B01AC0160E070E080E89FE30C94DD13F3
:102A90000C94CE120C9406160E94FE12D8F39923C1
:102AA000C9F3940F511DA3F39150504094F059F085
:102AB000882332F0660F771F881F91505040C1F76E
:102AC0009E3F51052CF7880F911D9695879597F994
:102AD00008955F3FACF0983E9CF0BB2786957795B4
:102AE0006795B79508F4B1609395C1F7BB0F58F798
:102AF00011F460FFE8CF6F5F7F4F8F4F9F4FE3CFA1
:102B00000C94191316F00C9406160C94D4126894B5
:102B10000C94CE120E94FE12A8F39923C1F3AEF3D7
:102B2000DF93CF931F930F93FF92C92FDD27882345
:102B30002AF02197660F771F881FDAF720E030E030
:102B400040E85FEB9FE3883920F0803E38F0219623
:102B50008F770E947113E0E9F0E004C00E947113C6
:102B6000EDEBF0E00E9419158B01BE01EC01FB2E8C
:102B70006F5771097595771F880B990B0E94FF118C
:102B800028E132E741E35FE30E947112AF2D980123
:102B9000AE01FF900F911F91CF91DF910E9488139A
:102BA0000C94E512FA01DC01AA0FBB1F9B01AC01DA
:102BB000BF5728F4222733274427507820C0B75125
:102BC00090F4AB2F0024469537952795011CA395CB
:102BD000D2F3002071F0220F331F441FB395DAF3B4
:102BE0000ED00C94701361307105A0E88A07B946C5
:102BF00030F49B01AC0166277727882790783096C0
:102C000021F0208331834283538308959F3F31F025
:102C1000915020F4879577956795B795880F911D0A
:102C20009695879597F90895DB018F939F930E945E
:102C30001F13BF91AF91A29F800D911DA39F900D77
:102C4000B29F900D1124089597FB072E16F400945F
:102C500007D077FD09D00E94811607FC05D03EF40D
:102C6000909581959F4F0895709561957F4F089538
:102C7000A1E21A2EAA1BBB1BFD010DC0AA1FBB1F80
:102C8000EE1FFF1FA217B307E407F50720F0A21BF2
:102C9000B30BE40BF50B661F771F881F991F1A945F
:102CA00069F760957095809590959B01AC01BD0189
:102CB000CF010895052E97FB1EF400940E94711613
:102CC00057FD07D00E94381607FC03D04EF40C9431
:102CD000711650954095309521953F4F4F4F5F4F5E
:102CE000089590958095709561957F4F8F4F9F4F78
:102CF0000895B7FF0C941F130E941F13821B930BA0
:102D00000895AA1BBB1B51E107C0AA1FBB1FA61732
:102D1000B70710F0A61BB70B881F991F5A95A9F784
:102D200080959095BC01CD010895EE0FFF1F059091
:102D3000F491E02D0994F894FFCF0F030F030000E6
:102D400000008D01ED001A01DA014B0129013D015E
:102D5000000000007F055205C70528054B05380512
:102D600029056E616E00696E66006F7666000D0A59
:102D700000506F736974696F6E3A20002C20005404
:102D8000656D70657261747572653A005072657335
:102D9000737572653A00416C7469747564653A00C4
:082DA000506F73203A2000007F
:107E0000112484B714BE81FFF0D085E080938100F7
:107E100082E08093C00088E18093C10086E0809377
:107E2000C20080E18093C4008EE0C9D0259A86E02C
:107E300020E33CEF91E0309385002093840096BBD3
:107E4000B09BFECF1D9AA8958150A9F7CC24DD24C4
:107E500088248394B5E0AB2EA1E19A2EF3E0BF2EE7
:107E6000A2D0813461F49FD0082FAFD0023811F036
:107E7000013811F484E001C083E08DD089C08234E0
:107E800011F484E103C0853419F485E0A6D080C0E4
:107E9000853579F488D0E82EFF2485D0082F10E0AE
:107EA000102F00270E291F29000F111F8ED06801E7
:107EB0006FC0863521F484E090D080E0DECF843638
:107EC00009F040C070D06FD0082F6DD080E0C81688
:107ED00080E7D80618F4F601B7BEE895C0E0D1E017
:107EE00062D089930C17E1F7F0E0CF16F0E7DF06D8
:107EF00018F0F601B7BEE89568D007B600FCFDCFD4
:107F0000A601A0E0B1E02C9130E011968C91119780
:107F100090E0982F8827822B932B1296FA010C0160
:107F200087BEE89511244E5F5F4FF1E0A038BF0790
:107F300051F7F601A7BEE89507B600FCFDCF97BE46
:107F4000E89526C08437B1F42ED02DD0F82E2BD052
:107F50003CD0F601EF2C8F010F5F1F4F84911BD097
:107F6000EA94F801C1F70894C11CD11CFA94CF0C13
:107F7000D11C0EC0853739F428D08EE10CD085E9AC
:107F80000AD08FE07ACF813511F488E018D01DD067
:107F900080E101D065CF982F8091C00085FFFCCF94
:107FA0009093C60008958091C00087FFFCCF809118
:107FB000C00084FD01C0A8958091C6000895E0E648
:107FC000F0E098E1908380830895EDDF803219F02E
:107FD00088E0F5DFFFCF84E1DECF1F93182FE3DFCA
:107FE0001150E9F7F2DF1F91089580E0E8DFEE27F6
:047FF000FF270994CA
:027FFE00040479
:00000001FF
