:020000040000FA
:100000000C94A3000C947C080C9455080C94CB0021
:100010000C94CB000C94CB000C94CB000C94CB0034
:100020000C94CB000C94CB000C94CB000C94CB0024
:100030000C94CB000C94CB000C94CB000C94CB0014
:100040000C940B080C94CB000C94D9070C94B307B8
:100050000C94CB000C94CB000C94CB000C94CB00F4
:100060000C94A3080C94CB0007634236B79BD8A727
:100070001A39685618AEBAAB558C1D3CB7CC5763CD
:10008000BD6DEDFD753EF6177231BF000000803F7B
:1000900008000000BE922449123EABAAAA2ABECD97
:1000A000CCCC4C3E00000080BEABAAAAAA3E000009
:1000B0000000BF000000803F000000000008417801
:1000C000D3BB4387D1133D190E3CC3BD4282AD2B38
:1000D0003E68EC8276BED98FE1A93E4C80EFFFBE30
:1000E00001C4FF7F3F00000000000000000024006A
:1000F00027002A0000000000250028002B00000037
:10010000000023002600290004040404040404045D
:1001100002020202020203030303030301020408B2
:100120001020408001020408102001020408102061
:1001300000000008000201000003040700000000A6
:1001400000000000C20911241FBECFEFD8E0DEBFBF
:10015000CDBF23E0A0E6B1E001C01D92AB30B207F5
:10016000E1F711E0A0E0B1E0EEE8F6E202C00590B0
:100170000D92A036B107D9F710E0C3EAD0E004C071
:100180002197FE010E943F13C23AD107C9F70E948E
:10019000070A0C9445130C94000008950895AF923B
:1001A000BF92CF92DF92EF92FF920F931F93CF9364
:1001B000DF936C017B018B01040F151FEB015E01C6
:1001C000AE18BF08C017D10759F06991D601ED915B
:1001D000FC910190F081E02DC6010995892B79F7FA
:1001E000C501DF91CF911F910F91FF90EF90DF90AC
:1001F000CF90BF90AF900895FC01538D448D252F73
:1002000030E0842F90E0821B930B541710F0CF96B0
:10021000089501970895FC01918D828D981761F0E2
:10022000A28DAE0FBF2FB11D5D968C91928D9F5FF9
:100230009F73928F90E008958FEF9FEF0895FC01D8
:10024000918D828D981731F0828DE80FF11D858D8B
:1002500090E008958FEF9FEF0895FC01918D228D1E
:10026000892F90E0805C9F4F821B91098F739927A3
:1002700008958CE592E00E942D0121E0892B09F47C
:1002800020E0822F089580E090E0892B29F00E94E1
:10029000390181110C9400000895FC01A48DA80F70
:1002A000B92FB11DA35ABF4F2C91848D90E00196B8
:1002B0008F739927848FA689B7892C93A089B189D8
:1002C0008C91837080648C93938D848D981306C079
:1002D0000288F389E02D80818F7D80830895EF92DD
:1002E000FF920F931F93CF93DF93EC0181E0888FF0
:1002F0009B8D8C8D98131AC0E889F989808185FFC0
:1003000015C09FB7F894EE89FF896083E889F98961
:1003100080818370806480839FBF81E090E0DF9163
:10032000CF911F910F91FF90EF900895F62E0B8DB6
:1003300010E00F5F1F4F0F731127E02E8C8D8E1171
:100340000CC00FB607FCFACFE889F989808185FFD8
:10035000F5CFCE010E944D01F1CFEB8DEC0FFD2FBB
:10036000F11DE35AFF4FF0829FB7F8940B8FEA8993
:10037000FB8980818062CFCFCF93DF93EC01888DA2
:100380008823B9F0AA89BB89E889F9898C9185FD10
:1003900003C0808186FD0DC00FB607FCF7CF8C919E
:1003A00085FFF2CF808185FFEDCFCE010E944D0108
:1003B000E9CFDF91CF910895833081F028F4813027
:1003C00099F08230A9F008958730A9F08830C9F0FB
:1003D0008430B1F4809180008F7D03C080918000D3
:1003E0008F7780938000089584B58F7784BD0895BA
:1003F00084B58F7DFBCF8091B0008F778093B00064
:1004000008958091B0008F7DF9CFCF93DF93282F8F
:1004100030E0F901E05DFE4F8491F901E45EFE4FAA
:10042000D491F901E85FFE4FC491CC23A1F0811172
:100430000E94DC01EC2FF0E0EE0FFF1FE250FF4FB7
:10044000A591B491EC91ED2381E090E009F480E076
:10045000DF91CF91089580E090E0FACF1F93CF9382
:10046000DF93282F30E0F901E05DFE4F8491F90120
:10047000E45EFE4FD491F901E85FFE4FC491CC23B6
:10048000A9F0162F81110E94DC01EC2FF0E0EE0F95
:10049000FF1FEC50FF4FA591B4918FB7F894EC91EA
:1004A000111108C0D095DE23DC938FBFDF91CF916F
:1004B0001F910895DE2BF8CFCF93DF9390E0FC01DE
:1004C000E45EFE4F2491885F9E4FFC018491882357
:1004D000D1F090E0880F991FFC01E651FF4FA591E4
:1004E000B491FC01EC50FF4FC591D49161110EC045
:1004F0009FB7F8948C91E22FE0958E238C932881FE
:10050000E223E8839FBFDF91CF9108958FB7F894DE
:10051000EC91E22BEC938FBFF6CF3FB7F89480912C
:10052000A5019091A601A091A701B091A80126B5BF
:10053000A89B05C02F3F19F00196A11DB11D3FBF1B
:10054000BA2FA92F982F8827BC01CD01620F711DEA
:10055000811D911D42E0660F771F881F991F4A95E4
:10056000D1F708958F929F92AF92BF92CF92DF9270
:10057000EF92FF926B017C010E948D024B015C01A6
:10058000C114D104E104F104B9F00E948D0268198C
:1005900079098A099B09683E73408105910580F3BA
:1005A00021E0C21AD108E108F10888EE880E83E044
:1005B000981EA11CB11CE4CFFF90EF90DF90CF906C
:1005C000BF90AF909F908F900895089520918101E2
:1005D000260F3327331F21323105ECF420913202EC
:1005E000FC0190E080E0243069F082E00895A09161
:1005F00081012191AC014F595E4FA40FB52FB11D60
:100600002C930196861798F380918101680F60936F
:10061000810180E0089581E008951092320281E026
:100620008093310210920C0261E082E10E942E025E
:1006300061E083E10E942E02E9EBF0E080818E7F91
:10064000808380818D7F808388E48093B80085E4F7
:100650008093BC000895CF93DF9391E09093600165
:100660008823B9F0C091B800D091BA008091BC0045
:100670008A7B8093BC0060E082E10E942E0260E0F1
:1006800083E10E942E020E940D03D093BA00C09312
:10069000B800DF91CF910895CF92DF92EF92FF9251
:1006A0000F931F93CF93DF93D0915B0281E0D13200
:1006B00008F09CC0C0915A020E948D026B017C011F
:1006C0008091320281116CC082E08093320281E01D
:1006D000809331028FEF8093300210922F02D093DB
:1006E0002E02AAE3B2E0EEE0F2E080E0D8138DC083
:1006F00010920D0280910D02CC0FC82BC0930D02F9
:1007000080910C02813009F084C010920C020E948A
:100710008D026B017C0180910D028093BB00809162
:10072000340290913502A0913602B0913702892BA4
:100730008A2B8B2BA1F00E948D0200913402109124
:10074000350220913602309137026C197D098E09ED
:100750009F09061717072807390708F442C0809138
:10076000BC0083FDD8CF85EC8093BC000E948D0235
:100770006B017C0180913202823009F44CC080917F
:1007800030028F3F09F469C080913002803209F451
:1007900066C080913002803309F463C084E026C0D3
:1007A0008091340290913502A0913602B0913702C7
:1007B000892B8A2B8B2B09F483CF0E948D02009109
:1007C00034021091350220913602309137026C19B3
:1007D0007D098E099F09061717072807390708F0B2
:1007E0006FCF809133020E942B0385E01092390273
:1007F00010925B0210923802DF91CF911F910F91FE
:10080000FF90EF90DF90CF9008959D9191938F5F2F
:100810006DCF85EEA9CF8091340290913502A091E1
:100820003602B0913702892B8A2B8B2B09F4A2CF89
:100830000E948D02009134021091350220913602FF
:10084000309137026C197D098E099F090617170729
:100850002807390708F08ECFC4CF80E0C7CF82E0E9
:10086000C5CF83E0C3CFCF92DF92EF92FF920F9379
:100870001F93CF93C82F813208F096C00E948D023B
:100880006B017C0180913202811169C081E080930B
:100890003202809331029FEF9093300210922F0228
:1008A0009C0F90932E0280930D0280910D028E6E0C
:1008B00080930D0280910C02813009F077C0109274
:1008C0000C020E948D026B017C0180910D028093CD
:1008D000BB008091340290913502A0913602B09114
:1008E0003702892B8A2B8B2BA1F00E948D0200915D
:1008F00034021091350220913602309137026C1982
:100900007D098E099F09061717072807390708F47C
:1009100047C08091BC0083FDD8CF85EC8093BC009C
:100920000E948D026B017C0180913202813009F4BA
:100930003FC080912F028C1710F4C0912F02AEE0BF
:10094000B2E0ECEEF1E080E08C1354C08C2FCF913C
:100950001F910F91FF90EF90DF90CF9008958091BD
:10096000340290913502A0913602B0913702892B62
:100970008A2B8B2B09F486CF0E948D0200913402C2
:100980001091350220913602309137026C197D09A1
:100990008E099F09061717072807390708F072CF35
:1009A000809133020E942B03C0E0D0CF85EEB6CFFA
:1009B0008091340290913502A0913602B0913702B5
:1009C000892B8A2B8B2B09F4AFCF0E948D020091CB
:1009D00034021091350220913602309137026C19A1
:1009E0007D098E099F09061717072807390708F0A0
:1009F0009BCFD6CF9D9191938F5FA6CF0895E09125
:100A0000AE018091AD01E81730F4F0E0E451FE4F03
:100A1000808190E008958FEF9FEF08959091AE014F
:100A20008091AD012FEF3FEF981748F4E92FF0E0E8
:100A3000E451FE4F208130E09F5F9093AE01C901E9
:100A400008958091AD019091AE01891B990B089595
:100A5000CF92DF92EF92FF920F931F93CF93DF938A
:100A60007C01CB018A0120913802222389F0EB011D
:100A70006B01C40ED51ECC15DD0569F06991D70157
:100A8000ED91FC910190F081E02DC7010995F3CF24
:100A9000642F0E94E602C801DF91CF911F910F9150
:100AA000FF90EF90DF90CF900895CF93DF931F9248
:100AB000CDB7DEB76983209138022223F9F0209167
:100AC0005B02203258F021E030E0FC0133832283C6
:100AD00090E080E00F90DF91CF91089580913902EE
:100AE000E82FF0E0E65CFD4F998190838F5F809363
:100AF000390280935B0281E090E0ECCF61E0CE01AF
:100B000001960E94E602F7CFCF93C82F81E0809331
:100B1000380287E780935A021092390210925B02E2
:100B200064EF89EF92E00E9455056C2F89EF92E007
:100B30000E945505CF910C944C0390E080E00895FD
:100B4000CF92DF92EF92FF928091AF010E94050257
:100B5000C090B101D090B201E090B301F090B40127
:100B600020E030E040E85FE3181619068CF4C70176
:100B7000B6010E9443106093B1017093B20180935B
:100B8000B3019093B401FF90EF90DF90CF90089560
:100B9000C701B6010E944210EECF1F93CF93DF939F
:100BA000EB0191E09093380297E790935A021092EC
:100BB000390210925B02682F89EF92E00E9455057E
:100BC0000E944C0382E00E9433041092AE01809395
:100BD000AD0189EF92E00E940E05182F89EF92E097
:100BE0000E940E0520E0822B912B99838883DF9150
:100BF000CF911F910C944C030F931F93CF93DF93CE
:100C000000D0CDB7DEB78C018EE20E94840565E08E
:100C100070E080E090E00E94B202BE016F5F7F4F03
:100C200086EF0E94CD0589819A81B0E0A0E0F801AD
:100C300080839183A283B3830F900F90DF91CF9134
:100C40001F910F9108950F931F93CF93DF9300D0BF
:100C5000CDB7DEB78B01BE016F5F7F4F0E94CD0520
:100C600089819A81F801918380830F900F90DF91A1
:100C7000CF911F910F910895CF93DF93EB0191E0F6
:100C80009093380297E790935A021092390210928B
:100C90005B02682F89EF92E00E9455050E944C0389
:100CA00081E00E9433041092AE018093AD0189EF80
:100CB00092E00E940E058883DF91CF910C944C0343
:100CC000FC0101900020E9F73197AF01481B590B57
:100CD000BC018CE592E00C94CF008F929F92AF9272
:100CE000BF920F931F93CF93DF93CDB7DEB7A1973A
:100CF0000FB6F894DEBF0FBECDBF19A2423008F484
:100D00004AE08E010F5D1F4F842E912CB12CA12C37
:100D1000A50194010E94F612E62FB901CA01EA303A
:100D2000F4F4E05DD801EE938D01232B242B252BC9
:100D300079F790E080E0109719F0CD010E946006ED
:100D4000A1960FB6F894DEBF0FBECDBFDF91CF9155
:100D50001F910F91BF90AF909F908F900895E95C85
:100D6000E1CF4F925F926F927F928F929F92AF925C
:100D7000BF92CF92DF92EF92FF926B017C01AC01A8
:100D80009B010E94AC118823C1F088E291E00E948F
:100D900060067C0184E391E00E9460068E0D9F1D39
:100DA000FF90EF90DF90CF90BF90AF909F908F908B
:100DB0007F906F905F904F90089546015701E8949F
:100DC000B7F82FEF3FEF4FE75FE7C501B4010E948F
:100DD000AC1181110DC02FEF3FEF4FE75FE7C50169
:100DE000B4010E94040F18161CF48CE291E0CFCFDE
:100DF0002FEF3FEF4FE75FE4C701B6010E945711A5
:100E000018161CF480E391E0C2CF2FEF3FEF4FE7BD
:100E10005FECC701B6010E94040F87FDF3CF20E00D
:100E200030E0A901C701B6010E94040FB12CA12C2A
:100E300087FF0AC06DE28CE592E00E946F015C01C1
:100E4000F7FAF094F7F8F0942AE037ED43EA5BE321
:100E5000C701B6010E9443102B013C010E942811DA
:100E60006B017C010E94090F9B01AC01C301B2011F
:100E70000E9442102B013C014AE0C701B6010E94CA
:100E80006D067C01EA0CFB1C6EE28CE592E00E9490
:100E90006F01E80EF91E20E030E040E251E4C301AA
:100EA000B2010E946A0F2B013C010E9428114B01E4
:100EB000B12CA12C4AE0C501B4010E946D06E80ED8
:100EC000F91EC501B4010E94090F9B01AC01C301C9
:100ED000B2010E94421020E030E040E251E40E9462
:100EE0006A0F0E94281190E080E04AE00E946D069F
:100EF000E80EF91E4FCF85ED8093BC00809134023F
:100F000090913502A0913602B09137020796A11D4B
:100F1000B11D23E0B695A795979587952A95D1F7AA
:100F20002091BC0024FD03C010923202089540912C
:100F30003402509135026091360270913702452B90
:100F4000462B472B69F30097A105B10541F025E336
:100F50002A95F1F700000197A109B109E1CF80912D
:100F600033020C942B031F920F920FB60F92112491
:100F70002F933F934F935F936F937F938F939F93A1
:100F8000AF93BF93EF93FF938CE592E00E944D01E6
:100F9000FF91EF91BF91AF919F918F917F916F9151
:100FA0005F914F913F912F910F900FBE0F901F9027
:100FB00018951F920F920FB60F9211242F938F93B3
:100FC0009F93EF93FF93E0916C02F0916D0280810B
:100FD000E0917202F091730282FD1BC090818091BA
:100FE00075028F5F8F7320917602821741F0E09136
:100FF0007502F0E0E45AFD4F958F80937502FF91E2
:10100000EF919F918F912F910F900FBE0F901F9096
:1010100018958081F4CF1F920F920FB60F92112472
:101020002F933F938F939F93AF93BF938091B5017D
:101030009091B601A091B701B091B8013091A4018F
:1010400023E0230F2D3758F50196A11DB11D2093E4
:10105000A4018093B5019093B601A093B701B0931A
:10106000B8018091A5019091A601A091A701B0912E
:10107000A8010196A11DB11D8093A5019093A60121
:10108000A093A701B093A801BF91AF919F918F91B9
:101090003F912F910F900FBE0F901F90189526E84B
:1010A000230F0296A11DB11DD2CF1F920F920FB632
:1010B0000F9211242F933F934F935F936F937F93DE
:1010C0008F939F93AF93BF93EF93FF93E0910201B0
:1010D000F09103010995FF91EF91BF91AF919F911D
:1010E0008F917F916F915F914F913F912F910F90D1
:1010F0000FBE0F901F9018951F920F920FB60F9270
:1011000011242F933F934F935F936F937F938F930C
:101110009F93AF93BF93EF93FF93E0910001F09102
:1011200001010995FF91EF91BF91AF919F918F912F
:101130007F916F915F914F913F912F910F900FBED3
:101140000F901F9018951F920F920FB60F921124B7
:101150002F933F934F935F936F937F938F939F93BF
:10116000AF93BF93EF93FF938091B900887F803650
:1011700009F44AC0F0F5883209F4A7C018F58031A7
:1011800009F49BC0B8F4882309F4F9C0883009F445
:1011900094C0FF91EF91BF91AF919F918F917F91FB
:1011A0006F915F914F913F912F910F900FBE0F90D4
:1011B0001F901895883109F488C0803251F78093C8
:1011C000300214C0803409F49DC040F48033B9F378
:1011D0008833F9F68093300285ECB0C0803509F48D
:1011E00085C0883509F496C0883499F60E947B073B
:1011F000D0CF883909F48CC038F5883729F050F4FD
:10120000883611F0803729F683E0809332021092FD
:10121000A30157C0883809F47BC0803919F08038A1
:1012200009F0B7CF8091A301803208F071C0E0913E
:10123000A30181E08E0F8093A3018091BB00F0E0B9
:10124000ED57FE4F80833DC0803B39F0E0F4803A9B
:1012500009F479C0883A09F09CCF84E08093320287
:101260001092820110928101E091AB01F091AC01EA
:1012700009958091810181110FC081E080938101E6
:101280001092610109C0803C09F4A6CF883C09F4A2
:10129000A3CF883B09F07DCFE091820181E08E0FE2
:1012A00080938201F0E0EF59FE4F80818093BB0074
:1012B000909182018091810129C080910D028093DB
:1012C000BB0085EC8093BC0064CF90912F0280918D
:1012D0002E02981758F5E0912F0281E08E0F80932F
:1012E0002F02F0E0E25FFD4F8081E9CFE0912F0215
:1012F00081E08E0F80932F028091BB00F0E0E25FCF
:10130000FD4F808390912F0280912E029817C8F292
:1013100085E8D8CFE0912F0281E08E0F80932F02D5
:101320008091BB00F0E0E25FFD4F8083809131024D
:1013300081115CCF81E080930C0284EA8093BC0031
:101340001092320226CF85EC8093BC0010923202BC
:101350008091A301803230F4E091A301F0E0ED57D9
:10136000FE4F10826091A30170E0E091A901F0911D
:10137000AA0183E891E009951092A3010ACF109287
:10138000300234CFECE5F2E01382128288EE93E073
:10139000A0E0B0E084839583A683B78328E031E0A2
:1013A0003183208325EC30E03587248724EC30E03E
:1013B0003787268720EC30E0318B208B21EC30E022
:1013C000338B228B22EC30E0358B248B26EC30E003
:1013D000378B268B118E128E138E148EE9EFF2E06E
:1013E0001382128284839583A683B7838AE191E076
:1013F00091838083E5E0F3E01182108282E090E047
:101400009383828388EE93E0958384830895CF93BA
:10141000DF93CDB7DEB767970FB6F894DEBF0FBE88
:10142000CDBF789484B5826084BD84B5816084BD6D
:1014300085B5826085BD85B5816085BD80916E0072
:10144000816080936E0010928100809181008260A3
:1014500080938100809181008160809381008091E0
:1014600080008160809380008091B10084608093CF
:10147000B1008091B00081608093B00080917A00CB
:10148000846080937A0080917A00826080937A00F1
:1014900080917A00816080937A0080917A008068E0
:1014A00080937A001092C100E0916C02F0916D027D
:1014B00082E08083E0916802F09169021082E091FD
:1014C0006A02F0916B028FEC808310927402E091BB
:1014D0007002F091710286E08083E0916E02F091DB
:1014E0006F02808180618083E0916E02F0916F02D3
:1014F000808188608083E0916E02F0916F0280812C
:1015000080688083E0916E02F0916F0280818F7D10
:1015100080831092AE011092AD01109239021092A8
:101520005B020E940D038DEC90E09093AC018093E0
:10153000AB018EEC90E09093AA018093A901BE01CB
:101540006F5F7F4F80ED0E943C0689818535C9F52C
:101550001092D50166ED71E08AEA0E94230668EDDB
:1015600071E08CEA0E9423066AED71E08EEA0E9427
:1015700023066CED71E080EB0E94CD056EED71E00D
:1015800082EB0E94CD0560EE71E084EB0E94CD05F8
:1015900062EE71E086EB0E94230664EE71E088EB58
:1015A0000E94230666EE71E08AEB0E94230668EE35
:1015B00071E08CEB0E9423066AEE71E08EEB0E94D4
:1015C00023066091090370910A03072E000C880B13
:1015D000990B0E94B20260E082E00E945C0260E02F
:1015E00083E00E945C0261E086E00E945C0261E0B0
:1015F00087E00E945C0261E085E00E945C0280E07E
:1016000090E0A8ECB3E48093CD019093CE01A09339
:10161000CF01B093D00180E090E0A0ECB1E48093E2
:10162000C1019093C201A093C301B093C401109271
:10163000BD011092BE011092BF011092C00180E066
:1016400090E0A0E8B1E48093B9019093BA01A0932F
:10165000BB01B093BC0183E090E09093B001809314
:10166000AF0180EA95E090930101809300018091A1
:101670006900836080936900E89A60E0262E60E04C
:10168000362E2091B1013091B2014091B3015091B9
:10169000B401288B398B4A8B5B8B8FB7F8944090C1
:1016A000B5015090B6016090B7017090B8018FBF3E
:1016B0008091D1019091D201A091D301B091D40138
:1016C000A3019201281B390B4A0B5B0BCA01B9011C
:1016D0000E94090F688779878A879B8728893989BB
:1016E0004A895B896091CD017091CE018091CF01D3
:1016F0009091D0010E9442106B017C01AC019B01D2
:10170000688579858A859B850E946A0F2091C90129
:101710003091CA014091CB015091CC010E944310FD
:101720004B015C018092C9019092CA01A092CB0149
:10173000B092CC012091C1013091C2014091C3010E
:101740005091C401C701B6010E946A0F6C877D8762
:101750008E879F872091BD013091BE014091BF01CE
:101760005091C001C501B4010E946A0F9B01AC01F8
:101770006C857D858E859F850E9443104B015C01A1
:101780002091C5013091C6014091C7015091C80117
:10179000C701B6010E944210288539854A855B85BC
:1017A0000E94AF102091B9013091BA014091BB0164
:1017B0005091BC010E946A0F9B01AC01C501B401AC
:1017C0000E9443104B015C01C092C501D092C6013A
:1017D000E092C701F092C8014092D1015092D2012B
:1017E0006092D3017092D4017C016B01E894F7F808
:1017F00020E030E04FE753E4C701B6010E945711E3
:1018000020E030E0A90118160CF4F1C2C501B401C2
:101810000E94040F0FEF1FEF87FD02C001E010E0F0
:10182000C701B6010E9421114B017B0161E085E0F7
:101830000E945C028114910429F460E085E00E941A
:101840002E022DC03FEF8316910411F461E0F6CF14
:10185000E5E3F1E08491833009F499C250F48130DA
:10186000D1F0823009F48EC2F0E8EF16F10474F77B
:10187000E4CF873009F495C2883009F49AC28430E5
:1018800099F78091800080628093800090928B0015
:1018900080928A0004C084B5806884BD87BC61E002
:1018A00087E00130110509F48CC260E087E00F3F4A
:1018B0001F4F09F086C20E942E0261E086E00E945E
:1018C0002E02CE0101960E94FC058091E0019091CC
:1018D000E10129813A814B815C81281B390B410947
:1018E0005109A091DE01B091DF010E9428106B0127
:1018F0007C013FE0F594E794D794C7943A95D1F7EB
:101900006091E8017091E901072E000C880B990B9A
:101910004BE0660F771F881F991F4A95D1F72091DA
:10192000EA013091EB01032E000C440B550B2C0DFA
:101930003D1D4E1D5F1D0E941813CA01B9016C0D9B
:101940007D1D8E1D9F1D685F7F4F8F4F9F4F54E001
:1019500095958795779567955A95D1F70E940B0FC6
:1019600020E030E040E251E40E94AF106C877D87B8
:101970008E879F8719821A821B821C82CE01019654
:101980000E94FC051091D501812F8295880F880F48
:10199000807C8C5C0E94840568E070E080E090E0D0
:1019A000113081F065E070E080E090E0113050F09F
:1019B0006EE070E080E090E0123021F06AE170E0CB
:1019C00080E090E00E94B202BE016B5F7F4F86EF25
:1019D0000E94CD05CD80DE80F12CE12CFE2CED2C7B
:1019E000DC2CCC24BE01695F7F4F88EF0E943C064F
:1019F0008F81A7019601280F311D411D511D288798
:101A000039874A875B878091E0019091E1012981C4
:101A10003A814B815C81281B390B41095109A09106
:101A2000DE01B091DF010E9428104B015C01AFE0A4
:101A3000B594A79497948794AA95D1F76091E801FB
:101A40007091E901072E000C880B990BBBE0660F23
:101A5000771F881F991FBA95D1F72091EA0130911D
:101A6000EB01032E000C440B550B280D391D4A1DAC
:101A70005B1D0E941813820E931EA41EB51E30EA31
:101A8000831A3FE0930AA108B108A5019401C5019A
:101A9000B4010E94E6122B013C010CE0759467949E
:101AA000579447940A95D1F7A091DA01B091DB01E0
:101AB0000E9437136B017C018DE0F594E794D79475
:101AC000C7948A95D1F7A091E201B091E301A301F7
:101AD00092010E9437139C01552737FD5095452FE1
:101AE0002C0D3D1D4E1D5F1D2E5F3F4F4F4F5F4F15
:101AF00062E055954795379527956A95D1F7305807
:101B00004F4F5F4FA091DC01B091DD010E94281082
:101B10006B017C017FE0F694E794D794C7947A95A3
:101B2000D1F788E090E0811B9109288539854A85A5
:101B30005B8504C055954795379527958A95D2F7CB
:101B4000288739874A875B87A091E401B091E50136
:101B5000A30192010E9437139B01AC01EBE0559564
:101B6000479537952795EA95D1F72C8B3D8B4E8B72
:101B70005F8BA091D801B091D901A50194010E9479
:101B80003713DC01CB01FBE0B595A79597958795B9
:101B9000FA95D1F72C893D894E895F89820F931F71
:101BA000A41FB51F4091D6015091D701052E000CFE
:101BB000660B770B02E0440F551F661F771F0A95CF
:101BC000D1F7840F951FA61FB71F012E04C0880FE1
:101BD000991FAA1FBB1F0A94D2F70296A11DB11D1F
:101BE00022E0B595A795979587952A95D1F72885F1
:101BF00039854A855B85281B390B4A0B5B0B60E5F1
:101C000073EC80E090E004C0959587957795679593
:101C10001A95D2F70E94E61297FDD7C0660F771F7C
:101C2000881F991FA70196010E94F61269017A0187
:101C30009927F7FC9A958F2D7E2D6D2D9B01AC0178
:101C40000E94E6129B01AC01AEEDBBE00E942810A1
:101C50004B015C01A3E4B3EEA70196010E943A1385
:101C6000BC01992777FD9095892F4501BB2497FCEE
:101C7000B094AB2C680D791D8A1D9B1D6153714F6B
:101C80008F4F9F4F44E095958795779567954A9537
:101C9000D1F76C0D7D1D8E1D9F1D0E940B0F6B01DA
:101CA0007C0120E836EE45EC57E40E94AF102EEAA6
:101CB0003CED42E45EE30E945C119B01AC0160E0FC
:101CC00070E080E89FE30E94421020E03AE24DE29B
:101CD00057E40E946A0F4B015C01809105038E302E
:101CE00008F08E508770806480937C0080917A0029
:101CF000806480937A0080917A0086FDFCCF809189
:101D000078008091790060E0809107030E945C0276
:101D1000809107030E94050287E391E00E9460061C
:101D20006C857D858E859F850E94B10684E491E057
:101D30000E94600620E030E048EC52E4C701B601A2
:101D40000E94AF100E94B1068EE491E00E946006EE
:101D5000C501B4010E94B10688E591E00E946006C9
:101D6000688979898A899B890E94B1062114310486
:101D700009F487CC0E943901882309F482CC0E949F
:101D800000007FCC84B5806284BD88BC88CD809102
:101D90008000806880938000909289008092880003
:101DA0007ECD8091B00080688093B0008092B300B7
:101DB00076CD8091B00080628093B0008092B400B4
:101DC0006ECD0E942E0260E079CDA70196010E949F
:101DD000F61269017A01CC0CDD1CEE1CFF1C28CF29
:101DE00061E085E00E945C020FEF1FEF2FCDC5017F
:101DF000B4010E94040F87FDF3CFC12CD12C8FE7D3
:101E0000E82E83E4F82E0ACD0E94460F08F481E004
:101E10000895E89409C097FB3EF4909580957095DD
:101E200061957F4F8F4F9F4F9923A9F0F92F96E926
:101E3000BB279395F695879577956795B795F1119B
:101E4000F8CFFAF4BB0F11F460FF1BC06F5F7F4F38
:101E50008F4F9F4F16C0882311F096E911C077234A
:101E600021F09EE8872F762F05C0662371F096E853
:101E7000862F70E060E02AF09A95660F771F881F22
:101E8000DAF7880F9695879597F90895990F0008C6
:101E9000550FAA0BE0E8FEEF16161706E807F9073C
:101EA000C0F012161306E407F50798F0621B730BD7
:101EB000840B950B39F40A2661F0232B242B252B58
:101EC00021F408950A2609F4A140A6958FEF811DFB
:101ED000811D08950E947D0F0C94EE0F0E94E00F6B
:101EE00038F00E94E70F20F0952311F00C94D70FE3
:101EF0000C94DD0F11240C9422100E94FF0F70F33C
:101F0000959FC1F3950F50E0551F629FF001729F9E
:101F1000BB27F00DB11D639FAA27F00DB11DAA1FAD
:101F2000649F6627B00DA11D661F829F2227B00DFA
:101F3000A11D621F739FB00DA11D621F839FA00D85
:101F4000611D221F749F3327A00D611D231F849FD5
:101F5000600D211D822F762F6A2F11249F5750402C
:101F60009AF0F1F088234AF0EE0FFF1FBB1F661FA7
:101F7000771F881F91505040A9F79E3F510580F070
:101F80000C94D70F0C9422105F3FE4F3983ED4F3E7
:101F9000869577956795B795F795E7959F5FC1F714
:101FA000FE2B880F911D9695879597F9089597F9BF
:101FB0009F6780E870E060E008959FEF80EC0895EF
:101FC00000240A9416161706180609060895002418
:101FD0000A9412161306140605060895092E039492
:101FE000000C11F4882352F0BB0F40F4BF2B11F406
:101FF00060FF04C06F5F7F4F8F4F9F4F089557FD65
:102000009058440F551F59F05F3F71F04795880F66
:1020100097FB991F61F09F3F79F0879508951216FD
:1020200013061406551FF2CF4695F1DF08C01616A9
:1020300017061806991FF1CF86957105610508945A
:102040000895E894BB2766277727CB0197F9089571
:102050000E943310A59F900DB49F900DA49F800DFA
:10206000911D11240895A29FB001B39FC001A39FA9
:10207000700D811D1124911DB29F700D811D1124C1
:10208000911D08955058BB27AA270E945A100C94FE
:10209000EE0F0E94E00F38F00E94E70F20F039F4B5
:1020A0009F3F19F426F40C94DD0F0EF4E095E7FB46
:1020B0000C94D70FE92F0E94FF0F58F3BA1762074D
:1020C00073078407950720F079F4A6F50C94211086
:1020D0000EF4E0950B2EBA2FA02D0B01B901900143
:1020E0000C01CA01A0011124FF27591B99F0593F87
:1020F00050F4503E68F11A16F040A22F232F342FCF
:102100004427585FF3CF469537952795A795F0401C
:102110005395C9F77EF41F16BA0B620B730B840B31
:10212000BAF09150A1F0FF0FBB1F661F771F881FE9
:10213000C2F70EC0BA0F621F731F841F48F4879541
:1021400077956795B795F7959E3F08F0B0CF939533
:10215000880F08F09927EE0F9795879508950E94AC
:10216000C3100C94EE0F0E94E70F58F00E94E00F8E
:1021700040F029F45F3F29F00C94D70F51110C94D3
:1021800022100C94DD0F0E94FF0F68F39923B1F326
:10219000552391F3951B550BBB27AA27621773078D
:1021A000840738F09F5F5F4F220F331F441FAA1F21
:1021B000A9F335D00E2E3AF0E0E832D091505040DD
:1021C000E695001CCAF72BD0FE2F29D0660F771F8B
:1021D000881FBB1F261737074807AB07B0E809F071
:1021E000BB0B802DBF01FF2793585F4F3AF09E3FF6
:1021F000510578F00C94D70F0C9422105F3FE4F354
:10220000983ED4F3869577956795B795F7959F5F38
:10221000C9F7880F911D9695879597F90895E1E084
:10222000660F771F881FBB1F621773078407BA07E3
:1022300020F0621B730B840BBA0BEE1F88F7E0953E
:1022400008950E9428116894B1110C9422100895E9
:102250000E94071088F09F5798F0B92F9927B7511F
:10226000B0F0E1F0660F771F881F991F1AF0BA953A
:10227000C9F714C0B13091F00E942110B1E0089567
:102280000C942110672F782F8827B85F39F0B93F59
:10229000CCF3869577956795B395D9F73EF49095ED
:1022A0008095709561957F4F8F4F9F4F08950E9445
:1022B000460F08F48FEF0895FA01EE0FFF1F3096D6
:1022C00021053105A1F16115710561F48038BFE385
:1022D0009B0749F168949038810561F08038BFEF21
:1022E0009B0741F099234AF5FF3FE10531052105A0
:1022F00019F1E8940894E795D901AA2329F4AB2FA2
:10230000BE2FF85FD0F310C0FF5F70F4A695E0F722
:10231000F73950F019F0FF3A38F49F779F930DD0BA
:102320000F9007FC9058089546F00C94DD0F60E084
:1023300070E080E89FE308954FE79F775F934F93A6
:102340003F932F930E945C122F913F914F915F9189
:102350000E946A0F0C94B9110E94460F880B990BCA
:10236000089529F416F00C94D70F0C9421100C94B6
:10237000DD0F0E940710A8F39638A0F707F80F9218
:10238000E8942BE33AEA48EB5FE70E94800F0F9254
:102390000F920F924DB75EB70F920E94A412E8E61B
:1023A000F0E00E94EB114F915F91EF91FF91E59565
:1023B000EE1FFF1F49F0FE57E0684427EE0F441F51
:1023C000FA95E1F74195550B0E941E120F9007FEFA
:1023D0000C9412120895DF93CF931F930F93FF92E3
:1023E000EF92DF927B018C01689406C0DA2EEF0138
:1023F0000E947D0FFE01E894A591259135914591AC
:102400005591A6F3EF010E945A10FE019701A80111
:10241000DA9469F7DF90EF90FF900F911F91CF91C1
:10242000DF9108959B01AC0160E070E080E89FE3DC
:102430000C94AF100C94D70F0C94D8120E94071074
:10244000D8F39923C9F3940F511DA3F39150504031
:1024500094F059F0882332F0660F771F881F91504F
:102460005040C1F79E3F51052CF7880F911D96955E
:10247000879597F908955F3FACF0983E9CF0BB2795
:10248000869577956795B79508F4B1609395C1F7F0
:10249000BB0F58F711F460FFE8CF6F5F7F4F8F4F8E
:1024A0009F4FE3CF0C94221016F00C94D8120C948A
:1024B000DD0F68940C94D70F0E940710A8F399239E
:1024C000C1F3AEF3DF93CF931F930F93FF92C92F06
:1024D000DD2788232AF02197660F771F881FDAF7F8
:1024E00020E030E040E85FEB9FE3883920F0803E59
:1024F00038F021968F770E944310E0E9F0E004C0A5
:102500000E944310EDEBF0E00E94EB118B01BE0145
:10251000EC01FB2E6F5771097595771F880B990B8E
:102520000E940B0F28E132E741E35FE30E947D0F39
:10253000AF2D9801AE01FF900F911F91CF91DF91C8
:102540000E945A100C94EE0FFA01DC01AA0FBB1F77
:102550009B01AC01BF5728F422273327442750782A
:1025600020C0B75190F4AB2F00244695379527959E
:10257000011CA395D2F3002071F0220F331F441FDA
:10258000B395DAF30ED00C94421061307105A0E8D7
:102590008A07B94630F49B01AC0166277727882764
:1025A0009078309621F020833183428353830895BD
:1025B0009F3F31F0915020F4879577956795B795B7
:1025C000880F911D9695879597F90895DB018F9354
:1025D0009F930E942810BF91AF91A29F800D911DE3
:1025E000A39F900DB29F900D11240895A1E21A2E81
:1025F000AA1BBB1BFD010DC0AA1FBB1FEE1FFF1FA7
:10260000A217B307E407F50720F0A21BB30BE40BF6
:10261000F50B661F771F881F991F1A9469F760953D
:102620007095809590959B01AC01BD01CF010895F7
:10263000052E97FB1EF400940E942F1357FD07D020
:102640000E94F61207FC03D04EF40C942F13509501
:102650004095309521953F4F4F4F5F4F089590958E
:102660008095709561957F4F8F4F9F4F0895B7FF6D
:102670000C9428100E942810821B930B0895EE0FD3
:10268000FF1F0590F491E02D0994F894FFCFE50227
:10269000E502000000006F01CF00FC00BC012D012D
:1026A0000B011F0100000000550528059D05FE04D3
:1026B00021050E05FF046E616E00696E66006F767F
:1026C00066000D0A0054656D7065726174757265FF
:1026D0003A0050726573737572653A00416C7469A3
:0E26E000747564653A00506F73203A20000054
:107E0000112484B714BE81FFF0D085E080938100F7
:107E100082E08093C00088E18093C10086E0809377
:107E2000C20080E18093C4008EE0C9D0259A86E02C
:107E300020E33CEF91E0309385002093840096BBD3
:107E4000B09BFECF1D9AA8958150A9F7CC24DD24C4
:107E500088248394B5E0AB2EA1E19A2EF3E0BF2EE7
:107E6000A2D0813461F49FD0082FAFD0023811F036
:107E7000013811F484E001C083E08DD089C08234E0
:107E800011F484E103C0853419F485E0A6D080C0E4
:107E9000853579F488D0E82EFF2485D0082F10E0AE
:107EA000102F00270E291F29000F111F8ED06801E7
:107EB0006FC0863521F484E090D080E0DECF843638
:107EC00009F040C070D06FD0082F6DD080E0C81688
:107ED00080E7D80618F4F601B7BEE895C0E0D1E017
:107EE00062D089930C17E1F7F0E0CF16F0E7DF06D8
:107EF00018F0F601B7BEE89568D007B600FCFDCFD4
:107F0000A601A0E0B1E02C9130E011968C91119780
:107F100090E0982F8827822B932B1296FA010C0160
:107F200087BEE89511244E5F5F4FF1E0A038BF0790
:107F300051F7F601A7BEE89507B600FCFDCF97BE46
:107F4000E89526C08437B1F42ED02DD0F82E2BD052
:107F50003CD0F601EF2C8F010F5F1F4F84911BD097
:107F6000EA94F801C1F70894C11CD11CFA94CF0C13
:107F7000D11C0EC0853739F428D08EE10CD085E9AC
:107F80000AD08FE07ACF813511F488E018D01DD067
:107F900080E101D065CF982F8091C00085FFFCCF94
:107FA0009093C60008958091C00087FFFCCF809118
:107FB000C00084FD01C0A8958091C6000895E0E648
:107FC000F0E098E1908380830895EDDF803219F02E
:107FD00088E0F5DFFFCF84E1DECF1F93182FE3DFCA
:107FE0001150E9F7F2DF1F91089580E0E8DFEE27F6
:047FF000FF270994CA
:027FFE00040479
:00000001FF
