:100000000C94C1000C941C090C94F5080C94E900A4
:100010000C94E9000C94E9000C94E9000C94E900BC
:100020000C94E9000C94E9000C94E9000C94E900AC
:100030000C94E9000C94E9000C94E9000C94E9009C
:100040000C94AB080C94E9000C9479080C945308B8
:100050000C94E9000C94E9000C94E9000C94E9007C
:100060000C9443090C94E90007634236B79BD8A768
:100070001A39685618AEBAAB558C1D3CB7CC5763CD
:10008000BD6DEDFD753EF6177231BF000000803F7B
:1000900008000000BE922449123EABAAAA2ABECD97
:1000A000CCCC4C3E00000080BEABAAAAAA3E000009
:1000B0000000BF000000803F000000000008417801
:1000C000D3BB4387D1133D190E3CC3BD4282AD2B38
:1000D0003E68EC8276BED98FE1A93E4C80EFFFBE30
:1000E00001C4FF7F3F00000000004E414E494E49D1
:1000F0005459494E46CDCCCC3D0AD7233C17B7D1F5
:100100003877CC2B329595E6241FB14F0A0000209A
:10011000410000C84200401C4620BCBE4CCA1B0E19
:100120005AAEC59D7400000000240027002A00007C
:10013000000000250028002B0000000000230026FE
:10014000002900040404040404040402020202025C
:10015000020303030303030102040810204080018B
:10016000020408102001020408102000000008000A
:10017000020100000304070000000000000000006E
:10018000620A11241FBECFEFD8E0DEBFCDBF11E061
:10019000A0E0B1E0E6EEF0E302C005900D92A63DCE
:1001A000B107D9F723E0A6EDB1E001C01D92A93E49
:1001B000B207E1F710E0C1ECD0E004C02197FE01E6
:1001C0000E946B18C03CD107C9F70E94C30A0C9467
:1001D00071180C94000008950895AF92BF92CF92C9
:1001E000DF92EF92FF920F931F93CF93DF936C01F7
:1001F0007B018B01040F151FEB015E01AE18BF08D8
:10020000C017D10759F06991D601ED91FC91019089
:10021000F081E02DC6010995892B79F7C501DF91A1
:10022000CF911F910F91FF90EF90DF90CF90BF90F3
:10023000AF900895FC01538D448D252F30E0842F1D
:1002400090E0821B930B541710F0CF9608950197FE
:100250000895FC01918D828D981761F0A28DAE0FEB
:10026000BF2FB11D5D968C91928D9F5F9F73928F72
:1002700090E008958FEF9FEF0895FC01918D828D9E
:10028000981731F0828DE80FF11D858D90E008956B
:100290008FEF9FEF0895FC01918D228D892F90E0C3
:1002A000805C9F4F821B91098F739927089582ED7F
:1002B00092E00E944B0121E0892B09F420E0822F7B
:1002C000089580E090E0892B29F00E945701811168
:1002D0000C9400000895FC01A48DA80FB92FB11D46
:1002E000A35ABF4F2C91848D90E001968F7399276C
:1002F000848FA689B7892C93A089B1898C9183704A
:1003000080648C93938D848D981306C00288F38942
:10031000E02D80818F7D80830895EF92FF920F936F
:100320001F93CF93DF93EC0181E0888F9B8D8C8DA1
:1003300098131AC0E889F989808185FF15C09FB795
:10034000F894EE89FF896083E889F9898081837058
:10035000806480839FBF81E090E0DF91CF911F9107
:100360000F91FF90EF900895F62E0B8D10E00F5F28
:100370001F4F0F731127E02E8C8D8E110CC00FB6FE
:1003800007FCFACFE889F989808185FFF5CFCE0196
:100390000E946B01F1CFEB8DEC0FFD2FF11DE35AA5
:1003A000FF4FF0829FB7F8940B8FEA89FB89808119
:1003B0008062CFCFCF93DF93EC01888D8823B9F093
:1003C000AA89BB89E889F9898C9185FD03C0808160
:1003D00086FD0DC00FB607FCF7CF8C9185FFF2CFDD
:1003E000808185FFEDCFCE010E946B01E9CFDF91C7
:1003F000CF910895833081F028F4813099F08230D4
:10040000A9F008958730A9F08830C9F08430B1F49C
:10041000809180008F7D03C0809180008F778093D2
:100420008000089584B58F7784BD089584B58F7D4D
:10043000FBCF8091B0008F778093B00008958091BA
:10044000B0008F7DF9CFCF93DF93282F30E0F901F3
:10045000E559FE4F8491F901E95AFE4FD491F90113
:10046000ED5BFE4FC491CC23A1F081110E94FA01F3
:10047000EC2FF0E0EE0FFF1FE75CFE4FA591B4916B
:10048000EC91ED2381E090E009F480E0DF91CF91E1
:10049000089580E090E0FACF1F93CF93DF93282F49
:1004A00030E0F901E559FE4F8491F901E95AFE4F18
:1004B000D491F901ED5BFE4FC491CC23A9F0162F26
:1004C00081110E94FA01EC2FF0E0EE0FFF1FE15DB9
:1004D000FE4FA591B4918FB7F894EC91111108C01B
:1004E000D095DE23DC938FBFDF91CF911F910895CC
:1004F000DE2BF8CFCF93DF9390E0FC01E95AFE4F5B
:1005000024918D5B9E4FFC0184918823D1F090E073
:10051000880F991FFC01EB5DFE4FA591B491FC0182
:10052000E15DFE4FC591D49161110EC09FB7F89463
:100530008C91E22FE0958E238C932881E223E8832F
:100540009FBFDF91CF9108958FB7F894EC91E22B84
:10055000EC938FBFF6CF8E3008F08E50877080649A
:1005600080937C0080917A00806480937A008091EF
:100570007A0086FDFCCF80917800909179000895F3
:100580003FB7F89480911F0290912002A091210220
:10059000B091220226B5A89B05C02F3F19F0019605
:1005A000A11DB11D3FBFBA2FA92F982F8827BC01CD
:1005B000CD01620F711D811D911D42E0660F771FF5
:1005C000881F991F4A95D1F708958F929F92AF92F5
:1005D000BF92CF92DF92EF92FF926B017C010E945B
:1005E000C0024B015C01C114D104E104F104B9F073
:1005F0000E94C002681979098A099B09683E734004
:100600008105910580F321E0C21AD108E108F108C3
:1006100088EE880E83E0981EA11CB11CE4CFFF90E9
:10062000EF90DF90CF90BF90AF909F908F90089504
:100630002FB7F89460911B0270911C0280911D02EB
:1006400090911E022FBF089508952091F701260F63
:100650003327331F21323105ECF42091A802FC012D
:1006600090E080E0243069F082E00895A091F701E5
:100670002191AC0149525E4FA40FB52FB11D2C93AF
:100680000196861798F38091F701680F6093F70140
:1006900080E0089581E008951092A80281E080939F
:1006A000A7021092820261E082E10E944C0261E0A6
:1006B00083E10E944C02E9EBF0E080818E7F808331
:1006C00080818D7F808388E48093B80085E4809367
:1006D000BC000895CF93DF9391E09093D6018823D7
:1006E000B9F0C091B800D091BA008091BC008A7B6B
:1006F0008093BC0060E082E10E944C0260E083E1F4
:100700000E944C020E944C03D093BA00C093B800E0
:10071000DF91CF910895CF92DF92EF92FF920F93E6
:100720001F93CF93DF93D091D10281E0D13208F0B3
:100730009CC0C091D0020E94C0026B017C018091DC
:10074000A80281116CC082E08093A80281E08093AE
:10075000A7028FEF8093A6021092A502D093A40265
:10076000A0EBB2E0E4E8F2E080E0D8138DC0109294
:10077000830280918302CC0FC82BC09383028091A7
:100780008202813009F084C0109282020E94C0026D
:100790006B017C01809183028093BB008091AA024F
:1007A0009091AB02A091AC02B091AD02892B8A2B43
:1007B0008B2BA1F00E94C0020091AA021091AB0203
:1007C0002091AC023091AD026C197D098E099F0910
:1007D000061717072807390708F442C08091BC00A4
:1007E00083FDD8CF85EC8093BC000E94C0026B01D2
:1007F0007C018091A802823009F44CC08091A6024D
:100800008F3F09F469C08091A602803209F466C066
:100810008091A602803309F463C084E026C08091F1
:10082000AA029091AB02A091AC02B091AD02892BCB
:100830008A2B8B2B09F483CF0E94C0020091AA025D
:100840001091AB022091AC023091AD026C197D0980
:100850008E099F09061717072807390708F06FCF79
:100860008091A9020E946A0385E01092AF02109263
:10087000D1021092AE02DF91CF911F910F91FF90A4
:10088000EF90DF90CF9008959D9191938F5F6DCF02
:1008900085EEA9CF8091AA029091AB02A091AC0203
:1008A000B091AD02892B8A2B8B2B09F4A2CF0E9429
:1008B000C0020091AA021091AB022091AC023091CB
:1008C000AD026C197D098E099F09061717072807C5
:1008D000390708F08ECFC4CF80E0C7CF82E0C5CF04
:1008E00083E0C3CFCF92DF92EF92FF920F931F93DB
:1008F000CF93C82F813208F096C00E94C0026B01CE
:100900007C018091A802811169C081E08093A802D6
:100910008093A7029FEF9093A6021092A5029C0FCE
:100920009093A40280938302809183028E6E8093C1
:10093000830280918202813009F077C01092820296
:100940000E94C0026B017C01809183028093BB00F6
:100950008091AA029091AB02A091AC02B091AD023D
:10096000892B8A2B8B2BA1F00E94C0020091AA0236
:100970001091AB022091AC023091AD026C197D094F
:100980008E099F09061717072807390708F447C07B
:100990008091BC0083FDD8CF85EC8093BC000E9481
:1009A000C0026B017C018091A802813009F43FC034
:1009B0008091A5028C1710F4C091A502A4E8B2E0C2
:1009C000E2E6F2E080E08C1354C08C2FCF911F91AF
:1009D0000F91FF90EF90DF90CF9008958091AA0241
:1009E0009091AB02A091AC02B091AD02892B8A2B01
:1009F0008B2B09F486CF0E94C0020091AA021091AD
:100A0000AB022091AC023091AD026C197D098E09C8
:100A10009F09061717072807390708F072CF80913A
:100A2000A9020E946A03C0E0D0CF85EEB6CF8091C4
:100A3000AA029091AB02A091AC02B091AD02892BB9
:100A40008A2B8B2B09F4AFCF0E94C0020091AA021F
:100A50001091AB022091AC023091AD026C197D096E
:100A60008E099F09061717072807390708F09BCF3B
:100A7000D6CF9D9191938F5FA6CF0895E0912802E4
:100A800080912702E81730F4F0E0EE59FD4F8081A5
:100A900090E008958FEF9FEF089590912802809144
:100AA00027022FEF3FEF981748F4E92FF0E0EE59B7
:100AB000FD4F208130E09F5F90932802C901089587
:100AC0008091270290912802891B990B0895CF925B
:100AD000DF92EF92FF920F931F93CF93DF937C01EE
:100AE000CB018A012091AE02222389F0EB016B0138
:100AF000C40ED51ECC15DD0569F06991D701ED91C5
:100B0000FC910190F081E02DC7010995F3CF642F8E
:100B10000E942503C801DF91CF911F910F91FF9093
:100B2000EF90DF90CF900895CF93DF931F92CDB7D2
:100B3000DEB769832091AE022223F9F02091D10221
:100B4000203258F021E030E0FC013383228390E032
:100B500080E00F90DF91CF9108958091AF02E82F50
:100B6000F0E0E055FD4F998190838F5F8093AF0255
:100B70008093D10281E090E0ECCF61E0CE0101965C
:100B80000E942503F7CFCF93C82F81E08093AE0258
:100B900087E78093D0021092AF021092D10264EFE7
:100BA0008FE693E00E9494056C2F8FE693E00E94FD
:100BB0009405CF910C948B0390E080E00895CF9240
:100BC000DF92EF92FF92809129020E942302C0904F
:100BD0002B02D0902C02E0902D02F0902E0220E00B
:100BE00030E040E85FE3181619068CF4C701B6013F
:100BF0000E94891560932B0270932C0280932D0222
:100C000090932E02FF90EF90DF90CF900895C70150
:100C1000B6010E948815EECF1F93CF93DF93EB01AF
:100C200091E09093AE0297E79093D0021092AF02BA
:100C30001092D102682F8FE693E00E9494050E94E3
:100C40008B0382E00E947204109228028093270294
:100C50008FE693E00E944D05182F8FE693E00E94E7
:100C60004D0520E0822B912B99838883DF91CF91D2
:100C70001F910C948B030F931F93CF93DF9300D09E
:100C8000CDB7DEB78C018EE20E94C30565E070E04F
:100C900080E090E00E94E502BE016F5F7F4F86EF2B
:100CA0000E940C0689819A81B0E0A0E0F80180835F
:100CB0009183A283B3830F900F90DF91CF911F9107
:100CC0000F9108950F931F93CF93DF9300D0CDB76B
:100CD000DEB78B01BE016F5F7F4F0E940C068981DA
:100CE0009A81F801918380830F900F90DF91CF91CB
:100CF0001F910F910895CF93DF93EB0191E09093B3
:100D0000AE0297E79093D0021092AF021092D102F8
:100D1000682F8FE693E00E9494050E948B0381E088
:100D20000E94720410922802809327028FE693E0BB
:100D30000E944D058883DF91CF910C948B03FC01B9
:100D400001900020E9F73197AF01481B590BBC0116
:100D500082ED92E00C94ED008F929F92AF92BF9241
:100D60000F931F93CF93DF93CDB7DEB7A1970FB645
:100D7000F894DEBF0FBECDBF19A2423008F44AE09E
:100D80008E010F5D1F4F842E912CB12CA12CA5013B
:100D900094010E945715E62FB901CA01EA30F4F414
:100DA000E05DD801EE938D01232B242B252B79F7C1
:100DB00090E080E0109719F0CD010E949F06A19667
:100DC0000FB6F894DEBF0FBECDBFDF91CF911F915C
:100DD0000F91BF90AF909F908F900895E95CE1CF05
:100DE000CF92DF92EF92FF92CF93DF936C01990F36
:100DF000EE08FF08F7FE19C06DE282ED92E00E9456
:100E00008D01EC0166277727CB016C197D098E09CE
:100E10009F094AE00E94AC068C0F9D1FDF91CF9185
:100E2000FF90EF90DF90CF9008954AE0C701B601A0
:100E3000DF91CF91FF90EF90DF90CF900C94AC06B4
:100E4000CF93DF930E949F06EC0188E291E00E941D
:100E50009F068C0F9D1FDF91CF9108950C949F06E4
:100E60004F925F926F927F928F929F92AF92BF92BA
:100E7000CF92DF92EF92FF920F931F93CF936B016C
:100E80007C01742EAC019B010E94F216882399F01C
:100E90008BE291E0CF911F910F91FF90EF90DF9047
:100EA000CF90BF90AF909F908F907F906F905F900A
:100EB0004F900C949F0646015701E894B7F82FEF26
:100EC0003FEF4FE75FE7C501B4010E94F2168111C1
:100ED0000DC02FEF3FEF4FE75FE7C501B4010E9460
:100EE000C71318161CF48FE291E0D4CF2FEF3FEF19
:100EF0004FE75FE4C701B6010E949D1618161CF467
:100F000083E391E0C7CF2FEF3FEF4FE75FECC701DF
:100F1000B6010E94C71387FDF3CF20E030E0A9019E
:100F2000C701B6010E94C71310E000E087FF0AC0A6
:100F30006DE282ED92E00E948D018C01F7FAF0944F
:100F4000F7F8F094C0E060E070E080E09FE37C168A
:100F500041F020E030E040E251E40E94F515CF5F1F
:100F6000F6CFA70196010E9489152B013C010E9432
:100F70006E164B015C014AE00E94AC067C01E00E5B
:100F8000F11ECC23C1F1C501B4010E94CC139B0119
:100F9000AC01C301B2010E9488154B015C016EE2F5
:100FA00082ED92E00E948D01E80EF91EC15018F109
:100FB00020E030E040E251E4C501B4010E942D146C
:100FC0002B013C010E946E164B01B12CA12C4AE072
:100FD000C501B4010E94AC06E80EF91EC501B401BA
:100FE0000E94CC139B01AC01C301B2010E94881581
:100FF0004B015C01DBCFC701CF911F910F91FF9097
:10100000EF90DF90CF90BF90AF909F908F907F90A8
:101010006F905F904F900895CF93DF9342E00E94CE
:101020003007EC0188E291E00E949F068C0F9D1F23
:10103000DF91CF91089585ED8093BC008091AA0245
:101040009091AB02A091AC02B091AD020796A11DA8
:10105000B11D23E0B695A795979587952A95D1F769
:101060002091BC0024FD03C01092A8020895409175
:10107000AA025091AB026091AC027091AD02452B77
:10108000462B472B69F30097A105B10541F025E3F5
:101090002A95F1F700000197A109B109E1CF8091EC
:1010A000A9020C946A031F920F920FB60F9211249B
:1010B0002F933F934F935F936F937F938F939F9360
:1010C000AF93BF93EF93FF9382ED92E00E946B0189
:1010D000FF91EF91BF91AF919F918F917F916F9110
:1010E0005F914F913F912F910F900FBE0F901F90E6
:1010F00018951F920F920FB60F9211242F938F9372
:101100009F93EF93FF93E091E202F091E3028081DD
:10111000E091E802F091E90282FD1BC0908180918C
:10112000EB028F5F8F732091EC02821741F0E09108
:10113000EB02F0E0EE52FD4F958F8093EB02FF91B2
:10114000EF919F918F912F910F900FBE0F901F9055
:1011500018958081F4CF1F920F920FB60F92112431
:101160002F933F938F939F93AF93BF9380911B02D5
:1011700090911C02A0911D02B0911E0230911A02A2
:1011800023E0230F2D3758F50196A11DB11D2093A3
:101190001A0280931B0290931C02A0931D02B0932D
:1011A0001E0280911F0290912002A0912102B09115
:1011B00022020196A11DB11D80931F02909320026F
:1011C000A0932102B0932202BF91AF919F918F9182
:1011D0003F912F910F900FBE0F901F90189526E80A
:1011E000230F0296A11DB11DD2CF1F920F920FB6F1
:1011F0000F9211242F933F934F935F936F937F939D
:101200008F939F93AF93BF93EF93FF93E09102016E
:10121000F09103010995FF91EF91BF91AF919F91DB
:101220008F917F916F915F914F913F912F910F908F
:101230000FBE0F901F9018951F920F920FB60F922E
:1012400011242F933F934F935F936F937F938F93CB
:101250009F93AF93BF93EF93FF93E0910001F091C1
:1012600001010995FF91EF91BF91AF919F918F91EE
:101270007F916F915F914F913F912F910F900FBE92
:101280000F901F9018951F920F920FB60F92112476
:101290002F933F934F935F936F937F938F939F937E
:1012A000AF93BF93EF93FF938091B900887F80360F
:1012B00009F44AC0F0F5883209F4A7C018F5803166
:1012C00009F49BC0B8F4882309F4F9C0883009F404
:1012D00094C0FF91EF91BF91AF919F918F917F91BA
:1012E0006F915F914F913F912F910F900FBE0F9093
:1012F0001F901895883109F488C0803251F7809387
:10130000A60214C0803409F49DC040F48033B9F3C0
:101310008833F9F68093A60285ECB0C0803509F4D5
:1013200085C0883509F496C0883499F60E941B0858
:10133000D0CF883909F48CC038F5883729F050F4BB
:10134000883611F0803729F683E08093A802109246
:10135000190257C0883809F47BC0803919F08038E9
:1013600009F0B7CF80911902803208F071C0E09186
:10137000190281E08E0F809319028091BB00F0E08A
:10138000E750FE4F80833DC0803B39F0E0F4803A67
:1013900009F479C0883A09F09CCF84E08093A802D0
:1013A0001092F8011092F701E0912502F0912602C7
:1013B00009958091F70181110FC081E08093F701B9
:1013C0001092D70109C0803C09F4A6CF883C09F4EB
:1013D000A3CF883B09F07DCFE091F80181E08E0F2B
:1013E0008093F801F0E0E952FE4F80818093BB00CA
:1013F0009091F8018091F70129C080918302809338
:10140000BB0085EC8093BC0064CF9091A5028091D5
:10141000A402981758F5E091A50281E08E0F809301
:10142000A502F0E0EC57FD4F8081E9CFE091A502E5
:1014300081E08E0F8093A5028091BB00F0E0EC5715
:10144000FD4F80839091A5028091A4029817C8F265
:1014500085E8D8CFE091A50281E08E0F8093A502A8
:101460008091BB00F0E0EC57FD4F80838091A70294
:1014700081115CCF81E08093820284EA8093BC007A
:101480001092A80226CF85EC8093BC001092A8028F
:1014900080911902803230F4E0911902F0E0E750B7
:1014A000FE4F10826091190270E0E0912302F091EA
:1014B000240289EF91E00995109219020ACF109247
:1014C000A60234CFE2EDF2E01382128288EE93E0BE
:1014D000A0E0B0E084839583A683B78328E031E061
:1014E0003183208325EC30E03587248724EC30E0FD
:1014F0003787268720EC30E0318B208B21EC30E0E1
:10150000338B228B22EC30E0358B248B26EC30E0C1
:10151000378B268B118E128E138E148EEFE6F3E02E
:101520001382128284839583A683B7838AE191E034
:1015300091838083EFEDF3E0108211821282138297
:101540001482158216821782E9EDF3E0118210826F
:1015500088E090E09383828388EE93E09583848390
:10156000E3EDF3E01182108289E090E093838283BF
:1015700080ED97E0958384838AE090E090937C03EC
:1015800080937B030895CF93DF93CDB7DEB7C95522
:10159000D1090FB6F894DEBF0FBECDBF789484B5E5
:1015A000826084BD84B5816084BD85B5826085BD5F
:1015B00085B5816085BD80916E00816080936E00ED
:1015C00010928100809181008260809381008091DF
:1015D0008100816080938100809180008160809390
:1015E00080008091B10084608093B1008091B00050
:1015F00081608093B00080917A00846080937A004B
:1016000080917A00826080937A0080917A00816074
:1016100080937A0080917A00806880937A0010929B
:10162000C100E091E202F091E30282E08083E09168
:10163000DE02F091DF021082E091E002F091E1021F
:101640008FEC80831092EA02E091E602F091E702CB
:1016500086E08083E091E402F091E5028081806180
:101660008083E091E402F091E502808188608083CC
:10167000E091E402F091E502808180688083E0914E
:10168000E402F091E50280818F7D80831092280230
:10169000109227021092AF021092D1020E944C03C6
:1016A0008BEE90E090932602809325028CEE90E0E2
:1016B0009093240280932302BE016F5F7F4F80EDE1
:1016C0000E947B0689818535C9F510924B026CE436
:1016D00072E08AEA0E9462066EE472E08CEA0E947E
:1016E000620660E572E08EEA0E94620662E572E0E0
:1016F00080EB0E940C0664E572E082EB0E940C060F
:1017000066E572E084EB0E940C0668E572E086EB09
:101710000E9462066AE572E088EB0E9462066CE550
:1017200072E08AEB0E9462066EE572E08CEB0E942A
:10173000620660E672E08EEB0E9462066091DD0355
:101740007091DE03072E000C880B990B0E94E502B6
:1017500060E082E00E947A0260E083E00E947A0208
:1017600061E086E00E947A0261E087E00E947A02EE
:1017700061E085E00E947A0280E090E0A8ECB3E4AA
:101780008093430290934402A0934502B093460293
:1017900080E090E0A0ECB1E48093370290933802AF
:1017A000A0933902B0933A0210923302109234029D
:1017B000109235021092360280E090E0A0E8B1E489
:1017C00080932F0290933002A0933102B0933202A3
:1017D00083E090E090932A02809329028FED95E0B8
:1017E0009093010180930001809169008360809350
:1017F0006900E89A6091D7037091D803072E000C16
:10180000880B990B0E94E5021E0129E4220E311C6F
:101810000E9418036A967FAF6EAF6A9780912B0281
:1018200090912C02A0912D02B0912E0268968CAF5F
:101830009DAFAEAFBFAF68970E9418032B013C016C
:101840008091470290914802A0914902B0914A02CA
:10185000A3019201281B390B4A0B5B0BCA01B9018A
:101860000E94CC1360966CAF7DAF8EAF9FAF609738
:1018700068962CAD3DAD4EAD5FAD6897609143026B
:101880007091440280914502909146020E94881511
:101890006B017C01AC019B0160966CAD7DAD8EADA2
:1018A0009FAD60970E942D1420913F02309140021D
:1018B00040914102509142020E9489154B015C0106
:1018C00080923F0290924002A0924102B092420266
:1018D00020913702309138024091390250913A02FA
:1018E000C701B6010E942D1464966CAF7DAF8EAF18
:1018F0009FAF6497209133023091340240913502BA
:1019000050913602C501B4010E942D149B01AC0117
:1019100064966CAD7DAD8EAD9FAD64970E948915C8
:101920004B015C0120913B0230913C0240913D0211
:1019300050913E02C701B6010E94881560962CADF9
:101940003DAD4EAD5FAD60970E94F51520912F0221
:101950003091300240913102509132020E942D1498
:101960009B01AC01C501B4010E9489154B015C01CA
:10197000C0923B02D0923C02E0923D02F0923E02C5
:1019800040924702509248026092490270924A0285
:101990007C016B01E894F7F820E030E04FE753E476
:1019A000C701B6010E949D1620E030E0A90118167B
:1019B0000CF45FC5C501B4010E94C7130FEF1FEF00
:1019C00087FD02C001E010E0C701B6010E94671662
:1019D0004B017B0161E085E00E947A028114910451
:1019E00029F460E085E00E944C022DC03FEF831691
:1019F000910411F461E0F6CFE0E7F1E0E491E33027
:101A000009F423C350F4E130D1F0E23009F418C3F3
:101A100040E8E416F10474F7E4CFE73009F41FC39B
:101A2000E83009F424C3E43099F7809180008062A3
:101A30008093800090928B0080928A0004C084B5CD
:101A4000806884BD87BC61E087E00130110509F43E
:101A500016C360E087E00F3F1F4F09F010C30E94DC
:101A60004C0261E086E00E944C02CE0101960E9489
:101A70003B06809156029091570229813A814B8111
:101A80005C81281B390B41095109A0915402B09186
:101A900055020E940D156B017C019FE0F594E794BF
:101AA000D794C7949A95D1F760915E0270915F02C6
:101AB000072E000C880B990B2BE0660F771F881FF1
:101AC000991F2A95D1F72091600230916102032E6F
:101AD000000C440B550B2C0D3D1D4E1D5F1D0E942F
:101AE000EE14CA01B9016C0D7D1D8E1D9F1D685F2E
:101AF0007F4F8F4F9F4F34E09595879577956795EA
:101B00003A95D1F70E94CE1320E030E040E251E454
:101B10000E94F51564966CAF7DAF8EAF9FAF649752
:101B200019821A821B821C82CE0101960E943B06FA
:101B300010914B02812F8295880F880F807C8C5CDE
:101B40000E94C30568E070E080E090E0113081F011
:101B500065E070E080E090E0113050F06EE070E001
:101B600080E090E0123021F06AE170E080E090E0E7
:101B70000E94E502B10186EF0E940C06D101CD90D2
:101B8000DC90F12CE12CFE2CED2CDC2CCC24BE01C5
:101B9000655B7F4F88EF0E947B062C968FAD2C975C
:101BA000A7019601280F311D411D511D60962CAFD4
:101BB0003DAF4EAF5FAF6097809156029091570254
:101BC00029813A814B815C81281B390B41095109DC
:101BD000A0915402B09155020E940D156B017C0139
:101BE000AFE0F594E794D794C794AA95D1F76091A4
:101BF0005E0270915F02072E000C880B990BBBE010
:101C0000660F771F881F991FBA95D1F72091600240
:101C100030916102032E000C440B550B2C0D3D1D21
:101C20004E1D5F1D0E94EE14C20ED31EE41EF51E53
:101C300030EAC31A3FE0D30AE108F108A701960190
:101C4000C701B6010E942C182B013C010CE07594D1
:101C50006794579447940A95D1F7A0915002B09198
:101C600051020E9418154B015C018DE0B594A794B8
:101C7000979487948A95D1F7A0915802B091590210
:101C8000A30192010E9418159C01552737FD50951C
:101C9000452F280D391D4A1D5B1D2E5F3F4F4F4FAD
:101CA0005F4F62E055954795379527956A95D1F72F
:101CB00030584F4F5F4FA0915202B09153020E9493
:101CC0000D154B015C017FE0B694A794979487941F
:101CD0007A95D1F788E090E0811B910960962CAD50
:101CE0003DAD4EAD5FAD609704C0559547953795B6
:101CF00027958A95D2F760962CAF3DAF4EAF5FAF78
:101D00006097A0915A02B0915B02A30192010E94D8
:101D100018152B013C01EBE0759467945794479498
:101D2000EA95D1F7A0914E02B0914F02A70196011A
:101D30000E941815FBE09595879577956795FA951C
:101D4000D1F7460E571E681E791E80914C02909165
:101D50004D02092E000CAA0BBB0B02E0880F991F45
:101D6000AA1FBB1F0A95D1F7840D951DA61DB71D8F
:101D70002C013D01012E04C0440C551C661C771C2F
:101D80000A94D2F732E0430E511C611C711C82E0B0
:101D900075946794579447948A95D1F760962CADC3
:101DA0003DAD4EAD5FAD6097241935094609570921
:101DB00060E573EC80E090E004C095958795779599
:101DC00067951A95D2F70E942C1897FD5CC1660F93
:101DD000771F881F991FA50194010E94571569015B
:101DE0007A019927F7FC9A958F2D7E2D6D2D9B01F9
:101DF000AC010E942C189B01AC01AEEDBBE00E942F
:101E00000D154B015C01A3E4B3EEA70196010E94FE
:101E10001B15BC01992777FD9095892F4501BB249F
:101E200097FCB094AB2C680D791D8A1D9B1D6153E6
:101E3000714F8F4F9F4F44E09595879577956795A4
:101E40004A95D1F76C0D7D1D8E1D9F1D0E94CE13EE
:101E50002B013C0120E836EE45EC57E40E94F515D5
:101E60002EEA3CED42E45EE30E94A2169B01AC0127
:101E700060E070E080E89FE30E94881520E03AE28D
:101E80004DE257E40E942D1460966CAF7DAF8EAF8B
:101E90009FAF60978091D9030E94AB028C01BC0177
:101EA000990F880B990B0E94CE136B017C012AE9D4
:101EB00039E949E850E40E949D1687FFEFC020E011
:101EC00030E040E250E4C701B6010E94C713181683
:101ED0000CF0E7C087E391E00E942E0784EF91E0C9
:101EE000089FB001099F700D189F700D1124072ED7
:101EF000000C880B990B0E94CE132AE939E949E8B6
:101F000050E40E94F5150E946716CB010E94F0066E
:101F10008CE391E00E942E0760E08091DB030E9439
:101F20007A028091DB030E942302892B21F081E455
:101F300091E00E9420078AE291E00E9420078091B0
:101F4000D3030E94AB028C0182E591E00E942E0730
:101F500024EE35E2D8010E9450182FEF33E040E024
:101F600050E00E94EE14DA01C901845D9E4FAF4F2C
:101F7000BF4F0E94F00660E08091D5030E947A0274
:101F80008091D5030E942302892B21F081E491E006
:101F90000E942E078AE291E00E94200761E0809172
:101FA0007B030E947A0261E080917B030E944C02D5
:101FB00068EE73E080E090E00E94E50260E08091CE
:101FC0007B030E944C0262E170E080E090E00E949E
:101FD000E50261E080917B030E944C028BE990E076
:101FE0000197F1F760E080917B030E947A02809173
:101FF0007B030E9423027C01892B09F055C080914C
:102000007B030E942302892BD1F380917B030E94E2
:1020100023020197D1F302E813E0D12CC12CB12C9B
:10202000A12C460141E08422992483E00E942302EE
:102030008815990509F04EC15FEFA51AB50AF5CFCD
:1020400084B5806284BD88BCFECC809180008068AD
:10205000809380009092890080928800F4CC8091D7
:10206000B00080688093B0008092B300ECCC809187
:10207000B00080628093B0008092B400E4CC0E94F3
:102080004C0260E0EFCCA50194010E945715690154
:102090007A01CC0CDD1CEE1CFF1CA3CE04E010E08A
:1020A00019CF02E010E016CF81E691E00E942007F0
:1020B00080E991E00E942E0760917E0370E090E03D
:1020C00080E04AE00E94AC0688E991E00E942E0779
:1020D0006091800370E090E080E04AE00E94AC06EE
:1020E00088E291E00E949F068AE991E00E942E0713
:1020F00060917D0370E090E080E04AE00E94AC06D1
:1021000088E991E00E942E0760917F0370E090E0E3
:1021100080E04AE00E94AC0688E291E00E949F06BF
:102120006A96EEADFFAD6A97E93FFA420CF45BC1E7
:102130000E9418036B017C010E9418036C197D0931
:102140008E099F09663971058105910508F029C13D
:1021500082ED92E00E944B01892B71F382ED92E0B7
:102160000E942901849741F78E010F5F1F4F0E9443
:1021700018036093DA027093DB028093DC02909381
:10218000DD0282ED92E00E94290197FF7FC10E944B
:1021900018038090DA029090DB02A090DC02B090ED
:1021A000DD02681979098A099B098090D60290900E
:1021B000D702A090D802B090D902681579058A0597
:1021C0009B05F8F229961FAE29978B81873409F079
:1021D000B3CF8C81873409F0AFCF8D81813409F082
:1021E000ABCFCE0142960E9452124B015C010E947D
:1021F0006716CB0164E670E00E943C188B01B4E6E0
:10220000B09FB001B19F700D1124072E000C880BF8
:10221000990B0E94CE139B01AC01C501B4010E9431
:10222000881520E030E040E752E40E94F5154B01AC
:102230005C01B801110F880B990B0E94CE139B0112
:10224000AC01C501B4010E9489156093DF0370934E
:10225000E0038093E1039093E203CE014E960E9447
:1022600052124B015C010E946716CB0164E670E0DC
:102270000E943C188B01E4E6E09FB001E19F700DE5
:102280001124072E000C880B990B0E94CE139B0182
:10229000AC01C501B4010E94881520E030E040E7A0
:1022A00052E40E94F5154B015C01B801110F880B37
:1022B000990B0E94CE139B01AC01C501B4010E9491
:1022C00089156093E3037093E4038093E50390938F
:1022D000E60332CFD801AD928D01BFEFCB1ADB0AF6
:1022E000E0E5CE16D10409F09ACE40917D0390919D
:1022F0007F0320917E038091800360918103EBE74F
:10230000F3E05781308578E0E716F1048CF4440F50
:10231000531708F44160990F531708F49160220F86
:10232000531708F42160880F531770F481600CC0B4
:10233000A0E1EA16F1047CF3B8E1EB16F1047CF3BA
:1023400070E2E716F1047CF3660F531708F461603E
:10235000AFEFEA1AFA0A3296B8E2EB16F10489F600
:10236000609381038093800320937E0390937F0387
:1023700040937D03490F5527551F240F352F311DDD
:10238000820F932F911D6817190639F084E791E0A9
:102390000E9420071092D2038BCE81E08093D2035B
:1023A00087CE80EA91E00E942E076091DF03709152
:1023B000E0038091E1039091E20346E00E94300740
:1023C0008BEA91E00E942E076091E3037091E40391
:1023D0008091E5039091E60346E00E94300788E291
:1023E00091E00E949F068EEA91E00E942E0764967B
:1023F0006CAD7DAD8EAD9FAD64970E940C088BEBEC
:1024000091E00E942E0720E030E048EC52E4C30146
:10241000B2010E94F5150E940C0885EC91E00E9423
:102420002E0760966CAD7DAD8EAD9FAD60970E941E
:102430000C088FEC91E00E942E0768966CAD7DAD84
:102440008EAD9FAD68970E940C0880E090E0892BCC
:1024500009F4DEC90E945701882309F4D9C90E94F2
:102460000000D6C961E085E00E947A020FEF1FEFFD
:10247000C1CAC501B4010E94C71387FDF3CFC12CA7
:10248000D12C8FE7E82E83E4F82E9CCA8A30910580
:1024900009F498CED8018D938D012A163B0609F0D8
:1024A00066CE90CE662777270C945612B0E0A0E057
:1024B000ECE5F2E10C9426155C017B0161157105D8
:1024C00019F0DB018D939C9385010F5F1F4FF50180
:1024D000D0818D2F90E00E94A6136C01892BB9F555
:1024E000DD32B9F50F5F1F4FD5011196DC91C1E0C8
:1024F0005801F1E0AF1AB10843E050E062EF70E03C
:10250000C5010E94AF13892B69F5680182E0C80EEE
:10251000D11C45E050E06DEE70E0C6010E94AF13A3
:10252000892B21F4680197E0C90ED11CE114F10454
:1025300019F0D701CD92DC9260E070E080E89FEF67
:10254000C111FFC060E070E080E89FE7FAC0580169
:10255000BBCFDB3229F485010E5F1F4FF501D1811E
:10256000C0E0C6CF43E050E06AEE70E0C5010E94D3
:10257000AF13892BE9F0F80110E000E020E030E033
:10258000A9015F01B0ED8B2E8D0E89E08815C8F191
:102590009C2E689491F88C2F8870C2FF16C0811110
:1025A00002C00F5F1F4F3196D501DC91C92DE9CFD5
:1025B000E114F10429F00E5F1F4FF701118300832E
:1025C00060E070E080EC9FE7BCC0882311F0015010
:1025D0001109A5E0B0E00E940D159B01AC01220F8E
:1025E000331F441F551F280D311D411D511D283912
:1025F00099E93907490799E15907A8F2C6609C2E65
:10260000D2CFAEEF8A1206C0C3FD3CC09C2E6894A8
:1026100093F8C9CFDF7DD534A9F580818D3239F4A7
:10262000C061DF011296818162E070E006C0DF01C7
:102630008B32C1F3119661E070E080535D01A61A00
:10264000B70A8A30F8F4E0E8CE16ECE0DE065CF477
:10265000B601660F771F660F771FC60ED71ECC0C0C
:10266000DD1CC80ED11C5D01FFEFAF1ABF0A8C91B3
:1026700080538A30A8F1C4FF03C0D194C194D1081B
:102680000C0D1D1DC1FF09C0E114F10431F081E002
:10269000A81AB108D701AD92BC92CA01B9010E9433
:1026A000CC13C370C33009F490584B015C0120E097
:1026B00030E0A9010E94C713882309F440C0C1E299
:1026C000D1E017FF05C0119501951109C9E0D1E0CE
:1026D0006E01B8E1CB1AD10880E2E82EF12C0FC0D0
:1026E000D501B1CFFE0125913591459154910E1937
:1026F0001F09C501B4010E942D144B015C01D501D5
:10270000C4010E151F0574F72497F594E794CC16B1
:10271000DD06A9F78A2F880F8B2F881F8F3F49F07E
:1027200020E030E0A901C501B4010E94C713811166
:1027300006C082E290E09093E8038093E703C5012E
:10274000B401CDB7DEB7ECE00C94421591110C94B6
:102750009A14803219F089508550C8F70895FB010A
:10276000DC014150504088F08D9181341CF08B3554
:102770000CF4805E659161341CF06B350CF4605E86
:10278000861B611171F3990B0895881BFCCF0E9481
:10279000091408F481E00895E89409C097FB3EF419
:1027A00090958095709561957F4F8F4F9F4F99239E
:1027B000A9F0F92F96E9BB279395F695879577951C
:1027C0006795B795F111F8CFFAF4BB0F11F460FFDC
:1027D0001BC06F5F7F4F8F4F9F4F16C0882311F034
:1027E00096E911C0772321F09EE8872F762F05C048
:1027F000662371F096E8862F70E060E02AF09A95E3
:10280000660F771F881FDAF7880F9695879597F9D7
:102810000895990F0008550FAA0BE0E8FEEF161671
:102820001706E807F907C0F012161306E407F507C4
:1028300098F0621B730B840B950B39F40A2661F038
:10284000232B242B252B21F408950A2609F4A140DB
:10285000A6958FEF811D811D08950E9440140C9450
:10286000B4140E94A61438F00E94AD1420F09523F1
:1028700011F00C949D140C94A31411240C94E814DE
:102880000E94C51470F3959FC1F3950F50E0551F3A
:10289000629FF001729FBB27F00DB11D639FAA27B5
:1028A000F00DB11DAA1F649F6627B00DA11D661F04
:1028B000829F2227B00DA11D621F739FB00DA11D25
:1028C000621F839FA00D611D221F749F3327A00DDF
:1028D000611D231F849F600D211D822F762F6A2F7B
:1028E00011249F5750409AF0F1F088234AF0EE0FE0
:1028F000FF1FBB1F661F771F881F91505040A9F70D
:102900009E3F510580F00C949D140C94E8145F3F99
:10291000E4F3983ED4F3869577956795B795F79548
:10292000E7959F5FC1F7FE2B880F911D96958795C0
:1029300097F9089599278827089597F99F6780E860
:1029400070E060E008959FEF80EC089500240A9401
:102950001616170618060906089500240A9412167A
:102960001306140605060895092E0394000C11F4AD
:10297000882352F0BB0F40F4BF2B11F460FF04C05A
:102980006F5F7F4F8F4F9F4F089557FD9058440FB3
:10299000551F59F05F3F71F04795880F97FB991FBE
:1029A00061F09F3F79F0879508951216130614067B
:1029B000551FF2CF4695F1DF08C016161706180608
:1029C000991FF1CF86957105610508940895E894E3
:1029D000BB2766277727CB0197F90895052E97FB2C
:1029E0001EF400940E94051557FD07D00E9457154C
:1029F00007FC03D04EF40C94051550954095309586
:102A000021953F4F4F4F5F4F08959095809570955A
:102A100061957F4F8F4F9F4F08950E947915A59F15
:102A2000900DB49F900DA49F800D911D11240895C9
:102A3000B7FF0C940D150E940D15821B930B089582
:102A40002F923F924F925F926F927F928F929F92BE
:102A5000AF92BF92CF92DF92EF92FF920F931F93AC
:102A6000CF93DF93CDB7DEB7CA1BDB0B0FB6F8945D
:102A7000DEBF0FBECDBF09942A88398848885F849D
:102A80006E847D848C849B84AA84B984C884DF800E
:102A9000EE80FD800C811B81AA81B981CE0FD11DF2
:102AA0000FB6F894DEBF0FBECDBFED010895A1E2D1
:102AB0001A2EAA1BBB1BFD010DC0AA1FBB1FEE1FB8
:102AC000FF1FA217B307E407F50720F0A21BB30B03
:102AD000E40BF50B661F771F881F991F1A9469F77F
:102AE00060957095809590959B01AC01BD01CF01DB
:102AF0000895A29FB001B39FC001A39F700D811DD7
:102B00001124911DB29F700D811D1124911D0895F6
:102B10005058BB27AA270E94A0150C94B4140E94F9
:102B2000A61438F00E94AD1420F039F49F3F19F438
:102B300026F40C94A3140EF4E095E7FB0C949D147A
:102B4000E92F0E94C51458F3BA1762077307840768
:102B5000950720F079F4A6F50C94E7140EF4E095AF
:102B60000B2EBA2FA02D0B01B90190010C01CA0147
:102B7000A0011124FF27591B99F0593F50F4503EF2
:102B800068F11A16F040A22F232F342F4427585FE4
:102B9000F3CF469537952795A795F0405395C9F7FC
:102BA0007EF41F16BA0B620B730B840BBAF09150B4
:102BB000A1F0FF0FBB1F661F771F881FC2F70EC053
:102BC000BA0F621F731F841F48F487957795679526
:102BD000B795F7959E3F08F0B0CF9395880F08F012
:102BE0009927EE0F9795879508950E9409160C94E2
:102BF000B4140E94AD1458F00E94A61440F029F4B9
:102C00005F3F29F00C949D1451110C94E8140C941E
:102C1000A3140E94C51468F39923B1F3552391F3CB
:102C2000951B550BBB27AA2762177307840738F03B
:102C30009F5F5F4F220F331F441FAA1FA9F335D098
:102C40000E2E3AF0E0E832D091505040E695001C4C
:102C5000CAF72BD0FE2F29D0660F771F881FBB1F06
:102C6000261737074807AB07B0E809F0BB0B802DE4
:102C7000BF01FF2793585F4F3AF09E3F510578F010
:102C80000C949D140C94E8145F3FE4F3983ED4F345
:102C9000869577956795B795F7959F5FC9F7880FE4
:102CA000911D9695879597F90895E1E0660F771F36
:102CB000881FBB1F621773078407BA0720F0621BC7
:102CC000730B840BBA0BEE1F88F7E09508950E94F2
:102CD0006E166894B1110C94E81408950E94CD14F6
:102CE00088F09F5798F0B92F9927B751B0F0E1F0CD
:102CF000660F771F881F991F1AF0BA95C9F714C07D
:102D0000B13091F00E94E714B1E008950C94E714FB
:102D1000672F782F8827B85F39F0B93FCCF38695B5
:102D200077956795B395D9F73EF490958095709512
:102D300061957F4F8F4F9F4F08950E94091408F4AB
:102D40008FEF0895FA01EE0FFF1F30962105310530
:102D5000A1F16115710561F48038BFE39B0749F16A
:102D600068949038810561F08038BFEF9B0741F08F
:102D700099234AF5FF3FE1053105210519F1E89452
:102D80000894E795D901AA2329F4AB2FBE2FF85F49
:102D9000D0F310C0FF5F70F4A695E0F7F73950F05C
:102DA00019F0FF3A38F49F779F930DD00F9007FCEE
:102DB0009058089546F00C94A31460E070E080E809
:102DC0009FE308954FE79F775F934F933F932F9330
:102DD0000E94A2172F913F914F915F910E942D1455
:102DE0000C94FF160E940914880B990B089529F47E
:102DF00016F00C949D140C94E7140C94A3140E94E8
:102E0000CD14A8F39638A0F707F80F92E8942BE3B7
:102E10003AEA48EB5FE70E9443140F920F920F9239
:102E20004DB75EB70F920E94EA17E8E6F0E00E9405
:102E300031174F915F91EF91FF91E595EE1FFF1FC5
:102E400049F0FE57E0684427EE0F441FFA95E1F77A
:102E50004195550B0E9464170F9007FE0C9458176C
:102E60000895DF93CF931F930F93FF92EF92DF921A
:102E70007B018C01689406C0DA2EEF010E94401499
:102E8000FE01E894A5912591359145915591A6F3C0
:102E9000EF010E94A015FE019701A801DA9469F7DD
:102EA000DF90EF90FF900F911F91CF91DF910895E8
:102EB0009B01AC0160E070E080E89FE30C94F515A5
:102EC0000C949D140C941E180E94CD14D8F39923D1
:102ED000C9F3940F511DA3F39150504094F059F051
:102EE000882332F0660F771F881F91505040C1F73A
:102EF0009E3F51052CF7880F911D9695879597F960
:102F000008955F3FACF0983E9CF0BB27869577957F
:102F10006795B79508F4B1609395C1F7BB0F58F763
:102F200011F460FFE8CF6F5F7F4F8F4F9F4FE3CF6C
:102F30000C94E81416F00C941E180C94A3146894C6
:102F40000C949D140E94CD14A8F39923C1F3AEF301
:102F5000DF93CF931F930F93FF92C92FDD27882311
:102F60002AF02197660F771F881FDAF720E030E0FC
:102F700040E85FEB9FE3883920F0803E38F02196EF
:102F80008F770E948915E0E9F0E004C00E9489155E
:102F9000EDEBF0E00E9431178B01BE01EC01FB2E3E
:102FA0006F5771097595771F880B990B0E94CE1387
:102FB00028E132E741E35FE30E944014AF2D98011E
:102FC000AE01FF900F911F91CF91DF910E94A0154C
:102FD0000C94B414FA01DC01AA0FBB1F9B01AC01D5
:102FE000BF5728F4222733274427507820C0B751F1
:102FF00090F4AB2F0024469537952795011CA39597
:10300000D2F3002071F0220F331F441FB395DAF37F
:103010000ED00C94881561307105A0E88A07B94676
:1030200030F49B01AC01662777278827907830968B
:1030300021F0208331834283538308959F3F31F0F1
:10304000915020F4879577956795B795880F911DD6
:103050009695879597F90895DB018F939F930E942A
:103060000D15BF91AF91A29F800D911DA39F900D53
:10307000B29F900D1124089597FB072E16F400942B
:1030800007D077FD09D00E94571807FC05D03EF401
:10309000909581959F4F0895709561957F4F089504
:1030A0000E947915B7FF0895821B930B0895AA1B00
:1030B000BB1B51E107C0AA1FBB1FA617B70710F023
:1030C000A61BB70B881F991F5A95A9F78095909555
:1030D000BC01CD010895EE0FFF1F0590F491E02D86
:0630E0000994F894FFCFF3
:1030E60024032403000000008D01ED001A01DA011B
:1030F6004B0129013D010000000094056705DC0530
:103106003D0560054D053E050D0A006E616E0069C0
:103116006E66006F766600434F3A20002070706D31
:1031260000207C2047617320646574656374656460
:10313600210053656E736F722056616C75653A2077
:1031460000444854204E4F5420524553504F4E444D
:10315600494E47004552524F523A20444854207235
:10316600656164696E672069732077726F6E6700A8
:1031760054656D70203A20002E005248203A2000F7
:10318600506F736974696F6E3A20002C2000546585
:103196006D70657261747572653A0050726573730D
:1031A6007572653A00416C7469747564653A0050CD
:0631B6006F73203A2000B7
:00000001FF
